{
  "address": "0x3823CAebdD9bB92139Ac1A9f5d2ec14D73dcEf96",
  "abi": [
    {
      "anonymous": false,
      "inputs": [
        {
          "indexed": false,
          "internalType": "address",
          "name": "previousAdmin",
          "type": "address"
        },
        {
          "indexed": false,
          "internalType": "address",
          "name": "newAdmin",
          "type": "address"
        }
      ],
      "name": "AdminChanged",
      "type": "event"
    },
    {
      "anonymous": false,
      "inputs": [
        {
          "indexed": true,
          "internalType": "address",
          "name": "owner",
          "type": "address"
        },
        {
          "indexed": true,
          "internalType": "address",
          "name": "spender",
          "type": "address"
        },
        {
          "indexed": false,
          "internalType": "uint256",
          "name": "value",
          "type": "uint256"
        }
      ],
      "name": "Approval",
      "type": "event"
    },
    {
      "anonymous": false,
      "inputs": [
        {
          "indexed": true,
          "internalType": "address",
          "name": "beacon",
          "type": "address"
        }
      ],
      "name": "BeaconUpgraded",
      "type": "event"
    },
    {
      "anonymous": false,
      "inputs": [
        {
          "indexed": true,
          "internalType": "address",
          "name": "account",
          "type": "address"
        },
        {
          "indexed": false,
          "internalType": "bool",
          "name": "blacklisted",
          "type": "bool"
        }
      ],
      "name": "Blacklisted",
      "type": "event"
    },
    {
      "anonymous": false,
      "inputs": [
        {
          "indexed": true,
          "internalType": "address",
          "name": "account",
          "type": "address"
        },
        {
          "indexed": false,
          "internalType": "bool",
          "name": "isExcluded",
          "type": "bool"
        }
      ],
      "name": "ExcludeFromFees",
      "type": "event"
    },
    {
      "anonymous": false,
      "inputs": [
        {
          "indexed": false,
          "internalType": "address",
          "name": "newMarketingAddress",
          "type": "address"
        }
      ],
      "name": "MarketingUpdated",
      "type": "event"
    },
    {
      "anonymous": false,
      "inputs": [
        {
          "indexed": false,
          "internalType": "address",
          "name": "account",
          "type": "address"
        }
      ],
      "name": "Paused",
      "type": "event"
    },
    {
      "anonymous": false,
      "inputs": [
        {
          "indexed": false,
          "internalType": "uint256",
          "name": "reflectionPercentage",
          "type": "uint256"
        },
        {
          "indexed": false,
          "internalType": "uint256",
          "name": "treasuryPercentage",
          "type": "uint256"
        },
        {
          "indexed": false,
          "internalType": "uint256",
          "name": "marketingPercentage",
          "type": "uint256"
        }
      ],
      "name": "PercentageUpdated",
      "type": "event"
    },
    {
      "anonymous": false,
      "inputs": [
        {
          "indexed": false,
          "internalType": "address",
          "name": "newReflectionAddress",
          "type": "address"
        }
      ],
      "name": "ReflectionUpdated",
      "type": "event"
    },
    {
      "anonymous": false,
      "inputs": [
        {
          "indexed": true,
          "internalType": "bytes32",
          "name": "role",
          "type": "bytes32"
        },
        {
          "indexed": true,
          "internalType": "bytes32",
          "name": "previousAdminRole",
          "type": "bytes32"
        },
        {
          "indexed": true,
          "internalType": "bytes32",
          "name": "newAdminRole",
          "type": "bytes32"
        }
      ],
      "name": "RoleAdminChanged",
      "type": "event"
    },
    {
      "anonymous": false,
      "inputs": [
        {
          "indexed": true,
          "internalType": "bytes32",
          "name": "role",
          "type": "bytes32"
        },
        {
          "indexed": true,
          "internalType": "address",
          "name": "account",
          "type": "address"
        },
        {
          "indexed": true,
          "internalType": "address",
          "name": "sender",
          "type": "address"
        }
      ],
      "name": "RoleGranted",
      "type": "event"
    },
    {
      "anonymous": false,
      "inputs": [
        {
          "indexed": true,
          "internalType": "bytes32",
          "name": "role",
          "type": "bytes32"
        },
        {
          "indexed": true,
          "internalType": "address",
          "name": "account",
          "type": "address"
        },
        {
          "indexed": true,
          "internalType": "address",
          "name": "sender",
          "type": "address"
        }
      ],
      "name": "RoleRevoked",
      "type": "event"
    },
    {
      "anonymous": false,
      "inputs": [
        {
          "indexed": false,
          "internalType": "uint256",
          "name": "id",
          "type": "uint256"
        }
      ],
      "name": "Snapshot",
      "type": "event"
    },
    {
      "anonymous": false,
      "inputs": [
        {
          "indexed": true,
          "internalType": "address",
          "name": "from",
          "type": "address"
        },
        {
          "indexed": true,
          "internalType": "address",
          "name": "to",
          "type": "address"
        },
        {
          "indexed": false,
          "internalType": "uint256",
          "name": "value",
          "type": "uint256"
        }
      ],
      "name": "Transfer",
      "type": "event"
    },
    {
      "anonymous": false,
      "inputs": [
        {
          "indexed": false,
          "internalType": "address",
          "name": "newTreasuryAddress",
          "type": "address"
        }
      ],
      "name": "TreasuryUpdated",
      "type": "event"
    },
    {
      "anonymous": false,
      "inputs": [
        {
          "indexed": false,
          "internalType": "address",
          "name": "account",
          "type": "address"
        }
      ],
      "name": "Unpaused",
      "type": "event"
    },
    {
      "anonymous": false,
      "inputs": [
        {
          "indexed": true,
          "internalType": "address",
          "name": "implementation",
          "type": "address"
        }
      ],
      "name": "Upgraded",
      "type": "event"
    },
    {
      "inputs": [],
      "name": "DEFAULT_ADMIN_ROLE",
      "outputs": [
        {
          "internalType": "bytes32",
          "name": "",
          "type": "bytes32"
        }
      ],
      "stateMutability": "view",
      "type": "function"
    },
    {
      "inputs": [],
      "name": "DOMAIN_SEPARATOR",
      "outputs": [
        {
          "internalType": "bytes32",
          "name": "",
          "type": "bytes32"
        }
      ],
      "stateMutability": "view",
      "type": "function"
    },
    {
      "inputs": [],
      "name": "RESCUER_ROLE",
      "outputs": [
        {
          "internalType": "bytes32",
          "name": "",
          "type": "bytes32"
        }
      ],
      "stateMutability": "view",
      "type": "function"
    },
    {
      "inputs": [],
      "name": "SNAPSHOTER",
      "outputs": [
        {
          "internalType": "bytes32",
          "name": "",
          "type": "bytes32"
        }
      ],
      "stateMutability": "view",
      "type": "function"
    },
    {
      "inputs": [
        {
          "internalType": "address",
          "name": "owner",
          "type": "address"
        },
        {
          "internalType": "address",
          "name": "spender",
          "type": "address"
        }
      ],
      "name": "allowance",
      "outputs": [
        {
          "internalType": "uint256",
          "name": "",
          "type": "uint256"
        }
      ],
      "stateMutability": "view",
      "type": "function"
    },
    {
      "inputs": [
        {
          "internalType": "address",
          "name": "spender",
          "type": "address"
        },
        {
          "internalType": "uint256",
          "name": "amount",
          "type": "uint256"
        }
      ],
      "name": "approve",
      "outputs": [
        {
          "internalType": "bool",
          "name": "",
          "type": "bool"
        }
      ],
      "stateMutability": "nonpayable",
      "type": "function"
    },
    {
      "inputs": [
        {
          "internalType": "address",
          "name": "spender",
          "type": "address"
        },
        {
          "internalType": "uint256",
          "name": "amount",
          "type": "uint256"
        }
      ],
      "name": "approveAndCall",
      "outputs": [
        {
          "internalType": "bool",
          "name": "",
          "type": "bool"
        }
      ],
      "stateMutability": "nonpayable",
      "type": "function"
    },
    {
      "inputs": [
        {
          "internalType": "address",
          "name": "spender",
          "type": "address"
        },
        {
          "internalType": "uint256",
          "name": "amount",
          "type": "uint256"
        },
        {
          "internalType": "bytes",
          "name": "data",
          "type": "bytes"
        }
      ],
      "name": "approveAndCall",
      "outputs": [
        {
          "internalType": "bool",
          "name": "",
          "type": "bool"
        }
      ],
      "stateMutability": "nonpayable",
      "type": "function"
    },
    {
      "inputs": [
        {
          "internalType": "address",
          "name": "account",
          "type": "address"
        }
      ],
      "name": "balanceOf",
      "outputs": [
        {
          "internalType": "uint256",
          "name": "",
          "type": "uint256"
        }
      ],
      "stateMutability": "view",
      "type": "function"
    },
    {
      "inputs": [
        {
          "internalType": "address",
          "name": "account",
          "type": "address"
        },
        {
          "internalType": "uint256",
          "name": "snapshotId",
          "type": "uint256"
        }
      ],
      "name": "balanceOfAt",
      "outputs": [
        {
          "internalType": "uint256",
          "name": "",
          "type": "uint256"
        }
      ],
      "stateMutability": "view",
      "type": "function"
    },
    {
      "inputs": [
        {
          "internalType": "uint256",
          "name": "amount",
          "type": "uint256"
        }
      ],
      "name": "burn",
      "outputs": [],
      "stateMutability": "nonpayable",
      "type": "function"
    },
    {
      "inputs": [
        {
          "internalType": "address",
          "name": "account",
          "type": "address"
        },
        {
          "internalType": "uint256",
          "name": "amount",
          "type": "uint256"
        }
      ],
      "name": "burnFrom",
      "outputs": [],
      "stateMutability": "nonpayable",
      "type": "function"
    },
    {
      "inputs": [],
      "name": "cap",
      "outputs": [
        {
          "internalType": "uint256",
          "name": "",
          "type": "uint256"
        }
      ],
      "stateMutability": "view",
      "type": "function"
    },
    {
      "inputs": [],
      "name": "decimals",
      "outputs": [
        {
          "internalType": "uint8",
          "name": "",
          "type": "uint8"
        }
      ],
      "stateMutability": "view",
      "type": "function"
    },
    {
      "inputs": [
        {
          "internalType": "address",
          "name": "spender",
          "type": "address"
        },
        {
          "internalType": "uint256",
          "name": "subtractedValue",
          "type": "uint256"
        }
      ],
      "name": "decreaseAllowance",
      "outputs": [
        {
          "internalType": "bool",
          "name": "",
          "type": "bool"
        }
      ],
      "stateMutability": "nonpayable",
      "type": "function"
    },
    {
      "inputs": [
        {
          "internalType": "address",
          "name": "account",
          "type": "address"
        },
        {
          "internalType": "bool",
          "name": "excluded",
          "type": "bool"
        }
      ],
      "name": "excludeFromFees",
      "outputs": [],
      "stateMutability": "nonpayable",
      "type": "function"
    },
    {
      "inputs": [
        {
          "internalType": "bytes32",
          "name": "role",
          "type": "bytes32"
        }
      ],
      "name": "getRoleAdmin",
      "outputs": [
        {
          "internalType": "bytes32",
          "name": "",
          "type": "bytes32"
        }
      ],
      "stateMutability": "view",
      "type": "function"
    },
    {
      "inputs": [
        {
          "internalType": "bytes32",
          "name": "role",
          "type": "bytes32"
        },
        {
          "internalType": "address",
          "name": "account",
          "type": "address"
        }
      ],
      "name": "grantRole",
      "outputs": [],
      "stateMutability": "nonpayable",
      "type": "function"
    },
    {
      "inputs": [
        {
          "internalType": "bytes32",
          "name": "role",
          "type": "bytes32"
        },
        {
          "internalType": "address",
          "name": "account",
          "type": "address"
        }
      ],
      "name": "hasRole",
      "outputs": [
        {
          "internalType": "bool",
          "name": "",
          "type": "bool"
        }
      ],
      "stateMutability": "view",
      "type": "function"
    },
    {
      "inputs": [
        {
          "internalType": "address",
          "name": "spender",
          "type": "address"
        },
        {
          "internalType": "uint256",
          "name": "addedValue",
          "type": "uint256"
        }
      ],
      "name": "increaseAllowance",
      "outputs": [
        {
          "internalType": "bool",
          "name": "",
          "type": "bool"
        }
      ],
      "stateMutability": "nonpayable",
      "type": "function"
    },
    {
      "inputs": [
        {
          "internalType": "string",
          "name": "name",
          "type": "string"
        },
        {
          "internalType": "string",
          "name": "symbol",
          "type": "string"
        },
        {
          "internalType": "uint256",
          "name": "cap",
          "type": "uint256"
        }
      ],
      "name": "initialize",
      "outputs": [],
      "stateMutability": "nonpayable",
      "type": "function"
    },
    {
      "inputs": [],
      "name": "isAddressSetted",
      "outputs": [
        {
          "internalType": "bool",
          "name": "",
          "type": "bool"
        }
      ],
      "stateMutability": "view",
      "type": "function"
    },
    {
      "inputs": [
        {
          "internalType": "address",
          "name": "",
          "type": "address"
        }
      ],
      "name": "isBlacklisted",
      "outputs": [
        {
          "internalType": "bool",
          "name": "",
          "type": "bool"
        }
      ],
      "stateMutability": "view",
      "type": "function"
    },
    {
      "inputs": [
        {
          "internalType": "address",
          "name": "",
          "type": "address"
        }
      ],
      "name": "isExcludedFromFees",
      "outputs": [
        {
          "internalType": "bool",
          "name": "",
          "type": "bool"
        }
      ],
      "stateMutability": "view",
      "type": "function"
    },
    {
      "inputs": [],
      "name": "lastSnapshotId",
      "outputs": [
        {
          "internalType": "uint256",
          "name": "",
          "type": "uint256"
        }
      ],
      "stateMutability": "view",
      "type": "function"
    },
    {
      "inputs": [],
      "name": "marketing",
      "outputs": [
        {
          "internalType": "address",
          "name": "",
          "type": "address"
        }
      ],
      "stateMutability": "view",
      "type": "function"
    },
    {
      "inputs": [],
      "name": "marketingPercentage",
      "outputs": [
        {
          "internalType": "uint256",
          "name": "",
          "type": "uint256"
        }
      ],
      "stateMutability": "view",
      "type": "function"
    },
    {
      "inputs": [],
      "name": "name",
      "outputs": [
        {
          "internalType": "string",
          "name": "",
          "type": "string"
        }
      ],
      "stateMutability": "view",
      "type": "function"
    },
    {
      "inputs": [
        {
          "internalType": "address",
          "name": "owner",
          "type": "address"
        }
      ],
      "name": "nonces",
      "outputs": [
        {
          "internalType": "uint256",
          "name": "",
          "type": "uint256"
        }
      ],
      "stateMutability": "view",
      "type": "function"
    },
    {
      "inputs": [],
      "name": "pause",
      "outputs": [],
      "stateMutability": "nonpayable",
      "type": "function"
    },
    {
      "inputs": [],
      "name": "paused",
      "outputs": [
        {
          "internalType": "bool",
          "name": "",
          "type": "bool"
        }
      ],
      "stateMutability": "view",
      "type": "function"
    },
    {
      "inputs": [
        {
          "internalType": "address",
          "name": "owner",
          "type": "address"
        },
        {
          "internalType": "address",
          "name": "spender",
          "type": "address"
        },
        {
          "internalType": "uint256",
          "name": "value",
          "type": "uint256"
        },
        {
          "internalType": "uint256",
          "name": "deadline",
          "type": "uint256"
        },
        {
          "internalType": "uint8",
          "name": "v",
          "type": "uint8"
        },
        {
          "internalType": "bytes32",
          "name": "r",
          "type": "bytes32"
        },
        {
          "internalType": "bytes32",
          "name": "s",
          "type": "bytes32"
        }
      ],
      "name": "permit",
      "outputs": [],
      "stateMutability": "nonpayable",
      "type": "function"
    },
    {
      "inputs": [
        {
          "internalType": "address",
          "name": "tokenAddress",
          "type": "address"
        },
        {
          "internalType": "uint256",
          "name": "tokenAmount",
          "type": "uint256"
        }
      ],
      "name": "recoverERC20",
      "outputs": [],
      "stateMutability": "nonpayable",
      "type": "function"
    },
    {
      "inputs": [],
      "name": "reflection",
      "outputs": [
        {
          "internalType": "address",
          "name": "",
          "type": "address"
        }
      ],
      "stateMutability": "view",
      "type": "function"
    },
    {
      "inputs": [],
      "name": "reflectionPercentage",
      "outputs": [
        {
          "internalType": "uint256",
          "name": "",
          "type": "uint256"
        }
      ],
      "stateMutability": "view",
      "type": "function"
    },
    {
      "inputs": [
        {
          "internalType": "bytes32",
          "name": "role",
          "type": "bytes32"
        },
        {
          "internalType": "address",
          "name": "account",
          "type": "address"
        }
      ],
      "name": "renounceRole",
      "outputs": [],
      "stateMutability": "nonpayable",
      "type": "function"
    },
    {
      "inputs": [
        {
          "internalType": "contract IERC20Upgradeable",
          "name": "tokenContract",
          "type": "address"
        },
        {
          "internalType": "address",
          "name": "to",
          "type": "address"
        },
        {
          "internalType": "uint256",
          "name": "amount",
          "type": "uint256"
        }
      ],
      "name": "rescueERC20",
      "outputs": [],
      "stateMutability": "nonpayable",
      "type": "function"
    },
    {
      "inputs": [
        {
          "internalType": "bytes32",
          "name": "role",
          "type": "bytes32"
        },
        {
          "internalType": "address",
          "name": "account",
          "type": "address"
        }
      ],
      "name": "revokeRole",
      "outputs": [],
      "stateMutability": "nonpayable",
      "type": "function"
    },
    {
      "inputs": [
        {
          "internalType": "address",
          "name": "account",
          "type": "address"
        },
        {
          "internalType": "bool",
          "name": "blacklisted",
          "type": "bool"
        }
      ],
      "name": "setBlacklist",
      "outputs": [],
      "stateMutability": "nonpayable",
      "type": "function"
    },
    {
      "inputs": [
        {
          "internalType": "address",
          "name": "newAddress",
          "type": "address"
        }
      ],
      "name": "setMarketing",
      "outputs": [],
      "stateMutability": "nonpayable",
      "type": "function"
    },
    {
      "inputs": [
        {
          "internalType": "uint256",
          "name": "reflectionPrctg",
          "type": "uint256"
        },
        {
          "internalType": "uint256",
          "name": "treasuryPrctg",
          "type": "uint256"
        },
        {
          "internalType": "uint256",
          "name": "marketingPrctg",
          "type": "uint256"
        }
      ],
      "name": "setPercentage",
      "outputs": [],
      "stateMutability": "nonpayable",
      "type": "function"
    },
    {
      "inputs": [
        {
          "internalType": "address",
          "name": "newAddress",
          "type": "address"
        }
      ],
      "name": "setReflection",
      "outputs": [],
      "stateMutability": "nonpayable",
      "type": "function"
    },
    {
      "inputs": [
        {
          "internalType": "address",
          "name": "newAddress",
          "type": "address"
        }
      ],
      "name": "setTreasury",
      "outputs": [],
      "stateMutability": "nonpayable",
      "type": "function"
    },
    {
      "inputs": [],
      "name": "snapshot",
      "outputs": [
        {
          "internalType": "uint256",
          "name": "",
          "type": "uint256"
        }
      ],
      "stateMutability": "nonpayable",
      "type": "function"
    },
    {
      "inputs": [
        {
          "internalType": "bytes4",
          "name": "interfaceId",
          "type": "bytes4"
        }
      ],
      "name": "supportsInterface",
      "outputs": [
        {
          "internalType": "bool",
          "name": "",
          "type": "bool"
        }
      ],
      "stateMutability": "view",
      "type": "function"
    },
    {
      "inputs": [],
      "name": "symbol",
      "outputs": [
        {
          "internalType": "string",
          "name": "",
          "type": "string"
        }
      ],
      "stateMutability": "view",
      "type": "function"
    },
    {
      "inputs": [],
      "name": "totalSupply",
      "outputs": [
        {
          "internalType": "uint256",
          "name": "",
          "type": "uint256"
        }
      ],
      "stateMutability": "view",
      "type": "function"
    },
    {
      "inputs": [
        {
          "internalType": "uint256",
          "name": "snapshotId",
          "type": "uint256"
        }
      ],
      "name": "totalSupplyAt",
      "outputs": [
        {
          "internalType": "uint256",
          "name": "",
          "type": "uint256"
        }
      ],
      "stateMutability": "view",
      "type": "function"
    },
    {
      "inputs": [],
      "name": "totalTax",
      "outputs": [
        {
          "internalType": "uint256",
          "name": "",
          "type": "uint256"
        }
      ],
      "stateMutability": "view",
      "type": "function"
    },
    {
      "inputs": [
        {
          "internalType": "address",
          "name": "recipient",
          "type": "address"
        },
        {
          "internalType": "uint256",
          "name": "amount",
          "type": "uint256"
        }
      ],
      "name": "transfer",
      "outputs": [
        {
          "internalType": "bool",
          "name": "",
          "type": "bool"
        }
      ],
      "stateMutability": "nonpayable",
      "type": "function"
    },
    {
      "inputs": [
        {
          "internalType": "address",
          "name": "recipient",
          "type": "address"
        },
        {
          "internalType": "uint256",
          "name": "amount",
          "type": "uint256"
        }
      ],
      "name": "transferAndCall",
      "outputs": [
        {
          "internalType": "bool",
          "name": "",
          "type": "bool"
        }
      ],
      "stateMutability": "nonpayable",
      "type": "function"
    },
    {
      "inputs": [
        {
          "internalType": "address",
          "name": "recipient",
          "type": "address"
        },
        {
          "internalType": "uint256",
          "name": "amount",
          "type": "uint256"
        },
        {
          "internalType": "bytes",
          "name": "data",
          "type": "bytes"
        }
      ],
      "name": "transferAndCall",
      "outputs": [
        {
          "internalType": "bool",
          "name": "",
          "type": "bool"
        }
      ],
      "stateMutability": "nonpayable",
      "type": "function"
    },
    {
      "inputs": [
        {
          "internalType": "address",
          "name": "sender",
          "type": "address"
        },
        {
          "internalType": "address",
          "name": "recipient",
          "type": "address"
        },
        {
          "internalType": "uint256",
          "name": "amount",
          "type": "uint256"
        }
      ],
      "name": "transferFrom",
      "outputs": [
        {
          "internalType": "bool",
          "name": "",
          "type": "bool"
        }
      ],
      "stateMutability": "nonpayable",
      "type": "function"
    },
    {
      "inputs": [
        {
          "internalType": "address",
          "name": "sender",
          "type": "address"
        },
        {
          "internalType": "address",
          "name": "recipient",
          "type": "address"
        },
        {
          "internalType": "uint256",
          "name": "amount",
          "type": "uint256"
        },
        {
          "internalType": "bytes",
          "name": "data",
          "type": "bytes"
        }
      ],
      "name": "transferFromAndCall",
      "outputs": [
        {
          "internalType": "bool",
          "name": "",
          "type": "bool"
        }
      ],
      "stateMutability": "nonpayable",
      "type": "function"
    },
    {
      "inputs": [
        {
          "internalType": "address",
          "name": "sender",
          "type": "address"
        },
        {
          "internalType": "address",
          "name": "recipient",
          "type": "address"
        },
        {
          "internalType": "uint256",
          "name": "amount",
          "type": "uint256"
        }
      ],
      "name": "transferFromAndCall",
      "outputs": [
        {
          "internalType": "bool",
          "name": "",
          "type": "bool"
        }
      ],
      "stateMutability": "nonpayable",
      "type": "function"
    },
    {
      "inputs": [],
      "name": "treasury",
      "outputs": [
        {
          "internalType": "address",
          "name": "",
          "type": "address"
        }
      ],
      "stateMutability": "view",
      "type": "function"
    },
    {
      "inputs": [],
      "name": "treasuryPercentage",
      "outputs": [
        {
          "internalType": "uint256",
          "name": "",
          "type": "uint256"
        }
      ],
      "stateMutability": "view",
      "type": "function"
    },
    {
      "inputs": [],
      "name": "unpause",
      "outputs": [],
      "stateMutability": "nonpayable",
      "type": "function"
    },
    {
      "inputs": [
        {
          "internalType": "address",
          "name": "newImplementation",
          "type": "address"
        }
      ],
      "name": "upgradeTo",
      "outputs": [],
      "stateMutability": "nonpayable",
      "type": "function"
    },
    {
      "inputs": [
        {
          "internalType": "address",
          "name": "newImplementation",
          "type": "address"
        },
        {
          "internalType": "bytes",
          "name": "data",
          "type": "bytes"
        }
      ],
      "name": "upgradeToAndCall",
      "outputs": [],
      "stateMutability": "payable",
      "type": "function"
    }
  ],
  "transactionHash": "0xe09b9382e829a0562810271d1a7275d57228ce907fa4666d9af14ae3adda4aad",
  "args": [],
  "solcInputHash": "94143a8b372ac3a914745ed631ce06bb",
  "bytecode": "0x60a06040523060601b60805234801561001757600080fd5b5060805160601c61423761004b60003960008181610e3501528181610e7501528181610fe7015261102701526142376000f3fe6080604052600436106103975760003560e01c80637ab56083116101dc578063b2118a8d11610102578063d8fbe994116100a0578063f0f442601161006f578063f0f4426014610ac6578063fce69f9814610ae6578063fe575a8714610b06578063fe85b42b14610b3757600080fd5b8063d8fbe99414610a15578063dd62ed3e14610a35578063de20308a14610a7b578063eb1e63ec14610a9257600080fd5b8063cae9ca51116100dc578063cae9ca511461099a578063cb2bb732146109ba578063d505accf146109d5578063d547741f146109f557600080fd5b8063b2118a8d1461093a578063c02466681461095a578063c1d34b891461097a57600080fd5b806391d148541161017a578063a217fddf11610149578063a217fddf146108c5578063a457c2d7146108da578063a9059cbb146108fa578063b119490e1461091a57600080fd5b806391d148541461085b57806395d89b411461087b5780639711715a14610890578063981b24d0146108a557600080fd5b8063837afbc0116101b6578063837afbc0146107f15780638456cb59146108065780638980f11f1461081b5780638b0414d51461083b57600080fd5b80637ab560831461079a5780637b1ad1d7146107b15780637ecebe00146107d157600080fd5b80633644e515116102c15780634ee2cd7e1161025f57806361d027b31161022e57806361d027b3146106ef57806370a0823114610710578063713725441461074657806379cc67901461077a57600080fd5b80634ee2cd7e146106765780634f1ef286146106965780634fbee193146106a95780635c975abb146106da57600080fd5b8063395093511161029b57806339509351146106015780633f4ba83a146106215780634000aea01461063657806342966c681461065657600080fd5b80633644e515146105ac57806336568abe146105c15780633659cfe6146105e157600080fd5b806323b872dd116103395780632f2ff15d116103085780632f2ff15d1461053b578063313ce5671461055b5780633177029f14610577578063355274ea1461059757600080fd5b806323b872dd1461048b578063248a9ca3146104ab578063268f8f77146104dc5780632d3e474a1461051a57600080fd5b80631296ee62116103755780631296ee6214610413578063153b0d1e1461043357806318160ddd146104555780631d1fb0c91461047457600080fd5b806301ffc9a71461039c57806306fdde03146103d1578063095ea7b3146103f3575b600080fd5b3480156103a857600080fd5b506103bc6103b7366004613ce3565b610b4e565b60405190151581526020015b60405180910390f35b3480156103dd57600080fd5b506103e6610b6e565b6040516103c89190613ed7565b3480156103ff57600080fd5b506103bc61040e366004613c03565b610c00565b34801561041f57600080fd5b506103bc61042e366004613c03565b610c16565b34801561043f57600080fd5b5061045361044e366004613b85565b610c39565b005b34801561046157600080fd5b506099545b6040519081526020016103c8565b34801561048057600080fd5b506104666102c65481565b34801561049757600080fd5b506103bc6104a6366004613a61565b610d32565b3480156104b757600080fd5b506104666104c6366004613ca5565b60009081526101f9602052604090206001015490565b3480156104e857600080fd5b506102c3546105029061010090046001600160a01b031681565b6040516001600160a01b0390911681526020016103c8565b34801561052657600080fd5b506102c554610502906001600160a01b031681565b34801561054757600080fd5b50610453610556366004613cbe565b610d55565b34801561056757600080fd5b50604051600981526020016103c8565b34801561058357600080fd5b506103bc610592366004613c03565b610d81565b3480156105a357600080fd5b5060c954610466565b3480156105b857600080fd5b50610466610d9d565b3480156105cd57600080fd5b506104536105dc366004613cbe565b610dac565b3480156105ed57600080fd5b506104536105fc366004613a0b565b610e2a565b34801561060d57600080fd5b506103bc61061c366004613c03565b610ef3565b34801561062d57600080fd5b50610453610f2f565b34801561064257600080fd5b506103bc610651366004613c2f565b610f43565b34801561066257600080fd5b50610453610671366004613ca5565b610f78565b34801561068257600080fd5b50610466610691366004613c03565b610f82565b6104536106a4366004613bb3565b610fdc565b3480156106b557600080fd5b506103bc6106c4366004613a0b565b6102c16020526000908152604090205460ff1681565b3480156106e657600080fd5b506103bc611092565b3480156106fb57600080fd5b506102c454610502906001600160a01b031681565b34801561071c57600080fd5b5061046661072b366004613a0b565b6001600160a01b031660009081526097602052604090205490565b34801561075257600080fd5b506104667fcf6f9f892731e14b8859835f2ff35575f447fb501f46243c4eb8bac19e31a05081565b34801561078657600080fd5b50610453610795366004613c03565b6110a1565b3480156107a657600080fd5b506104666102c75481565b3480156107bd57600080fd5b506104536107cc366004613a0b565b611122565b3480156107dd57600080fd5b506104666107ec366004613a0b565b611198565b3480156107fd57600080fd5b506104666111b7565b34801561081257600080fd5b506104536111c1565b34801561082757600080fd5b50610453610836366004613c03565b6111d5565b34801561084757600080fd5b50610453610856366004613a0b565b611214565b34801561086757600080fd5b506103bc610876366004613cbe565b61127d565b34801561088757600080fd5b506103e66112a9565b34801561089c57600080fd5b506104666112b8565b3480156108b157600080fd5b506104666108c0366004613ca5565b6112f4565b3480156108d157600080fd5b50610466600081565b3480156108e657600080fd5b506103bc6108f5366004613c03565b611320565b34801561090657600080fd5b506103bc610915366004613c03565b6113af565b34801561092657600080fd5b50610453610935366004613d1d565b6113c7565b34801561094657600080fd5b50610453610955366004613a61565b6114eb565b34801561096657600080fd5b50610453610975366004613b85565b61152a565b34801561098657600080fd5b506103bc610995366004613aa2565b611612565b3480156109a657600080fd5b506103bc6109b5366004613c2f565b611653565b3480156109c657600080fd5b506102c3546103bc9060ff1681565b3480156109e157600080fd5b506104536109f0366004613b0e565b6116c5565b348015610a0157600080fd5b50610453610a10366004613cbe565b61180c565b348015610a2157600080fd5b506103bc610a30366004613a61565b611833565b348015610a4157600080fd5b50610466610a50366004613a28565b6001600160a01b03918216600090815260986020908152604080832093909416825291909152205490565b348015610a8757600080fd5b506104666102c85481565b348015610a9e57600080fd5b506104667f5ab148f1d1bd666625ce84879016e3e7882fae77985c6c4f676e3383c230d06981565b348015610ad257600080fd5b50610453610ae1366004613a0b565b611850565b348015610af257600080fd5b50610453610b01366004613d8a565b6118b9565b348015610b1257600080fd5b506103bc610b21366004613a0b565b6102c26020526000908152604090205460ff1681565b348015610b4357600080fd5b506104666102c95481565b6000610b59826119a0565b80610b685750610b68826119d5565b92915050565b6060609a8054610b7d90614114565b80601f0160208091040260200160405190810160405280929190818152602001828054610ba990614114565b8015610bf65780601f10610bcb57610100808354040283529160200191610bf6565b820191906000526020600020905b815481529060010190602001808311610bd957829003601f168201915b5050505050905090565b6000610c0d3384846119fa565b50600192915050565b6000610c32838360405180602001604052806000815250610f43565b9392505050565b6000610c458133611b1e565b6001600160a01b03831660009081526102c2602052604090205460ff1615158215151415610cd05760405162461bcd60e51b815260206004820152602d60248201527f4163636f756e7420697320616c7265616479207468652076616c7565206f662060448201526c27626c61636b6c69737465642760981b60648201526084015b60405180910390fd5b6001600160a01b03831660008181526102c26020908152604091829020805460ff191686151590811790915591519182527fcf3473b85df1594d47b6958f29a32bea0abff9dd68296f7bf33443646793cfd891015b60405180910390a2505050565b6000610d3f848484611b82565b50610d4b848484611c21565b5060019392505050565b60008281526101f96020526040902060010154610d728133611b1e565b610d7c8383611dd2565b505050565b6000610c32838360405180602001604052806000815250611653565b6000610da7611e59565b905090565b6001600160a01b0381163314610e1c5760405162461bcd60e51b815260206004820152602f60248201527f416363657373436f6e74726f6c3a2063616e206f6e6c792072656e6f756e636560448201526e103937b632b9903337b91039b2b63360891b6064820152608401610cc7565b610e268282611ed6565b5050565b306001600160a01b037f0000000000000000000000000000000000000000000000000000000000000000161415610e735760405162461bcd60e51b8152600401610cc790613eea565b7f00000000000000000000000000000000000000000000000000000000000000006001600160a01b0316610ea5611f3e565b6001600160a01b031614610ecb5760405162461bcd60e51b8152600401610cc790613f36565b610ed481611f71565b60408051600080825260208201909252610ef091839190611fd9565b50565b3360008181526098602090815260408083206001600160a01b03871684529091528120549091610c0d918590610f2a908690614061565b6119fa565b6000610f3b8133611b1e565b610ef0612124565b6000610f4f84846113af565b50610f5c338585856121ba565b610d4b5760405162461bcd60e51b8152600401610cc790613f82565b610ef03382612278565b6001600160a01b038216600090815261028f6020526040812081908190610faa9085906123d2565b9150915081610fd1576001600160a01b038516600090815260976020526040902054610fd3565b805b95945050505050565b306001600160a01b037f00000000000000000000000000000000000000000000000000000000000000001614156110255760405162461bcd60e51b8152600401610cc790613eea565b7f00000000000000000000000000000000000000000000000000000000000000006001600160a01b0316611057611f3e565b6001600160a01b03161461107d5760405162461bcd60e51b8152600401610cc790613f36565b61108682611f71565b610e2682826001611fd9565b6000610da761025d5460ff1690565b60006110ad8333610a50565b90508181101561110b5760405162461bcd60e51b8152602060048201526024808201527f45524332303a206275726e20616d6f756e74206578636565647320616c6c6f77604482015263616e636560e01b6064820152608401610cc7565b61111883338484036119fa565b610d7c8383612278565b600061112e8133611b1e565b6102c38054610100600160a81b0319166101006001600160a01b038516021790556111576124c9565b6040516001600160a01b03831681527fb17b1085c482e9242145d9abbf42d7effa094c0a4573e624845ff23840fbaf49906020015b60405180910390a15050565b6001600160a01b03811660009081526101626020526040812054610b68565b6000610da761251f565b60006111cd8133611b1e565b610ef061252b565b7fcf6f9f892731e14b8859835f2ff35575f447fb501f46243c4eb8bac19e31a0506112008133611b1e565b610d7c6001600160a01b03841633846125a9565b60006112208133611b1e565b6102c580546001600160a01b0319166001600160a01b0384161790556112446124c9565b6040516001600160a01b03831681527feaf8ef35e433762aa696ae9447608369d638cec1961bd2317c4349bb5be9ee789060200161118c565b60009182526101f9602090815260408084206001600160a01b0393909316845291905290205460ff1690565b6060609b8054610b7d90614114565b60007f5ab148f1d1bd666625ce84879016e3e7882fae77985c6c4f676e3383c230d0696112e58133611b1e565b6112ed6125fb565b91505b5090565b6000806000611305846102906123d2565b915091508161131657609954611318565b805b949350505050565b3360009081526098602090815260408083206001600160a01b0386168452909152812054828110156113a25760405162461bcd60e51b815260206004820152602560248201527f45524332303a2064656372656173656420616c6c6f77616e63652062656c6f77604482015264207a65726f60d81b6064820152608401610cc7565b610d4b33858584036119fa565b60006113bc338484612656565b610c0d338484611c21565b600054610100900460ff166113e25760005460ff16156113e6565b303b155b6114025760405162461bcd60e51b8152600401610cc790613fc8565b600054610100900460ff16158015611424576000805461ffff19166101011790555b61142c61282f565b6114368484612858565b61145984604051806040016040528060018152602001603160f81b8152506128a6565b611462846128e9565b61146a61282f565b61147261282f565b61147b82612938565b61148361282f565b61148b61282f565b6114936129ac565b61149b612a1d565b6114a3612a85565b6114ae600033612ab9565b6114b83383612ac3565b3360009081526102c160205260409020805460ff1916600117905580156114e5576000805461ff00191690555b50505050565b7fcf6f9f892731e14b8859835f2ff35575f447fb501f46243c4eb8bac19e31a0506115168133611b1e565b6114e56001600160a01b03851684846125a9565b60006115368133611b1e565b6001600160a01b03831660009081526102c1602052604090205460ff16151582151514156115b95760405162461bcd60e51b815260206004820152602a60248201527f4163636f756e7420697320616c7265616479207468652076616c7565206f6620604482015269276578636c756465642760b01b6064820152608401610cc7565b6001600160a01b03831660008181526102c16020908152604091829020805460ff191686151590811790915591519182527f9d8f7706ea1113d1a167b526eca956215946dd36cc7df39eb16180222d8b5df79101610d25565b600061161f858585610d32565b5061162c858585856121ba565b6116485760405162461bcd60e51b8152600401610cc790613f82565b506001949350505050565b600061165f8484610c00565b5061166b848484612acd565b610d4b5760405162461bcd60e51b815260206004820152602560248201527f455243313336333a205f636865636b416e6443616c6c417070726f7665207265604482015264766572747360d81b6064820152608401610cc7565b834211156117155760405162461bcd60e51b815260206004820152601d60248201527f45524332305065726d69743a206578706972656420646561646c696e650000006044820152606401610cc7565b6000610163548888886117278c612b88565b6040805160208101969096526001600160a01b0394851690860152929091166060840152608083015260a082015260c0810186905260e001604051602081830303815290604052805190602001209050600061178282612bb1565b9050600061179282878787612bff565b9050896001600160a01b0316816001600160a01b0316146117f55760405162461bcd60e51b815260206004820152601e60248201527f45524332305065726d69743a20696e76616c6964207369676e617475726500006044820152606401610cc7565b6118008a8a8a6119fa565b50505050505050505050565b60008281526101f960205260409020600101546118298133611b1e565b610d7c8383611ed6565b600061131884848460405180602001604052806000815250611612565b600061185c8133611b1e565b6102c480546001600160a01b0319166001600160a01b0384161790556118806124c9565b6040516001600160a01b03831681527f7dae230f18360d76a040c81f050aa14eb9d6dc7901b20fc5d855e2a20fe814d19060200161118c565b60006118c58133611b1e565b610898826118d38587614061565b6118dd9190614061565b111561192b5760405162461bcd60e51b815260206004820152601760248201527f5461783a204d6178696d616c20546178206973203232250000000000000000006044820152606401610cc7565b6102c68490556102c78390556102c8829055816119488486614061565b6119529190614061565b6102c9556102c854604080518681526020810186905280820192909252517fdc5a6ff43d4bc77d157a8548d030d365d5e905062832400752bbf235de1bd2a19181900360600190a150505050565b60006001600160e01b0319821663b0202a1160e01b1480610b6857506301ffc9a760e01b6001600160e01b0319831614610b68565b60006001600160e01b03198216637965db0b60e01b1480610b685750610b68826119a0565b6001600160a01b038316611a5c5760405162461bcd60e51b8152602060048201526024808201527f45524332303a20617070726f76652066726f6d20746865207a65726f206164646044820152637265737360e01b6064820152608401610cc7565b6001600160a01b038216611abd5760405162461bcd60e51b815260206004820152602260248201527f45524332303a20617070726f766520746f20746865207a65726f206164647265604482015261737360f01b6064820152608401610cc7565b6001600160a01b0383811660008181526098602090815260408083209487168084529482529182902085905590518481527f8c5be1e5ebec7d5bd14f71427d1e84f3dd0314c0f7b2291e5b200ac8c7c3b925910160405180910390a3505050565b611b28828261127d565b610e2657611b40816001600160a01b03166014612c27565b611b4b836020612c27565b604051602001611b5c929190613dfe565b60408051601f198184030181529082905262461bcd60e51b8252610cc791600401613ed7565b6000611b8f848484612656565b6001600160a01b038416600090815260986020908152604080832033845290915290205482811015611c145760405162461bcd60e51b815260206004820152602860248201527f45524332303a207472616e7366657220616d6f756e74206578636565647320616044820152676c6c6f77616e636560c01b6064820152608401610cc7565b61164885338584036119fa565b6001600160a01b03831660009081526102c1602052604090205460ff1680611c6257506001600160a01b03821660009081526102c1602052604090205460ff165b610d7c576102c35460ff16611cb95760405162461bcd60e51b815260206004820152601f60248201527f546178203a2041646472657373206e6f742073657420636f72726563746c79006044820152606401610cc7565b60006102c95411611d175760405162461bcd60e51b815260206004820152602260248201527f546178203a2050657263656e74616765206e6f742073657420636f72726563746044820152616c7960f01b6064820152608401610cc7565b6000612710826102c654611d2b919061409b565b611d359190614079565b90506000612710836102c754611d4b919061409b565b611d559190614079565b90506000612710846102c854611d6b919061409b565b611d759190614079565b9050611d98856102c360019054906101000a90046001600160a01b031685612656565b6102c454611db19086906001600160a01b031684612656565b6102c554611dca9086906001600160a01b031683612656565b505050505050565b611ddc828261127d565b610e265760008281526101f9602090815260408083206001600160a01b03851684529091529020805460ff19166001179055611e153390565b6001600160a01b0316816001600160a01b0316837f2f8788117e7eff1d82e926ec794901d17c78024a50270940304540a733656f0d60405160405180910390a45050565b6000610da77f8b73c3c69bb8fe3d512ecc4cf759cc79239f7b179b0ffacaa9a75d522b39400f611e8961012e5490565b61012f546040805160208101859052908101839052606081018290524660808201523060a082015260009060c0016040516020818303038152906040528051906020012090509392505050565b611ee0828261127d565b15610e265760008281526101f9602090815260408083206001600160a01b0385168085529252808320805460ff1916905551339285917ff6391f5c32d9c69d2a47ea670b442974b53935d1edc7fd64eb21e047a839171b9190a45050565b60007f360894a13ba1a3210667c828492db98dca3e2076cc3735a920a3ca505d382bbc5b546001600160a01b0316919050565b611f79612dc3565b6001600160a01b0316336001600160a01b031614610ef05760405162461bcd60e51b815260206004820152601960248201527f4e6f7420746865204f776e6572206f6620436f6e7472616374000000000000006044820152606401610cc7565b6000611fe3611f3e565b9050611fee84612deb565b600083511180611ffb5750815b1561200c5761200a8484612e90565b505b7f4910fdfa16fed3260ed0e7147f7cc6da11a60208b5b9406d12a635614ffd9143805460ff1661211d57805460ff191660011781556040516001600160a01b038316602482015261208b90869060440160408051601f198184030181529190526020810180516001600160e01b0316631b2ce7f360e11b179052612e90565b50805460ff1916815561209c611f3e565b6001600160a01b0316826001600160a01b0316146121145760405162461bcd60e51b815260206004820152602f60248201527f45524331393637557067726164653a207570677261646520627265616b73206660448201526e75727468657220757067726164657360881b6064820152608401610cc7565b61211d85612f72565b5050505050565b61212c611092565b61216f5760405162461bcd60e51b815260206004820152601460248201527314185d5cd8589b194e881b9bdd081c185d5cd95960621b6044820152606401610cc7565b61025d805460ff191690557f5db9ee0a495bf2e6ff9c91a7834c1ba4fdd244a5e8aa4e537bd38aeae4b073aa335b6040516001600160a01b03909116815260200160405180910390a1565b60006001600160a01b0384163b6121d357506000611318565b604051632229f29760e21b81526000906001600160a01b038616906388a7ca5c906122089033908a9089908990600401613e73565b602060405180830381600087803b15801561222257600080fd5b505af1158015612236573d6000803e3d6000fd5b505050506040513d601f19601f8201168201806040525081019061225a9190613d00565b6001600160e01b031916632229f29760e21b14915050949350505050565b6001600160a01b0382166122d85760405162461bcd60e51b815260206004820152602160248201527f45524332303a206275726e2066726f6d20746865207a65726f206164647265736044820152607360f81b6064820152608401610cc7565b6122e482600083612fb2565b6001600160a01b038216600090815260976020526040902054818110156123585760405162461bcd60e51b815260206004820152602260248201527f45524332303a206275726e20616d6f756e7420657863656564732062616c616e604482015261636560f01b6064820152608401610cc7565b6001600160a01b03831660009081526097602052604081208383039055609980548492906123879084906140ba565b90915550506040518281526000906001600160a01b038516907fddf252ad1be2c89b69c2b068fc378daa952ba7f163c4a11628f55a4df523b3ef9060200160405180910390a3505050565b6000806000841161241e5760405162461bcd60e51b815260206004820152601660248201527504552433230536e617073686f743a20696420697320360541b6044820152606401610cc7565b61242661251f565b8411156124755760405162461bcd60e51b815260206004820152601d60248201527f4552433230536e617073686f743a206e6f6e6578697374656e742069640000006044820152606401610cc7565b600061248184866130b4565b845490915081141561249a5760008092509250506124c2565b60018460010182815481106124b1576124b1614175565b906000526020600020015492509250505b9250929050565b6102c35461010090046001600160a01b0316158015906124f457506102c4546001600160a01b031615155b801561250b57506102c5546001600160a01b031615155b6102c3805460ff1916911515919091179055565b6000610da76102925490565b612533611092565b156125735760405162461bcd60e51b815260206004820152601060248201526f14185d5cd8589b194e881c185d5cd95960821b6044820152606401610cc7565b61025d805460ff191660011790557f62e78cea01bee320cd4e420270b5ea74000d11b0c9f74754ebdbfc544b05a25861219d3390565b604080516001600160a01b038416602482015260448082018490528251808303909101815260649091019091526020810180516001600160e01b031663a9059cbb60e01b179052610d7c908490613177565b600061260c61029280546001019055565b600061261661251f565b90507f8030e83b04d87bef53480e26263266d6ca66863aa8506aca6f2559d18aa1cb678160405161264991815260200190565b60405180910390a1919050565b6001600160a01b0383166126ba5760405162461bcd60e51b815260206004820152602560248201527f45524332303a207472616e736665722066726f6d20746865207a65726f206164604482015264647265737360d81b6064820152608401610cc7565b6001600160a01b03821661271c5760405162461bcd60e51b815260206004820152602360248201527f45524332303a207472616e7366657220746f20746865207a65726f206164647260448201526265737360e81b6064820152608401610cc7565b612727838383612fb2565b6001600160a01b0383166000908152609760205260409020548181101561279f5760405162461bcd60e51b815260206004820152602660248201527f45524332303a207472616e7366657220616d6f756e7420657863656564732062604482015265616c616e636560d01b6064820152608401610cc7565b6001600160a01b038085166000908152609760205260408082208585039055918516815290812080548492906127d6908490614061565b92505081905550826001600160a01b0316846001600160a01b03167fddf252ad1be2c89b69c2b068fc378daa952ba7f163c4a11628f55a4df523b3ef8460405161282291815260200190565b60405180910390a36114e5565b600054610100900460ff166128565760405162461bcd60e51b8152600401610cc790614016565b565b600054610100900460ff1661287f5760405162461bcd60e51b8152600401610cc790614016565b815161289290609a9060208501906138ee565b508051610d7c90609b9060208401906138ee565b600054610100900460ff166128cd5760405162461bcd60e51b8152600401610cc790614016565b81516020928301208151919092012061012e9190915561012f55565b600054610100900460ff166129105760405162461bcd60e51b8152600401610cc790614016565b507f6e71edae12b1b97f4d1f60370fef10105fa2faae0126114a169c64845d6126c961016355565b600054610100900460ff1661295f5760405162461bcd60e51b8152600401610cc790614016565b600081116129a75760405162461bcd60e51b8152602060048201526015602482015274045524332304361707065643a20636170206973203605c1b6044820152606401610cc7565b60c955565b600054610100900460ff166129c75760005460ff16156129cb565b303b155b6129e75760405162461bcd60e51b8152600401610cc790613fc8565b600054610100900460ff16158015612a09576000805461ffff19166101011790555b8015610ef0576000805461ff001916905550565b600054610100900460ff16612a385760005460ff1615612a3c565b303b155b612a585760405162461bcd60e51b8152600401610cc790613fc8565b600054610100900460ff16158015612a7a576000805461ffff19166101011790555b612a09600033612ab9565b600054610100900460ff16612aac5760405162461bcd60e51b8152600401610cc790614016565b61025d805460ff19169055565b610e268282611dd2565b610e268282613249565b60006001600160a01b0384163b612ae657506000610c32565b6040516307b04a2d60e41b81526000906001600160a01b03861690637b04a2d090612b1990339088908890600401613eb0565b602060405180830381600087803b158015612b3357600080fd5b505af1158015612b47573d6000803e3d6000fd5b505050506040513d601f19601f82011682018060405250810190612b6b9190613d00565b6001600160e01b0319166307b04a2d60e41b149150509392505050565b6001600160a01b0381166000908152610162602052604090208054600181018255905b50919050565b6000610b68612bbe611e59565b8360405161190160f01b6020820152602281018390526042810182905260009060620160405160208183030381529060405280519060200120905092915050565b6000806000612c10878787876132b8565b91509150612c1d816133a5565b5095945050505050565b60606000612c3683600261409b565b612c41906002614061565b67ffffffffffffffff811115612c5957612c5961418b565b6040519080825280601f01601f191660200182016040528015612c83576020820181803683370190505b509050600360fc1b81600081518110612c9e57612c9e614175565b60200101906001600160f81b031916908160001a905350600f60fb1b81600181518110612ccd57612ccd614175565b60200101906001600160f81b031916908160001a9053506000612cf184600261409b565b612cfc906001614061565b90505b6001811115612d74576f181899199a1a9b1b9c1cb0b131b232b360811b85600f1660108110612d3057612d30614175565b1a60f81b828281518110612d4657612d46614175565b60200101906001600160f81b031916908160001a90535060049490941c93612d6d816140fd565b9050612cff565b508315610c325760405162461bcd60e51b815260206004820181905260248201527f537472696e67733a20686578206c656e67746820696e73756666696369656e746044820152606401610cc7565b60007fb53127684a568b3173ae13b9f8a6016e243e63b6e8ee1178d6a717850b5d6103611f62565b803b612e4f5760405162461bcd60e51b815260206004820152602d60248201527f455243313936373a206e657720696d706c656d656e746174696f6e206973206e60448201526c1bdd08184818dbdb9d1c9858dd609a1b6064820152608401610cc7565b7f360894a13ba1a3210667c828492db98dca3e2076cc3735a920a3ca505d382bbc80546001600160a01b0319166001600160a01b0392909216919091179055565b6060823b612eef5760405162461bcd60e51b815260206004820152602660248201527f416464726573733a2064656c65676174652063616c6c20746f206e6f6e2d636f6044820152651b9d1c9858dd60d21b6064820152608401610cc7565b600080846001600160a01b031684604051612f0a9190613de2565b600060405180830381855af49150503d8060008114612f45576040519150601f19603f3d011682016040523d82523d6000602084013e612f4a565b606091505b5091509150610fd382826040518060600160405280602781526020016141db60279139613560565b612f7b81612deb565b6040516001600160a01b038216907fbc7cd75a20ee27fd9adebab32041f755214dbc6bffa90cc0225b39da2e5c2d3b90600090a250565b61025d5460ff16156130195760405162461bcd60e51b815260206004820152602a60248201527f45524332305061757361626c653a20746f6b656e207472616e736665722077686044820152691a5b19481c185d5cd95960b21b6064820152608401610cc7565b6001600160a01b03831660009081526102c2602052604090205460ff1615801561305d57506001600160a01b03821660009081526102c2602052604090205460ff16155b6130a95760405162461bcd60e51b815260206004820152601d60248201527f426c61636b6c69737465643a207573657220626c61636b6c69737465640000006044820152606401610cc7565b610d7c838383613599565b81546000906130c557506000610b68565b82546000905b808210156131215760006130df83836135e1565b9050848682815481106130f4576130f4614175565b9060005260206000200154111561310d5780915061311b565b613118816001614061565b92505b506130cb565b600082118015613156575083856131396001856140ba565b8154811061314957613149614175565b9060005260206000200154145b1561316f576131666001836140ba565b92505050610b68565b509050610b68565b60006131cc826040518060400160405280602081526020017f5361666545524332303a206c6f772d6c6576656c2063616c6c206661696c6564815250856001600160a01b03166135fc9092919063ffffffff16565b805190915015610d7c57808060200190518101906131ea9190613c88565b610d7c5760405162461bcd60e51b815260206004820152602a60248201527f5361666545524332303a204552433230206f7065726174696f6e20646964206e6044820152691bdd081cdd58d8d9595960b21b6064820152608401610cc7565b60c9548161325660995490565b6132609190614061565b11156132ae5760405162461bcd60e51b815260206004820152601960248201527f45524332304361707065643a20636170206578636565646564000000000000006044820152606401610cc7565b610e26828261360b565b6000807f7fffffffffffffffffffffffffffffff5d576e7357a4501ddfe92f46681b20a08311156132ef575060009050600361339c565b8460ff16601b1415801561330757508460ff16601c14155b15613318575060009050600461339c565b6040805160008082526020820180845289905260ff881692820192909252606081018690526080810185905260019060a0016020604051602081039080840390855afa15801561336c573d6000803e3d6000fd5b5050604051601f1901519150506001600160a01b0381166133955760006001925092505061339c565b9150600090505b94509492505050565b60008160048111156133b9576133b961415f565b14156133c25750565b60018160048111156133d6576133d661415f565b14156134245760405162461bcd60e51b815260206004820152601860248201527f45434453413a20696e76616c6964207369676e617475726500000000000000006044820152606401610cc7565b60028160048111156134385761343861415f565b14156134865760405162461bcd60e51b815260206004820152601f60248201527f45434453413a20696e76616c6964207369676e6174757265206c656e677468006044820152606401610cc7565b600381600481111561349a5761349a61415f565b14156134f35760405162461bcd60e51b815260206004820152602260248201527f45434453413a20696e76616c6964207369676e6174757265202773272076616c604482015261756560f01b6064820152608401610cc7565b60048160048111156135075761350761415f565b1415610ef05760405162461bcd60e51b815260206004820152602260248201527f45434453413a20696e76616c6964207369676e6174757265202776272076616c604482015261756560f01b6064820152608401610cc7565b6060831561356f575081610c32565b82511561357f5782518084602001fd5b8160405162461bcd60e51b8152600401610cc79190613ed7565b6001600160a01b0383166135b8576135b0826136f6565b610d7c61372a565b6001600160a01b0382166135cf576135b0836136f6565b6135d8836136f6565b610d7c826136f6565b60006135f06002848418614079565b610c3290848416614061565b60606113188484600085613739565b6001600160a01b0382166136615760405162461bcd60e51b815260206004820152601f60248201527f45524332303a206d696e7420746f20746865207a65726f2061646472657373006044820152606401610cc7565b61366d60008383612fb2565b806099600082825461367f9190614061565b90915550506001600160a01b038216600090815260976020526040812080548392906136ac908490614061565b90915550506040518181526001600160a01b038316906000907fddf252ad1be2c89b69c2b068fc378daa952ba7f163c4a11628f55a4df523b3ef9060200160405180910390a35050565b6001600160a01b038116600090815261028f60209081526040808320609790925290912054610ef09190613861565b613861565b61285661029061372560995490565b60608247101561379a5760405162461bcd60e51b815260206004820152602660248201527f416464726573733a20696e73756666696369656e742062616c616e636520666f6044820152651c8818d85b1b60d21b6064820152608401610cc7565b843b6137e85760405162461bcd60e51b815260206004820152601d60248201527f416464726573733a2063616c6c20746f206e6f6e2d636f6e74726163740000006044820152606401610cc7565b600080866001600160a01b031685876040516138049190613de2565b60006040518083038185875af1925050503d8060008114613841576040519150601f19603f3d011682016040523d82523d6000602084013e613846565b606091505b5091509150613856828286613560565b979650505050505050565b600061386b61251f565b905080613877846138ab565b1015610d7c578254600180820185556000858152602080822090930193909355938401805494850181558252902090910155565b80546000906138bc57506000919050565b815482906138cc906001906140ba565b815481106138dc576138dc614175565b90600052602060002001549050919050565b8280546138fa90614114565b90600052602060002090601f01602090048101928261391c5760008555613962565b82601f1061393557805160ff1916838001178555613962565b82800160010185558215613962579182015b82811115613962578251825591602001919060010190613947565b506112f09291505b808211156112f0576000815560010161396a565b600082601f83011261398f57600080fd5b813567ffffffffffffffff808211156139aa576139aa61418b565b604051601f8301601f19908116603f011681019082821181831017156139d2576139d261418b565b816040528381528660208588010111156139eb57600080fd5b836020870160208301376000602085830101528094505050505092915050565b600060208284031215613a1d57600080fd5b8135610c32816141a1565b60008060408385031215613a3b57600080fd5b8235613a46816141a1565b91506020830135613a56816141a1565b809150509250929050565b600080600060608486031215613a7657600080fd5b8335613a81816141a1565b92506020840135613a91816141a1565b929592945050506040919091013590565b60008060008060808587031215613ab857600080fd5b8435613ac3816141a1565b93506020850135613ad3816141a1565b925060408501359150606085013567ffffffffffffffff811115613af657600080fd5b613b028782880161397e565b91505092959194509250565b600080600080600080600060e0888a031215613b2957600080fd5b8735613b34816141a1565b96506020880135613b44816141a1565b95506040880135945060608801359350608088013560ff81168114613b6857600080fd5b9699959850939692959460a0840135945060c09093013592915050565b60008060408385031215613b9857600080fd5b8235613ba3816141a1565b91506020830135613a56816141b6565b60008060408385031215613bc657600080fd5b8235613bd1816141a1565b9150602083013567ffffffffffffffff811115613bed57600080fd5b613bf98582860161397e565b9150509250929050565b60008060408385031215613c1657600080fd5b8235613c21816141a1565b946020939093013593505050565b600080600060608486031215613c4457600080fd5b8335613c4f816141a1565b925060208401359150604084013567ffffffffffffffff811115613c7257600080fd5b613c7e8682870161397e565b9150509250925092565b600060208284031215613c9a57600080fd5b8151610c32816141b6565b600060208284031215613cb757600080fd5b5035919050565b60008060408385031215613cd157600080fd5b823591506020830135613a56816141a1565b600060208284031215613cf557600080fd5b8135610c32816141c4565b600060208284031215613d1257600080fd5b8151610c32816141c4565b600080600060608486031215613d3257600080fd5b833567ffffffffffffffff80821115613d4a57600080fd5b613d568783880161397e565b94506020860135915080821115613d6c57600080fd5b50613d798682870161397e565b925050604084013590509250925092565b600080600060608486031215613d9f57600080fd5b505081359360208301359350604090920135919050565b60008151808452613dce8160208601602086016140d1565b601f01601f19169290920160200192915050565b60008251613df48184602087016140d1565b9190910192915050565b7f416363657373436f6e74726f6c3a206163636f756e7420000000000000000000815260008351613e368160178501602088016140d1565b7001034b99036b4b9b9b4b733903937b6329607d1b6017918401918201528351613e678160288401602088016140d1565b01602801949350505050565b6001600160a01b0385811682528416602082015260408101839052608060608201819052600090613ea690830184613db6565b9695505050505050565b60018060a01b0384168152826020820152606060408201526000610fd36060830184613db6565b602081526000610c326020830184613db6565b6020808252602c908201527f46756e6374696f6e206d7573742062652063616c6c6564207468726f7567682060408201526b19195b1959d85d1958d85b1b60a21b606082015260800190565b6020808252602c908201527f46756e6374696f6e206d7573742062652063616c6c6564207468726f7567682060408201526b6163746976652070726f787960a01b606082015260800190565b60208082526026908201527f455243313336333a205f636865636b416e6443616c6c5472616e73666572207260408201526565766572747360d01b606082015260800190565b6020808252602e908201527f496e697469616c697a61626c653a20636f6e747261637420697320616c72656160408201526d191e481a5b9a5d1a585b1a5e995960921b606082015260800190565b6020808252602b908201527f496e697469616c697a61626c653a20636f6e7472616374206973206e6f74206960408201526a6e697469616c697a696e6760a81b606082015260800190565b6000821982111561407457614074614149565b500190565b60008261409657634e487b7160e01b600052601260045260246000fd5b500490565b60008160001904831182151516156140b5576140b5614149565b500290565b6000828210156140cc576140cc614149565b500390565b60005b838110156140ec5781810151838201526020016140d4565b838111156114e55750506000910152565b60008161410c5761410c614149565b506000190190565b600181811c9082168061412857607f821691505b60208210811415612bab57634e487b7160e01b600052602260045260246000fd5b634e487b7160e01b600052601160045260246000fd5b634e487b7160e01b600052602160045260246000fd5b634e487b7160e01b600052603260045260246000fd5b634e487b7160e01b600052604160045260246000fd5b6001600160a01b0381168114610ef057600080fd5b8015158114610ef057600080fd5b6001600160e01b031981168114610ef057600080fdfe416464726573733a206c6f772d6c6576656c2064656c65676174652063616c6c206661696c6564a2646970667358221220c5d1e83442084c341119aa2dc27dc40129e307a344d5cb52339521f846674c8c64736f6c63430008050033",
  "devdoc": {
    "kind": "dev",
    "methods": {
      "DOMAIN_SEPARATOR()": {
        "details": "See {IERC20Permit-DOMAIN_SEPARATOR}."
      },
      "allowance(address,address)": {
        "details": "See {IERC20-allowance}."
      },
      "approve(address,uint256)": {
        "details": "See {IERC20-approve}. Requirements: - `spender` cannot be the zero address."
      },
      "approveAndCall(address,uint256)": {
        "details": "Approve spender to transfer tokens and then execute a callback on recipient.",
        "params": {
          "amount": "The amount allowed to be transferred",
          "spender": "The address allowed to transfer to"
        },
        "returns": {
          "_0": "A boolean that indicates if the operation was successful."
        }
      },
      "approveAndCall(address,uint256,bytes)": {
        "details": "Approve spender to transfer tokens and then execute a callback on recipient.",
        "params": {
          "amount": "The amount allowed to be transferred.",
          "data": "Additional data with no specified format.",
          "spender": "The address allowed to transfer to."
        },
        "returns": {
          "_0": "A boolean that indicates if the operation was successful."
        }
      },
      "balanceOf(address)": {
        "details": "See {IERC20-balanceOf}."
      },
      "balanceOfAt(address,uint256)": {
        "details": "Retrieves the balance of `account` at the time `snapshotId` was created."
      },
      "burn(uint256)": {
        "details": "Destroys `amount` tokens from the caller. See {ERC20-_burn}."
      },
      "burnFrom(address,uint256)": {
        "details": "Destroys `amount` tokens from `account`, deducting from the caller's allowance. See {ERC20-_burn} and {ERC20-allowance}. Requirements: - the caller must have allowance for ``accounts``'s tokens of at least `amount`."
      },
      "cap()": {
        "details": "Returns the cap on the token's total supply."
      },
      "decimals()": {
        "details": "Returns the number of decimals used to get its user representation. For example, if `decimals` equals `2`, a balance of `505` tokens should be displayed to a user as `5,05` (`505 / 10 ** 2`). Tokens usually opt for a value of 18, imitating the relationship between Ether and Wei. This is the value {ERC20} uses, unless this function is overridden; NOTE: This information is only used for _display_ purposes: it in no way affects any of the arithmetic of the contract, including {IERC20-balanceOf} and {IERC20-transfer}."
      },
      "decreaseAllowance(address,uint256)": {
        "details": "Atomically decreases the allowance granted to `spender` by the caller. This is an alternative to {approve} that can be used as a mitigation for problems described in {IERC20-approve}. Emits an {Approval} event indicating the updated allowance. Requirements: - `spender` cannot be the zero address. - `spender` must have allowance for the caller of at least `subtractedValue`."
      },
      "getRoleAdmin(bytes32)": {
        "details": "Returns the admin role that controls `role`. See {grantRole} and {revokeRole}. To change a role's admin, use {_setRoleAdmin}."
      },
      "grantRole(bytes32,address)": {
        "details": "Grants `role` to `account`. If `account` had not been already granted `role`, emits a {RoleGranted} event. Requirements: - the caller must have ``role``'s admin role."
      },
      "hasRole(bytes32,address)": {
        "details": "Returns `true` if `account` has been granted `role`."
      },
      "increaseAllowance(address,uint256)": {
        "details": "Atomically increases the allowance granted to `spender` by the caller. This is an alternative to {approve} that can be used as a mitigation for problems described in {IERC20-approve}. Emits an {Approval} event indicating the updated allowance. Requirements: - `spender` cannot be the zero address."
      },
      "name()": {
        "details": "Returns the name of the token."
      },
      "nonces(address)": {
        "details": "See {IERC20Permit-nonces}."
      },
      "paused()": {
        "details": "Returns true if the contract is paused, and false otherwise."
      },
      "permit(address,address,uint256,uint256,uint8,bytes32,bytes32)": {
        "details": "See {IERC20Permit-permit}."
      },
      "recoverERC20(address,uint256)": {
        "params": {
          "tokenAddress": "ERC20 token contract address",
          "tokenAmount": "Amount to recover"
        }
      },
      "renounceRole(bytes32,address)": {
        "details": "Revokes `role` from the calling account. Roles are often managed via {grantRole} and {revokeRole}: this function's purpose is to provide a mechanism for accounts to lose their privileges if they are compromised (such as when a trusted device is misplaced). If the calling account had been revoked `role`, emits a {RoleRevoked} event. Requirements: - the caller must be `account`."
      },
      "rescueERC20(address,address,uint256)": {
        "params": {
          "amount": "Amount to rescue",
          "to": "Recipient address",
          "tokenContract": "ERC20 token contract address"
        }
      },
      "revokeRole(bytes32,address)": {
        "details": "Revokes `role` from `account`. If `account` had been granted `role`, emits a {RoleRevoked} event. Requirements: - the caller must have ``role``'s admin role."
      },
      "supportsInterface(bytes4)": {
        "details": "See {IERC165-supportsInterface}."
      },
      "symbol()": {
        "details": "Returns the symbol of the token, usually a shorter version of the name."
      },
      "totalSupply()": {
        "details": "See {IERC20-totalSupply}."
      },
      "totalSupplyAt(uint256)": {
        "details": "Retrieves the total supply at the time `snapshotId` was created."
      },
      "transfer(address,uint256)": {
        "details": "Override transfer function to apply tax deduction"
      },
      "transferAndCall(address,uint256)": {
        "details": "Transfer tokens to a specified address and then execute a callback on recipient.",
        "params": {
          "amount": "The amount to be transferred.",
          "recipient": "The address to transfer to."
        },
        "returns": {
          "_0": "A boolean that indicates if the operation was successful."
        }
      },
      "transferAndCall(address,uint256,bytes)": {
        "details": "Transfer tokens to a specified address and then execute a callback on recipient.",
        "params": {
          "amount": "The amount to be transferred",
          "data": "Additional data with no specified format",
          "recipient": "The address to transfer to"
        },
        "returns": {
          "_0": "A boolean that indicates if the operation was successful."
        }
      },
      "transferFrom(address,address,uint256)": {
        "details": "Override transferFrom function to apply tax deduction"
      },
      "transferFromAndCall(address,address,uint256)": {
        "details": "Transfer tokens from one address to another and then execute a callback on recipient.",
        "params": {
          "amount": "The amount of tokens to be transferred",
          "recipient": "The address which you want to transfer to",
          "sender": "The address which you want to send tokens from"
        },
        "returns": {
          "_0": "A boolean that indicates if the operation was successful."
        }
      },
      "transferFromAndCall(address,address,uint256,bytes)": {
        "details": "Transfer tokens from one address to another and then execute a callback on recipient.",
        "params": {
          "amount": "The amount of tokens to be transferred",
          "data": "Additional data with no specified format",
          "recipient": "The address which you want to transfer to",
          "sender": "The address which you want to send tokens from"
        },
        "returns": {
          "_0": "A boolean that indicates if the operation was successful."
        }
      },
      "upgradeTo(address)": {
        "details": "Upgrade the implementation of the proxy to `newImplementation`. Calls {_authorizeUpgrade}. Emits an {Upgraded} event."
      },
      "upgradeToAndCall(address,bytes)": {
        "details": "Upgrade the implementation of the proxy to `newImplementation`, and subsequently execute the function call encoded in `data`. Calls {_authorizeUpgrade}. Emits an {Upgraded} event."
      }
    },
    "version": 1
  },
  "userdoc": {
    "kind": "user",
    "methods": {
      "recoverERC20(address,uint256)": {
        "notice": "Recover ERC20 tokens locked up in this contract."
      },
      "rescueERC20(address,address,uint256)": {
        "notice": "Rescue ERC20 tokens locked up in this contract."
      }
    },
    "version": 1
  },
  "storageLayout": {
    "storage": [
      {
        "astId": 824,
        "contract": "contracts/Token/FrockTokenV1.sol:FrockTokenV1",
        "label": "_initialized",
        "offset": 0,
        "slot": "0",
        "type": "t_bool"
      },
      {
        "astId": 827,
        "contract": "contracts/Token/FrockTokenV1.sol:FrockTokenV1",
        "label": "_initializing",
        "offset": 1,
        "slot": "0",
        "type": "t_bool"
      },
      {
        "astId": 806,
        "contract": "contracts/Token/FrockTokenV1.sol:FrockTokenV1",
        "label": "__gap",
        "offset": 0,
        "slot": "1",
        "type": "t_array(t_uint256)50_storage"
      },
      {
        "astId": 1001,
        "contract": "contracts/Token/FrockTokenV1.sol:FrockTokenV1",
        "label": "__gap",
        "offset": 0,
        "slot": "51",
        "type": "t_array(t_uint256)50_storage"
      },
      {
        "astId": 3150,
        "contract": "contracts/Token/FrockTokenV1.sol:FrockTokenV1",
        "label": "__gap",
        "offset": 0,
        "slot": "101",
        "type": "t_array(t_uint256)50_storage"
      },
      {
        "astId": 1134,
        "contract": "contracts/Token/FrockTokenV1.sol:FrockTokenV1",
        "label": "_balances",
        "offset": 0,
        "slot": "151",
        "type": "t_mapping(t_address,t_uint256)"
      },
      {
        "astId": 1140,
        "contract": "contracts/Token/FrockTokenV1.sol:FrockTokenV1",
        "label": "_allowances",
        "offset": 0,
        "slot": "152",
        "type": "t_mapping(t_address,t_mapping(t_address,t_uint256))"
      },
      {
        "astId": 1142,
        "contract": "contracts/Token/FrockTokenV1.sol:FrockTokenV1",
        "label": "_totalSupply",
        "offset": 0,
        "slot": "153",
        "type": "t_uint256"
      },
      {
        "astId": 1144,
        "contract": "contracts/Token/FrockTokenV1.sol:FrockTokenV1",
        "label": "_name",
        "offset": 0,
        "slot": "154",
        "type": "t_string_storage"
      },
      {
        "astId": 1146,
        "contract": "contracts/Token/FrockTokenV1.sol:FrockTokenV1",
        "label": "_symbol",
        "offset": 0,
        "slot": "155",
        "type": "t_string_storage"
      },
      {
        "astId": 1687,
        "contract": "contracts/Token/FrockTokenV1.sol:FrockTokenV1",
        "label": "__gap",
        "offset": 0,
        "slot": "156",
        "type": "t_array(t_uint256)45_storage"
      },
      {
        "astId": 1864,
        "contract": "contracts/Token/FrockTokenV1.sol:FrockTokenV1",
        "label": "_cap",
        "offset": 0,
        "slot": "201",
        "type": "t_uint256"
      },
      {
        "astId": 1941,
        "contract": "contracts/Token/FrockTokenV1.sol:FrockTokenV1",
        "label": "__gap",
        "offset": 0,
        "slot": "202",
        "type": "t_array(t_uint256)50_storage"
      },
      {
        "astId": 1852,
        "contract": "contracts/Token/FrockTokenV1.sol:FrockTokenV1",
        "label": "__gap",
        "offset": 0,
        "slot": "252",
        "type": "t_array(t_uint256)50_storage"
      },
      {
        "astId": 3887,
        "contract": "contracts/Token/FrockTokenV1.sol:FrockTokenV1",
        "label": "_HASHED_NAME",
        "offset": 0,
        "slot": "302",
        "type": "t_bytes32"
      },
      {
        "astId": 3889,
        "contract": "contracts/Token/FrockTokenV1.sol:FrockTokenV1",
        "label": "_HASHED_VERSION",
        "offset": 0,
        "slot": "303",
        "type": "t_bytes32"
      },
      {
        "astId": 4026,
        "contract": "contracts/Token/FrockTokenV1.sol:FrockTokenV1",
        "label": "__gap",
        "offset": 0,
        "slot": "304",
        "type": "t_array(t_uint256)50_storage"
      },
      {
        "astId": 2346,
        "contract": "contracts/Token/FrockTokenV1.sol:FrockTokenV1",
        "label": "_nonces",
        "offset": 0,
        "slot": "354",
        "type": "t_mapping(t_address,t_struct(Counter)3157_storage)"
      },
      {
        "astId": 2348,
        "contract": "contracts/Token/FrockTokenV1.sol:FrockTokenV1",
        "label": "_PERMIT_TYPEHASH",
        "offset": 0,
        "slot": "355",
        "type": "t_bytes32"
      },
      {
        "astId": 2516,
        "contract": "contracts/Token/FrockTokenV1.sol:FrockTokenV1",
        "label": "__gap",
        "offset": 0,
        "slot": "356",
        "type": "t_array(t_uint256)49_storage"
      },
      {
        "astId": 4072,
        "contract": "contracts/Token/FrockTokenV1.sol:FrockTokenV1",
        "label": "__gap",
        "offset": 0,
        "slot": "405",
        "type": "t_array(t_uint256)50_storage"
      },
      {
        "astId": 7217,
        "contract": "contracts/Token/FrockTokenV1.sol:FrockTokenV1",
        "label": "__gap",
        "offset": 0,
        "slot": "455",
        "type": "t_array(t_uint256)50_storage"
      },
      {
        "astId": 48,
        "contract": "contracts/Token/FrockTokenV1.sol:FrockTokenV1",
        "label": "_roles",
        "offset": 0,
        "slot": "505",
        "type": "t_mapping(t_bytes32,t_struct(RoleData)43_storage)"
      },
      {
        "astId": 335,
        "contract": "contracts/Token/FrockTokenV1.sol:FrockTokenV1",
        "label": "__gap",
        "offset": 0,
        "slot": "506",
        "type": "t_array(t_uint256)49_storage"
      },
      {
        "astId": 6900,
        "contract": "contracts/Token/FrockTokenV1.sol:FrockTokenV1",
        "label": "__gap",
        "offset": 0,
        "slot": "555",
        "type": "t_array(t_uint256)50_storage"
      },
      {
        "astId": 1023,
        "contract": "contracts/Token/FrockTokenV1.sol:FrockTokenV1",
        "label": "_paused",
        "offset": 0,
        "slot": "605",
        "type": "t_bool"
      },
      {
        "astId": 1114,
        "contract": "contracts/Token/FrockTokenV1.sol:FrockTokenV1",
        "label": "__gap",
        "offset": 0,
        "slot": "606",
        "type": "t_array(t_uint256)49_storage"
      },
      {
        "astId": 1991,
        "contract": "contracts/Token/FrockTokenV1.sol:FrockTokenV1",
        "label": "_accountBalanceSnapshots",
        "offset": 0,
        "slot": "655",
        "type": "t_mapping(t_address,t_struct(Snapshots)1986_storage)"
      },
      {
        "astId": 1994,
        "contract": "contracts/Token/FrockTokenV1.sol:FrockTokenV1",
        "label": "_totalSupplySnapshots",
        "offset": 0,
        "slot": "656",
        "type": "t_struct(Snapshots)1986_storage"
      },
      {
        "astId": 1997,
        "contract": "contracts/Token/FrockTokenV1.sol:FrockTokenV1",
        "label": "_currentSnapshotId",
        "offset": 0,
        "slot": "658",
        "type": "t_struct(Counter)3157_storage"
      },
      {
        "astId": 2294,
        "contract": "contracts/Token/FrockTokenV1.sol:FrockTokenV1",
        "label": "__gap",
        "offset": 0,
        "slot": "659",
        "type": "t_array(t_uint256)46_storage"
      },
      {
        "astId": 8853,
        "contract": "contracts/Token/FrockTokenV1.sol:FrockTokenV1",
        "label": "isExcludedFromFees",
        "offset": 0,
        "slot": "705",
        "type": "t_mapping(t_address,t_bool)"
      },
      {
        "astId": 8857,
        "contract": "contracts/Token/FrockTokenV1.sol:FrockTokenV1",
        "label": "isBlacklisted",
        "offset": 0,
        "slot": "706",
        "type": "t_mapping(t_address,t_bool)"
      },
      {
        "astId": 8504,
        "contract": "contracts/Token/FrockTokenV1.sol:FrockTokenV1",
        "label": "isAddressSetted",
        "offset": 0,
        "slot": "707",
        "type": "t_bool"
      },
      {
        "astId": 8506,
        "contract": "contracts/Token/FrockTokenV1.sol:FrockTokenV1",
        "label": "reflection",
        "offset": 1,
        "slot": "707",
        "type": "t_address"
      },
      {
        "astId": 8508,
        "contract": "contracts/Token/FrockTokenV1.sol:FrockTokenV1",
        "label": "treasury",
        "offset": 0,
        "slot": "708",
        "type": "t_address"
      },
      {
        "astId": 8510,
        "contract": "contracts/Token/FrockTokenV1.sol:FrockTokenV1",
        "label": "marketing",
        "offset": 0,
        "slot": "709",
        "type": "t_address"
      },
      {
        "astId": 8512,
        "contract": "contracts/Token/FrockTokenV1.sol:FrockTokenV1",
        "label": "reflectionPercentage",
        "offset": 0,
        "slot": "710",
        "type": "t_uint256"
      },
      {
        "astId": 8514,
        "contract": "contracts/Token/FrockTokenV1.sol:FrockTokenV1",
        "label": "treasuryPercentage",
        "offset": 0,
        "slot": "711",
        "type": "t_uint256"
      },
      {
        "astId": 8516,
        "contract": "contracts/Token/FrockTokenV1.sol:FrockTokenV1",
        "label": "marketingPercentage",
        "offset": 0,
        "slot": "712",
        "type": "t_uint256"
      },
      {
        "astId": 8518,
        "contract": "contracts/Token/FrockTokenV1.sol:FrockTokenV1",
        "label": "totalTax",
        "offset": 0,
        "slot": "713",
        "type": "t_uint256"
      }
    ],
    "types": {
      "t_address": {
        "encoding": "inplace",
        "label": "address",
        "numberOfBytes": "20"
      },
      "t_array(t_uint256)45_storage": {
        "base": "t_uint256",
        "encoding": "inplace",
        "label": "uint256[45]",
        "numberOfBytes": "1440"
      },
      "t_array(t_uint256)46_storage": {
        "base": "t_uint256",
        "encoding": "inplace",
        "label": "uint256[46]",
        "numberOfBytes": "1472"
      },
      "t_array(t_uint256)49_storage": {
        "base": "t_uint256",
        "encoding": "inplace",
        "label": "uint256[49]",
        "numberOfBytes": "1568"
      },
      "t_array(t_uint256)50_storage": {
        "base": "t_uint256",
        "encoding": "inplace",
        "label": "uint256[50]",
        "numberOfBytes": "1600"
      },
      "t_array(t_uint256)dyn_storage": {
        "base": "t_uint256",
        "encoding": "dynamic_array",
        "label": "uint256[]",
        "numberOfBytes": "32"
      },
      "t_bool": {
        "encoding": "inplace",
        "label": "bool",
        "numberOfBytes": "1"
      },
      "t_bytes32": {
        "encoding": "inplace",
        "label": "bytes32",
        "numberOfBytes": "32"
      },
      "t_mapping(t_address,t_bool)": {
        "encoding": "mapping",
        "key": "t_address",
        "label": "mapping(address => bool)",
        "numberOfBytes": "32",
        "value": "t_bool"
      },
      "t_mapping(t_address,t_mapping(t_address,t_uint256))": {
        "encoding": "mapping",
        "key": "t_address",
        "label": "mapping(address => mapping(address => uint256))",
        "numberOfBytes": "32",
        "value": "t_mapping(t_address,t_uint256)"
      },
      "t_mapping(t_address,t_struct(Counter)3157_storage)": {
        "encoding": "mapping",
        "key": "t_address",
        "label": "mapping(address => struct CountersUpgradeable.Counter)",
        "numberOfBytes": "32",
        "value": "t_struct(Counter)3157_storage"
      },
      "t_mapping(t_address,t_struct(Snapshots)1986_storage)": {
        "encoding": "mapping",
        "key": "t_address",
        "label": "mapping(address => struct ERC20SnapshotUpgradeable.Snapshots)",
        "numberOfBytes": "32",
        "value": "t_struct(Snapshots)1986_storage"
      },
      "t_mapping(t_address,t_uint256)": {
        "encoding": "mapping",
        "key": "t_address",
        "label": "mapping(address => uint256)",
        "numberOfBytes": "32",
        "value": "t_uint256"
      },
      "t_mapping(t_bytes32,t_struct(RoleData)43_storage)": {
        "encoding": "mapping",
        "key": "t_bytes32",
        "label": "mapping(bytes32 => struct AccessControlUpgradeable.RoleData)",
        "numberOfBytes": "32",
        "value": "t_struct(RoleData)43_storage"
      },
      "t_string_storage": {
        "encoding": "bytes",
        "label": "string",
        "numberOfBytes": "32"
      },
      "t_struct(Counter)3157_storage": {
        "encoding": "inplace",
        "label": "struct CountersUpgradeable.Counter",
        "members": [
          {
            "astId": 3156,
            "contract": "contracts/Token/FrockTokenV1.sol:FrockTokenV1",
            "label": "_value",
            "offset": 0,
            "slot": "0",
            "type": "t_uint256"
          }
        ],
        "numberOfBytes": "32"
      },
      "t_struct(RoleData)43_storage": {
        "encoding": "inplace",
        "label": "struct AccessControlUpgradeable.RoleData",
        "members": [
          {
            "astId": 40,
            "contract": "contracts/Token/FrockTokenV1.sol:FrockTokenV1",
            "label": "members",
            "offset": 0,
            "slot": "0",
            "type": "t_mapping(t_address,t_bool)"
          },
          {
            "astId": 42,
            "contract": "contracts/Token/FrockTokenV1.sol:FrockTokenV1",
            "label": "adminRole",
            "offset": 0,
            "slot": "1",
            "type": "t_bytes32"
          }
        ],
        "numberOfBytes": "64"
      },
      "t_struct(Snapshots)1986_storage": {
        "encoding": "inplace",
        "label": "struct ERC20SnapshotUpgradeable.Snapshots",
        "members": [
          {
            "astId": 1982,
            "contract": "contracts/Token/FrockTokenV1.sol:FrockTokenV1",
            "label": "ids",
            "offset": 0,
            "slot": "0",
            "type": "t_array(t_uint256)dyn_storage"
          },
          {
            "astId": 1985,
            "contract": "contracts/Token/FrockTokenV1.sol:FrockTokenV1",
            "label": "values",
            "offset": 0,
            "slot": "1",
            "type": "t_array(t_uint256)dyn_storage"
          }
        ],
        "numberOfBytes": "64"
      },
      "t_uint256": {
        "encoding": "inplace",
        "label": "uint256",
        "numberOfBytes": "32"
      }
    }
  }
}