{
  "address": "0x6A3083F47d56dB7BdB2783698407Cc95A0DC7a1c",
  "abi": [
    {
      "inputs": [
        {
          "internalType": "uint256",
          "name": "_minimumTokenToSwap",
          "type": "uint256"
        },
        {
          "internalType": "uint256",
          "name": "_fixedLimitTokenToSwap",
          "type": "uint256"
        },
        {
          "internalType": "uint256",
          "name": "_percentageToSwap",
          "type": "uint256"
        },
        {
          "internalType": "address",
          "name": "_mainToken",
          "type": "address"
        },
        {
          "internalType": "address",
          "name": "_treasuryDestination",
          "type": "address"
        }
      ],
      "stateMutability": "nonpayable",
      "type": "constructor"
    },
    {
      "anonymous": false,
      "inputs": [
        {
          "indexed": true,
          "internalType": "bytes32",
          "name": "role",
          "type": "bytes32"
        },
        {
          "indexed": true,
          "internalType": "bytes32",
          "name": "previousAdminRole",
          "type": "bytes32"
        },
        {
          "indexed": true,
          "internalType": "bytes32",
          "name": "newAdminRole",
          "type": "bytes32"
        }
      ],
      "name": "RoleAdminChanged",
      "type": "event"
    },
    {
      "anonymous": false,
      "inputs": [
        {
          "indexed": true,
          "internalType": "bytes32",
          "name": "role",
          "type": "bytes32"
        },
        {
          "indexed": true,
          "internalType": "address",
          "name": "account",
          "type": "address"
        },
        {
          "indexed": true,
          "internalType": "address",
          "name": "sender",
          "type": "address"
        }
      ],
      "name": "RoleGranted",
      "type": "event"
    },
    {
      "anonymous": false,
      "inputs": [
        {
          "indexed": true,
          "internalType": "bytes32",
          "name": "role",
          "type": "bytes32"
        },
        {
          "indexed": true,
          "internalType": "address",
          "name": "account",
          "type": "address"
        },
        {
          "indexed": true,
          "internalType": "address",
          "name": "sender",
          "type": "address"
        }
      ],
      "name": "RoleRevoked",
      "type": "event"
    },
    {
      "anonymous": false,
      "inputs": [
        {
          "indexed": false,
          "internalType": "uint256",
          "name": "amountToSwap",
          "type": "uint256"
        },
        {
          "indexed": false,
          "internalType": "uint256",
          "name": "ftmBalanceAmount",
          "type": "uint256"
        },
        {
          "indexed": false,
          "internalType": "address",
          "name": "treasuryDestination",
          "type": "address"
        }
      ],
      "name": "SwapAndSend",
      "type": "event"
    },
    {
      "anonymous": false,
      "inputs": [
        {
          "indexed": false,
          "internalType": "uint256",
          "name": "newFixedTokenToSwap",
          "type": "uint256"
        }
      ],
      "name": "UpdateFixedTokenToSwap",
      "type": "event"
    },
    {
      "anonymous": false,
      "inputs": [
        {
          "indexed": false,
          "internalType": "address",
          "name": "newMainTokenAddress",
          "type": "address"
        }
      ],
      "name": "UpdateMainToken",
      "type": "event"
    },
    {
      "anonymous": false,
      "inputs": [
        {
          "indexed": false,
          "internalType": "uint256",
          "name": "newMinimumTokenToSwap",
          "type": "uint256"
        }
      ],
      "name": "UpdateMinimumTokenToSwap",
      "type": "event"
    },
    {
      "anonymous": false,
      "inputs": [
        {
          "indexed": false,
          "internalType": "uint256",
          "name": "newPercentageTokenToSwap",
          "type": "uint256"
        }
      ],
      "name": "UpdatePercentageTokenToSwap",
      "type": "event"
    },
    {
      "anonymous": false,
      "inputs": [
        {
          "indexed": false,
          "internalType": "address",
          "name": "newTreasuryDestination",
          "type": "address"
        }
      ],
      "name": "UpdateTreasuryDestination",
      "type": "event"
    },
    {
      "anonymous": false,
      "inputs": [
        {
          "indexed": false,
          "internalType": "uint256",
          "name": "ftmBalanceAmount",
          "type": "uint256"
        },
        {
          "indexed": false,
          "internalType": "address",
          "name": "treasuryDestination",
          "type": "address"
        }
      ],
      "name": "Withdraw",
      "type": "event"
    },
    {
      "anonymous": false,
      "inputs": [
        {
          "indexed": false,
          "internalType": "uint256",
          "name": "amount",
          "type": "uint256"
        },
        {
          "indexed": false,
          "internalType": "address",
          "name": "destination",
          "type": "address"
        }
      ],
      "name": "WithdrawToken",
      "type": "event"
    },
    {
      "stateMutability": "payable",
      "type": "fallback"
    },
    {
      "inputs": [],
      "name": "CALLER_ROLE",
      "outputs": [
        {
          "internalType": "bytes32",
          "name": "",
          "type": "bytes32"
        }
      ],
      "stateMutability": "view",
      "type": "function"
    },
    {
      "inputs": [],
      "name": "DEFAULT_ADMIN_ROLE",
      "outputs": [
        {
          "internalType": "bytes32",
          "name": "",
          "type": "bytes32"
        }
      ],
      "stateMutability": "view",
      "type": "function"
    },
    {
      "inputs": [],
      "name": "getBalance",
      "outputs": [
        {
          "internalType": "uint256",
          "name": "balance",
          "type": "uint256"
        }
      ],
      "stateMutability": "view",
      "type": "function"
    },
    {
      "inputs": [
        {
          "internalType": "bytes32",
          "name": "role",
          "type": "bytes32"
        }
      ],
      "name": "getRoleAdmin",
      "outputs": [
        {
          "internalType": "bytes32",
          "name": "",
          "type": "bytes32"
        }
      ],
      "stateMutability": "view",
      "type": "function"
    },
    {
      "inputs": [],
      "name": "getTokenBalance",
      "outputs": [
        {
          "internalType": "uint256",
          "name": "tokenAmount",
          "type": "uint256"
        }
      ],
      "stateMutability": "view",
      "type": "function"
    },
    {
      "inputs": [
        {
          "internalType": "bytes32",
          "name": "role",
          "type": "bytes32"
        },
        {
          "internalType": "address",
          "name": "account",
          "type": "address"
        }
      ],
      "name": "grantRole",
      "outputs": [],
      "stateMutability": "nonpayable",
      "type": "function"
    },
    {
      "inputs": [
        {
          "internalType": "bytes32",
          "name": "role",
          "type": "bytes32"
        },
        {
          "internalType": "address",
          "name": "account",
          "type": "address"
        }
      ],
      "name": "hasRole",
      "outputs": [
        {
          "internalType": "bool",
          "name": "",
          "type": "bool"
        }
      ],
      "stateMutability": "view",
      "type": "function"
    },
    {
      "inputs": [
        {
          "internalType": "bytes32",
          "name": "role",
          "type": "bytes32"
        },
        {
          "internalType": "address",
          "name": "account",
          "type": "address"
        }
      ],
      "name": "renounceRole",
      "outputs": [],
      "stateMutability": "nonpayable",
      "type": "function"
    },
    {
      "inputs": [
        {
          "internalType": "bytes32",
          "name": "role",
          "type": "bytes32"
        },
        {
          "internalType": "address",
          "name": "account",
          "type": "address"
        }
      ],
      "name": "revokeRole",
      "outputs": [],
      "stateMutability": "nonpayable",
      "type": "function"
    },
    {
      "inputs": [
        {
          "internalType": "uint256",
          "name": "newFixedTokenToSwap",
          "type": "uint256"
        }
      ],
      "name": "setFixedTokenToSwap",
      "outputs": [],
      "stateMutability": "nonpayable",
      "type": "function"
    },
    {
      "inputs": [
        {
          "internalType": "address",
          "name": "tokenAddress",
          "type": "address"
        }
      ],
      "name": "setMainToken",
      "outputs": [],
      "stateMutability": "nonpayable",
      "type": "function"
    },
    {
      "inputs": [
        {
          "internalType": "uint256",
          "name": "newMinimumTokenToSwap",
          "type": "uint256"
        }
      ],
      "name": "setMinimumTokenToSwap",
      "outputs": [],
      "stateMutability": "nonpayable",
      "type": "function"
    },
    {
      "inputs": [
        {
          "internalType": "uint256",
          "name": "newPercentageTokenToSwap",
          "type": "uint256"
        }
      ],
      "name": "setPercentageTokenToSwap",
      "outputs": [],
      "stateMutability": "nonpayable",
      "type": "function"
    },
    {
      "inputs": [
        {
          "internalType": "address",
          "name": "newTreasuryDestination",
          "type": "address"
        }
      ],
      "name": "setTreasuryDestination",
      "outputs": [],
      "stateMutability": "nonpayable",
      "type": "function"
    },
    {
      "inputs": [
        {
          "internalType": "bytes4",
          "name": "interfaceId",
          "type": "bytes4"
        }
      ],
      "name": "supportsInterface",
      "outputs": [
        {
          "internalType": "bool",
          "name": "",
          "type": "bool"
        }
      ],
      "stateMutability": "view",
      "type": "function"
    },
    {
      "inputs": [],
      "name": "swapAndSend",
      "outputs": [],
      "stateMutability": "nonpayable",
      "type": "function"
    },
    {
      "inputs": [],
      "name": "uniswapV2Router",
      "outputs": [
        {
          "internalType": "contract IUniswapV2Router02",
          "name": "",
          "type": "address"
        }
      ],
      "stateMutability": "view",
      "type": "function"
    },
    {
      "inputs": [],
      "name": "withdraw",
      "outputs": [],
      "stateMutability": "nonpayable",
      "type": "function"
    },
    {
      "inputs": [
        {
          "internalType": "address",
          "name": "destination",
          "type": "address"
        },
        {
          "internalType": "uint256",
          "name": "amount",
          "type": "uint256"
        }
      ],
      "name": "withdrawToken",
      "outputs": [],
      "stateMutability": "nonpayable",
      "type": "function"
    },
    {
      "stateMutability": "payable",
      "type": "receive"
    }
  ],
  "transactionHash": "0x8850b6953b5443d308c84fa3b68c5982893b4c8cac1e4b732825d33b4feea4da",
  "args": [
    "100000000000",
    "500000000000",
    2500,
    "0xe679ae2b7e97D759eC758fafe50cB011eBfb7D77",
    "0x8Eaedb026f0c6A0174Ca5Eb9C4eCFeD28237a176"
  ],
  "solcInputHash": "6f78f81e192b1ef476c8ae9242dd6f11",
  "bytecode": "0x60806040523480156200001157600080fd5b506040516200163838038062001638833981016040819052620000349162000179565b62000041600033620000ac565b6007805473f491e7b69e4244ad4002bc14e878a34207e38c296001600160a01b0319918216179091556001805460ff191690556002959095556003939093556004919091556005805484166001600160a01b03928316179055600680549093169116179055620001ce565b620000b88282620000bc565b5050565b6000828152602081815260408083206001600160a01b038516845290915290205460ff16620000b8576000828152602081815260408083206001600160a01b03851684529091529020805460ff19166001179055620001183390565b6001600160a01b0316816001600160a01b0316837f2f8788117e7eff1d82e926ec794901d17c78024a50270940304540a733656f0d60405160405180910390a45050565b80516001600160a01b03811681146200017457600080fd5b919050565b600080600080600060a086880312156200019257600080fd5b855194506020860151935060408601519250620001b2606087016200015c565b9150620001c2608087016200015c565b90509295509295909350565b61145a80620001de6000396000f3fe60806040526004361061010c5760003560e01c80634e3bb8141161009a5780639cd9f1fd116100615780639cd9f1fd1461030d5780639e281a9814610322578063a217fddf14610342578063a66570d714610357578063d547741f1461037757005b80634e3bb81414610264578063774237fc1461028457806382b2e257146102b85780638eb60def146102cd57806391d14854146102ed57005b8063248a9ca3116100de578063248a9ca3146101bf57806327ce464e146101ef5780632f2ff15d1461020f57806336568abe1461022f5780633ccfd60b1461024f57005b806301ffc9a71461011557806312065fe01461014a578063124454dc146101675780631694505e1461018757005b3661011357005b005b34801561012157600080fd5b506101356101303660046111b2565b610397565b60405190151581526020015b60405180910390f35b34801561015657600080fd5b50475b604051908152602001610141565b34801561017357600080fd5b50610113610182366004611169565b6103ce565b34801561019357600080fd5b506007546101a7906001600160a01b031681565b6040516001600160a01b039091168152602001610141565b3480156101cb57600080fd5b506101596101da366004611169565b60009081526020819052604090206001015490565b3480156101fb57600080fd5b5061011361020a3660046110e1565b610417565b34801561021b57600080fd5b5061011361022a366004611182565b610471565b34801561023b57600080fd5b5061011361024a366004611182565b61049c565b34801561025b57600080fd5b5061011361051f565b34801561027057600080fd5b5061011361027f366004611169565b610585565b34801561029057600080fd5b506101597f69fb73f918fab3af495c0a457de635771a39f3d6cfedc797ae0b5bb56c83c6f781565b3480156102c457600080fd5b506101596105c6565b3480156102d957600080fd5b506101136102e83660046110e1565b610647565b3480156102f957600080fd5b50610135610308366004611182565b6106a1565b34801561031957600080fd5b506101136106ca565b34801561032e57600080fd5b5061011361033d36600461111b565b6109ad565b34801561034e57600080fd5b50610159600081565b34801561036357600080fd5b50610113610372366004611169565b610ad1565b34801561038357600080fd5b50610113610392366004611182565b610b12565b60006001600160e01b03198216637965db0b60e01b14806103c857506301ffc9a760e01b6001600160e01b03198316145b92915050565b60006103da8133610b38565b60038290556040518281527f89757786f1322a609aa51fd0977025898edc00f1c069876c92a4c9784e990bc5906020015b60405180910390a15050565b60006104238133610b38565b600580546001600160a01b0319166001600160a01b0384169081179091556040519081527fd68271512da4c3278e5f7e25443d78b7221df5389d259a6fbdc569f5b020e54d9060200161040b565b60008281526020819052604090206001015461048d8133610b38565b6104978383610b9c565b505050565b6001600160a01b03811633146105115760405162461bcd60e51b815260206004820152602f60248201527f416363657373436f6e74726f6c3a2063616e206f6e6c792072656e6f756e636560448201526e103937b632b9903337b91039b2b63360891b60648201526084015b60405180910390fd5b61051b8282610c20565b5050565b600061052b8133610b38565b6006544790610543906001600160a01b031682610c85565b600654604080518381526001600160a01b0390921660208301527f8353ffcac0876ad14e226d9783c04540bfebf13871e868157d2a391cad98e918910161040b565b60006105918133610b38565b60028290556040518281527f1e1a24d6d9d6d3f5673fc89b9d255bc943c56195db61f63ca23fb2a1630fdd6f9060200161040b565b6005546040516370a0823160e01b81523060048201526000916001600160a01b0316906370a082319060240160206040518083038186803b15801561060a57600080fd5b505afa15801561061e573d6000803e3d6000fd5b505050506040513d601f19601f8201168201806040525081019061064291906111dc565b905090565b60006106538133610b38565b600680546001600160a01b0319166001600160a01b0384169081179091556040519081527f62e47dc4d048e82c3c2e05e7ecb7b94b07614b52d2e16c446f114e4b32b9bddc9060200161040b565b6000918252602082815260408084206001600160a01b0393909316845291905290205460ff1690565b7f69fb73f918fab3af495c0a457de635771a39f3d6cfedc797ae0b5bb56c83c6f76106f58133610b38565b6005546001600160a01b03166107595760405162461bcd60e51b815260206004820152602360248201527f54726561737572793a204d61696e20546f6b656e206e6f7420736574746564206044820152621e595d60ea1b6064820152608401610508565b6006546001600160a01b03166107bf5760405162461bcd60e51b815260206004820152602560248201527f5472656173757279203a2044657374696e6174696f6e206e6f7420736574746560448201526419081e595d60da1b6064820152608401610508565b6000600254116108285760405162461bcd60e51b815260206004820152602e60248201527f54726561737572793a204d696e696d756d20546f6b656e20746f20537761702060448201526d1b9bdd081cd95d1d1959081e595d60921b6064820152608401610508565b6002546108336105c6565b1161088c5760405162461bcd60e51b815260206004820152602360248201527f54726561737572793a204e6f742070617373696e67206d696e696d756d20746f60448201526235b2b760e91b6064820152608401610508565b6003546108976105c6565b10156108fd5760405162461bcd60e51b815260206004820152602f60248201527f54726561737572793a204e6f742070617373696e67206669786564206c696d6960448201526e07420746f6b656e20746f207377617608c1b6064820152608401610508565b600061271060045461090d6105c6565b6109179190611364565b6109219190611342565b9050600060035482101561093757600354610939565b815b905061094481610d42565b600654479061095c906001600160a01b031682610c85565b60065460408051848152602081018490526001600160a01b0390921682820152517f0c7f67a24924aaae43ae29a1ec56abf4fef0e72069639b16a359496faad748339181900360600190a150505050565b60006109b98133610b38565b60055460405163a9059cbb60e01b81526001600160a01b038581166004830152602482018590529091169063a9059cbb90604401602060405180830381600087803b158015610a0757600080fd5b505af1158015610a1b573d6000803e3d6000fd5b505050506040513d601f19601f82011682018060405250810190610a3f9190611147565b610a8b5760405162461bcd60e51b815260206004820152601d60248201527f54726561737572793a204661696c205472616e7366657220546f6b656e0000006044820152606401610508565b604080518381526001600160a01b03851660208201527f52abf0ee1c51330cd0473cae6ac72ce4bf9b29dce23e5c4e776145df1fec8283910160405180910390a1505050565b6000610add8133610b38565b60048290556040518281527ffa7aee545b73f89fa39b3a52babfa12e7623e76d371f14b950e16be367059b929060200161040b565b600082815260208190526040902060010154610b2e8133610b38565b6104978383610c20565b610b4282826106a1565b61051b57610b5a816001600160a01b03166014610f3e565b610b65836020610f3e565b604051602001610b76929190611211565b60408051601f198184030181529082905262461bcd60e51b825261050891600401611286565b610ba682826106a1565b61051b576000828152602081815260408083206001600160a01b03851684529091529020805460ff19166001179055610bdc3390565b6001600160a01b0316816001600160a01b0316837f2f8788117e7eff1d82e926ec794901d17c78024a50270940304540a733656f0d60405160405180910390a45050565b610c2a82826106a1565b1561051b576000828152602081815260408083206001600160a01b0385168085529252808320805460ff1916905551339285917ff6391f5c32d9c69d2a47ea670b442974b53935d1edc7fd64eb21e047a839171b9190a45050565b604080516000808252602082019092526001600160a01b038416908390604051610caf91906111f5565b60006040518083038185875af1925050503d8060008114610cec576040519150601f19603f3d011682016040523d82523d6000602084013e610cf1565b606091505b50509050806104975760405162461bcd60e51b815260206004820152601d60248201527f54726561737572793a204554485f5452414e534645525f4641494c45440000006044820152606401610508565b6001805460ff191681179055604080516002808252606082018352600092602083019080368337505060055482519293506001600160a01b031691839150600090610d8f57610d8f6113e0565b6001600160a01b03928316602091820292909201810191909152600754604080516315ab88c960e31b81529051919093169263ad5c4648926004808301939192829003018186803b158015610de357600080fd5b505afa158015610df7573d6000803e3d6000fd5b505050506040513d601f19601f82011682018060405250810190610e1b91906110fe565b81600181518110610e2e57610e2e6113e0565b6001600160a01b03928316602091820292909201015260055460075460405163095ea7b360e01b815290831660048201526024810185905291169063095ea7b390604401602060405180830381600087803b158015610e8c57600080fd5b505af1158015610ea0573d6000803e3d6000fd5b505050506040513d601f19601f82011682018060405250810190610ec49190611147565b5060075460405163791ac94760e01b81526001600160a01b039091169063791ac94790610efe9085906000908690309042906004016112b9565b600060405180830381600087803b158015610f1857600080fd5b505af1158015610f2c573d6000803e3d6000fd5b50506001805460ff1916905550505050565b60606000610f4d836002611364565b610f5890600261132a565b67ffffffffffffffff811115610f7057610f706113f6565b6040519080825280601f01601f191660200182016040528015610f9a576020820181803683370190505b509050600360fc1b81600081518110610fb557610fb56113e0565b60200101906001600160f81b031916908160001a905350600f60fb1b81600181518110610fe457610fe46113e0565b60200101906001600160f81b031916908160001a9053506000611008846002611364565b61101390600161132a565b90505b600181111561108b576f181899199a1a9b1b9c1cb0b131b232b360811b85600f1660108110611047576110476113e0565b1a60f81b82828151811061105d5761105d6113e0565b60200101906001600160f81b031916908160001a90535060049490941c93611084816113b3565b9050611016565b5083156110da5760405162461bcd60e51b815260206004820181905260248201527f537472696e67733a20686578206c656e67746820696e73756666696369656e746044820152606401610508565b9392505050565b6000602082840312156110f357600080fd5b81356110da8161140c565b60006020828403121561111057600080fd5b81516110da8161140c565b6000806040838503121561112e57600080fd5b82356111398161140c565b946020939093013593505050565b60006020828403121561115957600080fd5b815180151581146110da57600080fd5b60006020828403121561117b57600080fd5b5035919050565b6000806040838503121561119557600080fd5b8235915060208301356111a78161140c565b809150509250929050565b6000602082840312156111c457600080fd5b81356001600160e01b0319811681146110da57600080fd5b6000602082840312156111ee57600080fd5b5051919050565b60008251611207818460208701611383565b9190910192915050565b7f416363657373436f6e74726f6c3a206163636f756e7420000000000000000000815260008351611249816017850160208801611383565b7001034b99036b4b9b9b4b733903937b6329607d1b601791840191820152835161127a816028840160208801611383565b01602801949350505050565b60208152600082518060208401526112a5816040850160208701611383565b601f01601f19169190910160400192915050565b600060a082018783526020878185015260a0604085015281875180845260c086019150828901935060005b818110156113095784516001600160a01b0316835293830193918301916001016112e4565b50506001600160a01b03969096166060850152505050608001529392505050565b6000821982111561133d5761133d6113ca565b500190565b60008261135f57634e487b7160e01b600052601260045260246000fd5b500490565b600081600019048311821515161561137e5761137e6113ca565b500290565b60005b8381101561139e578181015183820152602001611386565b838111156113ad576000848401525b50505050565b6000816113c2576113c26113ca565b506000190190565b634e487b7160e01b600052601160045260246000fd5b634e487b7160e01b600052603260045260246000fd5b634e487b7160e01b600052604160045260246000fd5b6001600160a01b038116811461142157600080fd5b5056fea26469706673582212204097e0a4637893e91f9bfde914a5df9f4f5512277ce4ae925d1b84caed5ac76a64736f6c63430008050033",
  "devdoc": {
    "kind": "dev",
    "methods": {
      "getBalance()": {
        "details": "Get total amount of FTM that owned by this contract"
      },
      "getRoleAdmin(bytes32)": {
        "details": "Returns the admin role that controls `role`. See {grantRole} and {revokeRole}. To change a role's admin, use {_setRoleAdmin}."
      },
      "getTokenBalance()": {
        "details": "Get total amount of FROCK that owned by this contract"
      },
      "grantRole(bytes32,address)": {
        "details": "Grants `role` to `account`. If `account` had not been already granted `role`, emits a {RoleGranted} event. Requirements: - the caller must have ``role``'s admin role."
      },
      "hasRole(bytes32,address)": {
        "details": "Returns `true` if `account` has been granted `role`."
      },
      "renounceRole(bytes32,address)": {
        "details": "Revokes `role` from the calling account. Roles are often managed via {grantRole} and {revokeRole}: this function's purpose is to provide a mechanism for accounts to lose their privileges if they are compromised (such as when a trusted device is misplaced). If the calling account had been revoked `role`, emits a {RoleRevoked} event. Requirements: - the caller must be `account`."
      },
      "revokeRole(bytes32,address)": {
        "details": "Revokes `role` from `account`. If `account` had been granted `role`, emits a {RoleRevoked} event. Requirements: - the caller must have ``role``'s admin role."
      },
      "setFixedTokenToSwap(uint256)": {
        "details": "Set Fixed Token of mainToken that able to swap at once"
      },
      "setMainToken(address)": {
        "details": "Set main token (FROCK token) address"
      },
      "setMinimumTokenToSwap(uint256)": {
        "details": "Set Minimum Token of mainToken that should owned to swap"
      },
      "setPercentageTokenToSwap(uint256)": {
        "details": "Set Percentage of Token to Swap"
      },
      "setTreasuryDestination(address)": {
        "details": "Set treasuryDestination Address"
      },
      "supportsInterface(bytes4)": {
        "details": "See {IERC165-supportsInterface}."
      },
      "swapAndSend()": {
        "details": "Swap Frock token on DEX and send the FTM to treasuryDestinationMaximum amount of swap based on maximumTokenToSwap"
      },
      "withdraw()": {
        "details": "Withdraw FTM to treasuryDestination address"
      },
      "withdrawToken(address,uint256)": {
        "details": "Withdraw Main Token"
      }
    },
    "version": 1
  },
  "userdoc": {
    "kind": "user",
    "methods": {},
    "version": 1
  },
  "storageLayout": {
    "storage": [
      {
        "astId": 4198,
        "contract": "contracts/Treasury/TreasuryV1.sol:TreasuryV1",
        "label": "_roles",
        "offset": 0,
        "slot": "0",
        "type": "t_mapping(t_bytes32,t_struct(RoleData)4193_storage)"
      },
      {
        "astId": 9992,
        "contract": "contracts/Treasury/TreasuryV1.sol:TreasuryV1",
        "label": "inSwap",
        "offset": 0,
        "slot": "1",
        "type": "t_bool"
      },
      {
        "astId": 9994,
        "contract": "contracts/Treasury/TreasuryV1.sol:TreasuryV1",
        "label": "minimumTokenToSwap",
        "offset": 0,
        "slot": "2",
        "type": "t_uint256"
      },
      {
        "astId": 9996,
        "contract": "contracts/Treasury/TreasuryV1.sol:TreasuryV1",
        "label": "fixedLimitTokenToSwap",
        "offset": 0,
        "slot": "3",
        "type": "t_uint256"
      },
      {
        "astId": 9998,
        "contract": "contracts/Treasury/TreasuryV1.sol:TreasuryV1",
        "label": "percentageToSwap",
        "offset": 0,
        "slot": "4",
        "type": "t_uint256"
      },
      {
        "astId": 10000,
        "contract": "contracts/Treasury/TreasuryV1.sol:TreasuryV1",
        "label": "mainToken",
        "offset": 0,
        "slot": "5",
        "type": "t_address"
      },
      {
        "astId": 10002,
        "contract": "contracts/Treasury/TreasuryV1.sol:TreasuryV1",
        "label": "treasuryDestination",
        "offset": 0,
        "slot": "6",
        "type": "t_address"
      },
      {
        "astId": 10010,
        "contract": "contracts/Treasury/TreasuryV1.sol:TreasuryV1",
        "label": "uniswapV2Router",
        "offset": 0,
        "slot": "7",
        "type": "t_contract(IUniswapV2Router02)9983"
      }
    ],
    "types": {
      "t_address": {
        "encoding": "inplace",
        "label": "address",
        "numberOfBytes": "20"
      },
      "t_bool": {
        "encoding": "inplace",
        "label": "bool",
        "numberOfBytes": "1"
      },
      "t_bytes32": {
        "encoding": "inplace",
        "label": "bytes32",
        "numberOfBytes": "32"
      },
      "t_contract(IUniswapV2Router02)9983": {
        "encoding": "inplace",
        "label": "contract IUniswapV2Router02",
        "numberOfBytes": "20"
      },
      "t_mapping(t_address,t_bool)": {
        "encoding": "mapping",
        "key": "t_address",
        "label": "mapping(address => bool)",
        "numberOfBytes": "32",
        "value": "t_bool"
      },
      "t_mapping(t_bytes32,t_struct(RoleData)4193_storage)": {
        "encoding": "mapping",
        "key": "t_bytes32",
        "label": "mapping(bytes32 => struct AccessControl.RoleData)",
        "numberOfBytes": "32",
        "value": "t_struct(RoleData)4193_storage"
      },
      "t_struct(RoleData)4193_storage": {
        "encoding": "inplace",
        "label": "struct AccessControl.RoleData",
        "members": [
          {
            "astId": 4190,
            "contract": "contracts/Treasury/TreasuryV1.sol:TreasuryV1",
            "label": "members",
            "offset": 0,
            "slot": "0",
            "type": "t_mapping(t_address,t_bool)"
          },
          {
            "astId": 4192,
            "contract": "contracts/Treasury/TreasuryV1.sol:TreasuryV1",
            "label": "adminRole",
            "offset": 0,
            "slot": "1",
            "type": "t_bytes32"
          }
        ],
        "numberOfBytes": "64"
      },
      "t_uint256": {
        "encoding": "inplace",
        "label": "uint256",
        "numberOfBytes": "32"
      }
    }
  }
}