{
  "address": "0x21dF544947ba3E8b3c32561399E88B52Dc8b2823",
  "abi": [
    {
      "inputs": [
        {
          "internalType": "address",
          "name": "_investToken",
          "type": "address"
        },
        {
          "internalType": "uint256",
          "name": "_startTime",
          "type": "uint256"
        },
        {
          "internalType": "uint256",
          "name": "_duration",
          "type": "uint256"
        },
        {
          "internalType": "uint256",
          "name": "_epochTime",
          "type": "uint256"
        },
        {
          "internalType": "uint256",
          "name": "_initialCap",
          "type": "uint256"
        },
        {
          "internalType": "uint256",
          "name": "_totalraiseCap",
          "type": "uint256"
        },
        {
          "internalType": "uint256",
          "name": "_minInvest",
          "type": "uint256"
        },
        {
          "internalType": "address",
          "name": "_treasury",
          "type": "address"
        },
        {
          "internalType": "address",
          "name": "_nrtAddress",
          "type": "address"
        }
      ],
      "stateMutability": "nonpayable",
      "type": "constructor"
    },
    {
      "anonymous": false,
      "inputs": [
        {
          "indexed": false,
          "internalType": "address",
          "name": "investor",
          "type": "address"
        },
        {
          "indexed": false,
          "internalType": "uint256",
          "name": "amount",
          "type": "uint256"
        }
      ],
      "name": "Invest",
      "type": "event"
    },
    {
      "anonymous": false,
      "inputs": [
        {
          "indexed": true,
          "internalType": "address",
          "name": "previousOwner",
          "type": "address"
        },
        {
          "indexed": true,
          "internalType": "address",
          "name": "newOwner",
          "type": "address"
        }
      ],
      "name": "OwnershipTransferred",
      "type": "event"
    },
    {
      "anonymous": false,
      "inputs": [
        {
          "indexed": false,
          "internalType": "address",
          "name": "investor",
          "type": "address"
        },
        {
          "indexed": false,
          "internalType": "uint256",
          "name": "amount",
          "type": "uint256"
        }
      ],
      "name": "Redeem",
      "type": "event"
    },
    {
      "anonymous": false,
      "inputs": [
        {
          "indexed": false,
          "internalType": "bool",
          "name": "enabled",
          "type": "bool"
        },
        {
          "indexed": false,
          "internalType": "uint256",
          "name": "time",
          "type": "uint256"
        }
      ],
      "name": "RedeemEnabled",
      "type": "event"
    },
    {
      "anonymous": false,
      "inputs": [
        {
          "indexed": false,
          "internalType": "bool",
          "name": "enabled",
          "type": "bool"
        },
        {
          "indexed": false,
          "internalType": "uint256",
          "name": "time",
          "type": "uint256"
        }
      ],
      "name": "SaleEnabled",
      "type": "event"
    },
    {
      "inputs": [
        {
          "internalType": "address[]",
          "name": "_addresses",
          "type": "address[]"
        }
      ],
      "name": "addMultipleWhitelist",
      "outputs": [],
      "stateMutability": "nonpayable",
      "type": "function"
    },
    {
      "inputs": [
        {
          "internalType": "address",
          "name": "_address",
          "type": "address"
        }
      ],
      "name": "addWhitelist",
      "outputs": [],
      "stateMutability": "nonpayable",
      "type": "function"
    },
    {
      "inputs": [],
      "name": "currentCap",
      "outputs": [
        {
          "internalType": "uint256",
          "name": "",
          "type": "uint256"
        }
      ],
      "stateMutability": "view",
      "type": "function"
    },
    {
      "inputs": [],
      "name": "currentEpoch",
      "outputs": [
        {
          "internalType": "uint256",
          "name": "",
          "type": "uint256"
        }
      ],
      "stateMutability": "view",
      "type": "function"
    },
    {
      "inputs": [
        {
          "internalType": "uint256",
          "name": "amount",
          "type": "uint256"
        }
      ],
      "name": "depositLaunchtoken",
      "outputs": [],
      "stateMutability": "nonpayable",
      "type": "function"
    },
    {
      "inputs": [],
      "name": "duration",
      "outputs": [
        {
          "internalType": "uint256",
          "name": "",
          "type": "uint256"
        }
      ],
      "stateMutability": "view",
      "type": "function"
    },
    {
      "inputs": [],
      "name": "enableRedeem",
      "outputs": [],
      "stateMutability": "nonpayable",
      "type": "function"
    },
    {
      "inputs": [],
      "name": "enableSale",
      "outputs": [],
      "stateMutability": "nonpayable",
      "type": "function"
    },
    {
      "inputs": [],
      "name": "endTime",
      "outputs": [
        {
          "internalType": "uint256",
          "name": "",
          "type": "uint256"
        }
      ],
      "stateMutability": "view",
      "type": "function"
    },
    {
      "inputs": [],
      "name": "epochTime",
      "outputs": [
        {
          "internalType": "uint256",
          "name": "",
          "type": "uint256"
        }
      ],
      "stateMutability": "view",
      "type": "function"
    },
    {
      "inputs": [],
      "name": "initialCap",
      "outputs": [
        {
          "internalType": "uint256",
          "name": "",
          "type": "uint256"
        }
      ],
      "stateMutability": "view",
      "type": "function"
    },
    {
      "inputs": [
        {
          "internalType": "uint256",
          "name": "investAmount",
          "type": "uint256"
        }
      ],
      "name": "invest",
      "outputs": [],
      "stateMutability": "nonpayable",
      "type": "function"
    },
    {
      "inputs": [],
      "name": "investToken",
      "outputs": [
        {
          "internalType": "address",
          "name": "",
          "type": "address"
        }
      ],
      "stateMutability": "view",
      "type": "function"
    },
    {
      "inputs": [
        {
          "internalType": "address",
          "name": "",
          "type": "address"
        }
      ],
      "name": "investorInfoMap",
      "outputs": [
        {
          "internalType": "uint256",
          "name": "amountInvested",
          "type": "uint256"
        },
        {
          "internalType": "bool",
          "name": "claimed",
          "type": "bool"
        }
      ],
      "stateMutability": "view",
      "type": "function"
    },
    {
      "inputs": [],
      "name": "launchDecimals",
      "outputs": [
        {
          "internalType": "uint256",
          "name": "",
          "type": "uint256"
        }
      ],
      "stateMutability": "view",
      "type": "function"
    },
    {
      "inputs": [],
      "name": "launchToken",
      "outputs": [
        {
          "internalType": "address",
          "name": "",
          "type": "address"
        }
      ],
      "stateMutability": "view",
      "type": "function"
    },
    {
      "inputs": [],
      "name": "maxCap",
      "outputs": [
        {
          "internalType": "uint256",
          "name": "",
          "type": "uint256"
        }
      ],
      "stateMutability": "view",
      "type": "function"
    },
    {
      "inputs": [],
      "name": "mininvest",
      "outputs": [
        {
          "internalType": "uint256",
          "name": "",
          "type": "uint256"
        }
      ],
      "stateMutability": "view",
      "type": "function"
    },
    {
      "inputs": [],
      "name": "nrt",
      "outputs": [
        {
          "internalType": "contract CommunityOfferingNRT",
          "name": "",
          "type": "address"
        }
      ],
      "stateMutability": "view",
      "type": "function"
    },
    {
      "inputs": [],
      "name": "numInvested",
      "outputs": [
        {
          "internalType": "uint256",
          "name": "",
          "type": "uint256"
        }
      ],
      "stateMutability": "view",
      "type": "function"
    },
    {
      "inputs": [],
      "name": "numWhitelisted",
      "outputs": [
        {
          "internalType": "uint256",
          "name": "",
          "type": "uint256"
        }
      ],
      "stateMutability": "view",
      "type": "function"
    },
    {
      "inputs": [],
      "name": "owner",
      "outputs": [
        {
          "internalType": "address",
          "name": "",
          "type": "address"
        }
      ],
      "stateMutability": "view",
      "type": "function"
    },
    {
      "inputs": [],
      "name": "price",
      "outputs": [
        {
          "internalType": "uint256",
          "name": "",
          "type": "uint256"
        }
      ],
      "stateMutability": "view",
      "type": "function"
    },
    {
      "inputs": [],
      "name": "priceQuote",
      "outputs": [
        {
          "internalType": "uint256",
          "name": "",
          "type": "uint256"
        }
      ],
      "stateMutability": "view",
      "type": "function"
    },
    {
      "inputs": [],
      "name": "redeem",
      "outputs": [],
      "stateMutability": "nonpayable",
      "type": "function"
    },
    {
      "inputs": [],
      "name": "redeemEnabled",
      "outputs": [
        {
          "internalType": "bool",
          "name": "",
          "type": "bool"
        }
      ],
      "stateMutability": "view",
      "type": "function"
    },
    {
      "inputs": [
        {
          "internalType": "address",
          "name": "_address",
          "type": "address"
        }
      ],
      "name": "removeWhitelist",
      "outputs": [],
      "stateMutability": "nonpayable",
      "type": "function"
    },
    {
      "inputs": [],
      "name": "renounceOwnership",
      "outputs": [],
      "stateMutability": "nonpayable",
      "type": "function"
    },
    {
      "inputs": [],
      "name": "saleEnabled",
      "outputs": [
        {
          "internalType": "bool",
          "name": "",
          "type": "bool"
        }
      ],
      "stateMutability": "view",
      "type": "function"
    },
    {
      "inputs": [
        {
          "internalType": "address",
          "name": "_launchToken",
          "type": "address"
        }
      ],
      "name": "setLaunchToken",
      "outputs": [],
      "stateMutability": "nonpayable",
      "type": "function"
    },
    {
      "inputs": [],
      "name": "startTime",
      "outputs": [
        {
          "internalType": "uint256",
          "name": "",
          "type": "uint256"
        }
      ],
      "stateMutability": "view",
      "type": "function"
    },
    {
      "inputs": [],
      "name": "totalissued",
      "outputs": [
        {
          "internalType": "uint256",
          "name": "",
          "type": "uint256"
        }
      ],
      "stateMutability": "view",
      "type": "function"
    },
    {
      "inputs": [],
      "name": "totalraiseCap",
      "outputs": [
        {
          "internalType": "uint256",
          "name": "",
          "type": "uint256"
        }
      ],
      "stateMutability": "view",
      "type": "function"
    },
    {
      "inputs": [],
      "name": "totalraised",
      "outputs": [
        {
          "internalType": "uint256",
          "name": "",
          "type": "uint256"
        }
      ],
      "stateMutability": "view",
      "type": "function"
    },
    {
      "inputs": [],
      "name": "totalredeem",
      "outputs": [
        {
          "internalType": "uint256",
          "name": "",
          "type": "uint256"
        }
      ],
      "stateMutability": "view",
      "type": "function"
    },
    {
      "inputs": [
        {
          "internalType": "address",
          "name": "newOwner",
          "type": "address"
        }
      ],
      "name": "transferOwnership",
      "outputs": [],
      "stateMutability": "nonpayable",
      "type": "function"
    },
    {
      "inputs": [],
      "name": "treasury",
      "outputs": [
        {
          "internalType": "address",
          "name": "",
          "type": "address"
        }
      ],
      "stateMutability": "view",
      "type": "function"
    },
    {
      "inputs": [
        {
          "internalType": "address",
          "name": "",
          "type": "address"
        }
      ],
      "name": "whitelisted",
      "outputs": [
        {
          "internalType": "bool",
          "name": "",
          "type": "bool"
        }
      ],
      "stateMutability": "view",
      "type": "function"
    },
    {
      "inputs": [
        {
          "internalType": "uint256",
          "name": "amount",
          "type": "uint256"
        }
      ],
      "name": "withdrawLaunchtoken",
      "outputs": [],
      "stateMutability": "nonpayable",
      "type": "function"
    },
    {
      "inputs": [
        {
          "internalType": "uint256",
          "name": "amount",
          "type": "uint256"
        }
      ],
      "name": "withdrawTreasury",
      "outputs": [],
      "stateMutability": "nonpayable",
      "type": "function"
    }
  ],
  "transactionHash": "0x4a790a2053e65309a9e5a90c74caa97ef06b9b64db40e3b01d3cb3a50d9a65c0",
  "args": [
    "0x04068da6c83afcfa0e13ba15a6696662335d5b75",
    1644681600,
    172800,
    21600,
    "100000000",
    "10000000000",
    0,
    "0x477F33ead6d79d4A357c9788aDC3Bc5986866f55",
    "0xB0D4afd8879eD9F52b28595d31B441D079B2Ca07"
  ],
  "solcInputHash": "d4a9b482acd2ea4fb3d955b36e52bc63",
  "bytecode": "0x6080604052600860055560646006556009601355600060145560006015553480156200002a57600080fd5b50604051620018c0380380620018c08339810160408190526200004d91620001ba565b62000058336200014d565b600180546001600160a01b03808c166001600160a01b031992831617909255600d8a9055600e899055600f889055600787905560098690556012859055600380549285169290911691909117905562093a808710620000f15760405162461bcd60e51b81526020600482015260116024820152706475726174696f6e20746f6f206c6f6e6760781b604482015260640160405180910390fd5b600e54600d546200010391906200023f565b601055600480546001600160a01b0319166001600160a01b039290921691909117905550506011805461ffff19169055505068d8d726b7177a800000600855506200026692505050565b600080546001600160a01b038381166001600160a01b0319831681178455604051919092169283917f8be0079c531659141344cd1fd0a4f28419497f9722a3daafe3b4186f6b6457e09190a35050565b80516001600160a01b0381168114620001b557600080fd5b919050565b60008060008060008060008060006101208a8c031215620001da57600080fd5b620001e58a6200019d565b985060208a0151975060408a0151965060608a0151955060808a0151945060a08a0151935060c08a015192506200021f60e08b016200019d565b9150620002306101008b016200019d565b90509295985092959850929598565b600082198211156200026157634e487b7160e01b600052601160045260246000fd5b500190565b61164a80620002766000396000f3fe608060405234801561001057600080fd5b50600436106102485760003560e01c80638a5396a31161013b578063be040fb0116100b8578063f2fde38b1161007c578063f2fde38b14610448578063f703f36f1461045b578063f80f5dd51461049a578063f9fd3ba2146104ad578063ff16e750146104c057600080fd5b8063be040fb0146103f0578063c683d8e4146103f8578063d2f8253614610400578063d936547e14610412578063e545338c1461043557600080fd5b8063b5224c44116100ff578063b5224c44146103b9578063b811215e146103c2578063badf822b146103cb578063bc284c5c146103de578063bc5c619a146103e757600080fd5b80638a5396a31461037a5780638da5cb5b14610383578063a035b1fe14610394578063a28a4d861461039d578063a4197afc146103b057600080fd5b8063604a85da116101c9578063766718081161018d578063766718081461034557806378c8cda71461034d57806378e9792514610360578063856ed70314610369578063861d8e131461037157600080fd5b8063604a85da146102cf57806361d027b3146102e2578063715018a61461030d57806371b9b64614610315578063729413161461033257600080fd5b806323548b8b1161021057806323548b8b146102985780632afcf480146102a15780633197cbb6146102b45780635053e461146102bd57806354dacb96146102c657600080fd5b8063061873e81461024d5780630b1258a0146102575780630fb5a6b41461027357806311f1fc991461027c57806322e274031461028f575b600080fd5b6102556104d3565b005b61026060135481565b6040519081526020015b60405180910390f35b610260600e5481565b61025561028a3660046113ab565b6105a0565b610260600c5481565b61026060085481565b6102556102af3660046113ab565b610672565b61026060105481565b610260600f5481565b61026060145481565b6102556102dd3660046112e4565b610a99565b6003546102f5906001600160a01b031681565b6040516001600160a01b03909116815260200161026a565b610255610ae5565b6011546103229060ff1681565b604051901515815260200161026a565b610255610340366004611314565b610b1b565b610260610c4e565b61025561035b3660046112e4565b610c70565b610260600d5481565b610260610cde565b61026060155481565b610260600a5481565b6000546001600160a01b03166102f5565b61026060055481565b6002546102f5906001600160a01b031681565b610260600b5481565b61026060095481565b61026060075481565b6001546102f5906001600160a01b031681565b61026060125481565b61026060065481565b610255610d21565b610255611037565b60115461032290610100900460ff1681565b6103226104203660046112e4565b60166020526000908152604090205460ff1681565b6004546102f5906001600160a01b031681565b6102556104563660046112e4565b6110a6565b6104856104693660046112e4565b6017602052600090815260409020805460019091015460ff1682565b6040805192835290151560208301520161026a565b6102556104a83660046112e4565b61113e565b6102556104bb3660046113ab565b6111cc565b6102556104ce3660046113ab565b611233565b6000546001600160a01b031633146105065760405162461bcd60e51b81526004016104fd90611414565b60405180910390fd5b6002546001600160a01b03166105555760405162461bcd60e51b81526020600482015260146024820152731b185d5b98da081d1bdad95b881b9bdd081cd95d60621b60448201526064016104fd565b6011805461ff00191661010017905560408051600181524260208201527fef5fd91dc9b012f3e4b41e00dc71466a39c83d97c3cc3879de5b9193f456c63091015b60405180910390a1565b6000546001600160a01b031633146105ca5760405162461bcd60e51b81526004016104fd90611414565b60015460035460405163a9059cbb60e01b81526001600160a01b0391821660048201526024810184905291169063a9059cbb906044015b602060405180830381600087803b15801561061b57600080fd5b505af115801561062f573d6000803e3d6000fd5b505050506040513d601f19601f820116820180604052508101906106539190611389565b61066f5760405162461bcd60e51b81526004016104fd90611449565b50565b600d544210156106b65760405162461bcd60e51b815260206004820152600f60248201526e1b9bdd081cdd185c9d1959081e595d608a1b60448201526064016104fd565b60115460ff166106fa5760405162461bcd60e51b815260206004820152600f60248201526e1b9bdd08195b98589b1959081e595d608a1b60448201526064016104fd565b3360009081526016602052604090205460ff16151560011461075e5760405162461bcd60e51b815260206004820152601d60248201527f6d73672e73656e646572206973206e6f742077686974656c697374656400000060448201526064016104fd565b60095481600a5461076f9190611472565b11156107b05760405162461bcd60e51b815260206004820152601060248201526f6f76657220746f74616c20726169736560801b60448201526064016104fd565b6012548110156107f95760405162461bcd60e51b815260206004820152601460248201527318995b1bddc81b5a5b9a5b5d5b481a5b9d995cdd60621b60448201526064016104fd565b6010544211156108395760405162461bcd60e51b815260206004820152600b60248201526a1cd85b195cc8195b99195960aa1b60448201526064016104fd565b6000610843610cde565b3360009081526017602052604090208054919250908290610865908590611472565b111561089f5760405162461bcd60e51b8152602060048201526009602482015268061626f7665206361760bc1b60448201526064016104fd565b6001546040516323b872dd60e01b8152336004820152306024820152604481018590526001600160a01b03909116906323b872dd90606401602060405180830381600087803b1580156108f157600080fd5b505af1158015610905573d6000803e3d6000fd5b505050506040513d601f19601f820116820180604052508101906109299190611389565b6109455760405162461bcd60e51b81526004016104fd90611449565b6000620f4240600554600654601354600a61096091906114ef565b61096a9088611597565b6109749190611597565b61097e919061148a565b610988919061148a565b6004805460405163219e412d60e21b81523392810192909252602482018390529192506001600160a01b039091169063867904b490604401600060405180830381600087803b1580156109da57600080fd5b505af11580156109ee573d6000803e3d6000fd5b5050505083600a6000828254610a049190611472565b9250508190555080600b6000828254610a1d9190611472565b90915550508154610a4157600160156000828254610a3b9190611472565b90915550505b83826000016000828254610a559190611472565b909155505060408051338152602081018690527fd90d253a9de34d2fdd5a75ae49ea17fcb43af32fc8ea08cc6d2341991dd3872e910160405180910390a150505050565b6000546001600160a01b03163314610ac35760405162461bcd60e51b81526004016104fd90611414565b600280546001600160a01b0319166001600160a01b0392909216919091179055565b6000546001600160a01b03163314610b0f5760405162461bcd60e51b81526004016104fd90611414565b610b196000611294565b565b6000546001600160a01b03163314610b455760405162461bcd60e51b81526004016104fd90611414565b60115460ff1615610b685760405162461bcd60e51b81526004016104fd906113dd565b6103e8811115610baf5760405162461bcd60e51b8152602060048201526012602482015271746f6f206d616e792061646472657373657360701b60448201526064016104fd565b60005b81811015610c4957600160166000858585818110610bd257610bd26115fe565b9050602002016020810190610be791906112e4565b6001600160a01b03166001600160a01b0316815260200190815260200160002060006101000a81548160ff021916908315150217905550600160146000828254610c319190611472565b90915550819050610c41816115cd565b915050610bb2565b505050565b6000600f54600d5442610c6191906115b6565b610c6b919061148a565b905090565b6000546001600160a01b03163314610c9a5760405162461bcd60e51b81526004016104fd90611414565b60115460ff1615610cbd5760405162461bcd60e51b81526004016104fd906113dd565b6001600160a01b03166000908152601660205260409020805460ff19169055565b600080610ce9610c4e565b90506000610cf88260026114ef565b600754610d059190611597565b9050600854811115610d1b576008549250505090565b92915050565b601154610100900460ff16610d6d5760405162461bcd60e51b81526020600482015260126024820152711c995919595b481b9bdd08195b98589b195960721b60448201526064016104fd565b6010544211610db35760405162461bcd60e51b81526020600482015260126024820152711b9bdd081c995919595b58589b19481e595d60721b60448201526064016104fd565b600480546040516370a0823160e01b815233928101929092526000916001600160a01b03909116906370a082319060240160206040518083038186803b158015610dfc57600080fd5b505afa158015610e10573d6000803e3d6000fd5b505050506040513d601f19601f82011682018060405250810190610e3491906113c4565b905060008111610e795760405162461bcd60e51b815260206004820152601060248201526f1b9bc8185b5bdd5b9d081a5cdcdd595960821b60448201526064016104fd565b336000908152601760205260409020600181015460ff1615610ecf5760405162461bcd60e51b815260206004820152600f60248201526e185b1c9958591e4818db185a5b5959608a1b60448201526064016104fd565b60025460405163a9059cbb60e01b8152336004820152602481018490526001600160a01b039091169063a9059cbb90604401602060405180830381600087803b158015610f1b57600080fd5b505af1158015610f2f573d6000803e3d6000fd5b505050506040513d601f19601f82011682018060405250810190610f539190611389565b610f6f5760405162461bcd60e51b81526004016104fd90611449565b600480546040516301e9a69560e41b81523392810192909252602482018490526001600160a01b031690631e9a695090604401600060405180830381600087803b158015610fbc57600080fd5b505af1158015610fd0573d6000803e3d6000fd5b5050505081600c6000828254610fe69190611472565b909155505060408051338152602081018490527f222838db2794d11532d940e8dec38ae307ed0b63cd97c233322e221f998767a6910160405180910390a16001908101805460ff1916909117905550565b6000546001600160a01b031633146110615760405162461bcd60e51b81526004016104fd90611414565b6011805460ff19166001908117909155604080519182524260208301527f020b56eb5031e351b28c7914a3185d679342016d533b3fe0d056b43fe5ecb8689101610596565b6000546001600160a01b031633146110d05760405162461bcd60e51b81526004016104fd90611414565b6001600160a01b0381166111355760405162461bcd60e51b815260206004820152602660248201527f4f776e61626c653a206e6577206f776e657220697320746865207a65726f206160448201526564647265737360d01b60648201526084016104fd565b61066f81611294565b6000546001600160a01b031633146111685760405162461bcd60e51b81526004016104fd90611414565b60115460ff161561118b5760405162461bcd60e51b81526004016104fd906113dd565b6001600160a01b0381166000908152601660205260408120805460ff1916600190811790915560148054919290916111c4908490611472565b909155505050565b6000546001600160a01b031633146111f65760405162461bcd60e51b81526004016104fd90611414565b6002546040516323b872dd60e01b8152336004820152306024820152604481018390526001600160a01b03909116906323b872dd90606401610601565b6000546001600160a01b0316331461125d5760405162461bcd60e51b81526004016104fd90611414565b60025460405163a9059cbb60e01b8152336004820152602481018390526001600160a01b039091169063a9059cbb90604401610601565b600080546001600160a01b038381166001600160a01b0319831681178455604051919092169283917f8be0079c531659141344cd1fd0a4f28419497f9722a3daafe3b4186f6b6457e09190a35050565b6000602082840312156112f657600080fd5b81356001600160a01b038116811461130d57600080fd5b9392505050565b6000806020838503121561132757600080fd5b823567ffffffffffffffff8082111561133f57600080fd5b818501915085601f83011261135357600080fd5b81358181111561136257600080fd5b8660208260051b850101111561137757600080fd5b60209290920196919550909350505050565b60006020828403121561139b57600080fd5b8151801515811461130d57600080fd5b6000602082840312156113bd57600080fd5b5035919050565b6000602082840312156113d657600080fd5b5051919050565b60208082526018908201527f73616c652068617320616c726561647920737461727465640000000000000000604082015260600190565b6020808252818101527f4f776e61626c653a2063616c6c6572206973206e6f7420746865206f776e6572604082015260600190565b6020808252600f908201526e1d1c985b9cd9995c8819985a5b1959608a1b604082015260600190565b60008219821115611485576114856115e8565b500190565b6000826114a757634e487b7160e01b600052601260045260246000fd5b500490565b600181815b808511156114e75781600019048211156114cd576114cd6115e8565b808516156114da57918102915b93841c93908002906114b1565b509250929050565b600061130d838360008261150557506001610d1b565b8161151257506000610d1b565b816001811461152857600281146115325761154e565b6001915050610d1b565b60ff841115611543576115436115e8565b50506001821b610d1b565b5060208310610133831016604e8410600b8410161715611571575081810a610d1b565b61157b83836114ac565b806000190482111561158f5761158f6115e8565b029392505050565b60008160001904831182151516156115b1576115b16115e8565b500290565b6000828210156115c8576115c86115e8565b500390565b60006000198214156115e1576115e16115e8565b5060010190565b634e487b7160e01b600052601160045260246000fd5b634e487b7160e01b600052603260045260246000fdfea2646970667358221220a31dbe92e3b6f24374c43c575fe94272d3c00c592f23f8b36b97495df092c67064736f6c63430008050033",
  "devdoc": {
    "kind": "dev",
    "methods": {
      "owner()": {
        "details": "Returns the address of the current owner."
      },
      "renounceOwnership()": {
        "details": "Leaves the contract without owner. It will not be possible to call `onlyOwner` functions anymore. Can only be called by the current owner. NOTE: Renouncing ownership will leave the contract without an owner, thereby removing any functionality that is only available to the owner."
      },
      "transferOwnership(address)": {
        "details": "Transfers ownership of the contract to a new account (`newOwner`). Can only be called by the current owner."
      }
    },
    "version": 1
  },
  "userdoc": {
    "kind": "user",
    "methods": {},
    "version": 1
  },
  "storageLayout": {
    "storage": [
      {
        "astId": 7,
        "contract": "contracts/CommunityOffering/CommunityOffering.sol:CommunityOffering",
        "label": "_owner",
        "offset": 0,
        "slot": "0",
        "type": "t_address"
      },
      {
        "astId": 525,
        "contract": "contracts/CommunityOffering/CommunityOffering.sol:CommunityOffering",
        "label": "investToken",
        "offset": 0,
        "slot": "1",
        "type": "t_address"
      },
      {
        "astId": 527,
        "contract": "contracts/CommunityOffering/CommunityOffering.sol:CommunityOffering",
        "label": "launchToken",
        "offset": 0,
        "slot": "2",
        "type": "t_address"
      },
      {
        "astId": 529,
        "contract": "contracts/CommunityOffering/CommunityOffering.sol:CommunityOffering",
        "label": "treasury",
        "offset": 0,
        "slot": "3",
        "type": "t_address"
      },
      {
        "astId": 532,
        "contract": "contracts/CommunityOffering/CommunityOffering.sol:CommunityOffering",
        "label": "nrt",
        "offset": 0,
        "slot": "4",
        "type": "t_contract(CommunityOfferingNRT)1364"
      },
      {
        "astId": 535,
        "contract": "contracts/CommunityOffering/CommunityOffering.sol:CommunityOffering",
        "label": "price",
        "offset": 0,
        "slot": "5",
        "type": "t_uint256"
      },
      {
        "astId": 538,
        "contract": "contracts/CommunityOffering/CommunityOffering.sol:CommunityOffering",
        "label": "priceQuote",
        "offset": 0,
        "slot": "6",
        "type": "t_uint256"
      },
      {
        "astId": 540,
        "contract": "contracts/CommunityOffering/CommunityOffering.sol:CommunityOffering",
        "label": "initialCap",
        "offset": 0,
        "slot": "7",
        "type": "t_uint256"
      },
      {
        "astId": 542,
        "contract": "contracts/CommunityOffering/CommunityOffering.sol:CommunityOffering",
        "label": "maxCap",
        "offset": 0,
        "slot": "8",
        "type": "t_uint256"
      },
      {
        "astId": 544,
        "contract": "contracts/CommunityOffering/CommunityOffering.sol:CommunityOffering",
        "label": "totalraiseCap",
        "offset": 0,
        "slot": "9",
        "type": "t_uint256"
      },
      {
        "astId": 546,
        "contract": "contracts/CommunityOffering/CommunityOffering.sol:CommunityOffering",
        "label": "totalraised",
        "offset": 0,
        "slot": "10",
        "type": "t_uint256"
      },
      {
        "astId": 548,
        "contract": "contracts/CommunityOffering/CommunityOffering.sol:CommunityOffering",
        "label": "totalissued",
        "offset": 0,
        "slot": "11",
        "type": "t_uint256"
      },
      {
        "astId": 550,
        "contract": "contracts/CommunityOffering/CommunityOffering.sol:CommunityOffering",
        "label": "totalredeem",
        "offset": 0,
        "slot": "12",
        "type": "t_uint256"
      },
      {
        "astId": 552,
        "contract": "contracts/CommunityOffering/CommunityOffering.sol:CommunityOffering",
        "label": "startTime",
        "offset": 0,
        "slot": "13",
        "type": "t_uint256"
      },
      {
        "astId": 554,
        "contract": "contracts/CommunityOffering/CommunityOffering.sol:CommunityOffering",
        "label": "duration",
        "offset": 0,
        "slot": "14",
        "type": "t_uint256"
      },
      {
        "astId": 556,
        "contract": "contracts/CommunityOffering/CommunityOffering.sol:CommunityOffering",
        "label": "epochTime",
        "offset": 0,
        "slot": "15",
        "type": "t_uint256"
      },
      {
        "astId": 558,
        "contract": "contracts/CommunityOffering/CommunityOffering.sol:CommunityOffering",
        "label": "endTime",
        "offset": 0,
        "slot": "16",
        "type": "t_uint256"
      },
      {
        "astId": 560,
        "contract": "contracts/CommunityOffering/CommunityOffering.sol:CommunityOffering",
        "label": "saleEnabled",
        "offset": 0,
        "slot": "17",
        "type": "t_bool"
      },
      {
        "astId": 562,
        "contract": "contracts/CommunityOffering/CommunityOffering.sol:CommunityOffering",
        "label": "redeemEnabled",
        "offset": 1,
        "slot": "17",
        "type": "t_bool"
      },
      {
        "astId": 564,
        "contract": "contracts/CommunityOffering/CommunityOffering.sol:CommunityOffering",
        "label": "mininvest",
        "offset": 0,
        "slot": "18",
        "type": "t_uint256"
      },
      {
        "astId": 567,
        "contract": "contracts/CommunityOffering/CommunityOffering.sol:CommunityOffering",
        "label": "launchDecimals",
        "offset": 0,
        "slot": "19",
        "type": "t_uint256"
      },
      {
        "astId": 570,
        "contract": "contracts/CommunityOffering/CommunityOffering.sol:CommunityOffering",
        "label": "numWhitelisted",
        "offset": 0,
        "slot": "20",
        "type": "t_uint256"
      },
      {
        "astId": 573,
        "contract": "contracts/CommunityOffering/CommunityOffering.sol:CommunityOffering",
        "label": "numInvested",
        "offset": 0,
        "slot": "21",
        "type": "t_uint256"
      },
      {
        "astId": 606,
        "contract": "contracts/CommunityOffering/CommunityOffering.sol:CommunityOffering",
        "label": "whitelisted",
        "offset": 0,
        "slot": "22",
        "type": "t_mapping(t_address,t_bool)"
      },
      {
        "astId": 611,
        "contract": "contracts/CommunityOffering/CommunityOffering.sol:CommunityOffering",
        "label": "investorInfoMap",
        "offset": 0,
        "slot": "23",
        "type": "t_mapping(t_address,t_struct(InvestorInfo)602_storage)"
      }
    ],
    "types": {
      "t_address": {
        "encoding": "inplace",
        "label": "address",
        "numberOfBytes": "20"
      },
      "t_bool": {
        "encoding": "inplace",
        "label": "bool",
        "numberOfBytes": "1"
      },
      "t_contract(CommunityOfferingNRT)1364": {
        "encoding": "inplace",
        "label": "contract CommunityOfferingNRT",
        "numberOfBytes": "20"
      },
      "t_mapping(t_address,t_bool)": {
        "encoding": "mapping",
        "key": "t_address",
        "label": "mapping(address => bool)",
        "numberOfBytes": "32",
        "value": "t_bool"
      },
      "t_mapping(t_address,t_struct(InvestorInfo)602_storage)": {
        "encoding": "mapping",
        "key": "t_address",
        "label": "mapping(address => struct CommunityOffering.InvestorInfo)",
        "numberOfBytes": "32",
        "value": "t_struct(InvestorInfo)602_storage"
      },
      "t_struct(InvestorInfo)602_storage": {
        "encoding": "inplace",
        "label": "struct CommunityOffering.InvestorInfo",
        "members": [
          {
            "astId": 599,
            "contract": "contracts/CommunityOffering/CommunityOffering.sol:CommunityOffering",
            "label": "amountInvested",
            "offset": 0,
            "slot": "0",
            "type": "t_uint256"
          },
          {
            "astId": 601,
            "contract": "contracts/CommunityOffering/CommunityOffering.sol:CommunityOffering",
            "label": "claimed",
            "offset": 0,
            "slot": "1",
            "type": "t_bool"
          }
        ],
        "numberOfBytes": "64"
      },
      "t_uint256": {
        "encoding": "inplace",
        "label": "uint256",
        "numberOfBytes": "32"
      }
    }
  }
}