{
  "address": "0x5FbDB2315678afecb367f032d93F642f64180aa3",
  "abi": [
    {
      "inputs": [
        {
          "internalType": "address",
          "name": "_investToken",
          "type": "address"
        },
        {
          "internalType": "uint256",
          "name": "_startTime",
          "type": "uint256"
        },
        {
          "internalType": "uint256",
          "name": "_duration",
          "type": "uint256"
        },
        {
          "internalType": "uint256",
          "name": "_epochTime",
          "type": "uint256"
        },
        {
          "internalType": "uint256",
          "name": "_initialCap",
          "type": "uint256"
        },
        {
          "internalType": "uint256",
          "name": "_totalraiseCap",
          "type": "uint256"
        },
        {
          "internalType": "uint256",
          "name": "_minInvest",
          "type": "uint256"
        },
        {
          "internalType": "address",
          "name": "_treasury",
          "type": "address"
        }
      ],
      "stateMutability": "nonpayable",
      "type": "constructor"
    },
    {
      "anonymous": false,
      "inputs": [
        {
          "indexed": false,
          "internalType": "address",
          "name": "investor",
          "type": "address"
        },
        {
          "indexed": false,
          "internalType": "uint256",
          "name": "amount",
          "type": "uint256"
        }
      ],
      "name": "Invest",
      "type": "event"
    },
    {
      "anonymous": false,
      "inputs": [
        {
          "indexed": true,
          "internalType": "address",
          "name": "previousOwner",
          "type": "address"
        },
        {
          "indexed": true,
          "internalType": "address",
          "name": "newOwner",
          "type": "address"
        }
      ],
      "name": "OwnershipTransferred",
      "type": "event"
    },
    {
      "anonymous": false,
      "inputs": [
        {
          "indexed": false,
          "internalType": "address",
          "name": "investor",
          "type": "address"
        },
        {
          "indexed": false,
          "internalType": "uint256",
          "name": "amount",
          "type": "uint256"
        }
      ],
      "name": "Redeem",
      "type": "event"
    },
    {
      "anonymous": false,
      "inputs": [
        {
          "indexed": false,
          "internalType": "bool",
          "name": "enabled",
          "type": "bool"
        },
        {
          "indexed": false,
          "internalType": "uint256",
          "name": "time",
          "type": "uint256"
        }
      ],
      "name": "RedeemEnabled",
      "type": "event"
    },
    {
      "anonymous": false,
      "inputs": [
        {
          "indexed": false,
          "internalType": "bool",
          "name": "enabled",
          "type": "bool"
        },
        {
          "indexed": false,
          "internalType": "uint256",
          "name": "time",
          "type": "uint256"
        }
      ],
      "name": "SaleEnabled",
      "type": "event"
    },
    {
      "inputs": [
        {
          "internalType": "address[]",
          "name": "_addresses",
          "type": "address[]"
        }
      ],
      "name": "addMultipleWhitelist",
      "outputs": [],
      "stateMutability": "nonpayable",
      "type": "function"
    },
    {
      "inputs": [
        {
          "internalType": "address",
          "name": "_address",
          "type": "address"
        }
      ],
      "name": "addWhitelist",
      "outputs": [],
      "stateMutability": "nonpayable",
      "type": "function"
    },
    {
      "inputs": [],
      "name": "currentCap",
      "outputs": [
        {
          "internalType": "uint256",
          "name": "",
          "type": "uint256"
        }
      ],
      "stateMutability": "view",
      "type": "function"
    },
    {
      "inputs": [],
      "name": "currentEpoch",
      "outputs": [
        {
          "internalType": "uint256",
          "name": "",
          "type": "uint256"
        }
      ],
      "stateMutability": "view",
      "type": "function"
    },
    {
      "inputs": [
        {
          "internalType": "uint256",
          "name": "amount",
          "type": "uint256"
        }
      ],
      "name": "depositLaunchtoken",
      "outputs": [],
      "stateMutability": "nonpayable",
      "type": "function"
    },
    {
      "inputs": [],
      "name": "duration",
      "outputs": [
        {
          "internalType": "uint256",
          "name": "",
          "type": "uint256"
        }
      ],
      "stateMutability": "view",
      "type": "function"
    },
    {
      "inputs": [],
      "name": "enableRedeem",
      "outputs": [],
      "stateMutability": "nonpayable",
      "type": "function"
    },
    {
      "inputs": [],
      "name": "enableSale",
      "outputs": [],
      "stateMutability": "nonpayable",
      "type": "function"
    },
    {
      "inputs": [],
      "name": "endTime",
      "outputs": [
        {
          "internalType": "uint256",
          "name": "",
          "type": "uint256"
        }
      ],
      "stateMutability": "view",
      "type": "function"
    },
    {
      "inputs": [],
      "name": "epochTime",
      "outputs": [
        {
          "internalType": "uint256",
          "name": "",
          "type": "uint256"
        }
      ],
      "stateMutability": "view",
      "type": "function"
    },
    {
      "inputs": [],
      "name": "initialCap",
      "outputs": [
        {
          "internalType": "uint256",
          "name": "",
          "type": "uint256"
        }
      ],
      "stateMutability": "view",
      "type": "function"
    },
    {
      "inputs": [
        {
          "internalType": "uint256",
          "name": "investAmount",
          "type": "uint256"
        }
      ],
      "name": "invest",
      "outputs": [],
      "stateMutability": "nonpayable",
      "type": "function"
    },
    {
      "inputs": [],
      "name": "investToken",
      "outputs": [
        {
          "internalType": "address",
          "name": "",
          "type": "address"
        }
      ],
      "stateMutability": "view",
      "type": "function"
    },
    {
      "inputs": [
        {
          "internalType": "address",
          "name": "",
          "type": "address"
        }
      ],
      "name": "investorInfoMap",
      "outputs": [
        {
          "internalType": "uint256",
          "name": "amountInvested",
          "type": "uint256"
        },
        {
          "internalType": "bool",
          "name": "claimed",
          "type": "bool"
        }
      ],
      "stateMutability": "view",
      "type": "function"
    },
    {
      "inputs": [],
      "name": "launchDecimals",
      "outputs": [
        {
          "internalType": "uint256",
          "name": "",
          "type": "uint256"
        }
      ],
      "stateMutability": "view",
      "type": "function"
    },
    {
      "inputs": [],
      "name": "launchToken",
      "outputs": [
        {
          "internalType": "address",
          "name": "",
          "type": "address"
        }
      ],
      "stateMutability": "view",
      "type": "function"
    },
    {
      "inputs": [],
      "name": "maxCap",
      "outputs": [
        {
          "internalType": "uint256",
          "name": "",
          "type": "uint256"
        }
      ],
      "stateMutability": "view",
      "type": "function"
    },
    {
      "inputs": [],
      "name": "mininvest",
      "outputs": [
        {
          "internalType": "uint256",
          "name": "",
          "type": "uint256"
        }
      ],
      "stateMutability": "view",
      "type": "function"
    },
    {
      "inputs": [],
      "name": "nrt",
      "outputs": [
        {
          "internalType": "contract CommunityOfferingNRT",
          "name": "",
          "type": "address"
        }
      ],
      "stateMutability": "view",
      "type": "function"
    },
    {
      "inputs": [],
      "name": "numInvested",
      "outputs": [
        {
          "internalType": "uint256",
          "name": "",
          "type": "uint256"
        }
      ],
      "stateMutability": "view",
      "type": "function"
    },
    {
      "inputs": [],
      "name": "numWhitelisted",
      "outputs": [
        {
          "internalType": "uint256",
          "name": "",
          "type": "uint256"
        }
      ],
      "stateMutability": "view",
      "type": "function"
    },
    {
      "inputs": [],
      "name": "owner",
      "outputs": [
        {
          "internalType": "address",
          "name": "",
          "type": "address"
        }
      ],
      "stateMutability": "view",
      "type": "function"
    },
    {
      "inputs": [],
      "name": "price",
      "outputs": [
        {
          "internalType": "uint256",
          "name": "",
          "type": "uint256"
        }
      ],
      "stateMutability": "view",
      "type": "function"
    },
    {
      "inputs": [],
      "name": "priceQuote",
      "outputs": [
        {
          "internalType": "uint256",
          "name": "",
          "type": "uint256"
        }
      ],
      "stateMutability": "view",
      "type": "function"
    },
    {
      "inputs": [],
      "name": "redeem",
      "outputs": [],
      "stateMutability": "nonpayable",
      "type": "function"
    },
    {
      "inputs": [],
      "name": "redeemEnabled",
      "outputs": [
        {
          "internalType": "bool",
          "name": "",
          "type": "bool"
        }
      ],
      "stateMutability": "view",
      "type": "function"
    },
    {
      "inputs": [
        {
          "internalType": "address",
          "name": "_address",
          "type": "address"
        }
      ],
      "name": "removeWhitelist",
      "outputs": [],
      "stateMutability": "nonpayable",
      "type": "function"
    },
    {
      "inputs": [],
      "name": "renounceOwnership",
      "outputs": [],
      "stateMutability": "nonpayable",
      "type": "function"
    },
    {
      "inputs": [],
      "name": "saleEnabled",
      "outputs": [
        {
          "internalType": "bool",
          "name": "",
          "type": "bool"
        }
      ],
      "stateMutability": "view",
      "type": "function"
    },
    {
      "inputs": [
        {
          "internalType": "address",
          "name": "_launchToken",
          "type": "address"
        }
      ],
      "name": "setLaunchToken",
      "outputs": [],
      "stateMutability": "nonpayable",
      "type": "function"
    },
    {
      "inputs": [],
      "name": "startTime",
      "outputs": [
        {
          "internalType": "uint256",
          "name": "",
          "type": "uint256"
        }
      ],
      "stateMutability": "view",
      "type": "function"
    },
    {
      "inputs": [],
      "name": "totalissued",
      "outputs": [
        {
          "internalType": "uint256",
          "name": "",
          "type": "uint256"
        }
      ],
      "stateMutability": "view",
      "type": "function"
    },
    {
      "inputs": [],
      "name": "totalraiseCap",
      "outputs": [
        {
          "internalType": "uint256",
          "name": "",
          "type": "uint256"
        }
      ],
      "stateMutability": "view",
      "type": "function"
    },
    {
      "inputs": [],
      "name": "totalraised",
      "outputs": [
        {
          "internalType": "uint256",
          "name": "",
          "type": "uint256"
        }
      ],
      "stateMutability": "view",
      "type": "function"
    },
    {
      "inputs": [],
      "name": "totalredeem",
      "outputs": [
        {
          "internalType": "uint256",
          "name": "",
          "type": "uint256"
        }
      ],
      "stateMutability": "view",
      "type": "function"
    },
    {
      "inputs": [
        {
          "internalType": "address",
          "name": "newOwner",
          "type": "address"
        }
      ],
      "name": "transferOwnership",
      "outputs": [],
      "stateMutability": "nonpayable",
      "type": "function"
    },
    {
      "inputs": [],
      "name": "treasury",
      "outputs": [
        {
          "internalType": "address",
          "name": "",
          "type": "address"
        }
      ],
      "stateMutability": "view",
      "type": "function"
    },
    {
      "inputs": [
        {
          "internalType": "address",
          "name": "",
          "type": "address"
        }
      ],
      "name": "whitelisted",
      "outputs": [
        {
          "internalType": "bool",
          "name": "",
          "type": "bool"
        }
      ],
      "stateMutability": "view",
      "type": "function"
    },
    {
      "inputs": [
        {
          "internalType": "uint256",
          "name": "amount",
          "type": "uint256"
        }
      ],
      "name": "withdrawLaunchtoken",
      "outputs": [],
      "stateMutability": "nonpayable",
      "type": "function"
    },
    {
      "inputs": [
        {
          "internalType": "uint256",
          "name": "amount",
          "type": "uint256"
        }
      ],
      "name": "withdrawTreasury",
      "outputs": [],
      "stateMutability": "nonpayable",
      "type": "function"
    }
  ],
  "transactionHash": "0x081e3fb628cade5a1255ca823ade04c392331b6eb0e256cced5d8b44ec06822f",
  "args": [
    "0xA7D7079b0FEaD91F3e65f86E8915Cb59c1a4C664",
    0,
    60000,
    1000,
    0,
    1000,
    100,
    "0x4a15DEd9E9d872A1dC191739859D783FB87650c1"
  ],
  "solcInputHash": "2df9c97e1d42eb45fbef928d324b3982",
  "bytecode": "0x6080604052605060055560646006556009601355600060145560006015553480156200002a57600080fd5b5060405162002268380380620022688339810160408190526200004d9162000233565b6200005833620001b8565b600180546001600160a01b03808b166001600160a01b031992831617909255600d899055600e889055600f879055600786905560098590556012849055600380549284169290911691909117905562093a808610620000f15760405162461bcd60e51b81526020600482015260116024820152706475726174696f6e20746f6f206c6f6e6760781b604482015260640160405180910390fd5b600e54600d54620001039190620002a5565b601055604051600990620001179062000208565b60408082526019908201527f436f6d6d756e6974794672616374696f6e616c526f636b65740000000000000060608201526020810191909152608001604051809103906000f08015801562000170573d6000803e3d6000fd5b50600480546001600160a01b0319166001600160a01b039290921691909117905550506011805461ffff19169055505068d8d726b7177a80000060085550620002cc92505050565b600080546001600160a01b038381166001600160a01b0319831681178455604051919092169283917f8be0079c531659141344cd1fd0a4f28419497f9722a3daafe3b4186f6b6457e09190a35050565b6109d6806200189283390190565b80516001600160a01b03811681146200022e57600080fd5b919050565b600080600080600080600080610100898b0312156200025157600080fd5b6200025c8962000216565b97506020890151965060408901519550606089015194506080890151935060a0890151925060c089015191506200029660e08a0162000216565b90509295985092959890939650565b60008219821115620002c757634e487b7160e01b600052601160045260246000fd5b500190565b6115b680620002dc6000396000f3fe608060405234801561001057600080fd5b50600436106102485760003560e01c80638a5396a31161013b578063be040fb0116100b8578063f2fde38b1161007c578063f2fde38b14610448578063f703f36f1461045b578063f80f5dd51461049a578063f9fd3ba2146104ad578063ff16e750146104c057600080fd5b8063be040fb0146103f0578063c683d8e4146103f8578063d2f8253614610400578063d936547e14610412578063e545338c1461043557600080fd5b8063b5224c44116100ff578063b5224c44146103b9578063b811215e146103c2578063badf822b146103cb578063bc284c5c146103de578063bc5c619a146103e757600080fd5b80638a5396a31461037a5780638da5cb5b14610383578063a035b1fe14610394578063a28a4d861461039d578063a4197afc146103b057600080fd5b8063604a85da116101c9578063766718081161018d578063766718081461034557806378c8cda71461034d57806378e9792514610360578063856ed70314610369578063861d8e131461037157600080fd5b8063604a85da146102cf57806361d027b3146102e2578063715018a61461030d57806371b9b64614610315578063729413161461033257600080fd5b806323548b8b1161021057806323548b8b146102985780632afcf480146102a15780633197cbb6146102b45780635053e461146102bd57806354dacb96146102c657600080fd5b8063061873e81461024d5780630b1258a0146102575780630fb5a6b41461027357806311f1fc991461027c57806322e274031461028f575b600080fd5b6102556104d3565b005b61026060135481565b6040519081526020015b60405180910390f35b610260600e5481565b61025561028a366004611317565b6105a0565b610260600c5481565b61026060085481565b6102556102af366004611317565b610672565b61026060105481565b610260600f5481565b61026060145481565b6102556102dd366004611250565b610a4b565b6003546102f5906001600160a01b031681565b6040516001600160a01b03909116815260200161026a565b610255610a97565b6011546103229060ff1681565b604051901515815260200161026a565b610255610340366004611280565b610acd565b610260610c00565b61025561035b366004611250565b610c22565b610260600d5481565b610260610c90565b61026060155481565b610260600a5481565b6000546001600160a01b03166102f5565b61026060055481565b6002546102f5906001600160a01b031681565b610260600b5481565b61026060095481565b61026060075481565b6001546102f5906001600160a01b031681565b61026060125481565b61026060065481565b610255610cd3565b610255610fa3565b60115461032290610100900460ff1681565b610322610420366004611250565b60166020526000908152604090205460ff1681565b6004546102f5906001600160a01b031681565b610255610456366004611250565b611012565b610485610469366004611250565b6017602052600090815260409020805460019091015460ff1682565b6040805192835290151560208301520161026a565b6102556104a8366004611250565b6110aa565b6102556104bb366004611317565b611138565b6102556104ce366004611317565b61119f565b6000546001600160a01b031633146105065760405162461bcd60e51b81526004016104fd90611380565b60405180910390fd5b6002546001600160a01b03166105555760405162461bcd60e51b81526020600482015260146024820152731b185d5b98da081d1bdad95b881b9bdd081cd95d60621b60448201526064016104fd565b6011805461ff00191661010017905560408051600181524260208201527fef5fd91dc9b012f3e4b41e00dc71466a39c83d97c3cc3879de5b9193f456c63091015b60405180910390a1565b6000546001600160a01b031633146105ca5760405162461bcd60e51b81526004016104fd90611380565b60015460035460405163a9059cbb60e01b81526001600160a01b0391821660048201526024810184905291169063a9059cbb906044015b602060405180830381600087803b15801561061b57600080fd5b505af115801561062f573d6000803e3d6000fd5b505050506040513d601f19601f8201168201806040525081019061065391906112f5565b61066f5760405162461bcd60e51b81526004016104fd906113b5565b50565b600d544210156106b65760405162461bcd60e51b815260206004820152600f60248201526e1b9bdd081cdd185c9d1959081e595d608a1b60448201526064016104fd565b60115460ff166106fa5760405162461bcd60e51b815260206004820152600f60248201526e1b9bdd08195b98589b1959081e595d608a1b60448201526064016104fd565b3360009081526016602052604090205460ff16151560011461075e5760405162461bcd60e51b815260206004820152601d60248201527f6d73672e73656e646572206973206e6f742077686974656c697374656400000060448201526064016104fd565b60095481600a5461076f91906113de565b11156107b05760405162461bcd60e51b815260206004820152601060248201526f6f76657220746f74616c20726169736560801b60448201526064016104fd565b6012548110156107f95760405162461bcd60e51b815260206004820152601460248201527318995b1bddc81b5a5b9a5b5d5b481a5b9d995cdd60621b60448201526064016104fd565b6000610803610c90565b33600090815260176020526040902080549192509082906108259085906113de565b111561085f5760405162461bcd60e51b8152602060048201526009602482015268061626f7665206361760bc1b60448201526064016104fd565b6001546040516323b872dd60e01b8152336004820152306024820152604481018590526001600160a01b03909116906323b872dd90606401602060405180830381600087803b1580156108b157600080fd5b505af11580156108c5573d6000803e3d6000fd5b505050506040513d601f19601f820116820180604052508101906108e991906112f5565b6109055760405162461bcd60e51b81526004016104fd906113b5565b6000601354600a610916919061145b565b6005546109239190611503565b6006546109309086611503565b61093a91906113f6565b6004805460405163219e412d60e21b81523392810192909252602482018390529192506001600160a01b039091169063867904b490604401600060405180830381600087803b15801561098c57600080fd5b505af11580156109a0573d6000803e3d6000fd5b5050505083600a60008282546109b691906113de565b9250508190555080600b60008282546109cf91906113de565b909155505081546109f3576001601560008282546109ed91906113de565b90915550505b83826000016000828254610a0791906113de565b909155505060408051338152602081018690527fd90d253a9de34d2fdd5a75ae49ea17fcb43af32fc8ea08cc6d2341991dd3872e910160405180910390a150505050565b6000546001600160a01b03163314610a755760405162461bcd60e51b81526004016104fd90611380565b600280546001600160a01b0319166001600160a01b0392909216919091179055565b6000546001600160a01b03163314610ac15760405162461bcd60e51b81526004016104fd90611380565b610acb6000611200565b565b6000546001600160a01b03163314610af75760405162461bcd60e51b81526004016104fd90611380565b60115460ff1615610b1a5760405162461bcd60e51b81526004016104fd90611349565b6103e8811115610b615760405162461bcd60e51b8152602060048201526012602482015271746f6f206d616e792061646472657373657360701b60448201526064016104fd565b60005b81811015610bfb57600160166000858585818110610b8457610b8461156a565b9050602002016020810190610b999190611250565b6001600160a01b03166001600160a01b0316815260200190815260200160002060006101000a81548160ff021916908315150217905550600160146000828254610be391906113de565b90915550819050610bf381611539565b915050610b64565b505050565b6000600f54600d5442610c139190611522565b610c1d91906113f6565b905090565b6000546001600160a01b03163314610c4c5760405162461bcd60e51b81526004016104fd90611380565b60115460ff1615610c6f5760405162461bcd60e51b81526004016104fd90611349565b6001600160a01b03166000908152601660205260409020805460ff19169055565b600080610c9b610c00565b90506000610caa82600261145b565b600754610cb79190611503565b9050600854811115610ccd576008549250505090565b92915050565b601154610100900460ff16610d1f5760405162461bcd60e51b81526020600482015260126024820152711c995919595b481b9bdd08195b98589b195960721b60448201526064016104fd565b600480546040516370a0823160e01b815233928101929092526000916001600160a01b03909116906370a082319060240160206040518083038186803b158015610d6857600080fd5b505afa158015610d7c573d6000803e3d6000fd5b505050506040513d601f19601f82011682018060405250810190610da09190611330565b905060008111610de55760405162461bcd60e51b815260206004820152601060248201526f1b9bc8185b5bdd5b9d081a5cdcdd595960821b60448201526064016104fd565b336000908152601760205260409020600181015460ff1615610e3b5760405162461bcd60e51b815260206004820152600f60248201526e185b1c9958591e4818db185a5b5959608a1b60448201526064016104fd565b60025460405163a9059cbb60e01b8152336004820152602481018490526001600160a01b039091169063a9059cbb90604401602060405180830381600087803b158015610e8757600080fd5b505af1158015610e9b573d6000803e3d6000fd5b505050506040513d601f19601f82011682018060405250810190610ebf91906112f5565b610edb5760405162461bcd60e51b81526004016104fd906113b5565b600480546040516301e9a69560e41b81523392810192909252602482018490526001600160a01b031690631e9a695090604401600060405180830381600087803b158015610f2857600080fd5b505af1158015610f3c573d6000803e3d6000fd5b5050505081600c6000828254610f5291906113de565b909155505060408051338152602081018490527f222838db2794d11532d940e8dec38ae307ed0b63cd97c233322e221f998767a6910160405180910390a16001908101805460ff1916909117905550565b6000546001600160a01b03163314610fcd5760405162461bcd60e51b81526004016104fd90611380565b6011805460ff19166001908117909155604080519182524260208301527f020b56eb5031e351b28c7914a3185d679342016d533b3fe0d056b43fe5ecb8689101610596565b6000546001600160a01b0316331461103c5760405162461bcd60e51b81526004016104fd90611380565b6001600160a01b0381166110a15760405162461bcd60e51b815260206004820152602660248201527f4f776e61626c653a206e6577206f776e657220697320746865207a65726f206160448201526564647265737360d01b60648201526084016104fd565b61066f81611200565b6000546001600160a01b031633146110d45760405162461bcd60e51b81526004016104fd90611380565b60115460ff16156110f75760405162461bcd60e51b81526004016104fd90611349565b6001600160a01b0381166000908152601660205260408120805460ff1916600190811790915560148054919290916111309084906113de565b909155505050565b6000546001600160a01b031633146111625760405162461bcd60e51b81526004016104fd90611380565b6002546040516323b872dd60e01b8152336004820152306024820152604481018390526001600160a01b03909116906323b872dd90606401610601565b6000546001600160a01b031633146111c95760405162461bcd60e51b81526004016104fd90611380565b60025460405163a9059cbb60e01b8152336004820152602481018390526001600160a01b039091169063a9059cbb90604401610601565b600080546001600160a01b038381166001600160a01b0319831681178455604051919092169283917f8be0079c531659141344cd1fd0a4f28419497f9722a3daafe3b4186f6b6457e09190a35050565b60006020828403121561126257600080fd5b81356001600160a01b038116811461127957600080fd5b9392505050565b6000806020838503121561129357600080fd5b823567ffffffffffffffff808211156112ab57600080fd5b818501915085601f8301126112bf57600080fd5b8135818111156112ce57600080fd5b8660208260051b85010111156112e357600080fd5b60209290920196919550909350505050565b60006020828403121561130757600080fd5b8151801515811461127957600080fd5b60006020828403121561132957600080fd5b5035919050565b60006020828403121561134257600080fd5b5051919050565b60208082526018908201527f73616c652068617320616c726561647920737461727465640000000000000000604082015260600190565b6020808252818101527f4f776e61626c653a2063616c6c6572206973206e6f7420746865206f776e6572604082015260600190565b6020808252600f908201526e1d1c985b9cd9995c8819985a5b1959608a1b604082015260600190565b600082198211156113f1576113f1611554565b500190565b60008261141357634e487b7160e01b600052601260045260246000fd5b500490565b600181815b8085111561145357816000190482111561143957611439611554565b8085161561144657918102915b93841c939080029061141d565b509250929050565b6000611279838360008261147157506001610ccd565b8161147e57506000610ccd565b8160018114611494576002811461149e576114ba565b6001915050610ccd565b60ff8411156114af576114af611554565b50506001821b610ccd565b5060208310610133831016604e8410600b84101617156114dd575081810a610ccd565b6114e78383611418565b80600019048211156114fb576114fb611554565b029392505050565b600081600019048311821515161561151d5761151d611554565b500290565b60008282101561153457611534611554565b500390565b600060001982141561154d5761154d611554565b5060010190565b634e487b7160e01b600052601160045260246000fd5b634e487b7160e01b600052603260045260246000fdfea2646970667358221220aa8cde85216083a5e46b09220e8de1319f00c2e0fc5882edb6f748702e66e41564736f6c6343000805003360806040523480156200001157600080fd5b50604051620009d6380380620009d683398101604081905262000034916200015f565b6200003f3362000069565b815162000054906004906020850190620000b9565b50600355506000600181905560025562000297565b600080546001600160a01b038381166001600160a01b0319831681178455604051919092169283917f8be0079c531659141344cd1fd0a4f28419497f9722a3daafe3b4186f6b6457e09190a35050565b828054620000c79062000244565b90600052602060002090601f016020900481019282620000eb576000855562000136565b82601f106200010657805160ff191683800117855562000136565b8280016001018555821562000136579182015b828111156200013657825182559160200191906001019062000119565b506200014492915062000148565b5090565b5b8082111562000144576000815560010162000149565b600080604083850312156200017357600080fd5b82516001600160401b03808211156200018b57600080fd5b818501915085601f830112620001a057600080fd5b815181811115620001b557620001b562000281565b604051601f8201601f19908116603f01168101908382118183101715620001e057620001e062000281565b81604052828152602093508884848701011115620001fd57600080fd5b600091505b8282101562000221578482018401518183018501529083019062000202565b82821115620002335760008484830101525b969092015195979596505050505050565b600181811c908216806200025957607f821691505b602082108114156200027b57634e487b7160e01b600052602260045260246000fd5b50919050565b634e487b7160e01b600052604160045260246000fd5b61072f80620002a76000396000f3fe608060405234801561001057600080fd5b506004361061009e5760003560e01c8063867904b411610066578063867904b4146101085780638da5cb5b1461011b57806395d89b4114610136578063caacafe21461014b578063f2fde38b1461015357600080fd5b80631e9a6950146100a3578063313ce567146100b85780636291f572146100cf57806370a08231146100d7578063715018a614610100575b600080fd5b6100b66100b13660046105c5565b610166565b005b6003545b6040519081526020015b60405180910390f35b6001546100bc565b6100bc6100e53660046105a3565b6001600160a01b031660009081526005602052604090205490565b6100b66102c9565b6100b66101163660046105c5565b6102ff565b6000546040516001600160a01b0390911681526020016100c6565b61013e61040a565b6040516100c691906105ef565b6002546100bc565b6100b66101613660046105a3565b61049c565b6000546001600160a01b031633146101995760405162461bcd60e51b815260040161019090610644565b60405180910390fd5b6001600160a01b0382166101de5760405162461bcd60e51b815260206004820152600c60248201526b7a65726f206164647265737360a01b6044820152606401610190565b6001600160a01b03821660009081526005602052604090205481111561023c5760405162461bcd60e51b8152602060048201526013602482015272496e737566666963656e742062616c616e636560681b6044820152606401610190565b6001600160a01b03821660009081526005602052604081208054839290610264908490610691565b92505081905550806002600082825461027d9190610691565b9091555050604080516001600160a01b0384168152602081018390527f4896181ff8f4543cc00db9fe9b6fb7e6f032b7eb772c72ab1ec1b4d2e03b936991015b60405180910390a15050565b6000546001600160a01b031633146102f35760405162461bcd60e51b815260040161019090610644565b6102fd6000610537565b565b6000546001600160a01b031633146103295760405162461bcd60e51b815260040161019090610644565b6001600160a01b03821661036e5760405162461bcd60e51b815260206004820152600c60248201526b7a65726f206164647265737360a01b6044820152606401610190565b80600160008282546103809190610679565b9250508190555080600260008282546103999190610679565b90915550506001600160a01b038216600090815260056020526040812080548392906103c6908490610679565b9091555050604080516001600160a01b0384168152602081018390527fa59f12e354e8cd10bb74c559844c2dd69a5458e31fe56c7594c62ca57480509a91016102bd565b606060048054610419906106a8565b80601f0160208091040260200160405190810160405280929190818152602001828054610445906106a8565b80156104925780601f1061046757610100808354040283529160200191610492565b820191906000526020600020905b81548152906001019060200180831161047557829003601f168201915b5050505050905090565b6000546001600160a01b031633146104c65760405162461bcd60e51b815260040161019090610644565b6001600160a01b03811661052b5760405162461bcd60e51b815260206004820152602660248201527f4f776e61626c653a206e6577206f776e657220697320746865207a65726f206160448201526564647265737360d01b6064820152608401610190565b61053481610537565b50565b600080546001600160a01b038381166001600160a01b0319831681178455604051919092169283917f8be0079c531659141344cd1fd0a4f28419497f9722a3daafe3b4186f6b6457e09190a35050565b80356001600160a01b038116811461059e57600080fd5b919050565b6000602082840312156105b557600080fd5b6105be82610587565b9392505050565b600080604083850312156105d857600080fd5b6105e183610587565b946020939093013593505050565b600060208083528351808285015260005b8181101561061c57858101830151858201604001528201610600565b8181111561062e576000604083870101525b50601f01601f1916929092016040019392505050565b6020808252818101527f4f776e61626c653a2063616c6c6572206973206e6f7420746865206f776e6572604082015260600190565b6000821982111561068c5761068c6106e3565b500190565b6000828210156106a3576106a36106e3565b500390565b600181811c908216806106bc57607f821691505b602082108114156106dd57634e487b7160e01b600052602260045260246000fd5b50919050565b634e487b7160e01b600052601160045260246000fdfea2646970667358221220c548e73f029b03dcc4a2871eddb78041bfbd7bf78a203a86c307f8607f34092e64736f6c63430008050033",
  "devdoc": {
    "kind": "dev",
    "methods": {
      "owner()": {
        "details": "Returns the address of the current owner."
      },
      "renounceOwnership()": {
        "details": "Leaves the contract without owner. It will not be possible to call `onlyOwner` functions anymore. Can only be called by the current owner. NOTE: Renouncing ownership will leave the contract without an owner, thereby removing any functionality that is only available to the owner."
      },
      "transferOwnership(address)": {
        "details": "Transfers ownership of the contract to a new account (`newOwner`). Can only be called by the current owner."
      }
    },
    "version": 1
  },
  "userdoc": {
    "kind": "user",
    "methods": {},
    "version": 1
  },
  "storageLayout": {
    "storage": [
      {
        "astId": 7,
        "contract": "contracts/CommunityOffering/CommunityOffering.sol:CommunityOffering",
        "label": "_owner",
        "offset": 0,
        "slot": "0",
        "type": "t_address"
      },
      {
        "astId": 525,
        "contract": "contracts/CommunityOffering/CommunityOffering.sol:CommunityOffering",
        "label": "investToken",
        "offset": 0,
        "slot": "1",
        "type": "t_address"
      },
      {
        "astId": 527,
        "contract": "contracts/CommunityOffering/CommunityOffering.sol:CommunityOffering",
        "label": "launchToken",
        "offset": 0,
        "slot": "2",
        "type": "t_address"
      },
      {
        "astId": 529,
        "contract": "contracts/CommunityOffering/CommunityOffering.sol:CommunityOffering",
        "label": "treasury",
        "offset": 0,
        "slot": "3",
        "type": "t_address"
      },
      {
        "astId": 532,
        "contract": "contracts/CommunityOffering/CommunityOffering.sol:CommunityOffering",
        "label": "nrt",
        "offset": 0,
        "slot": "4",
        "type": "t_contract(CommunityOfferingNRT)1346"
      },
      {
        "astId": 535,
        "contract": "contracts/CommunityOffering/CommunityOffering.sol:CommunityOffering",
        "label": "price",
        "offset": 0,
        "slot": "5",
        "type": "t_uint256"
      },
      {
        "astId": 538,
        "contract": "contracts/CommunityOffering/CommunityOffering.sol:CommunityOffering",
        "label": "priceQuote",
        "offset": 0,
        "slot": "6",
        "type": "t_uint256"
      },
      {
        "astId": 540,
        "contract": "contracts/CommunityOffering/CommunityOffering.sol:CommunityOffering",
        "label": "initialCap",
        "offset": 0,
        "slot": "7",
        "type": "t_uint256"
      },
      {
        "astId": 542,
        "contract": "contracts/CommunityOffering/CommunityOffering.sol:CommunityOffering",
        "label": "maxCap",
        "offset": 0,
        "slot": "8",
        "type": "t_uint256"
      },
      {
        "astId": 544,
        "contract": "contracts/CommunityOffering/CommunityOffering.sol:CommunityOffering",
        "label": "totalraiseCap",
        "offset": 0,
        "slot": "9",
        "type": "t_uint256"
      },
      {
        "astId": 546,
        "contract": "contracts/CommunityOffering/CommunityOffering.sol:CommunityOffering",
        "label": "totalraised",
        "offset": 0,
        "slot": "10",
        "type": "t_uint256"
      },
      {
        "astId": 548,
        "contract": "contracts/CommunityOffering/CommunityOffering.sol:CommunityOffering",
        "label": "totalissued",
        "offset": 0,
        "slot": "11",
        "type": "t_uint256"
      },
      {
        "astId": 550,
        "contract": "contracts/CommunityOffering/CommunityOffering.sol:CommunityOffering",
        "label": "totalredeem",
        "offset": 0,
        "slot": "12",
        "type": "t_uint256"
      },
      {
        "astId": 552,
        "contract": "contracts/CommunityOffering/CommunityOffering.sol:CommunityOffering",
        "label": "startTime",
        "offset": 0,
        "slot": "13",
        "type": "t_uint256"
      },
      {
        "astId": 554,
        "contract": "contracts/CommunityOffering/CommunityOffering.sol:CommunityOffering",
        "label": "duration",
        "offset": 0,
        "slot": "14",
        "type": "t_uint256"
      },
      {
        "astId": 556,
        "contract": "contracts/CommunityOffering/CommunityOffering.sol:CommunityOffering",
        "label": "epochTime",
        "offset": 0,
        "slot": "15",
        "type": "t_uint256"
      },
      {
        "astId": 558,
        "contract": "contracts/CommunityOffering/CommunityOffering.sol:CommunityOffering",
        "label": "endTime",
        "offset": 0,
        "slot": "16",
        "type": "t_uint256"
      },
      {
        "astId": 560,
        "contract": "contracts/CommunityOffering/CommunityOffering.sol:CommunityOffering",
        "label": "saleEnabled",
        "offset": 0,
        "slot": "17",
        "type": "t_bool"
      },
      {
        "astId": 562,
        "contract": "contracts/CommunityOffering/CommunityOffering.sol:CommunityOffering",
        "label": "redeemEnabled",
        "offset": 1,
        "slot": "17",
        "type": "t_bool"
      },
      {
        "astId": 564,
        "contract": "contracts/CommunityOffering/CommunityOffering.sol:CommunityOffering",
        "label": "mininvest",
        "offset": 0,
        "slot": "18",
        "type": "t_uint256"
      },
      {
        "astId": 567,
        "contract": "contracts/CommunityOffering/CommunityOffering.sol:CommunityOffering",
        "label": "launchDecimals",
        "offset": 0,
        "slot": "19",
        "type": "t_uint256"
      },
      {
        "astId": 570,
        "contract": "contracts/CommunityOffering/CommunityOffering.sol:CommunityOffering",
        "label": "numWhitelisted",
        "offset": 0,
        "slot": "20",
        "type": "t_uint256"
      },
      {
        "astId": 573,
        "contract": "contracts/CommunityOffering/CommunityOffering.sol:CommunityOffering",
        "label": "numInvested",
        "offset": 0,
        "slot": "21",
        "type": "t_uint256"
      },
      {
        "astId": 606,
        "contract": "contracts/CommunityOffering/CommunityOffering.sol:CommunityOffering",
        "label": "whitelisted",
        "offset": 0,
        "slot": "22",
        "type": "t_mapping(t_address,t_bool)"
      },
      {
        "astId": 611,
        "contract": "contracts/CommunityOffering/CommunityOffering.sol:CommunityOffering",
        "label": "investorInfoMap",
        "offset": 0,
        "slot": "23",
        "type": "t_mapping(t_address,t_struct(InvestorInfo)602_storage)"
      }
    ],
    "types": {
      "t_address": {
        "encoding": "inplace",
        "label": "address",
        "numberOfBytes": "20"
      },
      "t_bool": {
        "encoding": "inplace",
        "label": "bool",
        "numberOfBytes": "1"
      },
      "t_contract(CommunityOfferingNRT)1346": {
        "encoding": "inplace",
        "label": "contract CommunityOfferingNRT",
        "numberOfBytes": "20"
      },
      "t_mapping(t_address,t_bool)": {
        "encoding": "mapping",
        "key": "t_address",
        "label": "mapping(address => bool)",
        "numberOfBytes": "32",
        "value": "t_bool"
      },
      "t_mapping(t_address,t_struct(InvestorInfo)602_storage)": {
        "encoding": "mapping",
        "key": "t_address",
        "label": "mapping(address => struct CommunityOffering.InvestorInfo)",
        "numberOfBytes": "32",
        "value": "t_struct(InvestorInfo)602_storage"
      },
      "t_struct(InvestorInfo)602_storage": {
        "encoding": "inplace",
        "label": "struct CommunityOffering.InvestorInfo",
        "members": [
          {
            "astId": 599,
            "contract": "contracts/CommunityOffering/CommunityOffering.sol:CommunityOffering",
            "label": "amountInvested",
            "offset": 0,
            "slot": "0",
            "type": "t_uint256"
          },
          {
            "astId": 601,
            "contract": "contracts/CommunityOffering/CommunityOffering.sol:CommunityOffering",
            "label": "claimed",
            "offset": 0,
            "slot": "1",
            "type": "t_bool"
          }
        ],
        "numberOfBytes": "64"
      },
      "t_uint256": {
        "encoding": "inplace",
        "label": "uint256",
        "numberOfBytes": "32"
      }
    }
  }
}