{
  "address": "0xdbC43Ba45381e02825b14322cDdd15eC4B3164E6",
  "abi": [
    {
      "inputs": [
        {
          "internalType": "address",
          "name": "_fundsRedeemer",
          "type": "address"
        },
        {
          "internalType": "address",
          "name": "_investToken",
          "type": "address"
        },
        {
          "internalType": "uint256",
          "name": "_launchStartTime",
          "type": "uint256"
        },
        {
          "internalType": "uint256",
          "name": "_saleDuration",
          "type": "uint256"
        },
        {
          "internalType": "uint256",
          "name": "_investRemovalDelay",
          "type": "uint256"
        },
        {
          "internalType": "uint256",
          "name": "_maxInvestAllowed",
          "type": "uint256"
        },
        {
          "internalType": "uint256",
          "name": "_minInvestAllowed",
          "type": "uint256"
        },
        {
          "internalType": "uint256",
          "name": "_maxInvestRemovablePerPeriod",
          "type": "uint256"
        },
        {
          "internalType": "uint256",
          "name": "_maxGlobalInvestAllowed",
          "type": "uint256"
        },
        {
          "internalType": "uint256",
          "name": "_maxRedeemableToIssue",
          "type": "uint256"
        },
        {
          "internalType": "uint256",
          "name": "_startingPrice",
          "type": "uint256"
        }
      ],
      "stateMutability": "nonpayable",
      "type": "constructor"
    },
    {
      "anonymous": false,
      "inputs": [
        {
          "indexed": false,
          "internalType": "address",
          "name": "investor",
          "type": "address"
        },
        {
          "indexed": false,
          "internalType": "uint256",
          "name": "amount",
          "type": "uint256"
        },
        {
          "indexed": false,
          "internalType": "uint256",
          "name": "totalInvested",
          "type": "uint256"
        },
        {
          "indexed": false,
          "internalType": "uint256",
          "name": "price",
          "type": "uint256"
        }
      ],
      "name": "Invest",
      "type": "event"
    },
    {
      "anonymous": false,
      "inputs": [
        {
          "indexed": true,
          "internalType": "address",
          "name": "previousOwner",
          "type": "address"
        },
        {
          "indexed": true,
          "internalType": "address",
          "name": "newOwner",
          "type": "address"
        }
      ],
      "name": "OwnershipTransferred",
      "type": "event"
    },
    {
      "anonymous": false,
      "inputs": [
        {
          "indexed": false,
          "internalType": "bool",
          "name": "enabled",
          "type": "bool"
        },
        {
          "indexed": false,
          "internalType": "uint256",
          "name": "time",
          "type": "uint256"
        }
      ],
      "name": "RedeemEnabled",
      "type": "event"
    },
    {
      "anonymous": false,
      "inputs": [
        {
          "indexed": false,
          "internalType": "address",
          "name": "account",
          "type": "address"
        },
        {
          "indexed": false,
          "internalType": "uint256",
          "name": "amount",
          "type": "uint256"
        }
      ],
      "name": "Redeemed",
      "type": "event"
    },
    {
      "anonymous": false,
      "inputs": [
        {
          "indexed": false,
          "internalType": "address",
          "name": "investor",
          "type": "address"
        },
        {
          "indexed": false,
          "internalType": "uint256",
          "name": "amount",
          "type": "uint256"
        },
        {
          "indexed": false,
          "internalType": "uint256",
          "name": "totalInvested",
          "type": "uint256"
        },
        {
          "indexed": false,
          "internalType": "uint256",
          "name": "price",
          "type": "uint256"
        }
      ],
      "name": "RemoveInvestment",
      "type": "event"
    },
    {
      "anonymous": false,
      "inputs": [
        {
          "indexed": false,
          "internalType": "bool",
          "name": "enabled",
          "type": "bool"
        },
        {
          "indexed": false,
          "internalType": "uint256",
          "name": "time",
          "type": "uint256"
        }
      ],
      "name": "SaleEnabled",
      "type": "event"
    },
    {
      "inputs": [
        {
          "internalType": "uint256",
          "name": "newTime",
          "type": "uint256"
        }
      ],
      "name": "changeStartTime",
      "outputs": [],
      "stateMutability": "nonpayable",
      "type": "function"
    },
    {
      "inputs": [],
      "name": "claimRedeemable",
      "outputs": [],
      "stateMutability": "nonpayable",
      "type": "function"
    },
    {
      "inputs": [],
      "name": "computePrice",
      "outputs": [
        {
          "internalType": "uint256",
          "name": "",
          "type": "uint256"
        }
      ],
      "stateMutability": "view",
      "type": "function"
    },
    {
      "inputs": [],
      "name": "currentPrice",
      "outputs": [
        {
          "internalType": "uint256",
          "name": "",
          "type": "uint256"
        }
      ],
      "stateMutability": "view",
      "type": "function"
    },
    {
      "inputs": [],
      "name": "enableRedeem",
      "outputs": [],
      "stateMutability": "nonpayable",
      "type": "function"
    },
    {
      "inputs": [],
      "name": "enableSale",
      "outputs": [],
      "stateMutability": "nonpayable",
      "type": "function"
    },
    {
      "inputs": [],
      "name": "finalPrice",
      "outputs": [
        {
          "internalType": "uint256",
          "name": "",
          "type": "uint256"
        }
      ],
      "stateMutability": "view",
      "type": "function"
    },
    {
      "inputs": [],
      "name": "finalized",
      "outputs": [
        {
          "internalType": "bool",
          "name": "",
          "type": "bool"
        }
      ],
      "stateMutability": "view",
      "type": "function"
    },
    {
      "inputs": [],
      "name": "fundsRedeemer",
      "outputs": [
        {
          "internalType": "address",
          "name": "",
          "type": "address"
        }
      ],
      "stateMutability": "view",
      "type": "function"
    },
    {
      "inputs": [
        {
          "internalType": "address",
          "name": "_address",
          "type": "address"
        }
      ],
      "name": "getLastPeriodWithdrawals",
      "outputs": [
        {
          "internalType": "uint256",
          "name": "totalWithdrawLastHour",
          "type": "uint256"
        }
      ],
      "stateMutability": "view",
      "type": "function"
    },
    {
      "inputs": [],
      "name": "hasSaleEnded",
      "outputs": [
        {
          "internalType": "bool",
          "name": "",
          "type": "bool"
        }
      ],
      "stateMutability": "view",
      "type": "function"
    },
    {
      "inputs": [
        {
          "internalType": "uint256",
          "name": "amountToInvest",
          "type": "uint256"
        }
      ],
      "name": "invest",
      "outputs": [],
      "stateMutability": "nonpayable",
      "type": "function"
    },
    {
      "inputs": [],
      "name": "investRemovalDelay",
      "outputs": [
        {
          "internalType": "uint256",
          "name": "",
          "type": "uint256"
        }
      ],
      "stateMutability": "view",
      "type": "function"
    },
    {
      "inputs": [],
      "name": "investToken",
      "outputs": [
        {
          "internalType": "address",
          "name": "",
          "type": "address"
        }
      ],
      "stateMutability": "view",
      "type": "function"
    },
    {
      "inputs": [
        {
          "internalType": "address",
          "name": "",
          "type": "address"
        }
      ],
      "name": "investorInfoMap",
      "outputs": [
        {
          "internalType": "uint256",
          "name": "totalInvested",
          "type": "uint256"
        },
        {
          "internalType": "uint256",
          "name": "totalRedeemed",
          "type": "uint256"
        },
        {
          "internalType": "uint256",
          "name": "totalInvestableExchanged",
          "type": "uint256"
        },
        {
          "internalType": "bool",
          "name": "hasClaimed",
          "type": "bool"
        }
      ],
      "stateMutability": "view",
      "type": "function"
    },
    {
      "inputs": [
        {
          "internalType": "uint256",
          "name": "",
          "type": "uint256"
        }
      ],
      "name": "investorList",
      "outputs": [
        {
          "internalType": "address",
          "name": "",
          "type": "address"
        }
      ],
      "stateMutability": "view",
      "type": "function"
    },
    {
      "inputs": [],
      "name": "launchEndTime",
      "outputs": [
        {
          "internalType": "uint256",
          "name": "",
          "type": "uint256"
        }
      ],
      "stateMutability": "view",
      "type": "function"
    },
    {
      "inputs": [],
      "name": "launchStartTime",
      "outputs": [
        {
          "internalType": "uint256",
          "name": "",
          "type": "uint256"
        }
      ],
      "stateMutability": "view",
      "type": "function"
    },
    {
      "inputs": [],
      "name": "launchToken",
      "outputs": [
        {
          "internalType": "address",
          "name": "",
          "type": "address"
        }
      ],
      "stateMutability": "view",
      "type": "function"
    },
    {
      "inputs": [],
      "name": "maxGlobalInvestAllowed",
      "outputs": [
        {
          "internalType": "uint256",
          "name": "",
          "type": "uint256"
        }
      ],
      "stateMutability": "view",
      "type": "function"
    },
    {
      "inputs": [],
      "name": "maxInvestAllowed",
      "outputs": [
        {
          "internalType": "uint256",
          "name": "",
          "type": "uint256"
        }
      ],
      "stateMutability": "view",
      "type": "function"
    },
    {
      "inputs": [],
      "name": "maxInvestRemovablePerPeriod",
      "outputs": [
        {
          "internalType": "uint256",
          "name": "",
          "type": "uint256"
        }
      ],
      "stateMutability": "view",
      "type": "function"
    },
    {
      "inputs": [],
      "name": "maxRedeemableToIssue",
      "outputs": [
        {
          "internalType": "uint256",
          "name": "",
          "type": "uint256"
        }
      ],
      "stateMutability": "view",
      "type": "function"
    },
    {
      "inputs": [],
      "name": "minInvestAllowed",
      "outputs": [
        {
          "internalType": "uint256",
          "name": "",
          "type": "uint256"
        }
      ],
      "stateMutability": "view",
      "type": "function"
    },
    {
      "inputs": [],
      "name": "owner",
      "outputs": [
        {
          "internalType": "address",
          "name": "",
          "type": "address"
        }
      ],
      "stateMutability": "view",
      "type": "function"
    },
    {
      "inputs": [],
      "name": "redeemEnabled",
      "outputs": [
        {
          "internalType": "bool",
          "name": "",
          "type": "bool"
        }
      ],
      "stateMutability": "view",
      "type": "function"
    },
    {
      "inputs": [
        {
          "internalType": "uint256",
          "name": "amountToRemove",
          "type": "uint256"
        }
      ],
      "name": "removeInvestment",
      "outputs": [],
      "stateMutability": "nonpayable",
      "type": "function"
    },
    {
      "inputs": [],
      "name": "renounceOwnership",
      "outputs": [],
      "stateMutability": "nonpayable",
      "type": "function"
    },
    {
      "inputs": [],
      "name": "saleDuration",
      "outputs": [
        {
          "internalType": "uint256",
          "name": "",
          "type": "uint256"
        }
      ],
      "stateMutability": "view",
      "type": "function"
    },
    {
      "inputs": [],
      "name": "saleEnabled",
      "outputs": [
        {
          "internalType": "bool",
          "name": "",
          "type": "bool"
        }
      ],
      "stateMutability": "view",
      "type": "function"
    },
    {
      "inputs": [
        {
          "internalType": "address",
          "name": "_launchToken",
          "type": "address"
        }
      ],
      "name": "setLaunchToken",
      "outputs": [],
      "stateMutability": "nonpayable",
      "type": "function"
    },
    {
      "inputs": [],
      "name": "startingPrice",
      "outputs": [
        {
          "internalType": "uint256",
          "name": "",
          "type": "uint256"
        }
      ],
      "stateMutability": "view",
      "type": "function"
    },
    {
      "inputs": [],
      "name": "totalGlobalInvested",
      "outputs": [
        {
          "internalType": "uint256",
          "name": "",
          "type": "uint256"
        }
      ],
      "stateMutability": "view",
      "type": "function"
    },
    {
      "inputs": [],
      "name": "totalGlobalIssued",
      "outputs": [
        {
          "internalType": "uint256",
          "name": "",
          "type": "uint256"
        }
      ],
      "stateMutability": "view",
      "type": "function"
    },
    {
      "inputs": [],
      "name": "totalInvestors",
      "outputs": [
        {
          "internalType": "uint256",
          "name": "",
          "type": "uint256"
        }
      ],
      "stateMutability": "view",
      "type": "function"
    },
    {
      "inputs": [
        {
          "internalType": "address",
          "name": "newOwner",
          "type": "address"
        }
      ],
      "name": "transferOwnership",
      "outputs": [],
      "stateMutability": "nonpayable",
      "type": "function"
    },
    {
      "inputs": [],
      "name": "withdrawInvestablePool",
      "outputs": [],
      "stateMutability": "nonpayable",
      "type": "function"
    },
    {
      "inputs": [
        {
          "internalType": "uint256",
          "name": "amount",
          "type": "uint256"
        }
      ],
      "name": "withdrawLaunchtoken",
      "outputs": [],
      "stateMutability": "nonpayable",
      "type": "function"
    }
  ],
  "transactionHash": "0x4618a0c15d1ab73bef8f0ad85ad5ba12cfb925c0851907231e9178c61baee135",
  "args": [
    "0x477F33ead6d79d4A357c9788aDC3Bc5986866f55",
    "0x04068da6c83afcfa0e13ba15a6696662335d5b75",
    1645286400,
    172800,
    3600,
    "2500000000",
    0,
    "1000000000",
    "87500000000",
    "350000000000000",
    "80000"
  ],
  "solcInputHash": "f2ff8a0df32048b4aef8940d11a2c723",
  "bytecode": "0x60806040523480156200001157600080fd5b5060405162001b8c38038062001b8c833981016040819052620000349162000257565b6200003f33620001d5565b4289116200009e5760405162461bcd60e51b815260206004820152602160248201527f53746172742074696d65206d75737420626520696e20746865206675747572656044820152601760f91b60648201526084015b60405180910390fd5b6001600160a01b038b16620001005760405162461bcd60e51b815260206004820152602160248201527f66756e647352656465656d65722061646472657373206973206e6f74207365746044820152601760f91b606482015260840162000095565b600180546001600160a01b03808e166001600160a01b03199283161790925560028054928d1692909116919091179055600c8990556205460088106200017d5760405162461bcd60e51b81526020600482015260116024820152706475726174696f6e20746f6f206c6f6e6760781b604482015260640162000095565b62000197888a6200022560201b6200161d1790919060201c565b600e55600d97909755600f9590955560049390935560059190915560079190915560065560085560105550506012805461ffff191690555062000310565b600080546001600160a01b038381166001600160a01b0319831681178455604051919092169283917f8be0079c531659141344cd1fd0a4f28419497f9722a3daafe3b4186f6b6457e09190a35050565b6000620002338284620002e9565b9392505050565b80516001600160a01b03811681146200025257600080fd5b919050565b60008060008060008060008060008060006101608c8e0312156200027a57600080fd5b620002858c6200023a565b9a506200029560208d016200023a565b995060408c0151985060608c0151975060808c0151965060a08c0151955060c08c0151945060e08c015193506101008c015192506101208c015191506101408c015190509295989b509295989b9093969950565b600082198211156200030b57634e487b7160e01b600052601160045260246000fd5b500190565b61186c80620003206000396000f3fe608060405234801561001057600080fd5b50600436106102325760003560e01c80638da5cb5b11610130578063bc4c3bb3116100b8578063e230fbe71161007c578063e230fbe71461040e578063f2fde38b14610417578063f703f36f1461042a578063ff16e75014610484578063ff6807cb1461049757600080fd5b8063bc4c3bb3146103cf578063c0212d03146103d8578063c683d8e4146103eb578063d2f82536146103f3578063d6fbf2021461040557600080fd5b8063a4cea3b2116100ff578063a4cea3b21461038f578063a6b513ee14610397578063b17253e6146103a0578063b3f05b97146103a9578063badf822b146103bc57600080fd5b80638da5cb5b1461035a57806393c7c04e1461036b5780639d1b464a14610374578063a28a4d861461037c57600080fd5b8063604a85da116101be578063727dba5311610182578063727dba531461031a5780637bb501ec1461032d578063884aa200146103365780638aa5b2c31461033e5780638b65be081461035157600080fd5b8063604a85da146102d257806369e1da2d146102e55780636bacc0fa146102ed578063715018a61461030557806371b9b6461461030d57600080fd5b80632afcf480116102055780632afcf48014610291578063336a2901146102a45780633711d9fb146102b757806338771754146102c057806349a433a2146102c957600080fd5b8063061873e81461023757806312f9b48e146102415780631920508d1461027157806329b8caff14610288575b600080fd5b61023f6104a0565b005b61025461024f3660046116ef565b61051e565b6040516001600160a01b0390911681526020015b60405180910390f35b61027a60065481565b604051908152602001610268565b61027a600b5481565b61023f61029f3660046116ef565b610548565b600154610254906001600160a01b031681565b61027a600d5481565b61027a60045481565b61027a600e5481565b61023f6102e03660046116a4565b610906565b61023f610952565b6102f5610acc565b6040519015158152602001610268565b61023f610aec565b6012546102f59060ff1681565b61027a6103283660046116a4565b610b22565b61027a600c5481565b61027a610bfc565b61023f61034c3660046116ef565b610c28565b61027a600a5481565b6000546001600160a01b0316610254565b61027a600f5481565b61027a610d15565b600354610254906001600160a01b031681565b61023f610d38565b61027a60115481565b61027a60055481565b6012546102f59062010000900460ff1681565b600254610254906001600160a01b031681565b61027a60095481565b61023f6103e63660046116ef565b611028565b61023f611449565b6012546102f590610100900460ff1681565b61027a60105481565b61027a60075481565b61023f6104253660046116a4565b6114b8565b6104626104383660046116a4565b60136020526000908152604090208054600182015460028301546004909301549192909160ff1684565b6040805194855260208501939093529183015215156060820152608001610268565b61023f6104923660046116ef565b611553565b61027a60085481565b6000546001600160a01b031633146104d35760405162461bcd60e51b81526004016104ca90611721565b60405180910390fd5b6012805461ff00191661010017905560408051600181524260208201527fef5fd91dc9b012f3e4b41e00dc71466a39c83d97c3cc3879de5b9193f456c63091015b60405180910390a1565b6014818154811061052e57600080fd5b6000918252602090912001546001600160a01b0316905081565b60125460ff166105945760405162461bcd60e51b815260206004820152601760248201527614d85b19481a5cc81b9bdd08195b98589b1959081e595d604a1b60448201526064016104ca565b600c544210156105e15760405162461bcd60e51b815260206004820152601860248201527714d85b19481a185cc81b9bdd081cdd185c9d1959081e595d60421b60448201526064016104ca565b6005548110156106335760405162461bcd60e51b815260206004820152601760248201527f496e7665737420616d6f756e7420746f6f20736d616c6c00000000000000000060448201526064016104ca565b61063b610acc565b156106805760405162461bcd60e51b815260206004820152601560248201527414d85b19481c195c9a5bd9081a185cc8195b991959605a1b60448201526064016104ca565b600754600954610690908361161d565b11156106de5760405162461bcd60e51b815260206004820152601b60248201527f4d6178696d756d20496e766573746d656e74732072656163686564000000000060448201526064016104ca565b33600090815260136020526040902060045481546106fc908461161d565b11156107545760405162461bcd60e51b815260206004820152602160248201527f4d617820696e646976696475616c20696e766573746d656e74207265616368656044820152601960fa1b60648201526084016104ca565b6002546040516323b872dd60e01b8152336004820152306024820152604481018490526001600160a01b03909116906323b872dd90606401602060405180830381600087803b1580156107a657600080fd5b505af11580156107ba573d6000803e3d6000fd5b505050506040513d601f19601f820116820180604052508101906107de91906116cd565b6107fa5760405162461bcd60e51b81526004016104ca90611756565b805461085b576001600b6000828254610813919061177f565b9091555050601480546001810182556000919091527fce6d7b5282bd9a3661ae061feed1dbda4e52ab073b1f9285be6e155d9c38d4ec0180546001600160a01b031916331790555b8181600201600082825461086f919061177f565b909155505080548290829060009061088890849061177f565b9250508190555081600960008282546108a1919061177f565b909155506108af9050610d15565b601181905560095460408051338152602081018690529081019190915260608101919091527f4df9cbfa66cbbabb528375b3af00207b446225af5a96b8a4b5c413b18226fb95906080015b60405180910390a15050565b6000546001600160a01b031633146109305760405162461bcd60e51b81526004016104ca90611721565b600380546001600160a01b0319166001600160a01b0392909216919091179055565b6000546001600160a01b0316331461097c5760405162461bcd60e51b81526004016104ca90611721565b600e5442116109c25760405162461bcd60e51b815260206004820152601260248201527114d85b19481a185cc81b9bdd08195b99195960721b60448201526064016104ca565b6002546040516370a0823160e01b81523060048201526000916001600160a01b0316906370a082319060240160206040518083038186803b158015610a0657600080fd5b505afa158015610a1a573d6000803e3d6000fd5b505050506040513d601f19601f82011682018060405250810190610a3e9190611708565b60025460015460405163a9059cbb60e01b81526001600160a01b03918216600482015260248101849052929350169063a9059cbb90604401602060405180830381600087803b158015610a9057600080fd5b505af1158015610aa4573d6000803e3d6000fd5b505050506040513d601f19601f82011682018060405250810190610ac891906116cd565b5050565b6000610ae5600d54600c5461161d90919063ffffffff16565b4211905090565b6000546001600160a01b03163314610b165760405162461bcd60e51b81526004016104ca90611721565b610b206000611630565b565b6001600160a01b038116600090815260136020526040812060038101825b8154811015610bf4576000828281548110610b5d57610b5d611820565b9060005260206000209060020201604051806040016040529081600082015481526020016001820154815250509050610ba1600f544261168090919063ffffffff16565b815110610be157610bde838381548110610bbd57610bbd611820565b9060005260206000209060020201600101548661161d90919063ffffffff16565b94505b5080610bec816117ef565b915050610b40565b505050919050565b6000610c23600854610c1d633b9aca0060095461168c90919063ffffffff16565b90611698565b905090565b6000546001600160a01b03163314610c525760405162461bcd60e51b81526004016104ca90611721565b428111610cab5760405162461bcd60e51b815260206004820152602160248201527f53746172742074696d65206d75737420626520696e20746865206675747572656044820152601760f91b60648201526084016104ca565b600c544210610cfc5760405162461bcd60e51b815260206004820152601860248201527f53616c652068617320616c72656164792073746172746564000000000000000060448201526064016104ca565b600c819055600d54610d0f90829061161d565b600e5550565b600080610d20610bfc565b90506010548111610d3357505060105490565b919050565b601254610100900460ff16610d845760405162461bcd60e51b81526020600482015260126024820152711c995919595b481b9bdd08195b98589b195960721b60448201526064016104ca565b600e54421015610dd65760405162461bcd60e51b815260206004820152601d60248201527f54696d6520746f20636c61696d20686173206e6f74206172726976656400000060448201526064016104ca565b6003546001600160a01b0316610e2e5760405162461bcd60e51b815260206004820152601760248201527f4c61756e636820746f6b656e206e6f742073657474656400000000000000000060448201526064016104ca565b336000908152601360205260409020600481015460ff1615610e8b5760405162461bcd60e51b8152602060048201526016602482015275151bdad95b9cc8185b1c9958591e4818db185a5b595960521b60448201526064016104ca565b8054610ece5760405162461bcd60e51b81526020600482015260126024820152714e6f20696e766573746d656e74206d61646560701b60448201526064016104ca565b6011548154600091610ee891610c1d90633b9aca0061168c565b60048301805460ff191660019081179091558301819055600a54909150610f0f908261161d565b600a5580610f525760405162461bcd60e51b815260206004820152601060248201526f1b9bc8185b5bdd5b9d081a5cdcdd595960821b60448201526064016104ca565b60035460405163a9059cbb60e01b8152336004820152602481018390526001600160a01b039091169063a9059cbb90604401602060405180830381600087803b158015610f9e57600080fd5b505af1158015610fb2573d6000803e3d6000fd5b505050506040513d601f19601f82011682018060405250810190610fd691906116cd565b610ff25760405162461bcd60e51b81526004016104ca90611756565b60408051338152602081018390527f4896181ff8f4543cc00db9fe9b6fb7e6f032b7eb772c72ab1ec1b4d2e03b936991016108fa565b60125460ff166110745760405162461bcd60e51b815260206004820152601760248201527614d85b19481a5cc81b9bdd08195b98589b1959081e595d604a1b60448201526064016104ca565b600c544210156110c15760405162461bcd60e51b815260206004820152601860248201527714d85b19481a185cc81b9bdd081cdd185c9d1959081e595d60421b60448201526064016104ca565b600e5442106111035760405162461bcd60e51b815260206004820152600e60248201526d14d85b19481a185cc8195b99195960921b60448201526064016104ca565b6007546009541061117c5760405162461bcd60e51b815260206004820152603d60248201527f4d6178696d756d20496e766573746d656e747320726561636865642c2064657060448201527f6f736974732f7769746864726177616c206172652064697361626c656400000060648201526084016104ca565b6006548111156111e45760405162461bcd60e51b815260206004820152602d60248201527f43616e6e6f742072656d6f7665206d6f7265207468616e20746865206d61786960448201526c1b5d5b48189e481c195c9a5bd9609a1b60648201526084016104ca565b33600090815260136020526040902080548211156112445760405162461bcd60e51b815260206004820181905260248201527f43616e6e6f742052656d6f7665206d6f7265207468616e20696e76657374656460448201526064016104ca565b60038101600061125f61125633610b22565b60065490611680565b9050808411156112bc5760405162461bcd60e51b815260206004820152602260248201527f4d6178207769746864726177207265616368656420666f72207468697320686f6044820152613ab960f11b60648201526084016104ca565b60408051808201909152428152602080820186815284546001818101875560008781529384209451600292830290950194855591519390910192909255908401805486929061130c90849061177f565b90915550508254849084906000906113259084906117d8565b92505081905550836009600082825461133e91906117d8565b90915550506002546040516323b872dd60e01b8152306004820152336024820152604481018690526001600160a01b03909116906323b872dd90606401602060405180830381600087803b15801561139557600080fd5b505af11580156113a9573d6000803e3d6000fd5b505050506040513d601f19601f820116820180604052508101906113cd91906116cd565b6113e95760405162461bcd60e51b81526004016104ca90611756565b6113f1610d15565b601181905560095460408051338152602081018890529081019190915260608101919091527f5b938ffadc562aeed2a41670639ca329cc324ab076745a80f2849467dec6e45a9060800160405180910390a150505050565b6000546001600160a01b031633146114735760405162461bcd60e51b81526004016104ca90611721565b6012805460ff19166001908117909155604080519182524260208301527f020b56eb5031e351b28c7914a3185d679342016d533b3fe0d056b43fe5ecb8689101610514565b6000546001600160a01b031633146114e25760405162461bcd60e51b81526004016104ca90611721565b6001600160a01b0381166115475760405162461bcd60e51b815260206004820152602660248201527f4f776e61626c653a206e6577206f776e657220697320746865207a65726f206160448201526564647265737360d01b60648201526084016104ca565b61155081611630565b50565b6000546001600160a01b0316331461157d5760405162461bcd60e51b81526004016104ca90611721565b60035460405163a9059cbb60e01b8152336004820152602481018390526001600160a01b039091169063a9059cbb90604401602060405180830381600087803b1580156115c957600080fd5b505af11580156115dd573d6000803e3d6000fd5b505050506040513d601f19601f8201168201806040525081019061160191906116cd565b6115505760405162461bcd60e51b81526004016104ca90611756565b6000611629828461177f565b9392505050565b600080546001600160a01b038381166001600160a01b0319831681178455604051919092169283917f8be0079c531659141344cd1fd0a4f28419497f9722a3daafe3b4186f6b6457e09190a35050565b600061162982846117d8565b600061162982846117b9565b60006116298284611797565b6000602082840312156116b657600080fd5b81356001600160a01b038116811461162957600080fd5b6000602082840312156116df57600080fd5b8151801515811461162957600080fd5b60006020828403121561170157600080fd5b5035919050565b60006020828403121561171a57600080fd5b5051919050565b6020808252818101527f4f776e61626c653a2063616c6c6572206973206e6f7420746865206f776e6572604082015260600190565b6020808252600f908201526e1d1c985b9cd9995c8819985a5b1959608a1b604082015260600190565b600082198211156117925761179261180a565b500190565b6000826117b457634e487b7160e01b600052601260045260246000fd5b500490565b60008160001904831182151516156117d3576117d361180a565b500290565b6000828210156117ea576117ea61180a565b500390565b60006000198214156118035761180361180a565b5060010190565b634e487b7160e01b600052601160045260246000fd5b634e487b7160e01b600052603260045260246000fdfea26469706673582212200c45d0cc771f2cdd3230e4f7057631220234c31d071416f129a4d4ad62608e6564736f6c63430008050033",
  "devdoc": {
    "kind": "dev",
    "methods": {
      "claimRedeemable()": {
        "details": "Claims the NRT tokens equivalent to their contribution"
      },
      "getLastPeriodWithdrawals(address)": {
        "details": "Returns the total amount withdrawn by the _address during the last hour*"
      },
      "invest(uint256)": {
        "details": "Invests the specified amoount of investToken"
      },
      "owner()": {
        "details": "Returns the address of the current owner."
      },
      "removeInvestment(uint256)": {
        "details": "Removes the specified amount from the users totalInvested balance and returns the amount of investTokens back to them"
      },
      "renounceOwnership()": {
        "details": "Leaves the contract without owner. It will not be possible to call `onlyOwner` functions anymore. Can only be called by the current owner. NOTE: Renouncing ownership will leave the contract without an owner, thereby removing any functionality that is only available to the owner."
      },
      "transferOwnership(address)": {
        "details": "Transfers ownership of the contract to a new account (`newOwner`). Can only be called by the current owner."
      }
    },
    "version": 1
  },
  "userdoc": {
    "kind": "user",
    "methods": {},
    "version": 1
  },
  "storageLayout": {
    "storage": [
      {
        "astId": 7,
        "contract": "contracts/FairLaunch/FairPriceLaunch.sol:FairPriceLaunch",
        "label": "_owner",
        "offset": 0,
        "slot": "0",
        "type": "t_address"
      },
      {
        "astId": 1947,
        "contract": "contracts/FairLaunch/FairPriceLaunch.sol:FairPriceLaunch",
        "label": "fundsRedeemer",
        "offset": 0,
        "slot": "1",
        "type": "t_address"
      },
      {
        "astId": 1949,
        "contract": "contracts/FairLaunch/FairPriceLaunch.sol:FairPriceLaunch",
        "label": "investToken",
        "offset": 0,
        "slot": "2",
        "type": "t_address"
      },
      {
        "astId": 1951,
        "contract": "contracts/FairLaunch/FairPriceLaunch.sol:FairPriceLaunch",
        "label": "launchToken",
        "offset": 0,
        "slot": "3",
        "type": "t_address"
      },
      {
        "astId": 1953,
        "contract": "contracts/FairLaunch/FairPriceLaunch.sol:FairPriceLaunch",
        "label": "maxInvestAllowed",
        "offset": 0,
        "slot": "4",
        "type": "t_uint256"
      },
      {
        "astId": 1955,
        "contract": "contracts/FairLaunch/FairPriceLaunch.sol:FairPriceLaunch",
        "label": "minInvestAllowed",
        "offset": 0,
        "slot": "5",
        "type": "t_uint256"
      },
      {
        "astId": 1957,
        "contract": "contracts/FairLaunch/FairPriceLaunch.sol:FairPriceLaunch",
        "label": "maxInvestRemovablePerPeriod",
        "offset": 0,
        "slot": "6",
        "type": "t_uint256"
      },
      {
        "astId": 1959,
        "contract": "contracts/FairLaunch/FairPriceLaunch.sol:FairPriceLaunch",
        "label": "maxGlobalInvestAllowed",
        "offset": 0,
        "slot": "7",
        "type": "t_uint256"
      },
      {
        "astId": 1961,
        "contract": "contracts/FairLaunch/FairPriceLaunch.sol:FairPriceLaunch",
        "label": "maxRedeemableToIssue",
        "offset": 0,
        "slot": "8",
        "type": "t_uint256"
      },
      {
        "astId": 1963,
        "contract": "contracts/FairLaunch/FairPriceLaunch.sol:FairPriceLaunch",
        "label": "totalGlobalInvested",
        "offset": 0,
        "slot": "9",
        "type": "t_uint256"
      },
      {
        "astId": 1965,
        "contract": "contracts/FairLaunch/FairPriceLaunch.sol:FairPriceLaunch",
        "label": "totalGlobalIssued",
        "offset": 0,
        "slot": "10",
        "type": "t_uint256"
      },
      {
        "astId": 1967,
        "contract": "contracts/FairLaunch/FairPriceLaunch.sol:FairPriceLaunch",
        "label": "totalInvestors",
        "offset": 0,
        "slot": "11",
        "type": "t_uint256"
      },
      {
        "astId": 1969,
        "contract": "contracts/FairLaunch/FairPriceLaunch.sol:FairPriceLaunch",
        "label": "launchStartTime",
        "offset": 0,
        "slot": "12",
        "type": "t_uint256"
      },
      {
        "astId": 1971,
        "contract": "contracts/FairLaunch/FairPriceLaunch.sol:FairPriceLaunch",
        "label": "saleDuration",
        "offset": 0,
        "slot": "13",
        "type": "t_uint256"
      },
      {
        "astId": 1973,
        "contract": "contracts/FairLaunch/FairPriceLaunch.sol:FairPriceLaunch",
        "label": "launchEndTime",
        "offset": 0,
        "slot": "14",
        "type": "t_uint256"
      },
      {
        "astId": 1975,
        "contract": "contracts/FairLaunch/FairPriceLaunch.sol:FairPriceLaunch",
        "label": "investRemovalDelay",
        "offset": 0,
        "slot": "15",
        "type": "t_uint256"
      },
      {
        "astId": 1977,
        "contract": "contracts/FairLaunch/FairPriceLaunch.sol:FairPriceLaunch",
        "label": "startingPrice",
        "offset": 0,
        "slot": "16",
        "type": "t_uint256"
      },
      {
        "astId": 1979,
        "contract": "contracts/FairLaunch/FairPriceLaunch.sol:FairPriceLaunch",
        "label": "finalPrice",
        "offset": 0,
        "slot": "17",
        "type": "t_uint256"
      },
      {
        "astId": 1981,
        "contract": "contracts/FairLaunch/FairPriceLaunch.sol:FairPriceLaunch",
        "label": "saleEnabled",
        "offset": 0,
        "slot": "18",
        "type": "t_bool"
      },
      {
        "astId": 1983,
        "contract": "contracts/FairLaunch/FairPriceLaunch.sol:FairPriceLaunch",
        "label": "redeemEnabled",
        "offset": 1,
        "slot": "18",
        "type": "t_bool"
      },
      {
        "astId": 1985,
        "contract": "contracts/FairLaunch/FairPriceLaunch.sol:FairPriceLaunch",
        "label": "finalized",
        "offset": 2,
        "slot": "18",
        "type": "t_bool"
      },
      {
        "astId": 2046,
        "contract": "contracts/FairLaunch/FairPriceLaunch.sol:FairPriceLaunch",
        "label": "investorInfoMap",
        "offset": 0,
        "slot": "19",
        "type": "t_mapping(t_address,t_struct(InvestorInfo)2041_storage)"
      },
      {
        "astId": 2049,
        "contract": "contracts/FairLaunch/FairPriceLaunch.sol:FairPriceLaunch",
        "label": "investorList",
        "offset": 0,
        "slot": "20",
        "type": "t_array(t_address)dyn_storage"
      }
    ],
    "types": {
      "t_address": {
        "encoding": "inplace",
        "label": "address",
        "numberOfBytes": "20"
      },
      "t_array(t_address)dyn_storage": {
        "base": "t_address",
        "encoding": "dynamic_array",
        "label": "address[]",
        "numberOfBytes": "32"
      },
      "t_array(t_struct(Withdrawal)2028_storage)dyn_storage": {
        "base": "t_struct(Withdrawal)2028_storage",
        "encoding": "dynamic_array",
        "label": "struct FairPriceLaunch.Withdrawal[]",
        "numberOfBytes": "32"
      },
      "t_bool": {
        "encoding": "inplace",
        "label": "bool",
        "numberOfBytes": "1"
      },
      "t_mapping(t_address,t_struct(InvestorInfo)2041_storage)": {
        "encoding": "mapping",
        "key": "t_address",
        "label": "mapping(address => struct FairPriceLaunch.InvestorInfo)",
        "numberOfBytes": "32",
        "value": "t_struct(InvestorInfo)2041_storage"
      },
      "t_struct(InvestorInfo)2041_storage": {
        "encoding": "inplace",
        "label": "struct FairPriceLaunch.InvestorInfo",
        "members": [
          {
            "astId": 2030,
            "contract": "contracts/FairLaunch/FairPriceLaunch.sol:FairPriceLaunch",
            "label": "totalInvested",
            "offset": 0,
            "slot": "0",
            "type": "t_uint256"
          },
          {
            "astId": 2032,
            "contract": "contracts/FairLaunch/FairPriceLaunch.sol:FairPriceLaunch",
            "label": "totalRedeemed",
            "offset": 0,
            "slot": "1",
            "type": "t_uint256"
          },
          {
            "astId": 2034,
            "contract": "contracts/FairLaunch/FairPriceLaunch.sol:FairPriceLaunch",
            "label": "totalInvestableExchanged",
            "offset": 0,
            "slot": "2",
            "type": "t_uint256"
          },
          {
            "astId": 2038,
            "contract": "contracts/FairLaunch/FairPriceLaunch.sol:FairPriceLaunch",
            "label": "withdrawHistory",
            "offset": 0,
            "slot": "3",
            "type": "t_array(t_struct(Withdrawal)2028_storage)dyn_storage"
          },
          {
            "astId": 2040,
            "contract": "contracts/FairLaunch/FairPriceLaunch.sol:FairPriceLaunch",
            "label": "hasClaimed",
            "offset": 0,
            "slot": "4",
            "type": "t_bool"
          }
        ],
        "numberOfBytes": "160"
      },
      "t_struct(Withdrawal)2028_storage": {
        "encoding": "inplace",
        "label": "struct FairPriceLaunch.Withdrawal",
        "members": [
          {
            "astId": 2025,
            "contract": "contracts/FairLaunch/FairPriceLaunch.sol:FairPriceLaunch",
            "label": "timestamp",
            "offset": 0,
            "slot": "0",
            "type": "t_uint256"
          },
          {
            "astId": 2027,
            "contract": "contracts/FairLaunch/FairPriceLaunch.sol:FairPriceLaunch",
            "label": "amount",
            "offset": 0,
            "slot": "1",
            "type": "t_uint256"
          }
        ],
        "numberOfBytes": "64"
      },
      "t_uint256": {
        "encoding": "inplace",
        "label": "uint256",
        "numberOfBytes": "32"
      }
    }
  }
}