{
  "address": "0x09635F643e140090A9A8Dcd712eD6285858ceBef",
  "abi": [
    {
      "inputs": [
        {
          "internalType": "address",
          "name": "_fundsRedeemer",
          "type": "address"
        },
        {
          "internalType": "address",
          "name": "_investToken",
          "type": "address"
        },
        {
          "internalType": "uint256",
          "name": "_launchStartTime",
          "type": "uint256"
        },
        {
          "internalType": "uint256",
          "name": "_saleDuration",
          "type": "uint256"
        },
        {
          "internalType": "uint256",
          "name": "_investRemovalDelay",
          "type": "uint256"
        },
        {
          "internalType": "uint256",
          "name": "_maxInvestAllowed",
          "type": "uint256"
        },
        {
          "internalType": "uint256",
          "name": "_minInvestAllowed",
          "type": "uint256"
        },
        {
          "internalType": "uint256",
          "name": "_maxInvestRemovablePerPeriod",
          "type": "uint256"
        },
        {
          "internalType": "uint256",
          "name": "_maxGlobalInvestAllowed",
          "type": "uint256"
        },
        {
          "internalType": "uint256",
          "name": "_maxRedeemableToIssue",
          "type": "uint256"
        },
        {
          "internalType": "uint256",
          "name": "_startingPrice",
          "type": "uint256"
        },
        {
          "internalType": "address",
          "name": "_redeemableToken",
          "type": "address"
        }
      ],
      "stateMutability": "nonpayable",
      "type": "constructor"
    },
    {
      "anonymous": false,
      "inputs": [
        {
          "indexed": false,
          "internalType": "address",
          "name": "investor",
          "type": "address"
        },
        {
          "indexed": false,
          "internalType": "uint256",
          "name": "amount",
          "type": "uint256"
        },
        {
          "indexed": false,
          "internalType": "uint256",
          "name": "totalInvested",
          "type": "uint256"
        },
        {
          "indexed": false,
          "internalType": "uint256",
          "name": "price",
          "type": "uint256"
        }
      ],
      "name": "Invest",
      "type": "event"
    },
    {
      "anonymous": false,
      "inputs": [
        {
          "indexed": false,
          "internalType": "address",
          "name": "investor",
          "type": "address"
        },
        {
          "indexed": false,
          "internalType": "uint256",
          "name": "amount",
          "type": "uint256"
        }
      ],
      "name": "IssueNRT",
      "type": "event"
    },
    {
      "anonymous": false,
      "inputs": [
        {
          "indexed": true,
          "internalType": "address",
          "name": "previousOwner",
          "type": "address"
        },
        {
          "indexed": true,
          "internalType": "address",
          "name": "newOwner",
          "type": "address"
        }
      ],
      "name": "OwnershipTransferred",
      "type": "event"
    },
    {
      "anonymous": false,
      "inputs": [
        {
          "indexed": false,
          "internalType": "bool",
          "name": "enabled",
          "type": "bool"
        },
        {
          "indexed": false,
          "internalType": "uint256",
          "name": "time",
          "type": "uint256"
        }
      ],
      "name": "RedeemEnabled",
      "type": "event"
    },
    {
      "anonymous": false,
      "inputs": [
        {
          "indexed": false,
          "internalType": "address",
          "name": "investor",
          "type": "address"
        },
        {
          "indexed": false,
          "internalType": "uint256",
          "name": "amount",
          "type": "uint256"
        },
        {
          "indexed": false,
          "internalType": "uint256",
          "name": "totalInvested",
          "type": "uint256"
        },
        {
          "indexed": false,
          "internalType": "uint256",
          "name": "price",
          "type": "uint256"
        }
      ],
      "name": "RemoveInvestment",
      "type": "event"
    },
    {
      "anonymous": false,
      "inputs": [
        {
          "indexed": false,
          "internalType": "bool",
          "name": "enabled",
          "type": "bool"
        },
        {
          "indexed": false,
          "internalType": "uint256",
          "name": "time",
          "type": "uint256"
        }
      ],
      "name": "SaleEnabled",
      "type": "event"
    },
    {
      "inputs": [
        {
          "internalType": "uint256",
          "name": "newTime",
          "type": "uint256"
        }
      ],
      "name": "changeStartTime",
      "outputs": [],
      "stateMutability": "nonpayable",
      "type": "function"
    },
    {
      "inputs": [],
      "name": "claimRedeemable",
      "outputs": [],
      "stateMutability": "nonpayable",
      "type": "function"
    },
    {
      "inputs": [],
      "name": "computePrice",
      "outputs": [
        {
          "internalType": "uint256",
          "name": "",
          "type": "uint256"
        }
      ],
      "stateMutability": "view",
      "type": "function"
    },
    {
      "inputs": [],
      "name": "currentPrice",
      "outputs": [
        {
          "internalType": "uint256",
          "name": "",
          "type": "uint256"
        }
      ],
      "stateMutability": "view",
      "type": "function"
    },
    {
      "inputs": [],
      "name": "enableRedeem",
      "outputs": [],
      "stateMutability": "nonpayable",
      "type": "function"
    },
    {
      "inputs": [],
      "name": "enableSale",
      "outputs": [],
      "stateMutability": "nonpayable",
      "type": "function"
    },
    {
      "inputs": [],
      "name": "finalPrice",
      "outputs": [
        {
          "internalType": "uint256",
          "name": "",
          "type": "uint256"
        }
      ],
      "stateMutability": "view",
      "type": "function"
    },
    {
      "inputs": [],
      "name": "finalized",
      "outputs": [
        {
          "internalType": "bool",
          "name": "",
          "type": "bool"
        }
      ],
      "stateMutability": "view",
      "type": "function"
    },
    {
      "inputs": [],
      "name": "fundsRedeemer",
      "outputs": [
        {
          "internalType": "address",
          "name": "",
          "type": "address"
        }
      ],
      "stateMutability": "view",
      "type": "function"
    },
    {
      "inputs": [
        {
          "internalType": "address",
          "name": "_address",
          "type": "address"
        }
      ],
      "name": "getLastPeriodWithdrawals",
      "outputs": [
        {
          "internalType": "uint256",
          "name": "totalWithdrawLastHour",
          "type": "uint256"
        }
      ],
      "stateMutability": "view",
      "type": "function"
    },
    {
      "inputs": [],
      "name": "hasSaleEnded",
      "outputs": [
        {
          "internalType": "bool",
          "name": "",
          "type": "bool"
        }
      ],
      "stateMutability": "view",
      "type": "function"
    },
    {
      "inputs": [
        {
          "internalType": "uint256",
          "name": "amountToInvest",
          "type": "uint256"
        }
      ],
      "name": "invest",
      "outputs": [],
      "stateMutability": "nonpayable",
      "type": "function"
    },
    {
      "inputs": [],
      "name": "investRemovalDelay",
      "outputs": [
        {
          "internalType": "uint256",
          "name": "",
          "type": "uint256"
        }
      ],
      "stateMutability": "view",
      "type": "function"
    },
    {
      "inputs": [],
      "name": "investToken",
      "outputs": [
        {
          "internalType": "address",
          "name": "",
          "type": "address"
        }
      ],
      "stateMutability": "view",
      "type": "function"
    },
    {
      "inputs": [
        {
          "internalType": "address",
          "name": "",
          "type": "address"
        }
      ],
      "name": "investorInfoMap",
      "outputs": [
        {
          "internalType": "uint256",
          "name": "totalInvested",
          "type": "uint256"
        },
        {
          "internalType": "uint256",
          "name": "totalRedeemed",
          "type": "uint256"
        },
        {
          "internalType": "uint256",
          "name": "totalInvestableExchanged",
          "type": "uint256"
        },
        {
          "internalType": "bool",
          "name": "hasClaimed",
          "type": "bool"
        }
      ],
      "stateMutability": "view",
      "type": "function"
    },
    {
      "inputs": [
        {
          "internalType": "uint256",
          "name": "",
          "type": "uint256"
        }
      ],
      "name": "investorList",
      "outputs": [
        {
          "internalType": "address",
          "name": "",
          "type": "address"
        }
      ],
      "stateMutability": "view",
      "type": "function"
    },
    {
      "inputs": [],
      "name": "launchEndTime",
      "outputs": [
        {
          "internalType": "uint256",
          "name": "",
          "type": "uint256"
        }
      ],
      "stateMutability": "view",
      "type": "function"
    },
    {
      "inputs": [],
      "name": "launchStartTime",
      "outputs": [
        {
          "internalType": "uint256",
          "name": "",
          "type": "uint256"
        }
      ],
      "stateMutability": "view",
      "type": "function"
    },
    {
      "inputs": [],
      "name": "maxGlobalInvestAllowed",
      "outputs": [
        {
          "internalType": "uint256",
          "name": "",
          "type": "uint256"
        }
      ],
      "stateMutability": "view",
      "type": "function"
    },
    {
      "inputs": [],
      "name": "maxInvestAllowed",
      "outputs": [
        {
          "internalType": "uint256",
          "name": "",
          "type": "uint256"
        }
      ],
      "stateMutability": "view",
      "type": "function"
    },
    {
      "inputs": [],
      "name": "maxInvestRemovablePerPeriod",
      "outputs": [
        {
          "internalType": "uint256",
          "name": "",
          "type": "uint256"
        }
      ],
      "stateMutability": "view",
      "type": "function"
    },
    {
      "inputs": [],
      "name": "maxRedeemableToIssue",
      "outputs": [
        {
          "internalType": "uint256",
          "name": "",
          "type": "uint256"
        }
      ],
      "stateMutability": "view",
      "type": "function"
    },
    {
      "inputs": [],
      "name": "minInvestAllowed",
      "outputs": [
        {
          "internalType": "uint256",
          "name": "",
          "type": "uint256"
        }
      ],
      "stateMutability": "view",
      "type": "function"
    },
    {
      "inputs": [],
      "name": "owner",
      "outputs": [
        {
          "internalType": "address",
          "name": "",
          "type": "address"
        }
      ],
      "stateMutability": "view",
      "type": "function"
    },
    {
      "inputs": [],
      "name": "redeemEnabled",
      "outputs": [
        {
          "internalType": "bool",
          "name": "",
          "type": "bool"
        }
      ],
      "stateMutability": "view",
      "type": "function"
    },
    {
      "inputs": [],
      "name": "redeemableToken",
      "outputs": [
        {
          "internalType": "contract FairPriceLaunchNRT",
          "name": "",
          "type": "address"
        }
      ],
      "stateMutability": "view",
      "type": "function"
    },
    {
      "inputs": [
        {
          "internalType": "uint256",
          "name": "amountToRemove",
          "type": "uint256"
        }
      ],
      "name": "removeInvestment",
      "outputs": [],
      "stateMutability": "nonpayable",
      "type": "function"
    },
    {
      "inputs": [],
      "name": "renounceOwnership",
      "outputs": [],
      "stateMutability": "nonpayable",
      "type": "function"
    },
    {
      "inputs": [],
      "name": "saleDuration",
      "outputs": [
        {
          "internalType": "uint256",
          "name": "",
          "type": "uint256"
        }
      ],
      "stateMutability": "view",
      "type": "function"
    },
    {
      "inputs": [],
      "name": "saleEnabled",
      "outputs": [
        {
          "internalType": "bool",
          "name": "",
          "type": "bool"
        }
      ],
      "stateMutability": "view",
      "type": "function"
    },
    {
      "inputs": [],
      "name": "startingPrice",
      "outputs": [
        {
          "internalType": "uint256",
          "name": "",
          "type": "uint256"
        }
      ],
      "stateMutability": "view",
      "type": "function"
    },
    {
      "inputs": [],
      "name": "totalGlobalInvested",
      "outputs": [
        {
          "internalType": "uint256",
          "name": "",
          "type": "uint256"
        }
      ],
      "stateMutability": "view",
      "type": "function"
    },
    {
      "inputs": [],
      "name": "totalGlobalIssued",
      "outputs": [
        {
          "internalType": "uint256",
          "name": "",
          "type": "uint256"
        }
      ],
      "stateMutability": "view",
      "type": "function"
    },
    {
      "inputs": [],
      "name": "totalInvestors",
      "outputs": [
        {
          "internalType": "uint256",
          "name": "",
          "type": "uint256"
        }
      ],
      "stateMutability": "view",
      "type": "function"
    },
    {
      "inputs": [
        {
          "internalType": "address",
          "name": "newOwner",
          "type": "address"
        }
      ],
      "name": "transferOwnership",
      "outputs": [],
      "stateMutability": "nonpayable",
      "type": "function"
    },
    {
      "inputs": [],
      "name": "withdrawInvestablePool",
      "outputs": [],
      "stateMutability": "nonpayable",
      "type": "function"
    }
  ],
  "transactionHash": "0xb0a4612b6bbb9c29647896a7e98ca48e0851cda9c62bc73d8ce4a57f0b87cbe2",
  "args": [
    "0x4a15DEd9E9d872A1dC191739859D783FB87650c1",
    "0xA7D7079b0FEaD91F3e65f86E8915Cb59c1a4C664",
    1648637672,
    "60000",
    100,
    100000,
    100,
    1000,
    100000000,
    1000000000,
    8000000000,
    "0xA7D7079b0FEaD91F3e65f86E8915Cb59c1a4C664"
  ],
  "solcInputHash": "2df9c97e1d42eb45fbef928d324b3982",
  "bytecode": "0x60806040523480156200001157600080fd5b50604051620019d9380380620019d9833981016040819052620000349162000276565b6200003f33620001f4565b428a116200009e5760405162461bcd60e51b815260206004820152602160248201527f53746172742074696d65206d75737420626520696e20746865206675747572656044820152601760f91b60648201526084015b60405180910390fd5b6001600160a01b038c16620001005760405162461bcd60e51b815260206004820152602160248201527f66756e647352656465656d65722061646472657373206973206e6f74207365746044820152601760f91b606482015260840162000095565b600180546001600160a01b03808f166001600160a01b03199283161790925560028054928e1692909116919091179055600c8a90556205460089106200017d5760405162461bcd60e51b81526020600482015260116024820152706475726174696f6e20746f6f206c6f6e6760781b604482015260640162000095565b62000197898b6200024460201b620014621790919060201c565b600e55600d98909855600f96909655600494909455600592909255600791909155600655600855601055600380546001600160a01b0319166001600160a01b0390921691909117905550506012805461ffff191690555062000341565b600080546001600160a01b038381166001600160a01b0319831681178455604051919092169283917f8be0079c531659141344cd1fd0a4f28419497f9722a3daafe3b4186f6b6457e09190a35050565b60006200025282846200031a565b9392505050565b80516001600160a01b03811681146200027157600080fd5b919050565b6000806000806000806000806000806000806101808d8f0312156200029a57600080fd5b620002a58d62000259565b9b50620002b560208e0162000259565b9a5060408d0151995060608d0151985060808d0151975060a08d0151965060c08d0151955060e08d015194506101008d015193506101208d015192506101408d01519150620003086101608e0162000259565b90509295989b509295989b509295989b565b600082198211156200033c57634e487b7160e01b600052601160045260246000fd5b500190565b61168880620003516000396000f3fe608060405234801561001057600080fd5b506004361061021c5760003560e01c80638b65be0811610125578063bc4c3bb3116100ad578063d6fbf2021161007c578063d6fbf202146103dc578063e230fbe7146103e5578063f2fde38b146103ee578063f703f36f14610401578063ff6807cb1461045b57600080fd5b8063bc4c3bb3146103a6578063c0212d03146103af578063c683d8e4146103c2578063d2f82536146103ca57600080fd5b8063a4cea3b2116100f4578063a4cea3b214610366578063a6b513ee1461036e578063b17253e614610377578063b3f05b9714610380578063badf822b1461039357600080fd5b80638b65be081461033b5780638da5cb5b1461034457806393c7c04e146103555780639d1b464a1461035e57600080fd5b806349a433a2116101a857806371b9b6461161017757806371b9b646146102f7578063727dba53146103045780637bb501ec14610317578063884aa200146103205780638aa5b2c31461032857600080fd5b806349a433a2146102c657806369e1da2d146102cf5780636bacc0fa146102d7578063715018a6146102ef57600080fd5b806329b8caff116101ef57806329b8caff146102855780632afcf4801461028e578063336a2901146102a15780633711d9fb146102b457806338771754146102bd57600080fd5b8063061873e81461022157806311dc99b31461022b57806312f9b48e1461025b5780631920508d1461026e575b600080fd5b610229610464565b005b60035461023e906001600160a01b031681565b6040516001600160a01b0390911681526020015b60405180910390f35b61023e610269366004611534565b6104e2565b61027760065481565b604051908152602001610252565b610277600b5481565b61022961029c366004611534565b61050c565b60015461023e906001600160a01b031681565b610277600d5481565b61027760045481565b610277600e5481565b61022961090b565b6102df610a85565b6040519015158152602001610252565b610229610aa5565b6012546102df9060ff1681565b6102776103123660046114e9565b610adb565b610277600c5481565b610277610bb5565b610229610336366004611534565b610be1565b610277600a5481565b6000546001600160a01b031661023e565b610277600f5481565b610277610cce565b610229610cf1565b61027760115481565b61027760055481565b6012546102df9062010000900460ff1681565b60025461023e906001600160a01b031681565b61027760095481565b6102296103bd366004611534565b610f15565b610229611358565b6012546102df90610100900460ff1681565b61027760105481565b61027760075481565b6102296103fc3660046114e9565b6113c7565b61043961040f3660046114e9565b60136020526000908152604090208054600182015460028301546004909301549192909160ff1684565b6040805194855260208501939093529183015215156060820152608001610252565b61027760085481565b6000546001600160a01b031633146104975760405162461bcd60e51b815260040161048e90611566565b60405180910390fd5b6012805461ff00191661010017905560408051600181524260208201527fef5fd91dc9b012f3e4b41e00dc71466a39c83d97c3cc3879de5b9193f456c63091015b60405180910390a1565b601481815481106104f257600080fd5b6000918252602090912001546001600160a01b0316905081565b60125460ff166105585760405162461bcd60e51b815260206004820152601760248201527614d85b19481a5cc81b9bdd08195b98589b1959081e595d604a1b604482015260640161048e565b600c544210156105a55760405162461bcd60e51b815260206004820152601860248201527714d85b19481a185cc81b9bdd081cdd185c9d1959081e595d60421b604482015260640161048e565b6005548110156105f75760405162461bcd60e51b815260206004820152601760248201527f496e7665737420616d6f756e7420746f6f20736d616c6c000000000000000000604482015260640161048e565b6105ff610a85565b156106445760405162461bcd60e51b815260206004820152601560248201527414d85b19481c195c9a5bd9081a185cc8195b991959605a1b604482015260640161048e565b60075460009061065690612710611475565b905080600754610666919061159b565b6009546106739084611462565b11156106c15760405162461bcd60e51b815260206004820152601b60248201527f4d6178696d756d20496e766573746d656e747320726561636865640000000000604482015260640161048e565b33600090815260136020526040902060045481546106df9085611462565b11156107375760405162461bcd60e51b815260206004820152602160248201527f4d617820696e646976696475616c20696e766573746d656e74207265616368656044820152601960fa1b606482015260840161048e565b6002546040516323b872dd60e01b8152336004820152306024820152604481018590526001600160a01b03909116906323b872dd90606401602060405180830381600087803b15801561078957600080fd5b505af115801561079d573d6000803e3d6000fd5b505050506040513d601f19601f820116820180604052508101906107c19190611512565b6107ff5760405162461bcd60e51b815260206004820152600f60248201526e1d1c985b9cd9995c8819985a5b1959608a1b604482015260640161048e565b8054610860576001600b6000828254610818919061159b565b9091555050601480546001810182556000919091527fce6d7b5282bd9a3661ae061feed1dbda4e52ab073b1f9285be6e155d9c38d4ec0180546001600160a01b031916331790555b82816002016000828254610874919061159b565b909155505080548390829060009061088d90849061159b565b9250508190555082600960008282546108a6919061159b565b909155506108b49050610cce565b601181905560095460408051338152602081018790529081019190915260608101919091527f4df9cbfa66cbbabb528375b3af00207b446225af5a96b8a4b5c413b18226fb959060800160405180910390a1505050565b6000546001600160a01b031633146109355760405162461bcd60e51b815260040161048e90611566565b600e54421161097b5760405162461bcd60e51b815260206004820152601260248201527114d85b19481a185cc81b9bdd08195b99195960721b604482015260640161048e565b6002546040516370a0823160e01b81523060048201526000916001600160a01b0316906370a082319060240160206040518083038186803b1580156109bf57600080fd5b505afa1580156109d3573d6000803e3d6000fd5b505050506040513d601f19601f820116820180604052508101906109f7919061154d565b60025460015460405163a9059cbb60e01b81526001600160a01b03918216600482015260248101849052929350169063a9059cbb90604401602060405180830381600087803b158015610a4957600080fd5b505af1158015610a5d573d6000803e3d6000fd5b505050506040513d601f19601f82011682018060405250810190610a819190611512565b5050565b6000610a9e600d54600c5461146290919063ffffffff16565b4211905090565b6000546001600160a01b03163314610acf5760405162461bcd60e51b815260040161048e90611566565b610ad96000611481565b565b6001600160a01b038116600090815260136020526040812060038101825b8154811015610bad576000828281548110610b1657610b1661163c565b9060005260206000209060020201604051806040016040529081600082015481526020016001820154815250509050610b5a600f54426114d190919063ffffffff16565b815110610b9a57610b97838381548110610b7657610b7661163c565b9060005260206000209060020201600101548661146290919063ffffffff16565b94505b5080610ba58161160b565b915050610af9565b505050919050565b6000610bdc600854610bd6633b9aca006009546114dd90919063ffffffff16565b90611475565b905090565b6000546001600160a01b03163314610c0b5760405162461bcd60e51b815260040161048e90611566565b428111610c645760405162461bcd60e51b815260206004820152602160248201527f53746172742074696d65206d75737420626520696e20746865206675747572656044820152601760f91b606482015260840161048e565b600c544210610cb55760405162461bcd60e51b815260206004820152601860248201527f53616c652068617320616c726561647920737461727465640000000000000000604482015260640161048e565b600c819055600d54610cc8908290611462565b600e5550565b600080610cd9610bb5565b90506010548111610cec57505060105490565b919050565b601254610100900460ff16610d3d5760405162461bcd60e51b81526020600482015260126024820152711c995919595b481b9bdd08195b98589b195960721b604482015260640161048e565b600e54421015610d8f5760405162461bcd60e51b815260206004820152601d60248201527f54696d6520746f20636c61696d20686173206e6f742061727269766564000000604482015260640161048e565b336000908152601360205260409020600481015460ff1615610dec5760405162461bcd60e51b8152602060048201526016602482015275151bdad95b9cc8185b1c9958591e4818db185a5b595960521b604482015260640161048e565b8054610e2f5760405162461bcd60e51b81526020600482015260126024820152714e6f20696e766573746d656e74206d61646560701b604482015260640161048e565b6011548154600091610e4991610bd690633b9aca006114dd565b60048301805460ff191660019081179091558301819055600a54909150610e709082611462565b600a5560035460405163219e412d60e21b8152336004820152602481018390526001600160a01b039091169063867904b490604401600060405180830381600087803b158015610ebf57600080fd5b505af1158015610ed3573d6000803e3d6000fd5b505060408051338152602081018590527f3a4841c31c51a7c2deb56faab3917d3951589be071efadac552de6113babc65f935001905060405180910390a15050565b60125460ff16610f615760405162461bcd60e51b815260206004820152601760248201527614d85b19481a5cc81b9bdd08195b98589b1959081e595d604a1b604482015260640161048e565b600c54421015610fae5760405162461bcd60e51b815260206004820152601860248201527714d85b19481a185cc81b9bdd081cdd185c9d1959081e595d60421b604482015260640161048e565b600e544210610ff05760405162461bcd60e51b815260206004820152600e60248201526d14d85b19481a185cc8195b99195960921b604482015260640161048e565b600754600954106110695760405162461bcd60e51b815260206004820152603d60248201527f4d6178696d756d20496e766573746d656e747320726561636865642c2064657060448201527f6f736974732f7769746864726177616c206172652064697361626c6564000000606482015260840161048e565b6006548111156110d15760405162461bcd60e51b815260206004820152602d60248201527f43616e6e6f742072656d6f7665206d6f7265207468616e20746865206d61786960448201526c1b5d5b48189e481c195c9a5bd9609a1b606482015260840161048e565b33600090815260136020526040902080548211156111315760405162461bcd60e51b815260206004820181905260248201527f43616e6e6f742052656d6f7665206d6f7265207468616e20696e766573746564604482015260640161048e565b60038101600061114c61114333610adb565b600654906114d1565b9050808411156111a95760405162461bcd60e51b815260206004820152602260248201527f4d6178207769746864726177207265616368656420666f72207468697320686f6044820152613ab960f11b606482015260840161048e565b6040805180820190915242815260208082018681528454600181810187556000878152938420945160029283029095019485559151939091019290925590840180548692906111f990849061159b565b90915550508254849084906000906112129084906115f4565b92505081905550836009600082825461122b91906115f4565b90915550506002546040516323b872dd60e01b8152306004820152336024820152604481018690526001600160a01b03909116906323b872dd90606401602060405180830381600087803b15801561128257600080fd5b505af1158015611296573d6000803e3d6000fd5b505050506040513d601f19601f820116820180604052508101906112ba9190611512565b6112f85760405162461bcd60e51b815260206004820152600f60248201526e1d1c985b9cd9995c8819985a5b1959608a1b604482015260640161048e565b611300610cce565b601181905560095460408051338152602081018890529081019190915260608101919091527f5b938ffadc562aeed2a41670639ca329cc324ab076745a80f2849467dec6e45a9060800160405180910390a150505050565b6000546001600160a01b031633146113825760405162461bcd60e51b815260040161048e90611566565b6012805460ff19166001908117909155604080519182524260208301527f020b56eb5031e351b28c7914a3185d679342016d533b3fe0d056b43fe5ecb86891016104d8565b6000546001600160a01b031633146113f15760405162461bcd60e51b815260040161048e90611566565b6001600160a01b0381166114565760405162461bcd60e51b815260206004820152602660248201527f4f776e61626c653a206e6577206f776e657220697320746865207a65726f206160448201526564647265737360d01b606482015260840161048e565b61145f81611481565b50565b600061146e828461159b565b9392505050565b600061146e82846115b3565b600080546001600160a01b038381166001600160a01b0319831681178455604051919092169283917f8be0079c531659141344cd1fd0a4f28419497f9722a3daafe3b4186f6b6457e09190a35050565b600061146e82846115f4565b600061146e82846115d5565b6000602082840312156114fb57600080fd5b81356001600160a01b038116811461146e57600080fd5b60006020828403121561152457600080fd5b8151801515811461146e57600080fd5b60006020828403121561154657600080fd5b5035919050565b60006020828403121561155f57600080fd5b5051919050565b6020808252818101527f4f776e61626c653a2063616c6c6572206973206e6f7420746865206f776e6572604082015260600190565b600082198211156115ae576115ae611626565b500190565b6000826115d057634e487b7160e01b600052601260045260246000fd5b500490565b60008160001904831182151516156115ef576115ef611626565b500290565b60008282101561160657611606611626565b500390565b600060001982141561161f5761161f611626565b5060010190565b634e487b7160e01b600052601160045260246000fd5b634e487b7160e01b600052603260045260246000fdfea264697066735822122051391ca69ee8a33900f0cd3d9256f28aee1fec1a0bf30d4ec7d40937fc4a491f64736f6c63430008050033",
  "devdoc": {
    "kind": "dev",
    "methods": {
      "claimRedeemable()": {
        "details": "Claims the NRT tokens equivalent to their contribution"
      },
      "getLastPeriodWithdrawals(address)": {
        "details": "Returns the total amount withdrawn by the _address during the last hour*"
      },
      "invest(uint256)": {
        "details": "Invests the specified amoount of investToken"
      },
      "owner()": {
        "details": "Returns the address of the current owner."
      },
      "removeInvestment(uint256)": {
        "details": "Removes the specified amount from the users totalInvested balance and returns the amount of investTokens back to them"
      },
      "renounceOwnership()": {
        "details": "Leaves the contract without owner. It will not be possible to call `onlyOwner` functions anymore. Can only be called by the current owner. NOTE: Renouncing ownership will leave the contract without an owner, thereby removing any functionality that is only available to the owner."
      },
      "transferOwnership(address)": {
        "details": "Transfers ownership of the contract to a new account (`newOwner`). Can only be called by the current owner."
      }
    },
    "version": 1
  },
  "userdoc": {
    "kind": "user",
    "methods": {},
    "version": 1
  },
  "storageLayout": {
    "storage": [
      {
        "astId": 7,
        "contract": "contracts/FairLaunch/FairPriceLaunch.sol:FairPriceLaunch",
        "label": "_owner",
        "offset": 0,
        "slot": "0",
        "type": "t_address"
      },
      {
        "astId": 1359,
        "contract": "contracts/FairLaunch/FairPriceLaunch.sol:FairPriceLaunch",
        "label": "fundsRedeemer",
        "offset": 0,
        "slot": "1",
        "type": "t_address"
      },
      {
        "astId": 1361,
        "contract": "contracts/FairLaunch/FairPriceLaunch.sol:FairPriceLaunch",
        "label": "investToken",
        "offset": 0,
        "slot": "2",
        "type": "t_address"
      },
      {
        "astId": 1364,
        "contract": "contracts/FairLaunch/FairPriceLaunch.sol:FairPriceLaunch",
        "label": "redeemableToken",
        "offset": 0,
        "slot": "3",
        "type": "t_contract(FairPriceLaunchNRT)2372"
      },
      {
        "astId": 1366,
        "contract": "contracts/FairLaunch/FairPriceLaunch.sol:FairPriceLaunch",
        "label": "maxInvestAllowed",
        "offset": 0,
        "slot": "4",
        "type": "t_uint256"
      },
      {
        "astId": 1368,
        "contract": "contracts/FairLaunch/FairPriceLaunch.sol:FairPriceLaunch",
        "label": "minInvestAllowed",
        "offset": 0,
        "slot": "5",
        "type": "t_uint256"
      },
      {
        "astId": 1370,
        "contract": "contracts/FairLaunch/FairPriceLaunch.sol:FairPriceLaunch",
        "label": "maxInvestRemovablePerPeriod",
        "offset": 0,
        "slot": "6",
        "type": "t_uint256"
      },
      {
        "astId": 1372,
        "contract": "contracts/FairLaunch/FairPriceLaunch.sol:FairPriceLaunch",
        "label": "maxGlobalInvestAllowed",
        "offset": 0,
        "slot": "7",
        "type": "t_uint256"
      },
      {
        "astId": 1374,
        "contract": "contracts/FairLaunch/FairPriceLaunch.sol:FairPriceLaunch",
        "label": "maxRedeemableToIssue",
        "offset": 0,
        "slot": "8",
        "type": "t_uint256"
      },
      {
        "astId": 1376,
        "contract": "contracts/FairLaunch/FairPriceLaunch.sol:FairPriceLaunch",
        "label": "totalGlobalInvested",
        "offset": 0,
        "slot": "9",
        "type": "t_uint256"
      },
      {
        "astId": 1378,
        "contract": "contracts/FairLaunch/FairPriceLaunch.sol:FairPriceLaunch",
        "label": "totalGlobalIssued",
        "offset": 0,
        "slot": "10",
        "type": "t_uint256"
      },
      {
        "astId": 1380,
        "contract": "contracts/FairLaunch/FairPriceLaunch.sol:FairPriceLaunch",
        "label": "totalInvestors",
        "offset": 0,
        "slot": "11",
        "type": "t_uint256"
      },
      {
        "astId": 1382,
        "contract": "contracts/FairLaunch/FairPriceLaunch.sol:FairPriceLaunch",
        "label": "launchStartTime",
        "offset": 0,
        "slot": "12",
        "type": "t_uint256"
      },
      {
        "astId": 1384,
        "contract": "contracts/FairLaunch/FairPriceLaunch.sol:FairPriceLaunch",
        "label": "saleDuration",
        "offset": 0,
        "slot": "13",
        "type": "t_uint256"
      },
      {
        "astId": 1386,
        "contract": "contracts/FairLaunch/FairPriceLaunch.sol:FairPriceLaunch",
        "label": "launchEndTime",
        "offset": 0,
        "slot": "14",
        "type": "t_uint256"
      },
      {
        "astId": 1388,
        "contract": "contracts/FairLaunch/FairPriceLaunch.sol:FairPriceLaunch",
        "label": "investRemovalDelay",
        "offset": 0,
        "slot": "15",
        "type": "t_uint256"
      },
      {
        "astId": 1390,
        "contract": "contracts/FairLaunch/FairPriceLaunch.sol:FairPriceLaunch",
        "label": "startingPrice",
        "offset": 0,
        "slot": "16",
        "type": "t_uint256"
      },
      {
        "astId": 1392,
        "contract": "contracts/FairLaunch/FairPriceLaunch.sol:FairPriceLaunch",
        "label": "finalPrice",
        "offset": 0,
        "slot": "17",
        "type": "t_uint256"
      },
      {
        "astId": 1394,
        "contract": "contracts/FairLaunch/FairPriceLaunch.sol:FairPriceLaunch",
        "label": "saleEnabled",
        "offset": 0,
        "slot": "18",
        "type": "t_bool"
      },
      {
        "astId": 1396,
        "contract": "contracts/FairLaunch/FairPriceLaunch.sol:FairPriceLaunch",
        "label": "redeemEnabled",
        "offset": 1,
        "slot": "18",
        "type": "t_bool"
      },
      {
        "astId": 1398,
        "contract": "contracts/FairLaunch/FairPriceLaunch.sol:FairPriceLaunch",
        "label": "finalized",
        "offset": 2,
        "slot": "18",
        "type": "t_bool"
      },
      {
        "astId": 1459,
        "contract": "contracts/FairLaunch/FairPriceLaunch.sol:FairPriceLaunch",
        "label": "investorInfoMap",
        "offset": 0,
        "slot": "19",
        "type": "t_mapping(t_address,t_struct(InvestorInfo)1454_storage)"
      },
      {
        "astId": 1462,
        "contract": "contracts/FairLaunch/FairPriceLaunch.sol:FairPriceLaunch",
        "label": "investorList",
        "offset": 0,
        "slot": "20",
        "type": "t_array(t_address)dyn_storage"
      }
    ],
    "types": {
      "t_address": {
        "encoding": "inplace",
        "label": "address",
        "numberOfBytes": "20"
      },
      "t_array(t_address)dyn_storage": {
        "base": "t_address",
        "encoding": "dynamic_array",
        "label": "address[]",
        "numberOfBytes": "32"
      },
      "t_array(t_struct(Withdrawal)1441_storage)dyn_storage": {
        "base": "t_struct(Withdrawal)1441_storage",
        "encoding": "dynamic_array",
        "label": "struct FairPriceLaunch.Withdrawal[]",
        "numberOfBytes": "32"
      },
      "t_bool": {
        "encoding": "inplace",
        "label": "bool",
        "numberOfBytes": "1"
      },
      "t_contract(FairPriceLaunchNRT)2372": {
        "encoding": "inplace",
        "label": "contract FairPriceLaunchNRT",
        "numberOfBytes": "20"
      },
      "t_mapping(t_address,t_struct(InvestorInfo)1454_storage)": {
        "encoding": "mapping",
        "key": "t_address",
        "label": "mapping(address => struct FairPriceLaunch.InvestorInfo)",
        "numberOfBytes": "32",
        "value": "t_struct(InvestorInfo)1454_storage"
      },
      "t_struct(InvestorInfo)1454_storage": {
        "encoding": "inplace",
        "label": "struct FairPriceLaunch.InvestorInfo",
        "members": [
          {
            "astId": 1443,
            "contract": "contracts/FairLaunch/FairPriceLaunch.sol:FairPriceLaunch",
            "label": "totalInvested",
            "offset": 0,
            "slot": "0",
            "type": "t_uint256"
          },
          {
            "astId": 1445,
            "contract": "contracts/FairLaunch/FairPriceLaunch.sol:FairPriceLaunch",
            "label": "totalRedeemed",
            "offset": 0,
            "slot": "1",
            "type": "t_uint256"
          },
          {
            "astId": 1447,
            "contract": "contracts/FairLaunch/FairPriceLaunch.sol:FairPriceLaunch",
            "label": "totalInvestableExchanged",
            "offset": 0,
            "slot": "2",
            "type": "t_uint256"
          },
          {
            "astId": 1451,
            "contract": "contracts/FairLaunch/FairPriceLaunch.sol:FairPriceLaunch",
            "label": "withdrawHistory",
            "offset": 0,
            "slot": "3",
            "type": "t_array(t_struct(Withdrawal)1441_storage)dyn_storage"
          },
          {
            "astId": 1453,
            "contract": "contracts/FairLaunch/FairPriceLaunch.sol:FairPriceLaunch",
            "label": "hasClaimed",
            "offset": 0,
            "slot": "4",
            "type": "t_bool"
          }
        ],
        "numberOfBytes": "160"
      },
      "t_struct(Withdrawal)1441_storage": {
        "encoding": "inplace",
        "label": "struct FairPriceLaunch.Withdrawal",
        "members": [
          {
            "astId": 1438,
            "contract": "contracts/FairLaunch/FairPriceLaunch.sol:FairPriceLaunch",
            "label": "timestamp",
            "offset": 0,
            "slot": "0",
            "type": "t_uint256"
          },
          {
            "astId": 1440,
            "contract": "contracts/FairLaunch/FairPriceLaunch.sol:FairPriceLaunch",
            "label": "amount",
            "offset": 0,
            "slot": "1",
            "type": "t_uint256"
          }
        ],
        "numberOfBytes": "64"
      },
      "t_uint256": {
        "encoding": "inplace",
        "label": "uint256",
        "numberOfBytes": "32"
      }
    }
  }
}