{
  "address": "0x36b58F5C1969B7b6591D752ea6F5486D069010AB",
  "abi": [
    {
      "inputs": [
        {
          "internalType": "address",
          "name": "_fundsRedeemer",
          "type": "address"
        },
        {
          "internalType": "address",
          "name": "_investToken",
          "type": "address"
        },
        {
          "internalType": "address",
          "name": "_nrtAddress",
          "type": "address"
        },
        {
          "internalType": "uint256",
          "name": "_launchStartTime",
          "type": "uint256"
        },
        {
          "internalType": "uint256",
          "name": "_saleDuration",
          "type": "uint256"
        },
        {
          "internalType": "uint256",
          "name": "_investRemovalDelay",
          "type": "uint256"
        },
        {
          "internalType": "uint256",
          "name": "_maxInvestAllowed",
          "type": "uint256"
        },
        {
          "internalType": "uint256",
          "name": "_minInvestAllowed",
          "type": "uint256"
        },
        {
          "internalType": "uint256",
          "name": "_maxInvestRemovablePerPeriod",
          "type": "uint256"
        },
        {
          "internalType": "uint256",
          "name": "_maxGlobalInvestAllowed",
          "type": "uint256"
        },
        {
          "internalType": "uint256",
          "name": "_maxRedeemableToIssue",
          "type": "uint256"
        },
        {
          "internalType": "uint256",
          "name": "_startingPrice",
          "type": "uint256"
        }
      ],
      "stateMutability": "nonpayable",
      "type": "constructor"
    },
    {
      "anonymous": false,
      "inputs": [
        {
          "indexed": false,
          "internalType": "bool",
          "name": "enabled",
          "type": "bool"
        },
        {
          "indexed": false,
          "internalType": "uint256",
          "name": "time",
          "type": "uint256"
        }
      ],
      "name": "ClaimEnabled",
      "type": "event"
    },
    {
      "anonymous": false,
      "inputs": [
        {
          "indexed": false,
          "internalType": "address",
          "name": "account",
          "type": "address"
        },
        {
          "indexed": false,
          "internalType": "uint256",
          "name": "amount",
          "type": "uint256"
        }
      ],
      "name": "Claimed",
      "type": "event"
    },
    {
      "anonymous": false,
      "inputs": [
        {
          "indexed": false,
          "internalType": "address",
          "name": "investor",
          "type": "address"
        },
        {
          "indexed": false,
          "internalType": "uint256",
          "name": "amount",
          "type": "uint256"
        },
        {
          "indexed": false,
          "internalType": "uint256",
          "name": "totalInvested",
          "type": "uint256"
        },
        {
          "indexed": false,
          "internalType": "uint256",
          "name": "price",
          "type": "uint256"
        }
      ],
      "name": "Invest",
      "type": "event"
    },
    {
      "anonymous": false,
      "inputs": [
        {
          "indexed": true,
          "internalType": "address",
          "name": "previousOwner",
          "type": "address"
        },
        {
          "indexed": true,
          "internalType": "address",
          "name": "newOwner",
          "type": "address"
        }
      ],
      "name": "OwnershipTransferred",
      "type": "event"
    },
    {
      "anonymous": false,
      "inputs": [
        {
          "indexed": false,
          "internalType": "bool",
          "name": "enabled",
          "type": "bool"
        },
        {
          "indexed": false,
          "internalType": "uint256",
          "name": "time",
          "type": "uint256"
        }
      ],
      "name": "RedeemEnabled",
      "type": "event"
    },
    {
      "anonymous": false,
      "inputs": [
        {
          "indexed": false,
          "internalType": "address",
          "name": "account",
          "type": "address"
        },
        {
          "indexed": false,
          "internalType": "uint256",
          "name": "amount",
          "type": "uint256"
        }
      ],
      "name": "Redeemed",
      "type": "event"
    },
    {
      "anonymous": false,
      "inputs": [
        {
          "indexed": false,
          "internalType": "address",
          "name": "investor",
          "type": "address"
        },
        {
          "indexed": false,
          "internalType": "uint256",
          "name": "amount",
          "type": "uint256"
        },
        {
          "indexed": false,
          "internalType": "uint256",
          "name": "totalInvested",
          "type": "uint256"
        },
        {
          "indexed": false,
          "internalType": "uint256",
          "name": "price",
          "type": "uint256"
        }
      ],
      "name": "RemoveInvestment",
      "type": "event"
    },
    {
      "anonymous": false,
      "inputs": [
        {
          "indexed": false,
          "internalType": "bool",
          "name": "enabled",
          "type": "bool"
        },
        {
          "indexed": false,
          "internalType": "uint256",
          "name": "time",
          "type": "uint256"
        }
      ],
      "name": "SaleEnabled",
      "type": "event"
    },
    {
      "inputs": [
        {
          "internalType": "uint256",
          "name": "newTime",
          "type": "uint256"
        }
      ],
      "name": "changeStartTime",
      "outputs": [],
      "stateMutability": "nonpayable",
      "type": "function"
    },
    {
      "inputs": [],
      "name": "claimEnabled",
      "outputs": [
        {
          "internalType": "bool",
          "name": "",
          "type": "bool"
        }
      ],
      "stateMutability": "view",
      "type": "function"
    },
    {
      "inputs": [],
      "name": "claimRedeemable",
      "outputs": [],
      "stateMutability": "nonpayable",
      "type": "function"
    },
    {
      "inputs": [],
      "name": "computePrice",
      "outputs": [
        {
          "internalType": "uint256",
          "name": "",
          "type": "uint256"
        }
      ],
      "stateMutability": "view",
      "type": "function"
    },
    {
      "inputs": [],
      "name": "currentPrice",
      "outputs": [
        {
          "internalType": "uint256",
          "name": "",
          "type": "uint256"
        }
      ],
      "stateMutability": "view",
      "type": "function"
    },
    {
      "inputs": [],
      "name": "enableClaim",
      "outputs": [],
      "stateMutability": "nonpayable",
      "type": "function"
    },
    {
      "inputs": [],
      "name": "enableRedeem",
      "outputs": [],
      "stateMutability": "nonpayable",
      "type": "function"
    },
    {
      "inputs": [],
      "name": "enableSale",
      "outputs": [],
      "stateMutability": "nonpayable",
      "type": "function"
    },
    {
      "inputs": [],
      "name": "finalPrice",
      "outputs": [
        {
          "internalType": "uint256",
          "name": "",
          "type": "uint256"
        }
      ],
      "stateMutability": "view",
      "type": "function"
    },
    {
      "inputs": [],
      "name": "finalized",
      "outputs": [
        {
          "internalType": "bool",
          "name": "",
          "type": "bool"
        }
      ],
      "stateMutability": "view",
      "type": "function"
    },
    {
      "inputs": [],
      "name": "fundsRedeemer",
      "outputs": [
        {
          "internalType": "address",
          "name": "",
          "type": "address"
        }
      ],
      "stateMutability": "view",
      "type": "function"
    },
    {
      "inputs": [
        {
          "internalType": "address",
          "name": "_address",
          "type": "address"
        }
      ],
      "name": "getLastPeriodWithdrawals",
      "outputs": [
        {
          "internalType": "uint256",
          "name": "totalWithdrawLastHour",
          "type": "uint256"
        }
      ],
      "stateMutability": "view",
      "type": "function"
    },
    {
      "inputs": [],
      "name": "hasSaleEnded",
      "outputs": [
        {
          "internalType": "bool",
          "name": "",
          "type": "bool"
        }
      ],
      "stateMutability": "view",
      "type": "function"
    },
    {
      "inputs": [
        {
          "internalType": "uint256",
          "name": "amountToInvest",
          "type": "uint256"
        }
      ],
      "name": "invest",
      "outputs": [],
      "stateMutability": "nonpayable",
      "type": "function"
    },
    {
      "inputs": [],
      "name": "investRemovalDelay",
      "outputs": [
        {
          "internalType": "uint256",
          "name": "",
          "type": "uint256"
        }
      ],
      "stateMutability": "view",
      "type": "function"
    },
    {
      "inputs": [],
      "name": "investToken",
      "outputs": [
        {
          "internalType": "address",
          "name": "",
          "type": "address"
        }
      ],
      "stateMutability": "view",
      "type": "function"
    },
    {
      "inputs": [
        {
          "internalType": "address",
          "name": "",
          "type": "address"
        }
      ],
      "name": "investorInfoMap",
      "outputs": [
        {
          "internalType": "uint256",
          "name": "totalInvested",
          "type": "uint256"
        },
        {
          "internalType": "uint256",
          "name": "totalClaimed",
          "type": "uint256"
        },
        {
          "internalType": "uint256",
          "name": "totalRedeemed",
          "type": "uint256"
        },
        {
          "internalType": "uint256",
          "name": "totalInvestableExchanged",
          "type": "uint256"
        },
        {
          "internalType": "bool",
          "name": "hasClaimed",
          "type": "bool"
        },
        {
          "internalType": "bool",
          "name": "hasRedeemed",
          "type": "bool"
        }
      ],
      "stateMutability": "view",
      "type": "function"
    },
    {
      "inputs": [
        {
          "internalType": "uint256",
          "name": "",
          "type": "uint256"
        }
      ],
      "name": "investorList",
      "outputs": [
        {
          "internalType": "address",
          "name": "",
          "type": "address"
        }
      ],
      "stateMutability": "view",
      "type": "function"
    },
    {
      "inputs": [],
      "name": "launchEndTime",
      "outputs": [
        {
          "internalType": "uint256",
          "name": "",
          "type": "uint256"
        }
      ],
      "stateMutability": "view",
      "type": "function"
    },
    {
      "inputs": [],
      "name": "launchStartTime",
      "outputs": [
        {
          "internalType": "uint256",
          "name": "",
          "type": "uint256"
        }
      ],
      "stateMutability": "view",
      "type": "function"
    },
    {
      "inputs": [],
      "name": "launchToken",
      "outputs": [
        {
          "internalType": "address",
          "name": "",
          "type": "address"
        }
      ],
      "stateMutability": "view",
      "type": "function"
    },
    {
      "inputs": [],
      "name": "maxGlobalInvestAllowed",
      "outputs": [
        {
          "internalType": "uint256",
          "name": "",
          "type": "uint256"
        }
      ],
      "stateMutability": "view",
      "type": "function"
    },
    {
      "inputs": [],
      "name": "maxInvestAllowed",
      "outputs": [
        {
          "internalType": "uint256",
          "name": "",
          "type": "uint256"
        }
      ],
      "stateMutability": "view",
      "type": "function"
    },
    {
      "inputs": [],
      "name": "maxInvestRemovablePerPeriod",
      "outputs": [
        {
          "internalType": "uint256",
          "name": "",
          "type": "uint256"
        }
      ],
      "stateMutability": "view",
      "type": "function"
    },
    {
      "inputs": [],
      "name": "maxRedeemableToIssue",
      "outputs": [
        {
          "internalType": "uint256",
          "name": "",
          "type": "uint256"
        }
      ],
      "stateMutability": "view",
      "type": "function"
    },
    {
      "inputs": [],
      "name": "minInvestAllowed",
      "outputs": [
        {
          "internalType": "uint256",
          "name": "",
          "type": "uint256"
        }
      ],
      "stateMutability": "view",
      "type": "function"
    },
    {
      "inputs": [],
      "name": "nrt",
      "outputs": [
        {
          "internalType": "contract FairLaunchNRT",
          "name": "",
          "type": "address"
        }
      ],
      "stateMutability": "view",
      "type": "function"
    },
    {
      "inputs": [],
      "name": "owner",
      "outputs": [
        {
          "internalType": "address",
          "name": "",
          "type": "address"
        }
      ],
      "stateMutability": "view",
      "type": "function"
    },
    {
      "inputs": [],
      "name": "redeem",
      "outputs": [],
      "stateMutability": "nonpayable",
      "type": "function"
    },
    {
      "inputs": [],
      "name": "redeemEnabled",
      "outputs": [
        {
          "internalType": "bool",
          "name": "",
          "type": "bool"
        }
      ],
      "stateMutability": "view",
      "type": "function"
    },
    {
      "inputs": [
        {
          "internalType": "uint256",
          "name": "amountToRemove",
          "type": "uint256"
        }
      ],
      "name": "removeInvestment",
      "outputs": [],
      "stateMutability": "nonpayable",
      "type": "function"
    },
    {
      "inputs": [],
      "name": "renounceOwnership",
      "outputs": [],
      "stateMutability": "nonpayable",
      "type": "function"
    },
    {
      "inputs": [],
      "name": "saleDuration",
      "outputs": [
        {
          "internalType": "uint256",
          "name": "",
          "type": "uint256"
        }
      ],
      "stateMutability": "view",
      "type": "function"
    },
    {
      "inputs": [],
      "name": "saleEnabled",
      "outputs": [
        {
          "internalType": "bool",
          "name": "",
          "type": "bool"
        }
      ],
      "stateMutability": "view",
      "type": "function"
    },
    {
      "inputs": [
        {
          "internalType": "address",
          "name": "_launchToken",
          "type": "address"
        }
      ],
      "name": "setLaunchToken",
      "outputs": [],
      "stateMutability": "nonpayable",
      "type": "function"
    },
    {
      "inputs": [],
      "name": "startingPrice",
      "outputs": [
        {
          "internalType": "uint256",
          "name": "",
          "type": "uint256"
        }
      ],
      "stateMutability": "view",
      "type": "function"
    },
    {
      "inputs": [],
      "name": "totalGlobalInvested",
      "outputs": [
        {
          "internalType": "uint256",
          "name": "",
          "type": "uint256"
        }
      ],
      "stateMutability": "view",
      "type": "function"
    },
    {
      "inputs": [],
      "name": "totalGlobalIssued",
      "outputs": [
        {
          "internalType": "uint256",
          "name": "",
          "type": "uint256"
        }
      ],
      "stateMutability": "view",
      "type": "function"
    },
    {
      "inputs": [],
      "name": "totalGlobalRedeemed",
      "outputs": [
        {
          "internalType": "uint256",
          "name": "",
          "type": "uint256"
        }
      ],
      "stateMutability": "view",
      "type": "function"
    },
    {
      "inputs": [],
      "name": "totalInvestors",
      "outputs": [
        {
          "internalType": "uint256",
          "name": "",
          "type": "uint256"
        }
      ],
      "stateMutability": "view",
      "type": "function"
    },
    {
      "inputs": [
        {
          "internalType": "address",
          "name": "newOwner",
          "type": "address"
        }
      ],
      "name": "transferOwnership",
      "outputs": [],
      "stateMutability": "nonpayable",
      "type": "function"
    },
    {
      "inputs": [],
      "name": "withdrawInvestablePool",
      "outputs": [],
      "stateMutability": "nonpayable",
      "type": "function"
    },
    {
      "inputs": [
        {
          "internalType": "uint256",
          "name": "amount",
          "type": "uint256"
        }
      ],
      "name": "withdrawLaunchtoken",
      "outputs": [],
      "stateMutability": "nonpayable",
      "type": "function"
    }
  ],
  "transactionHash": "0xb46f2754b7ca04d2cb235932319b16a6a34cd93d15e012af3e750fcb0fa5f764",
  "args": [
    "0x477F33ead6d79d4A357c9788aDC3Bc5986866f55",
    "0x04068da6c83afcfa0e13ba15a6696662335d5b75",
    "0x51A1ceB83B83F1985a81C295d1fF28Afef186E02",
    1645286400,
    172800,
    3600,
    "2500000000",
    0,
    "1000000000",
    "87500000000",
    "350000000000000",
    "80000"
  ],
  "solcInputHash": "d4a9b482acd2ea4fb3d955b36e52bc63",
  "bytecode": "0x60806040523480156200001157600080fd5b5060405162001f9f38038062001f9f833981016040819052620000349162000279565b6200003f33620001f7565b4289116200009e5760405162461bcd60e51b815260206004820152602160248201527f53746172742074696d65206d75737420626520696e20746865206675747572656044820152601760f91b60648201526084015b60405180910390fd5b6001600160a01b038c16620001005760405162461bcd60e51b815260206004820152602160248201527f66756e647352656465656d65722061646472657373206973206e6f74207365746044820152601760f91b606482015260840162000095565b600280546001600160a01b03808f166001600160a01b03199283161790925560038054928e1692909116919091179055600e8990556205460088106200017d5760405162461bcd60e51b81526020600482015260116024820152706475726174696f6e20746f6f206c6f6e6760781b604482015260640162000095565b62000197888a6200024760201b620019fc1790919060201c565b601055600f97909755601195909555600593909355600691909155600891909155600755600955601255506014805462ffffff19169055600180546001600160a01b0319166001600160a01b039290921691909117905550620003449050565b600080546001600160a01b038381166001600160a01b0319831681178455604051919092169283917f8be0079c531659141344cd1fd0a4f28419497f9722a3daafe3b4186f6b6457e09190a35050565b60006200025582846200031d565b9392505050565b80516001600160a01b03811681146200027457600080fd5b919050565b6000806000806000806000806000806000806101808d8f0312156200029d57600080fd5b620002a88d6200025c565b9b50620002b860208e016200025c565b9a50620002c860408e016200025c565b995060608d0151985060808d0151975060a08d0151965060c08d0151955060e08d015194506101008d015193506101208d015192506101408d015191506101608d015190509295989b509295989b509295989b565b600082198211156200033f57634e487b7160e01b600052601160045260246000fd5b500190565b611c4b80620003546000396000f3fe608060405234801561001057600080fd5b50600436106102695760003560e01c80638b65be0811610151578063be040fb0116100c3578063e230fbe711610087578063e230fbe714610472578063e545338c1461047b578063f2fde38b1461048e578063f703f36f146104a1578063ff16e7501461051b578063ff6807cb1461052e57600080fd5b8063be040fb014610433578063c0212d031461043b578063c683d8e41461044e578063d2f8253614610456578063d6fbf2021461046957600080fd5b8063a4cea3b211610115578063a4cea3b2146103e9578063a6b513ee146103f1578063b17253e6146103fa578063b3f05b9714610403578063badf822b14610417578063bc4c3bb31461042a57600080fd5b80638b65be08146103ab5780638da5cb5b146103b457806393c7c04e146103c55780639d1b464a146103ce578063a28a4d86146103d657600080fd5b806338771754116101ea578063715018a6116101ae578063715018a61461035f57806371b9b64614610367578063727dba53146103745780637bb501ec14610387578063884aa200146103905780638aa5b2c31461039857600080fd5b8063387717541461032a57806349a433a214610333578063604a85da1461033c57806369e1da2d1461034f5780636bacc0fa1461035757600080fd5b806328dae6e31161023157806328dae6e3146102ea57806329b8caff146102f25780632afcf480146102fb578063336a29011461030e5780633711d9fb1461032157600080fd5b8063061873e81461026e5780631217a69c1461027857806312f9b48e146102945780631920508d146102bf5780632866ed21146102c8575b600080fd5b610276610537565b005b610281600c5481565b6040519081526020015b60405180910390f35b6102a76102a2366004611ace565b6105b7565b6040516001600160a01b03909116815260200161028b565b61028160075481565b6014546102da90610100900460ff1681565b604051901515815260200161028b565b6102766105e1565b610281600d5481565b610276610309366004611ace565b610650565b6002546102a7906001600160a01b031681565b610281600f5481565b61028160055481565b61028160105481565b61027661034a366004611a83565b610a0e565b610276610a5a565b6102da610bd4565b610276610bf4565b6014546102da9060ff1681565b610281610382366004611a83565b610c2a565b610281600e5481565b610281610d04565b6102766103a6366004611ace565b610d30565b610281600b5481565b6000546001600160a01b03166102a7565b61028160115481565b610281610e1d565b6004546102a7906001600160a01b031681565b610276610e40565b61028160135481565b61028160065481565b6014546102da906301000000900460ff1681565b6003546102a7906001600160a01b031681565b610281600a5481565b61027661109c565b610276610449366004611ace565b611407565b610276611827565b6014546102da9062010000900460ff1681565b61028160125481565b61028160085481565b6001546102a7906001600160a01b031681565b61027661049c366004611a83565b611896565b6104ea6104af366004611a83565b601560205260009081526040902080546001820154600283015460038401546005909401549293919290919060ff8082169161010090041686565b60408051968752602087019590955293850192909252606084015215156080830152151560a082015260c00161028b565b610276610529366004611ace565b611931565b61028160095481565b6000546001600160a01b0316331461056a5760405162461bcd60e51b815260040161056190611b00565b60405180910390fd5b6014805462ff000019166201000017905560408051600181524260208201527fef5fd91dc9b012f3e4b41e00dc71466a39c83d97c3cc3879de5b9193f456c63091015b60405180910390a1565b601681815481106105c757600080fd5b6000918252602090912001546001600160a01b0316905081565b6000546001600160a01b0316331461060b5760405162461bcd60e51b815260040161056190611b00565b6014805461ff00191661010017905560408051600181524260208201527f4c19a247afa6e76f0ce951834d6e092126cc3ac979b6bf5bc521e84b36ad568d91016105ad565b60145460ff1661069c5760405162461bcd60e51b815260206004820152601760248201527614d85b19481a5cc81b9bdd08195b98589b1959081e595d604a1b6044820152606401610561565b600e544210156106e95760405162461bcd60e51b815260206004820152601860248201527714d85b19481a185cc81b9bdd081cdd185c9d1959081e595d60421b6044820152606401610561565b60065481101561073b5760405162461bcd60e51b815260206004820152601760248201527f496e7665737420616d6f756e7420746f6f20736d616c6c0000000000000000006044820152606401610561565b610743610bd4565b156107885760405162461bcd60e51b815260206004820152601560248201527414d85b19481c195c9a5bd9081a185cc8195b991959605a1b6044820152606401610561565b600854600a5461079890836119fc565b11156107e65760405162461bcd60e51b815260206004820152601b60248201527f4d6178696d756d20496e766573746d656e7473207265616368656400000000006044820152606401610561565b336000908152601560205260409020600554815461080490846119fc565b111561085c5760405162461bcd60e51b815260206004820152602160248201527f4d617820696e646976696475616c20696e766573746d656e74207265616368656044820152601960fa1b6064820152608401610561565b6003546040516323b872dd60e01b8152336004820152306024820152604481018490526001600160a01b03909116906323b872dd90606401602060405180830381600087803b1580156108ae57600080fd5b505af11580156108c2573d6000803e3d6000fd5b505050506040513d601f19601f820116820180604052508101906108e69190611aac565b6109025760405162461bcd60e51b815260040161056190611b35565b8054610963576001600d600082825461091b9190611b5e565b9091555050601680546001810182556000919091527fd833147d7dc355ba459fc788f669e58cfaf9dc25ddcd0702e87d69c7b51242890180546001600160a01b031916331790555b818160030160008282546109779190611b5e565b9091555050805482908290600090610990908490611b5e565b9250508190555081600a60008282546109a99190611b5e565b909155506109b79050610e1d565b6013819055600a5460408051338152602081018690529081019190915260608101919091527f4df9cbfa66cbbabb528375b3af00207b446225af5a96b8a4b5c413b18226fb95906080015b60405180910390a15050565b6000546001600160a01b03163314610a385760405162461bcd60e51b815260040161056190611b00565b600480546001600160a01b0319166001600160a01b0392909216919091179055565b6000546001600160a01b03163314610a845760405162461bcd60e51b815260040161056190611b00565b6010544211610aca5760405162461bcd60e51b815260206004820152601260248201527114d85b19481a185cc81b9bdd08195b99195960721b6044820152606401610561565b6003546040516370a0823160e01b81523060048201526000916001600160a01b0316906370a082319060240160206040518083038186803b158015610b0e57600080fd5b505afa158015610b22573d6000803e3d6000fd5b505050506040513d601f19601f82011682018060405250810190610b469190611ae7565b60035460025460405163a9059cbb60e01b81526001600160a01b03918216600482015260248101849052929350169063a9059cbb90604401602060405180830381600087803b158015610b9857600080fd5b505af1158015610bac573d6000803e3d6000fd5b505050506040513d601f19601f82011682018060405250810190610bd09190611aac565b5050565b6000610bed600f54600e546119fc90919063ffffffff16565b4211905090565b6000546001600160a01b03163314610c1e5760405162461bcd60e51b815260040161056190611b00565b610c286000611a0f565b565b6001600160a01b038116600090815260156020526040812060048101825b8154811015610cfc576000828281548110610c6557610c65611bff565b9060005260206000209060020201604051806040016040529081600082015481526020016001820154815250509050610ca960115442611a5f90919063ffffffff16565b815110610ce957610ce6838381548110610cc557610cc5611bff565b906000526020600020906002020160010154866119fc90919063ffffffff16565b94505b5080610cf481611bce565b915050610c48565b505050919050565b6000610d2b600954610d25633b9aca00600a54611a6b90919063ffffffff16565b90611a77565b905090565b6000546001600160a01b03163314610d5a5760405162461bcd60e51b815260040161056190611b00565b428111610db35760405162461bcd60e51b815260206004820152602160248201527f53746172742074696d65206d75737420626520696e20746865206675747572656044820152601760f91b6064820152608401610561565b600e544210610e045760405162461bcd60e51b815260206004820152601860248201527f53616c652068617320616c7265616479207374617274656400000000000000006044820152606401610561565b600e819055600f54610e179082906119fc565b60105550565b600080610e28610d04565b90506012548111610e3b57505060125490565b919050565b601454610100900460ff16610e8b5760405162461bcd60e51b815260206004820152601160248201527018db185a5b481b9bdd08195b98589b1959607a1b6044820152606401610561565b601054421015610edd5760405162461bcd60e51b815260206004820152601d60248201527f54696d6520746f20636c61696d20686173206e6f7420617272697665640000006044820152606401610561565b336000908152601560205260409020600581015460ff1615610f3a5760405162461bcd60e51b8152602060048201526016602482015275151bdad95b9cc8185b1c9958591e4818db185a5b595960521b6044820152606401610561565b8054610f7d5760405162461bcd60e51b81526020600482015260126024820152714e6f20696e766573746d656e74206d61646560701b6044820152606401610561565b6013548154600091610f9791610d2590633b9aca00611a6b565b60058301805460ff191660019081179091558301819055600b54909150610fbe90826119fc565b600b55806110015760405162461bcd60e51b815260206004820152601060248201526f1b9bc8185b5bdd5b9d081a5cdcdd595960821b6044820152606401610561565b60015460405163219e412d60e21b8152336004820152602481018390526001600160a01b039091169063867904b490604401600060405180830381600087803b15801561104d57600080fd5b505af1158015611061573d6000803e3d6000fd5b505060408051338152602081018590527fd8138f8a3f377c5259ca548e70e4c2de94f129f5a11036a15b69513cba2b426a9350019050610a02565b60145462010000900460ff166110e95760405162461bcd60e51b81526020600482015260126024820152711c995919595b481b9bdd08195b98589b195960721b6044820152606401610561565b601054421161112f5760405162461bcd60e51b81526020600482015260126024820152711b9bdd081c995919595b58589b19481e595d60721b6044820152606401610561565b6001546040516370a0823160e01b81523360048201526000916001600160a01b0316906370a082319060240160206040518083038186803b15801561117357600080fd5b505afa158015611187573d6000803e3d6000fd5b505050506040513d601f19601f820116820180604052508101906111ab9190611ae7565b9050600081116111f05760405162461bcd60e51b815260206004820152601060248201526f1b9bc8185b5bdd5b9d081a5cdcdd595960821b6044820152606401610561565b3360009081526015602052604090206005810154610100900460ff161561124c5760405162461bcd60e51b815260206004820152601060248201526f185b1c9958591e481c995919595b595960821b6044820152606401610561565b6004546001600160a01b03166112a45760405162461bcd60e51b815260206004820152601760248201527f4c61756e746820746f6b656e206e6f74207365747465640000000000000000006044820152606401610561565b60058101805461ff0019166101001790556004805460405163a9059cbb60e01b81523392810192909252602482018490526001600160a01b03169063a9059cbb90604401602060405180830381600087803b15801561130257600080fd5b505af1158015611316573d6000803e3d6000fd5b505050506040513d601f19601f8201168201806040525081019061133a9190611aac565b6113565760405162461bcd60e51b815260040161056190611b35565b6001546040516301e9a69560e41b8152336004820152602481018490526001600160a01b0390911690631e9a695090604401600060405180830381600087803b1580156113a257600080fd5b505af11580156113b6573d6000803e3d6000fd5b5050505081600c60008282546113cc9190611b5e565b909155505060408051338152602081018490527f4896181ff8f4543cc00db9fe9b6fb7e6f032b7eb772c72ab1ec1b4d2e03b93699101610a02565b60145460ff166114535760405162461bcd60e51b815260206004820152601760248201527614d85b19481a5cc81b9bdd08195b98589b1959081e595d604a1b6044820152606401610561565b600e544210156114a05760405162461bcd60e51b815260206004820152601860248201527714d85b19481a185cc81b9bdd081cdd185c9d1959081e595d60421b6044820152606401610561565b60105442106114e25760405162461bcd60e51b815260206004820152600e60248201526d14d85b19481a185cc8195b99195960921b6044820152606401610561565b600854600a541061155b5760405162461bcd60e51b815260206004820152603d60248201527f4d6178696d756d20496e766573746d656e747320726561636865642c2064657060448201527f6f736974732f7769746864726177616c206172652064697361626c65640000006064820152608401610561565b6007548111156115c35760405162461bcd60e51b815260206004820152602d60248201527f43616e6e6f742072656d6f7665206d6f7265207468616e20746865206d61786960448201526c1b5d5b48189e481c195c9a5bd9609a1b6064820152608401610561565b33600090815260156020526040902080548211156116235760405162461bcd60e51b815260206004820181905260248201527f43616e6e6f742052656d6f7665206d6f7265207468616e20696e7665737465646044820152606401610561565b60048101600061163e61163533610c2a565b60075490611a5f565b90508084111561169b5760405162461bcd60e51b815260206004820152602260248201527f4d6178207769746864726177207265616368656420666f72207468697320686f6044820152613ab960f11b6064820152608401610561565b60408051808201909152428152602080820186815284546001818101875560008781529384209451600290920290940190815590519201919091556003840180548692906116ea908490611b5e565b9091555050825484908490600090611703908490611bb7565b9250508190555083600a600082825461171c9190611bb7565b90915550506003546040516323b872dd60e01b8152306004820152336024820152604481018690526001600160a01b03909116906323b872dd90606401602060405180830381600087803b15801561177357600080fd5b505af1158015611787573d6000803e3d6000fd5b505050506040513d601f19601f820116820180604052508101906117ab9190611aac565b6117c75760405162461bcd60e51b815260040161056190611b35565b6117cf610e1d565b6013819055600a5460408051338152602081018890529081019190915260608101919091527f5b938ffadc562aeed2a41670639ca329cc324ab076745a80f2849467dec6e45a9060800160405180910390a150505050565b6000546001600160a01b031633146118515760405162461bcd60e51b815260040161056190611b00565b6014805460ff19166001908117909155604080519182524260208301527f020b56eb5031e351b28c7914a3185d679342016d533b3fe0d056b43fe5ecb86891016105ad565b6000546001600160a01b031633146118c05760405162461bcd60e51b815260040161056190611b00565b6001600160a01b0381166119255760405162461bcd60e51b815260206004820152602660248201527f4f776e61626c653a206e6577206f776e657220697320746865207a65726f206160448201526564647265737360d01b6064820152608401610561565b61192e81611a0f565b50565b6000546001600160a01b0316331461195b5760405162461bcd60e51b815260040161056190611b00565b6004805460405163a9059cbb60e01b81523392810192909252602482018390526001600160a01b03169063a9059cbb90604401602060405180830381600087803b1580156119a857600080fd5b505af11580156119bc573d6000803e3d6000fd5b505050506040513d601f19601f820116820180604052508101906119e09190611aac565b61192e5760405162461bcd60e51b815260040161056190611b35565b6000611a088284611b5e565b9392505050565b600080546001600160a01b038381166001600160a01b0319831681178455604051919092169283917f8be0079c531659141344cd1fd0a4f28419497f9722a3daafe3b4186f6b6457e09190a35050565b6000611a088284611bb7565b6000611a088284611b98565b6000611a088284611b76565b600060208284031215611a9557600080fd5b81356001600160a01b0381168114611a0857600080fd5b600060208284031215611abe57600080fd5b81518015158114611a0857600080fd5b600060208284031215611ae057600080fd5b5035919050565b600060208284031215611af957600080fd5b5051919050565b6020808252818101527f4f776e61626c653a2063616c6c6572206973206e6f7420746865206f776e6572604082015260600190565b6020808252600f908201526e1d1c985b9cd9995c8819985a5b1959608a1b604082015260600190565b60008219821115611b7157611b71611be9565b500190565b600082611b9357634e487b7160e01b600052601260045260246000fd5b500490565b6000816000190483118215151615611bb257611bb2611be9565b500290565b600082821015611bc957611bc9611be9565b500390565b6000600019821415611be257611be2611be9565b5060010190565b634e487b7160e01b600052601160045260246000fd5b634e487b7160e01b600052603260045260246000fdfea26469706673582212206241c6ce3fa5d6773abc9436144d069b4c7fad4f4a5def5091a64e9476a01c6a64736f6c63430008050033",
  "devdoc": {
    "kind": "dev",
    "methods": {
      "claimRedeemable()": {
        "details": "Claims the NRT tokens equivalent to their contribution"
      },
      "getLastPeriodWithdrawals(address)": {
        "details": "Returns the total amount withdrawn by the _address during the last hour*"
      },
      "invest(uint256)": {
        "details": "Invests the specified amoount of investToken"
      },
      "owner()": {
        "details": "Returns the address of the current owner."
      },
      "redeem()": {
        "details": "redeem all tokens"
      },
      "removeInvestment(uint256)": {
        "details": "Removes the specified amount from the users totalInvested balance and returns the amount of investTokens back to them"
      },
      "renounceOwnership()": {
        "details": "Leaves the contract without owner. It will not be possible to call `onlyOwner` functions anymore. Can only be called by the current owner. NOTE: Renouncing ownership will leave the contract without an owner, thereby removing any functionality that is only available to the owner."
      },
      "transferOwnership(address)": {
        "details": "Transfers ownership of the contract to a new account (`newOwner`). Can only be called by the current owner."
      }
    },
    "version": 1
  },
  "userdoc": {
    "kind": "user",
    "methods": {},
    "version": 1
  },
  "storageLayout": {
    "storage": [
      {
        "astId": 7,
        "contract": "contracts/FairLaunch/FairPriceLaunch.sol:FairPriceLaunch",
        "label": "_owner",
        "offset": 0,
        "slot": "0",
        "type": "t_address"
      },
      {
        "astId": 1559,
        "contract": "contracts/FairLaunch/FairPriceLaunch.sol:FairPriceLaunch",
        "label": "nrt",
        "offset": 0,
        "slot": "1",
        "type": "t_contract(FairLaunchNRT)1545"
      },
      {
        "astId": 1561,
        "contract": "contracts/FairLaunch/FairPriceLaunch.sol:FairPriceLaunch",
        "label": "fundsRedeemer",
        "offset": 0,
        "slot": "2",
        "type": "t_address"
      },
      {
        "astId": 1563,
        "contract": "contracts/FairLaunch/FairPriceLaunch.sol:FairPriceLaunch",
        "label": "investToken",
        "offset": 0,
        "slot": "3",
        "type": "t_address"
      },
      {
        "astId": 1565,
        "contract": "contracts/FairLaunch/FairPriceLaunch.sol:FairPriceLaunch",
        "label": "launchToken",
        "offset": 0,
        "slot": "4",
        "type": "t_address"
      },
      {
        "astId": 1567,
        "contract": "contracts/FairLaunch/FairPriceLaunch.sol:FairPriceLaunch",
        "label": "maxInvestAllowed",
        "offset": 0,
        "slot": "5",
        "type": "t_uint256"
      },
      {
        "astId": 1569,
        "contract": "contracts/FairLaunch/FairPriceLaunch.sol:FairPriceLaunch",
        "label": "minInvestAllowed",
        "offset": 0,
        "slot": "6",
        "type": "t_uint256"
      },
      {
        "astId": 1571,
        "contract": "contracts/FairLaunch/FairPriceLaunch.sol:FairPriceLaunch",
        "label": "maxInvestRemovablePerPeriod",
        "offset": 0,
        "slot": "7",
        "type": "t_uint256"
      },
      {
        "astId": 1573,
        "contract": "contracts/FairLaunch/FairPriceLaunch.sol:FairPriceLaunch",
        "label": "maxGlobalInvestAllowed",
        "offset": 0,
        "slot": "8",
        "type": "t_uint256"
      },
      {
        "astId": 1575,
        "contract": "contracts/FairLaunch/FairPriceLaunch.sol:FairPriceLaunch",
        "label": "maxRedeemableToIssue",
        "offset": 0,
        "slot": "9",
        "type": "t_uint256"
      },
      {
        "astId": 1577,
        "contract": "contracts/FairLaunch/FairPriceLaunch.sol:FairPriceLaunch",
        "label": "totalGlobalInvested",
        "offset": 0,
        "slot": "10",
        "type": "t_uint256"
      },
      {
        "astId": 1579,
        "contract": "contracts/FairLaunch/FairPriceLaunch.sol:FairPriceLaunch",
        "label": "totalGlobalIssued",
        "offset": 0,
        "slot": "11",
        "type": "t_uint256"
      },
      {
        "astId": 1581,
        "contract": "contracts/FairLaunch/FairPriceLaunch.sol:FairPriceLaunch",
        "label": "totalGlobalRedeemed",
        "offset": 0,
        "slot": "12",
        "type": "t_uint256"
      },
      {
        "astId": 1583,
        "contract": "contracts/FairLaunch/FairPriceLaunch.sol:FairPriceLaunch",
        "label": "totalInvestors",
        "offset": 0,
        "slot": "13",
        "type": "t_uint256"
      },
      {
        "astId": 1585,
        "contract": "contracts/FairLaunch/FairPriceLaunch.sol:FairPriceLaunch",
        "label": "launchStartTime",
        "offset": 0,
        "slot": "14",
        "type": "t_uint256"
      },
      {
        "astId": 1587,
        "contract": "contracts/FairLaunch/FairPriceLaunch.sol:FairPriceLaunch",
        "label": "saleDuration",
        "offset": 0,
        "slot": "15",
        "type": "t_uint256"
      },
      {
        "astId": 1589,
        "contract": "contracts/FairLaunch/FairPriceLaunch.sol:FairPriceLaunch",
        "label": "launchEndTime",
        "offset": 0,
        "slot": "16",
        "type": "t_uint256"
      },
      {
        "astId": 1591,
        "contract": "contracts/FairLaunch/FairPriceLaunch.sol:FairPriceLaunch",
        "label": "investRemovalDelay",
        "offset": 0,
        "slot": "17",
        "type": "t_uint256"
      },
      {
        "astId": 1593,
        "contract": "contracts/FairLaunch/FairPriceLaunch.sol:FairPriceLaunch",
        "label": "startingPrice",
        "offset": 0,
        "slot": "18",
        "type": "t_uint256"
      },
      {
        "astId": 1595,
        "contract": "contracts/FairLaunch/FairPriceLaunch.sol:FairPriceLaunch",
        "label": "finalPrice",
        "offset": 0,
        "slot": "19",
        "type": "t_uint256"
      },
      {
        "astId": 1597,
        "contract": "contracts/FairLaunch/FairPriceLaunch.sol:FairPriceLaunch",
        "label": "saleEnabled",
        "offset": 0,
        "slot": "20",
        "type": "t_bool"
      },
      {
        "astId": 1599,
        "contract": "contracts/FairLaunch/FairPriceLaunch.sol:FairPriceLaunch",
        "label": "claimEnabled",
        "offset": 1,
        "slot": "20",
        "type": "t_bool"
      },
      {
        "astId": 1601,
        "contract": "contracts/FairLaunch/FairPriceLaunch.sol:FairPriceLaunch",
        "label": "redeemEnabled",
        "offset": 2,
        "slot": "20",
        "type": "t_bool"
      },
      {
        "astId": 1603,
        "contract": "contracts/FairLaunch/FairPriceLaunch.sol:FairPriceLaunch",
        "label": "finalized",
        "offset": 3,
        "slot": "20",
        "type": "t_bool"
      },
      {
        "astId": 1680,
        "contract": "contracts/FairLaunch/FairPriceLaunch.sol:FairPriceLaunch",
        "label": "investorInfoMap",
        "offset": 0,
        "slot": "21",
        "type": "t_mapping(t_address,t_struct(InvestorInfo)1675_storage)"
      },
      {
        "astId": 1683,
        "contract": "contracts/FairLaunch/FairPriceLaunch.sol:FairPriceLaunch",
        "label": "investorList",
        "offset": 0,
        "slot": "22",
        "type": "t_array(t_address)dyn_storage"
      }
    ],
    "types": {
      "t_address": {
        "encoding": "inplace",
        "label": "address",
        "numberOfBytes": "20"
      },
      "t_array(t_address)dyn_storage": {
        "base": "t_address",
        "encoding": "dynamic_array",
        "label": "address[]",
        "numberOfBytes": "32"
      },
      "t_array(t_struct(Withdrawal)1658_storage)dyn_storage": {
        "base": "t_struct(Withdrawal)1658_storage",
        "encoding": "dynamic_array",
        "label": "struct FairPriceLaunch.Withdrawal[]",
        "numberOfBytes": "32"
      },
      "t_bool": {
        "encoding": "inplace",
        "label": "bool",
        "numberOfBytes": "1"
      },
      "t_contract(FairLaunchNRT)1545": {
        "encoding": "inplace",
        "label": "contract FairLaunchNRT",
        "numberOfBytes": "20"
      },
      "t_mapping(t_address,t_struct(InvestorInfo)1675_storage)": {
        "encoding": "mapping",
        "key": "t_address",
        "label": "mapping(address => struct FairPriceLaunch.InvestorInfo)",
        "numberOfBytes": "32",
        "value": "t_struct(InvestorInfo)1675_storage"
      },
      "t_struct(InvestorInfo)1675_storage": {
        "encoding": "inplace",
        "label": "struct FairPriceLaunch.InvestorInfo",
        "members": [
          {
            "astId": 1660,
            "contract": "contracts/FairLaunch/FairPriceLaunch.sol:FairPriceLaunch",
            "label": "totalInvested",
            "offset": 0,
            "slot": "0",
            "type": "t_uint256"
          },
          {
            "astId": 1662,
            "contract": "contracts/FairLaunch/FairPriceLaunch.sol:FairPriceLaunch",
            "label": "totalClaimed",
            "offset": 0,
            "slot": "1",
            "type": "t_uint256"
          },
          {
            "astId": 1664,
            "contract": "contracts/FairLaunch/FairPriceLaunch.sol:FairPriceLaunch",
            "label": "totalRedeemed",
            "offset": 0,
            "slot": "2",
            "type": "t_uint256"
          },
          {
            "astId": 1666,
            "contract": "contracts/FairLaunch/FairPriceLaunch.sol:FairPriceLaunch",
            "label": "totalInvestableExchanged",
            "offset": 0,
            "slot": "3",
            "type": "t_uint256"
          },
          {
            "astId": 1670,
            "contract": "contracts/FairLaunch/FairPriceLaunch.sol:FairPriceLaunch",
            "label": "withdrawHistory",
            "offset": 0,
            "slot": "4",
            "type": "t_array(t_struct(Withdrawal)1658_storage)dyn_storage"
          },
          {
            "astId": 1672,
            "contract": "contracts/FairLaunch/FairPriceLaunch.sol:FairPriceLaunch",
            "label": "hasClaimed",
            "offset": 0,
            "slot": "5",
            "type": "t_bool"
          },
          {
            "astId": 1674,
            "contract": "contracts/FairLaunch/FairPriceLaunch.sol:FairPriceLaunch",
            "label": "hasRedeemed",
            "offset": 1,
            "slot": "5",
            "type": "t_bool"
          }
        ],
        "numberOfBytes": "192"
      },
      "t_struct(Withdrawal)1658_storage": {
        "encoding": "inplace",
        "label": "struct FairPriceLaunch.Withdrawal",
        "members": [
          {
            "astId": 1655,
            "contract": "contracts/FairLaunch/FairPriceLaunch.sol:FairPriceLaunch",
            "label": "timestamp",
            "offset": 0,
            "slot": "0",
            "type": "t_uint256"
          },
          {
            "astId": 1657,
            "contract": "contracts/FairLaunch/FairPriceLaunch.sol:FairPriceLaunch",
            "label": "amount",
            "offset": 0,
            "slot": "1",
            "type": "t_uint256"
          }
        ],
        "numberOfBytes": "64"
      },
      "t_uint256": {
        "encoding": "inplace",
        "label": "uint256",
        "numberOfBytes": "32"
      }
    }
  }
}