{
  "address": "0x162A433068F51e18b7d13932F27e66a3f99E6890",
  "abi": [
    {
      "anonymous": false,
      "inputs": [
        {
          "indexed": false,
          "internalType": "address",
          "name": "previousAdmin",
          "type": "address"
        },
        {
          "indexed": false,
          "internalType": "address",
          "name": "newAdmin",
          "type": "address"
        }
      ],
      "name": "AdminChanged",
      "type": "event"
    },
    {
      "anonymous": false,
      "inputs": [
        {
          "indexed": true,
          "internalType": "address",
          "name": "owner",
          "type": "address"
        },
        {
          "indexed": true,
          "internalType": "address",
          "name": "spender",
          "type": "address"
        },
        {
          "indexed": false,
          "internalType": "uint256",
          "name": "value",
          "type": "uint256"
        }
      ],
      "name": "Approval",
      "type": "event"
    },
    {
      "anonymous": false,
      "inputs": [
        {
          "indexed": true,
          "internalType": "address",
          "name": "beacon",
          "type": "address"
        }
      ],
      "name": "BeaconUpgraded",
      "type": "event"
    },
    {
      "anonymous": false,
      "inputs": [
        {
          "indexed": true,
          "internalType": "address",
          "name": "account",
          "type": "address"
        },
        {
          "indexed": false,
          "internalType": "bool",
          "name": "isExcluded",
          "type": "bool"
        }
      ],
      "name": "ExcludeFromFees",
      "type": "event"
    },
    {
      "anonymous": false,
      "inputs": [
        {
          "indexed": false,
          "internalType": "address",
          "name": "newMarketingAddress",
          "type": "address"
        }
      ],
      "name": "MarketingUpdated",
      "type": "event"
    },
    {
      "anonymous": false,
      "inputs": [
        {
          "indexed": false,
          "internalType": "address",
          "name": "account",
          "type": "address"
        }
      ],
      "name": "Paused",
      "type": "event"
    },
    {
      "anonymous": false,
      "inputs": [
        {
          "indexed": false,
          "internalType": "uint16",
          "name": "reflectionPercentage",
          "type": "uint16"
        },
        {
          "indexed": false,
          "internalType": "uint16",
          "name": "treasuryPercentage",
          "type": "uint16"
        },
        {
          "indexed": false,
          "internalType": "uint16",
          "name": "marketingPercentage",
          "type": "uint16"
        }
      ],
      "name": "PercentageUpdated",
      "type": "event"
    },
    {
      "anonymous": false,
      "inputs": [
        {
          "indexed": false,
          "internalType": "address",
          "name": "newReflectionAddress",
          "type": "address"
        }
      ],
      "name": "ReflectionUpdated",
      "type": "event"
    },
    {
      "anonymous": false,
      "inputs": [
        {
          "indexed": true,
          "internalType": "bytes32",
          "name": "role",
          "type": "bytes32"
        },
        {
          "indexed": true,
          "internalType": "bytes32",
          "name": "previousAdminRole",
          "type": "bytes32"
        },
        {
          "indexed": true,
          "internalType": "bytes32",
          "name": "newAdminRole",
          "type": "bytes32"
        }
      ],
      "name": "RoleAdminChanged",
      "type": "event"
    },
    {
      "anonymous": false,
      "inputs": [
        {
          "indexed": true,
          "internalType": "bytes32",
          "name": "role",
          "type": "bytes32"
        },
        {
          "indexed": true,
          "internalType": "address",
          "name": "account",
          "type": "address"
        },
        {
          "indexed": true,
          "internalType": "address",
          "name": "sender",
          "type": "address"
        }
      ],
      "name": "RoleGranted",
      "type": "event"
    },
    {
      "anonymous": false,
      "inputs": [
        {
          "indexed": true,
          "internalType": "bytes32",
          "name": "role",
          "type": "bytes32"
        },
        {
          "indexed": true,
          "internalType": "address",
          "name": "account",
          "type": "address"
        },
        {
          "indexed": true,
          "internalType": "address",
          "name": "sender",
          "type": "address"
        }
      ],
      "name": "RoleRevoked",
      "type": "event"
    },
    {
      "anonymous": false,
      "inputs": [
        {
          "indexed": false,
          "internalType": "uint256",
          "name": "id",
          "type": "uint256"
        }
      ],
      "name": "Snapshot",
      "type": "event"
    },
    {
      "anonymous": false,
      "inputs": [
        {
          "indexed": true,
          "internalType": "address",
          "name": "from",
          "type": "address"
        },
        {
          "indexed": true,
          "internalType": "address",
          "name": "to",
          "type": "address"
        },
        {
          "indexed": false,
          "internalType": "uint256",
          "name": "value",
          "type": "uint256"
        }
      ],
      "name": "Transfer",
      "type": "event"
    },
    {
      "anonymous": false,
      "inputs": [
        {
          "indexed": false,
          "internalType": "address",
          "name": "newTreasuryAddress",
          "type": "address"
        }
      ],
      "name": "TreasuryUpdated",
      "type": "event"
    },
    {
      "anonymous": false,
      "inputs": [
        {
          "indexed": false,
          "internalType": "address",
          "name": "account",
          "type": "address"
        }
      ],
      "name": "Unpaused",
      "type": "event"
    },
    {
      "anonymous": false,
      "inputs": [
        {
          "indexed": true,
          "internalType": "address",
          "name": "implementation",
          "type": "address"
        }
      ],
      "name": "Upgraded",
      "type": "event"
    },
    {
      "inputs": [],
      "name": "DEFAULT_ADMIN_ROLE",
      "outputs": [
        {
          "internalType": "bytes32",
          "name": "",
          "type": "bytes32"
        }
      ],
      "stateMutability": "view",
      "type": "function"
    },
    {
      "inputs": [],
      "name": "DOMAIN_SEPARATOR",
      "outputs": [
        {
          "internalType": "bytes32",
          "name": "",
          "type": "bytes32"
        }
      ],
      "stateMutability": "view",
      "type": "function"
    },
    {
      "inputs": [],
      "name": "RESCUER_ROLE",
      "outputs": [
        {
          "internalType": "bytes32",
          "name": "",
          "type": "bytes32"
        }
      ],
      "stateMutability": "view",
      "type": "function"
    },
    {
      "inputs": [],
      "name": "SNAPSHOTER",
      "outputs": [
        {
          "internalType": "bytes32",
          "name": "",
          "type": "bytes32"
        }
      ],
      "stateMutability": "view",
      "type": "function"
    },
    {
      "inputs": [
        {
          "internalType": "address",
          "name": "",
          "type": "address"
        }
      ],
      "name": "_isExcludedFromFees",
      "outputs": [
        {
          "internalType": "bool",
          "name": "",
          "type": "bool"
        }
      ],
      "stateMutability": "view",
      "type": "function"
    },
    {
      "inputs": [
        {
          "internalType": "address",
          "name": "owner",
          "type": "address"
        },
        {
          "internalType": "address",
          "name": "spender",
          "type": "address"
        }
      ],
      "name": "allowance",
      "outputs": [
        {
          "internalType": "uint256",
          "name": "",
          "type": "uint256"
        }
      ],
      "stateMutability": "view",
      "type": "function"
    },
    {
      "inputs": [
        {
          "internalType": "address",
          "name": "spender",
          "type": "address"
        },
        {
          "internalType": "uint256",
          "name": "amount",
          "type": "uint256"
        }
      ],
      "name": "approve",
      "outputs": [
        {
          "internalType": "bool",
          "name": "",
          "type": "bool"
        }
      ],
      "stateMutability": "nonpayable",
      "type": "function"
    },
    {
      "inputs": [
        {
          "internalType": "address",
          "name": "spender",
          "type": "address"
        },
        {
          "internalType": "uint256",
          "name": "amount",
          "type": "uint256"
        }
      ],
      "name": "approveAndCall",
      "outputs": [
        {
          "internalType": "bool",
          "name": "",
          "type": "bool"
        }
      ],
      "stateMutability": "nonpayable",
      "type": "function"
    },
    {
      "inputs": [
        {
          "internalType": "address",
          "name": "spender",
          "type": "address"
        },
        {
          "internalType": "uint256",
          "name": "amount",
          "type": "uint256"
        },
        {
          "internalType": "bytes",
          "name": "data",
          "type": "bytes"
        }
      ],
      "name": "approveAndCall",
      "outputs": [
        {
          "internalType": "bool",
          "name": "",
          "type": "bool"
        }
      ],
      "stateMutability": "nonpayable",
      "type": "function"
    },
    {
      "inputs": [
        {
          "internalType": "address",
          "name": "",
          "type": "address"
        }
      ],
      "name": "automatedMarketMakerPairs",
      "outputs": [
        {
          "internalType": "bool",
          "name": "",
          "type": "bool"
        }
      ],
      "stateMutability": "view",
      "type": "function"
    },
    {
      "inputs": [
        {
          "internalType": "address",
          "name": "account",
          "type": "address"
        }
      ],
      "name": "balanceOf",
      "outputs": [
        {
          "internalType": "uint256",
          "name": "",
          "type": "uint256"
        }
      ],
      "stateMutability": "view",
      "type": "function"
    },
    {
      "inputs": [
        {
          "internalType": "address",
          "name": "account",
          "type": "address"
        },
        {
          "internalType": "uint256",
          "name": "snapshotId",
          "type": "uint256"
        }
      ],
      "name": "balanceOfAt",
      "outputs": [
        {
          "internalType": "uint256",
          "name": "",
          "type": "uint256"
        }
      ],
      "stateMutability": "view",
      "type": "function"
    },
    {
      "inputs": [
        {
          "internalType": "uint256",
          "name": "amount",
          "type": "uint256"
        }
      ],
      "name": "burn",
      "outputs": [],
      "stateMutability": "nonpayable",
      "type": "function"
    },
    {
      "inputs": [
        {
          "internalType": "address",
          "name": "account",
          "type": "address"
        },
        {
          "internalType": "uint256",
          "name": "amount",
          "type": "uint256"
        }
      ],
      "name": "burnFrom",
      "outputs": [],
      "stateMutability": "nonpayable",
      "type": "function"
    },
    {
      "inputs": [],
      "name": "burnPercentage",
      "outputs": [
        {
          "internalType": "uint16",
          "name": "",
          "type": "uint16"
        }
      ],
      "stateMutability": "view",
      "type": "function"
    },
    {
      "inputs": [],
      "name": "cap",
      "outputs": [
        {
          "internalType": "uint256",
          "name": "",
          "type": "uint256"
        }
      ],
      "stateMutability": "view",
      "type": "function"
    },
    {
      "inputs": [],
      "name": "decimals",
      "outputs": [
        {
          "internalType": "uint8",
          "name": "",
          "type": "uint8"
        }
      ],
      "stateMutability": "view",
      "type": "function"
    },
    {
      "inputs": [
        {
          "internalType": "address",
          "name": "spender",
          "type": "address"
        },
        {
          "internalType": "uint256",
          "name": "subtractedValue",
          "type": "uint256"
        }
      ],
      "name": "decreaseAllowance",
      "outputs": [
        {
          "internalType": "bool",
          "name": "",
          "type": "bool"
        }
      ],
      "stateMutability": "nonpayable",
      "type": "function"
    },
    {
      "inputs": [
        {
          "internalType": "address",
          "name": "account",
          "type": "address"
        },
        {
          "internalType": "bool",
          "name": "excluded",
          "type": "bool"
        }
      ],
      "name": "excludeFromFees",
      "outputs": [],
      "stateMutability": "nonpayable",
      "type": "function"
    },
    {
      "inputs": [
        {
          "internalType": "bytes32",
          "name": "role",
          "type": "bytes32"
        }
      ],
      "name": "getRoleAdmin",
      "outputs": [
        {
          "internalType": "bytes32",
          "name": "",
          "type": "bytes32"
        }
      ],
      "stateMutability": "view",
      "type": "function"
    },
    {
      "inputs": [
        {
          "internalType": "bytes32",
          "name": "role",
          "type": "bytes32"
        },
        {
          "internalType": "address",
          "name": "account",
          "type": "address"
        }
      ],
      "name": "grantRole",
      "outputs": [],
      "stateMutability": "nonpayable",
      "type": "function"
    },
    {
      "inputs": [
        {
          "internalType": "bytes32",
          "name": "role",
          "type": "bytes32"
        },
        {
          "internalType": "address",
          "name": "account",
          "type": "address"
        }
      ],
      "name": "hasRole",
      "outputs": [
        {
          "internalType": "bool",
          "name": "",
          "type": "bool"
        }
      ],
      "stateMutability": "view",
      "type": "function"
    },
    {
      "inputs": [
        {
          "internalType": "address",
          "name": "spender",
          "type": "address"
        },
        {
          "internalType": "uint256",
          "name": "addedValue",
          "type": "uint256"
        }
      ],
      "name": "increaseAllowance",
      "outputs": [
        {
          "internalType": "bool",
          "name": "",
          "type": "bool"
        }
      ],
      "stateMutability": "nonpayable",
      "type": "function"
    },
    {
      "inputs": [
        {
          "internalType": "string",
          "name": "name",
          "type": "string"
        },
        {
          "internalType": "string",
          "name": "symbol",
          "type": "string"
        },
        {
          "internalType": "uint256",
          "name": "cap",
          "type": "uint256"
        }
      ],
      "name": "initialize",
      "outputs": [],
      "stateMutability": "nonpayable",
      "type": "function"
    },
    {
      "inputs": [],
      "name": "marketing",
      "outputs": [
        {
          "internalType": "address",
          "name": "",
          "type": "address"
        }
      ],
      "stateMutability": "view",
      "type": "function"
    },
    {
      "inputs": [],
      "name": "marketingPercentage",
      "outputs": [
        {
          "internalType": "uint16",
          "name": "",
          "type": "uint16"
        }
      ],
      "stateMutability": "view",
      "type": "function"
    },
    {
      "inputs": [],
      "name": "name",
      "outputs": [
        {
          "internalType": "string",
          "name": "",
          "type": "string"
        }
      ],
      "stateMutability": "view",
      "type": "function"
    },
    {
      "inputs": [
        {
          "internalType": "address",
          "name": "owner",
          "type": "address"
        }
      ],
      "name": "nonces",
      "outputs": [
        {
          "internalType": "uint256",
          "name": "",
          "type": "uint256"
        }
      ],
      "stateMutability": "view",
      "type": "function"
    },
    {
      "inputs": [],
      "name": "pause",
      "outputs": [],
      "stateMutability": "nonpayable",
      "type": "function"
    },
    {
      "inputs": [],
      "name": "paused",
      "outputs": [
        {
          "internalType": "bool",
          "name": "",
          "type": "bool"
        }
      ],
      "stateMutability": "view",
      "type": "function"
    },
    {
      "inputs": [
        {
          "internalType": "address",
          "name": "owner",
          "type": "address"
        },
        {
          "internalType": "address",
          "name": "spender",
          "type": "address"
        },
        {
          "internalType": "uint256",
          "name": "value",
          "type": "uint256"
        },
        {
          "internalType": "uint256",
          "name": "deadline",
          "type": "uint256"
        },
        {
          "internalType": "uint8",
          "name": "v",
          "type": "uint8"
        },
        {
          "internalType": "bytes32",
          "name": "r",
          "type": "bytes32"
        },
        {
          "internalType": "bytes32",
          "name": "s",
          "type": "bytes32"
        }
      ],
      "name": "permit",
      "outputs": [],
      "stateMutability": "nonpayable",
      "type": "function"
    },
    {
      "inputs": [
        {
          "internalType": "address",
          "name": "tokenAddress",
          "type": "address"
        },
        {
          "internalType": "uint256",
          "name": "tokenAmount",
          "type": "uint256"
        }
      ],
      "name": "recoverERC20",
      "outputs": [],
      "stateMutability": "nonpayable",
      "type": "function"
    },
    {
      "inputs": [],
      "name": "reflection",
      "outputs": [
        {
          "internalType": "address",
          "name": "",
          "type": "address"
        }
      ],
      "stateMutability": "view",
      "type": "function"
    },
    {
      "inputs": [],
      "name": "reflectionPercentage",
      "outputs": [
        {
          "internalType": "uint16",
          "name": "",
          "type": "uint16"
        }
      ],
      "stateMutability": "view",
      "type": "function"
    },
    {
      "inputs": [
        {
          "internalType": "bytes32",
          "name": "role",
          "type": "bytes32"
        },
        {
          "internalType": "address",
          "name": "account",
          "type": "address"
        }
      ],
      "name": "renounceRole",
      "outputs": [],
      "stateMutability": "nonpayable",
      "type": "function"
    },
    {
      "inputs": [
        {
          "internalType": "contract IERC20Upgradeable",
          "name": "tokenContract",
          "type": "address"
        },
        {
          "internalType": "address",
          "name": "to",
          "type": "address"
        },
        {
          "internalType": "uint256",
          "name": "amount",
          "type": "uint256"
        }
      ],
      "name": "rescueERC20",
      "outputs": [],
      "stateMutability": "nonpayable",
      "type": "function"
    },
    {
      "inputs": [
        {
          "internalType": "bytes32",
          "name": "role",
          "type": "bytes32"
        },
        {
          "internalType": "address",
          "name": "account",
          "type": "address"
        }
      ],
      "name": "revokeRole",
      "outputs": [],
      "stateMutability": "nonpayable",
      "type": "function"
    },
    {
      "inputs": [
        {
          "internalType": "address",
          "name": "newAddress",
          "type": "address"
        }
      ],
      "name": "setMarketing",
      "outputs": [],
      "stateMutability": "nonpayable",
      "type": "function"
    },
    {
      "inputs": [
        {
          "internalType": "uint16",
          "name": "reflectionPrctg",
          "type": "uint16"
        },
        {
          "internalType": "uint16",
          "name": "treasuryPrctg",
          "type": "uint16"
        },
        {
          "internalType": "uint16",
          "name": "marketingPrctg",
          "type": "uint16"
        }
      ],
      "name": "setPercentage",
      "outputs": [],
      "stateMutability": "nonpayable",
      "type": "function"
    },
    {
      "inputs": [
        {
          "internalType": "address",
          "name": "newAddress",
          "type": "address"
        }
      ],
      "name": "setReflection",
      "outputs": [],
      "stateMutability": "nonpayable",
      "type": "function"
    },
    {
      "inputs": [
        {
          "internalType": "address",
          "name": "newAddress",
          "type": "address"
        }
      ],
      "name": "setTreasury",
      "outputs": [],
      "stateMutability": "nonpayable",
      "type": "function"
    },
    {
      "inputs": [],
      "name": "snapshot",
      "outputs": [],
      "stateMutability": "nonpayable",
      "type": "function"
    },
    {
      "inputs": [
        {
          "internalType": "bytes4",
          "name": "interfaceId",
          "type": "bytes4"
        }
      ],
      "name": "supportsInterface",
      "outputs": [
        {
          "internalType": "bool",
          "name": "",
          "type": "bool"
        }
      ],
      "stateMutability": "view",
      "type": "function"
    },
    {
      "inputs": [],
      "name": "symbol",
      "outputs": [
        {
          "internalType": "string",
          "name": "",
          "type": "string"
        }
      ],
      "stateMutability": "view",
      "type": "function"
    },
    {
      "inputs": [],
      "name": "totalSupply",
      "outputs": [
        {
          "internalType": "uint256",
          "name": "",
          "type": "uint256"
        }
      ],
      "stateMutability": "view",
      "type": "function"
    },
    {
      "inputs": [
        {
          "internalType": "uint256",
          "name": "snapshotId",
          "type": "uint256"
        }
      ],
      "name": "totalSupplyAt",
      "outputs": [
        {
          "internalType": "uint256",
          "name": "",
          "type": "uint256"
        }
      ],
      "stateMutability": "view",
      "type": "function"
    },
    {
      "inputs": [
        {
          "internalType": "address",
          "name": "recipient",
          "type": "address"
        },
        {
          "internalType": "uint256",
          "name": "amount",
          "type": "uint256"
        }
      ],
      "name": "transfer",
      "outputs": [
        {
          "internalType": "bool",
          "name": "",
          "type": "bool"
        }
      ],
      "stateMutability": "nonpayable",
      "type": "function"
    },
    {
      "inputs": [
        {
          "internalType": "address",
          "name": "recipient",
          "type": "address"
        },
        {
          "internalType": "uint256",
          "name": "amount",
          "type": "uint256"
        }
      ],
      "name": "transferAndCall",
      "outputs": [
        {
          "internalType": "bool",
          "name": "",
          "type": "bool"
        }
      ],
      "stateMutability": "nonpayable",
      "type": "function"
    },
    {
      "inputs": [
        {
          "internalType": "address",
          "name": "recipient",
          "type": "address"
        },
        {
          "internalType": "uint256",
          "name": "amount",
          "type": "uint256"
        },
        {
          "internalType": "bytes",
          "name": "data",
          "type": "bytes"
        }
      ],
      "name": "transferAndCall",
      "outputs": [
        {
          "internalType": "bool",
          "name": "",
          "type": "bool"
        }
      ],
      "stateMutability": "nonpayable",
      "type": "function"
    },
    {
      "inputs": [
        {
          "internalType": "address",
          "name": "sender",
          "type": "address"
        },
        {
          "internalType": "address",
          "name": "recipient",
          "type": "address"
        },
        {
          "internalType": "uint256",
          "name": "amount",
          "type": "uint256"
        }
      ],
      "name": "transferFrom",
      "outputs": [
        {
          "internalType": "bool",
          "name": "",
          "type": "bool"
        }
      ],
      "stateMutability": "nonpayable",
      "type": "function"
    },
    {
      "inputs": [
        {
          "internalType": "address",
          "name": "sender",
          "type": "address"
        },
        {
          "internalType": "address",
          "name": "recipient",
          "type": "address"
        },
        {
          "internalType": "uint256",
          "name": "amount",
          "type": "uint256"
        },
        {
          "internalType": "bytes",
          "name": "data",
          "type": "bytes"
        }
      ],
      "name": "transferFromAndCall",
      "outputs": [
        {
          "internalType": "bool",
          "name": "",
          "type": "bool"
        }
      ],
      "stateMutability": "nonpayable",
      "type": "function"
    },
    {
      "inputs": [
        {
          "internalType": "address",
          "name": "sender",
          "type": "address"
        },
        {
          "internalType": "address",
          "name": "recipient",
          "type": "address"
        },
        {
          "internalType": "uint256",
          "name": "amount",
          "type": "uint256"
        }
      ],
      "name": "transferFromAndCall",
      "outputs": [
        {
          "internalType": "bool",
          "name": "",
          "type": "bool"
        }
      ],
      "stateMutability": "nonpayable",
      "type": "function"
    },
    {
      "inputs": [],
      "name": "treasury",
      "outputs": [
        {
          "internalType": "address",
          "name": "",
          "type": "address"
        }
      ],
      "stateMutability": "view",
      "type": "function"
    },
    {
      "inputs": [],
      "name": "treasuryPercentage",
      "outputs": [
        {
          "internalType": "uint16",
          "name": "",
          "type": "uint16"
        }
      ],
      "stateMutability": "view",
      "type": "function"
    },
    {
      "inputs": [],
      "name": "unpause",
      "outputs": [],
      "stateMutability": "nonpayable",
      "type": "function"
    },
    {
      "inputs": [
        {
          "internalType": "address",
          "name": "newImplementation",
          "type": "address"
        }
      ],
      "name": "upgradeTo",
      "outputs": [],
      "stateMutability": "nonpayable",
      "type": "function"
    },
    {
      "inputs": [
        {
          "internalType": "address",
          "name": "newImplementation",
          "type": "address"
        },
        {
          "internalType": "bytes",
          "name": "data",
          "type": "bytes"
        }
      ],
      "name": "upgradeToAndCall",
      "outputs": [],
      "stateMutability": "payable",
      "type": "function"
    }
  ],
  "transactionHash": "0x364298705b581614ae7294023171686a3b31f4ce6f0e624e36fa58f97aa53de9",
  "args": [],
  "solcInputHash": "cee567da7d04c0e474bf959a9d701ce7",
  "bytecode": "0x60a06040523060601b60805234801561001757600080fd5b5060805160601c61408161004b60003960008181610d0e01528181610d4e01528181610ec00152610f0001526140816000f3fe6080604052600436106103765760003560e01c806379cc6790116101d1578063b119490e11610102578063d547741f116100a0578063e0bf7fd11161006f578063e0bf7fd114610a73578063eb1e63ec14610aa4578063f01f20df14610ad8578063f0f4426014610afb57600080fd5b8063d547741f146109ca578063d8fbe994146109ea578063dd62ed3e14610a0a578063de20308a14610a5057600080fd5b8063c0246668116100dc578063c02466681461094a578063c1d34b891461096a578063cae9ca511461098a578063d505accf146109aa57600080fd5b8063b119490e146108d9578063b2118a8d146108f9578063b62496f51461091957600080fd5b806391d148541161016f578063981b24d011610149578063981b24d014610864578063a217fddf14610884578063a457c2d714610899578063a9059cbb146108b957600080fd5b806391d148541461081a57806395d89b411461083a5780639711715a1461084f57600080fd5b80637ecebe00116101ab5780637ecebe00146107a55780638456cb59146107c55780638980f11f146107da5780638b0414d5146107fa57600080fd5b806379cc6790146107425780637ab56083146107625780637b1ad1d71461078557600080fd5b80633644e515116102ab5780634ee2cd7e116102495780635c975abb116102235780635c975abb146106a257806361d027b3146106b757806370a08231146106d8578063713725441461070e57600080fd5b80634ee2cd7e1461064f5780634f1ef2861461066f5780635b19236e1461068257600080fd5b8063395093511161028557806339509351146105da5780633f4ba83a146105fa5780634000aea01461060f57806342966c681461062f57600080fd5b80633644e5151461058557806336568abe1461059a5780633659cfe6146105ba57600080fd5b8063248a9ca3116103185780632f2ff15d116102f25780632f2ff15d14610512578063313ce567146105345780633177029f14610550578063355274ea1461057057600080fd5b8063248a9ca314610487578063268f8f77146104b85780632d3e474a146104f157600080fd5b80631296ee62116103545780631296ee62146103f257806318160ddd146104125780631d1fb0c91461043157806323b872dd1461046757600080fd5b806301ffc9a71461037b57806306fdde03146103b0578063095ea7b3146103d2575b600080fd5b34801561038757600080fd5b5061039b610396366004613af0565b610b1b565b60405190151581526020015b60405180910390f35b3480156103bc57600080fd5b506103c5610b3b565b6040516103a79190613cfb565b3480156103de57600080fd5b5061039b6103ed366004613a10565b610bcd565b3480156103fe57600080fd5b5061039b61040d366004613a10565b610be3565b34801561041e57600080fd5b506099545b6040519081526020016103a7565b34801561043d57600080fd5b506102c55461045490600160a01b900461ffff1681565b60405161ffff90911681526020016103a7565b34801561047357600080fd5b5061039b61048236600461386e565b610c06565b34801561049357600080fd5b506104236104a2366004613ab2565b60009081526101f9602052604090206001015490565b3480156104c457600080fd5b506102c3546104d9906001600160a01b031681565b6040516001600160a01b0390911681526020016103a7565b3480156104fd57600080fd5b506102c5546104d9906001600160a01b031681565b34801561051e57600080fd5b5061053261052d366004613acb565b610c29565b005b34801561054057600080fd5b50604051600981526020016103a7565b34801561055c57600080fd5b5061039b61056b366004613a10565b610c55565b34801561057c57600080fd5b5060c954610423565b34801561059157600080fd5b50610423610c71565b3480156105a657600080fd5b506105326105b5366004613acb565b610c80565b3480156105c657600080fd5b506105326105d5366004613818565b610d03565b3480156105e657600080fd5b5061039b6105f5366004613a10565b610dcc565b34801561060657600080fd5b50610532610e08565b34801561061b57600080fd5b5061039b61062a366004613a3c565b610e1c565b34801561063b57600080fd5b5061053261064a366004613ab2565b610e51565b34801561065b57600080fd5b5061042361066a366004613a10565b610e5b565b61053261067d3660046139c0565b610eb5565b34801561068e57600080fd5b5061053261069d366004613b97565b610f6b565b3480156106ae57600080fd5b5061039b611015565b3480156106c357600080fd5b506102c4546104d9906001600160a01b031681565b3480156106e457600080fd5b506104236106f3366004613818565b6001600160a01b031660009081526097602052604090205490565b34801561071a57600080fd5b506104237fcf6f9f892731e14b8859835f2ff35575f447fb501f46243c4eb8bac19e31a05081565b34801561074e57600080fd5b5061053261075d366004613a10565b611024565b34801561076e57600080fd5b506102c55461045490600160b01b900461ffff1681565b34801561079157600080fd5b506105326107a0366004613818565b6110a5565b3480156107b157600080fd5b506104236107c0366004613818565b611108565b3480156107d157600080fd5b50610532611127565b3480156107e657600080fd5b506105326107f5366004613a10565b61113b565b34801561080657600080fd5b50610532610815366004613818565b61117a565b34801561082657600080fd5b5061039b610835366004613acb565b6111d5565b34801561084657600080fd5b506103c5611201565b34801561085b57600080fd5b50610532611210565b34801561087057600080fd5b5061042361087f366004613ab2565b611243565b34801561089057600080fd5b50610423600081565b3480156108a557600080fd5b5061039b6108b4366004613a10565b61126f565b3480156108c557600080fd5b5061039b6108d4366004613a10565b6112fe565b3480156108e557600080fd5b506105326108f4366004613b2a565b611316565b34801561090557600080fd5b5061053261091436600461386e565b61142a565b34801561092557600080fd5b5061039b610934366004613818565b6102c26020526000908152604090205460ff1681565b34801561095657600080fd5b50610532610965366004613992565b611469565b34801561097657600080fd5b5061039b6109853660046138af565b611559565b34801561099657600080fd5b5061039b6109a5366004613a3c565b61159a565b3480156109b657600080fd5b506105326109c536600461391b565b61160c565b3480156109d657600080fd5b506105326109e5366004613acb565b611753565b3480156109f657600080fd5b5061039b610a0536600461386e565b61177a565b348015610a1657600080fd5b50610423610a25366004613835565b6001600160a01b03918216600090815260986020908152604080832093909416825291909152205490565b348015610a5c57600080fd5b506102c55461045490600160c01b900461ffff1681565b348015610a7f57600080fd5b5061039b610a8e366004613818565b6102c16020526000908152604090205460ff1681565b348015610ab057600080fd5b506104237f5ab148f1d1bd666625ce84879016e3e7882fae77985c6c4f676e3383c230d06981565b348015610ae457600080fd5b506102c55461045490600160d01b900461ffff1681565b348015610b0757600080fd5b50610532610b16366004613818565b611797565b6000610b26826117f2565b80610b355750610b3582611827565b92915050565b6060609a8054610b4a90613f5e565b80601f0160208091040260200160405190810160405280929190818152602001828054610b7690613f5e565b8015610bc35780601f10610b9857610100808354040283529160200191610bc3565b820191906000526020600020905b815481529060010190602001808311610ba657829003601f168201915b5050505050905090565b6000610bda33848461184c565b50600192915050565b6000610bff838360405180602001604052806000815250610e1c565b9392505050565b6000610c13848484611970565b50610c1f848484611a0f565b5060019392505050565b60008281526101f96020526040902060010154610c468133611c4b565b610c508383611caf565b505050565b6000610bff83836040518060200160405280600081525061159a565b6000610c7b611d36565b905090565b6001600160a01b0381163314610cf55760405162461bcd60e51b815260206004820152602f60248201527f416363657373436f6e74726f6c3a2063616e206f6e6c792072656e6f756e636560448201526e103937b632b9903337b91039b2b63360891b60648201526084015b60405180910390fd5b610cff8282611db3565b5050565b306001600160a01b037f0000000000000000000000000000000000000000000000000000000000000000161415610d4c5760405162461bcd60e51b8152600401610cec90613d0e565b7f00000000000000000000000000000000000000000000000000000000000000006001600160a01b0316610d7e611e1b565b6001600160a01b031614610da45760405162461bcd60e51b8152600401610cec90613d5a565b610dad81611e4e565b60408051600080825260208201909252610dc991839190611eb6565b50565b3360008181526098602090815260408083206001600160a01b03871684529091528120549091610bda918590610e03908690613eab565b61184c565b6000610e148133611c4b565b610dc9612001565b6000610e2884846112fe565b50610e3533858585612097565b610c1f5760405162461bcd60e51b8152600401610cec90613da6565b610dc93382612155565b6001600160a01b038216600090815261028f6020526040812081908190610e839085906122af565b9150915081610eaa576001600160a01b038516600090815260976020526040902054610eac565b805b95945050505050565b306001600160a01b037f0000000000000000000000000000000000000000000000000000000000000000161415610efe5760405162461bcd60e51b8152600401610cec90613d0e565b7f00000000000000000000000000000000000000000000000000000000000000006001600160a01b0316610f30611e1b565b6001600160a01b031614610f565760405162461bcd60e51b8152600401610cec90613d5a565b610f5f82611e4e565b610cff82826001611eb6565b6000610f778133611c4b565b6102c5805461ffff848116600160c01b90810261ffff60c01b19888416600160b01b810261ffff60b01b198c8716600160a01b81029190911663ffffffff60a01b1990981697909717179190911691909117948590556040805194855260208501919091529304168183015290517fdaf172013b77ca808aa838e10789aa499cdb4a2c282cb9d57d24e03bb0f34f479181900360600190a150505050565b6000610c7b61025d5460ff1690565b60006110308333610a25565b90508181101561108e5760405162461bcd60e51b8152602060048201526024808201527f45524332303a206275726e20616d6f756e74206578636565647320616c6c6f77604482015263616e636560e01b6064820152608401610cec565b61109b833384840361184c565b610c508383612155565b60006110b18133611c4b565b6102c380546001600160a01b0319166001600160a01b0384169081179091556040519081527fb17b1085c482e9242145d9abbf42d7effa094c0a4573e624845ff23840fbaf49906020015b60405180910390a15050565b6001600160a01b03811660009081526101626020526040812054610b35565b60006111338133611c4b565b610dc96123a6565b7fcf6f9f892731e14b8859835f2ff35575f447fb501f46243c4eb8bac19e31a0506111668133611c4b565b610c506001600160a01b0384163384612424565b60006111868133611c4b565b6102c580546001600160a01b0319166001600160a01b0384169081179091556040519081527feaf8ef35e433762aa696ae9447608369d638cec1961bd2317c4349bb5be9ee78906020016110fc565b60009182526101f9602090815260408084206001600160a01b0393909316845291905290205460ff1690565b6060609b8054610b4a90613f5e565b7f5ab148f1d1bd666625ce84879016e3e7882fae77985c6c4f676e3383c230d06961123b8133611c4b565b610cff612476565b6000806000611254846102906122af565b915091508161126557609954611267565b805b949350505050565b3360009081526098602090815260408083206001600160a01b0386168452909152812054828110156112f15760405162461bcd60e51b815260206004820152602560248201527f45524332303a2064656372656173656420616c6c6f77616e63652062656c6f77604482015264207a65726f60d81b6064820152608401610cec565b610c1f338585840361184c565b600061130b3384846124d1565b610bda338484611a0f565b600054610100900460ff166113315760005460ff1615611335565b303b155b6113515760405162461bcd60e51b8152600401610cec90613dec565b600054610100900460ff16158015611373576000805461ffff19166101011790555b61137b6126aa565b61138584846126d3565b6113a884604051806040016040528060018152602001603160f81b815250612721565b6113b184612764565b6113b96126aa565b6113c16126aa565b6113ca826127b3565b6113d26126aa565b6113da6126aa565b6113e2612827565b6113ea612898565b6113f2612900565b6113fd600033612934565b611407338361293e565b611412336001611469565b8015611424576000805461ff00191690555b50505050565b7fcf6f9f892731e14b8859835f2ff35575f447fb501f46243c4eb8bac19e31a0506114558133611c4b565b6114246001600160a01b0385168484612424565b60006114758133611c4b565b6001600160a01b03831660009081526102c1602052604090205460ff16151582151514156114f85760405162461bcd60e51b815260206004820152602a60248201527f4163636f756e7420697320616c7265616479207468652076616c7565206f6620604482015269276578636c756465642760b01b6064820152608401610cec565b6001600160a01b03831660008181526102c16020908152604091829020805460ff191686151590811790915591519182527f9d8f7706ea1113d1a167b526eca956215946dd36cc7df39eb16180222d8b5df7910160405180910390a2505050565b6000611566858585610c06565b5061157385858585612097565b61158f5760405162461bcd60e51b8152600401610cec90613da6565b506001949350505050565b60006115a68484610bcd565b506115b28484846129ad565b610c1f5760405162461bcd60e51b815260206004820152602560248201527f455243313336333a205f636865636b416e6443616c6c417070726f7665207265604482015264766572747360d81b6064820152608401610cec565b8342111561165c5760405162461bcd60e51b815260206004820152601d60248201527f45524332305065726d69743a206578706972656420646561646c696e650000006044820152606401610cec565b60006101635488888861166e8c612a68565b6040805160208101969096526001600160a01b0394851690860152929091166060840152608083015260a082015260c0810186905260e00160405160208183030381529060405280519060200120905060006116c982612a91565b905060006116d982878787612adf565b9050896001600160a01b0316816001600160a01b03161461173c5760405162461bcd60e51b815260206004820152601e60248201527f45524332305065726d69743a20696e76616c6964207369676e617475726500006044820152606401610cec565b6117478a8a8a61184c565b50505050505050505050565b60008281526101f960205260409020600101546117708133611c4b565b610c508383611db3565b600061126784848460405180602001604052806000815250611559565b60006117a38133611c4b565b6102c480546001600160a01b0319166001600160a01b0384169081179091556040519081527f7dae230f18360d76a040c81f050aa14eb9d6dc7901b20fc5d855e2a20fe814d1906020016110fc565b60006001600160e01b0319821663b0202a1160e01b1480610b3557506301ffc9a760e01b6001600160e01b0319831614610b35565b60006001600160e01b03198216637965db0b60e01b1480610b355750610b35826117f2565b6001600160a01b0383166118ae5760405162461bcd60e51b8152602060048201526024808201527f45524332303a20617070726f76652066726f6d20746865207a65726f206164646044820152637265737360e01b6064820152608401610cec565b6001600160a01b03821661190f5760405162461bcd60e51b815260206004820152602260248201527f45524332303a20617070726f766520746f20746865207a65726f206164647265604482015261737360f01b6064820152608401610cec565b6001600160a01b0383811660008181526098602090815260408083209487168084529482529182902085905590518481527f8c5be1e5ebec7d5bd14f71427d1e84f3dd0314c0f7b2291e5b200ac8c7c3b925910160405180910390a3505050565b600061197d8484846124d1565b6001600160a01b038416600090815260986020908152604080832033845290915290205482811015611a025760405162461bcd60e51b815260206004820152602860248201527f45524332303a207472616e7366657220616d6f756e74206578636565647320616044820152676c6c6f77616e636560c01b6064820152608401610cec565b61158f853385840361184c565b6001600160a01b03831660009081526102c1602052604090205460ff1680611a5057506001600160a01b03821660009081526102c1602052604090205460ff165b610c50576102c3546001600160a01b031615801590611a7a57506102c4546001600160a01b031615155b8015611a9157506102c5546001600160a01b031615155b611add5760405162461bcd60e51b815260206004820152601f60248201527f546178203a2041646472657373206e6f742073657420636f72726563746c79006044820152606401610cec565b6102c55461ffff600160c01b8204811691611b0991600160b01b8204811691600160a01b900416613e85565b611b139190613e85565b61ffff16611b6e5760405162461bcd60e51b815260206004820152602260248201527f546178203a2050657263656e74616765206e6f742073657420636f72726563746044820152616c7960f01b6064820152608401610cec565b6102c55460009061271090611b8f908490600160a01b900461ffff16613ee5565b611b999190613ec3565b6102c55490915060009061271090611bbd908590600160b01b900461ffff16613ee5565b611bc79190613ec3565b6102c55490915060009061271090611beb908690600160c01b900461ffff16613ee5565b611bf59190613ec3565b6102c354909150611c119086906001600160a01b0316856124d1565b6102c454611c2a9086906001600160a01b0316846124d1565b6102c554611c439086906001600160a01b0316836124d1565b505050505050565b611c5582826111d5565b610cff57611c6d816001600160a01b03166014612b07565b611c78836020612b07565b604051602001611c89929190613c22565b60408051601f198184030181529082905262461bcd60e51b8252610cec91600401613cfb565b611cb982826111d5565b610cff5760008281526101f9602090815260408083206001600160a01b03851684529091529020805460ff19166001179055611cf23390565b6001600160a01b0316816001600160a01b0316837f2f8788117e7eff1d82e926ec794901d17c78024a50270940304540a733656f0d60405160405180910390a45050565b6000610c7b7f8b73c3c69bb8fe3d512ecc4cf759cc79239f7b179b0ffacaa9a75d522b39400f611d6661012e5490565b61012f546040805160208101859052908101839052606081018290524660808201523060a082015260009060c0016040516020818303038152906040528051906020012090509392505050565b611dbd82826111d5565b15610cff5760008281526101f9602090815260408083206001600160a01b0385168085529252808320805460ff1916905551339285917ff6391f5c32d9c69d2a47ea670b442974b53935d1edc7fd64eb21e047a839171b9190a45050565b60007f360894a13ba1a3210667c828492db98dca3e2076cc3735a920a3ca505d382bbc5b546001600160a01b0316919050565b611e56612ca3565b6001600160a01b0316336001600160a01b031614610dc95760405162461bcd60e51b815260206004820152601960248201527f4e6f7420746865204f776e6572206f6620436f6e7472616374000000000000006044820152606401610cec565b6000611ec0611e1b565b9050611ecb84612ccb565b600083511180611ed85750815b15611ee957611ee78484612d70565b505b7f4910fdfa16fed3260ed0e7147f7cc6da11a60208b5b9406d12a635614ffd9143805460ff16611ffa57805460ff191660011781556040516001600160a01b0383166024820152611f6890869060440160408051601f198184030181529190526020810180516001600160e01b0316631b2ce7f360e11b179052612d70565b50805460ff19168155611f79611e1b565b6001600160a01b0316826001600160a01b031614611ff15760405162461bcd60e51b815260206004820152602f60248201527f45524331393637557067726164653a207570677261646520627265616b73206660448201526e75727468657220757067726164657360881b6064820152608401610cec565b611ffa85612e52565b5050505050565b612009611015565b61204c5760405162461bcd60e51b815260206004820152601460248201527314185d5cd8589b194e881b9bdd081c185d5cd95960621b6044820152606401610cec565b61025d805460ff191690557f5db9ee0a495bf2e6ff9c91a7834c1ba4fdd244a5e8aa4e537bd38aeae4b073aa335b6040516001600160a01b03909116815260200160405180910390a1565b60006001600160a01b0384163b6120b057506000611267565b604051632229f29760e21b81526000906001600160a01b038616906388a7ca5c906120e59033908a9089908990600401613c97565b602060405180830381600087803b1580156120ff57600080fd5b505af1158015612113573d6000803e3d6000fd5b505050506040513d601f19601f820116820180604052508101906121379190613b0d565b6001600160e01b031916632229f29760e21b14915050949350505050565b6001600160a01b0382166121b55760405162461bcd60e51b815260206004820152602160248201527f45524332303a206275726e2066726f6d20746865207a65726f206164647265736044820152607360f81b6064820152608401610cec565b6121c182600083612e92565b6001600160a01b038216600090815260976020526040902054818110156122355760405162461bcd60e51b815260206004820152602260248201527f45524332303a206275726e20616d6f756e7420657863656564732062616c616e604482015261636560f01b6064820152608401610cec565b6001600160a01b0383166000908152609760205260408120838303905560998054849290612264908490613f04565b90915550506040518281526000906001600160a01b038516907fddf252ad1be2c89b69c2b068fc378daa952ba7f163c4a11628f55a4df523b3ef9060200160405180910390a3505050565b600080600084116122fb5760405162461bcd60e51b815260206004820152601660248201527504552433230536e617073686f743a20696420697320360541b6044820152606401610cec565b612303612f04565b8411156123525760405162461bcd60e51b815260206004820152601d60248201527f4552433230536e617073686f743a206e6f6e6578697374656e742069640000006044820152606401610cec565b600061235e8486612f10565b845490915081141561237757600080925092505061239f565b600184600101828154811061238e5761238e613fbf565b906000526020600020015492509250505b9250929050565b6123ae611015565b156123ee5760405162461bcd60e51b815260206004820152601060248201526f14185d5cd8589b194e881c185d5cd95960821b6044820152606401610cec565b61025d805460ff191660011790557f62e78cea01bee320cd4e420270b5ea74000d11b0c9f74754ebdbfc544b05a25861207a3390565b604080516001600160a01b038416602482015260448082018490528251808303909101815260649091019091526020810180516001600160e01b031663a9059cbb60e01b179052610c50908490612fd3565b600061248761029280546001019055565b6000612491612f04565b90507f8030e83b04d87bef53480e26263266d6ca66863aa8506aca6f2559d18aa1cb67816040516124c491815260200190565b60405180910390a1919050565b6001600160a01b0383166125355760405162461bcd60e51b815260206004820152602560248201527f45524332303a207472616e736665722066726f6d20746865207a65726f206164604482015264647265737360d81b6064820152608401610cec565b6001600160a01b0382166125975760405162461bcd60e51b815260206004820152602360248201527f45524332303a207472616e7366657220746f20746865207a65726f206164647260448201526265737360e81b6064820152608401610cec565b6125a2838383612e92565b6001600160a01b0383166000908152609760205260409020548181101561261a5760405162461bcd60e51b815260206004820152602660248201527f45524332303a207472616e7366657220616d6f756e7420657863656564732062604482015265616c616e636560d01b6064820152608401610cec565b6001600160a01b03808516600090815260976020526040808220858503905591851681529081208054849290612651908490613eab565b92505081905550826001600160a01b0316846001600160a01b03167fddf252ad1be2c89b69c2b068fc378daa952ba7f163c4a11628f55a4df523b3ef8460405161269d91815260200190565b60405180910390a3611424565b600054610100900460ff166126d15760405162461bcd60e51b8152600401610cec90613e3a565b565b600054610100900460ff166126fa5760405162461bcd60e51b8152600401610cec90613e3a565b815161270d90609a9060208501906136e0565b508051610c5090609b9060208401906136e0565b600054610100900460ff166127485760405162461bcd60e51b8152600401610cec90613e3a565b81516020928301208151919092012061012e9190915561012f55565b600054610100900460ff1661278b5760405162461bcd60e51b8152600401610cec90613e3a565b507f6e71edae12b1b97f4d1f60370fef10105fa2faae0126114a169c64845d6126c961016355565b600054610100900460ff166127da5760405162461bcd60e51b8152600401610cec90613e3a565b600081116128225760405162461bcd60e51b8152602060048201526015602482015274045524332304361707065643a20636170206973203605c1b6044820152606401610cec565b60c955565b600054610100900460ff166128425760005460ff1615612846565b303b155b6128625760405162461bcd60e51b8152600401610cec90613dec565b600054610100900460ff16158015612884576000805461ffff19166101011790555b8015610dc9576000805461ff001916905550565b600054610100900460ff166128b35760005460ff16156128b7565b303b155b6128d35760405162461bcd60e51b8152600401610cec90613dec565b600054610100900460ff161580156128f5576000805461ffff19166101011790555b612884600033612934565b600054610100900460ff166129275760405162461bcd60e51b8152600401610cec90613e3a565b61025d805460ff19169055565b610cff8282611caf565b60c9548161294b60995490565b6129559190613eab565b11156129a35760405162461bcd60e51b815260206004820152601960248201527f45524332304361707065643a20636170206578636565646564000000000000006044820152606401610cec565b610cff82826130a5565b60006001600160a01b0384163b6129c657506000610bff565b6040516307b04a2d60e41b81526000906001600160a01b03861690637b04a2d0906129f990339088908890600401613cd4565b602060405180830381600087803b158015612a1357600080fd5b505af1158015612a27573d6000803e3d6000fd5b505050506040513d601f19601f82011682018060405250810190612a4b9190613b0d565b6001600160e01b0319166307b04a2d60e41b149150509392505050565b6001600160a01b0381166000908152610162602052604090208054600181018255905b50919050565b6000610b35612a9e611d36565b8360405161190160f01b6020820152602281018390526042810182905260009060620160405160208183030381529060405280519060200120905092915050565b6000806000612af087878787613190565b91509150612afd8161327d565b5095945050505050565b60606000612b16836002613ee5565b612b21906002613eab565b67ffffffffffffffff811115612b3957612b39613fd5565b6040519080825280601f01601f191660200182016040528015612b63576020820181803683370190505b509050600360fc1b81600081518110612b7e57612b7e613fbf565b60200101906001600160f81b031916908160001a905350600f60fb1b81600181518110612bad57612bad613fbf565b60200101906001600160f81b031916908160001a9053506000612bd1846002613ee5565b612bdc906001613eab565b90505b6001811115612c54576f181899199a1a9b1b9c1cb0b131b232b360811b85600f1660108110612c1057612c10613fbf565b1a60f81b828281518110612c2657612c26613fbf565b60200101906001600160f81b031916908160001a90535060049490941c93612c4d81613f47565b9050612bdf565b508315610bff5760405162461bcd60e51b815260206004820181905260248201527f537472696e67733a20686578206c656e67746820696e73756666696369656e746044820152606401610cec565b60007fb53127684a568b3173ae13b9f8a6016e243e63b6e8ee1178d6a717850b5d6103611e3f565b803b612d2f5760405162461bcd60e51b815260206004820152602d60248201527f455243313936373a206e657720696d706c656d656e746174696f6e206973206e60448201526c1bdd08184818dbdb9d1c9858dd609a1b6064820152608401610cec565b7f360894a13ba1a3210667c828492db98dca3e2076cc3735a920a3ca505d382bbc80546001600160a01b0319166001600160a01b0392909216919091179055565b6060823b612dcf5760405162461bcd60e51b815260206004820152602660248201527f416464726573733a2064656c65676174652063616c6c20746f206e6f6e2d636f6044820152651b9d1c9858dd60d21b6064820152608401610cec565b600080846001600160a01b031684604051612dea9190613c06565b600060405180830381855af49150503d8060008114612e25576040519150601f19603f3d011682016040523d82523d6000602084013e612e2a565b606091505b5091509150610eac828260405180606001604052806027815260200161402560279139613438565b612e5b81612ccb565b6040516001600160a01b038216907fbc7cd75a20ee27fd9adebab32041f755214dbc6bffa90cc0225b39da2e5c2d3b90600090a250565b61025d5460ff1615612ef95760405162461bcd60e51b815260206004820152602a60248201527f45524332305061757361626c653a20746f6b656e207472616e736665722077686044820152691a5b19481c185d5cd95960b21b6064820152608401610cec565b610c50838383613471565b6000610c7b6102925490565b8154600090612f2157506000610b35565b82546000905b80821015612f7d576000612f3b83836134b9565b905084868281548110612f5057612f50613fbf565b90600052602060002001541115612f6957809150612f77565b612f74816001613eab565b92505b50612f27565b600082118015612fb257508385612f95600185613f04565b81548110612fa557612fa5613fbf565b9060005260206000200154145b15612fcb57612fc2600183613f04565b92505050610b35565b509050610b35565b6000613028826040518060400160405280602081526020017f5361666545524332303a206c6f772d6c6576656c2063616c6c206661696c6564815250856001600160a01b03166134d49092919063ffffffff16565b805190915015610c5057808060200190518101906130469190613a95565b610c505760405162461bcd60e51b815260206004820152602a60248201527f5361666545524332303a204552433230206f7065726174696f6e20646964206e6044820152691bdd081cdd58d8d9595960b21b6064820152608401610cec565b6001600160a01b0382166130fb5760405162461bcd60e51b815260206004820152601f60248201527f45524332303a206d696e7420746f20746865207a65726f2061646472657373006044820152606401610cec565b61310760008383612e92565b80609960008282546131199190613eab565b90915550506001600160a01b03821660009081526097602052604081208054839290613146908490613eab565b90915550506040518181526001600160a01b038316906000907fddf252ad1be2c89b69c2b068fc378daa952ba7f163c4a11628f55a4df523b3ef9060200160405180910390a35050565b6000807f7fffffffffffffffffffffffffffffff5d576e7357a4501ddfe92f46681b20a08311156131c75750600090506003613274565b8460ff16601b141580156131df57508460ff16601c14155b156131f05750600090506004613274565b6040805160008082526020820180845289905260ff881692820192909252606081018690526080810185905260019060a0016020604051602081039080840390855afa158015613244573d6000803e3d6000fd5b5050604051601f1901519150506001600160a01b03811661326d57600060019250925050613274565b9150600090505b94509492505050565b600081600481111561329157613291613fa9565b141561329a5750565b60018160048111156132ae576132ae613fa9565b14156132fc5760405162461bcd60e51b815260206004820152601860248201527f45434453413a20696e76616c6964207369676e617475726500000000000000006044820152606401610cec565b600281600481111561331057613310613fa9565b141561335e5760405162461bcd60e51b815260206004820152601f60248201527f45434453413a20696e76616c6964207369676e6174757265206c656e677468006044820152606401610cec565b600381600481111561337257613372613fa9565b14156133cb5760405162461bcd60e51b815260206004820152602260248201527f45434453413a20696e76616c6964207369676e6174757265202773272076616c604482015261756560f01b6064820152608401610cec565b60048160048111156133df576133df613fa9565b1415610dc95760405162461bcd60e51b815260206004820152602260248201527f45434453413a20696e76616c6964207369676e6174757265202776272076616c604482015261756560f01b6064820152608401610cec565b60608315613447575081610bff565b8251156134575782518084602001fd5b8160405162461bcd60e51b8152600401610cec9190613cfb565b6001600160a01b03831661349057613488826134e3565b610c50613517565b6001600160a01b0382166134a757613488836134e3565b6134b0836134e3565b610c50826134e3565b60006134c86002848418613ec3565b610bff90848416613eab565b60606112678484600085613526565b6001600160a01b038116600090815261028f60209081526040808320609790925290912054610dc9919061364e565b61364e565b6126d161029061351260995490565b6060824710156135875760405162461bcd60e51b815260206004820152602660248201527f416464726573733a20696e73756666696369656e742062616c616e636520666f6044820152651c8818d85b1b60d21b6064820152608401610cec565b843b6135d55760405162461bcd60e51b815260206004820152601d60248201527f416464726573733a2063616c6c20746f206e6f6e2d636f6e74726163740000006044820152606401610cec565b600080866001600160a01b031685876040516135f19190613c06565b60006040518083038185875af1925050503d806000811461362e576040519150601f19603f3d011682016040523d82523d6000602084013e613633565b606091505b5091509150613643828286613438565b979650505050505050565b6000613658612f04565b90508061366484613698565b1015610c50578254600180820185556000858152602080822090930193909355938401805494850181558252902090910155565b80546000906136a957506000919050565b815482906136b990600190613f04565b815481106136c9576136c9613fbf565b90600052602060002001549050919050565b919050565b8280546136ec90613f5e565b90600052602060002090601f01602090048101928261370e5760008555613754565b82601f1061372757805160ff1916838001178555613754565b82800160010185558215613754579182015b82811115613754578251825591602001919060010190613739565b50613760929150613764565b5090565b5b808211156137605760008155600101613765565b600082601f83011261378a57600080fd5b813567ffffffffffffffff808211156137a5576137a5613fd5565b604051601f8301601f19908116603f011681019082821181831017156137cd576137cd613fd5565b816040528381528660208588010111156137e657600080fd5b836020870160208301376000602085830101528094505050505092915050565b803561ffff811681146136db57600080fd5b60006020828403121561382a57600080fd5b8135610bff81613feb565b6000806040838503121561384857600080fd5b823561385381613feb565b9150602083013561386381613feb565b809150509250929050565b60008060006060848603121561388357600080fd5b833561388e81613feb565b9250602084013561389e81613feb565b929592945050506040919091013590565b600080600080608085870312156138c557600080fd5b84356138d081613feb565b935060208501356138e081613feb565b925060408501359150606085013567ffffffffffffffff81111561390357600080fd5b61390f87828801613779565b91505092959194509250565b600080600080600080600060e0888a03121561393657600080fd5b873561394181613feb565b9650602088013561395181613feb565b95506040880135945060608801359350608088013560ff8116811461397557600080fd5b9699959850939692959460a0840135945060c09093013592915050565b600080604083850312156139a557600080fd5b82356139b081613feb565b9150602083013561386381614000565b600080604083850312156139d357600080fd5b82356139de81613feb565b9150602083013567ffffffffffffffff8111156139fa57600080fd5b613a0685828601613779565b9150509250929050565b60008060408385031215613a2357600080fd5b8235613a2e81613feb565b946020939093013593505050565b600080600060608486031215613a5157600080fd5b8335613a5c81613feb565b925060208401359150604084013567ffffffffffffffff811115613a7f57600080fd5b613a8b86828701613779565b9150509250925092565b600060208284031215613aa757600080fd5b8151610bff81614000565b600060208284031215613ac457600080fd5b5035919050565b60008060408385031215613ade57600080fd5b82359150602083013561386381613feb565b600060208284031215613b0257600080fd5b8135610bff8161400e565b600060208284031215613b1f57600080fd5b8151610bff8161400e565b600080600060608486031215613b3f57600080fd5b833567ffffffffffffffff80821115613b5757600080fd5b613b6387838801613779565b94506020860135915080821115613b7957600080fd5b50613b8686828701613779565b925050604084013590509250925092565b600080600060608486031215613bac57600080fd5b613bb584613806565b9250613bc360208501613806565b9150613bd160408501613806565b90509250925092565b60008151808452613bf2816020860160208601613f1b565b601f01601f19169290920160200192915050565b60008251613c18818460208701613f1b565b9190910192915050565b7f416363657373436f6e74726f6c3a206163636f756e7420000000000000000000815260008351613c5a816017850160208801613f1b565b7001034b99036b4b9b9b4b733903937b6329607d1b6017918401918201528351613c8b816028840160208801613f1b565b01602801949350505050565b6001600160a01b0385811682528416602082015260408101839052608060608201819052600090613cca90830184613bda565b9695505050505050565b60018060a01b0384168152826020820152606060408201526000610eac6060830184613bda565b602081526000610bff6020830184613bda565b6020808252602c908201527f46756e6374696f6e206d7573742062652063616c6c6564207468726f7567682060408201526b19195b1959d85d1958d85b1b60a21b606082015260800190565b6020808252602c908201527f46756e6374696f6e206d7573742062652063616c6c6564207468726f7567682060408201526b6163746976652070726f787960a01b606082015260800190565b60208082526026908201527f455243313336333a205f636865636b416e6443616c6c5472616e73666572207260408201526565766572747360d01b606082015260800190565b6020808252602e908201527f496e697469616c697a61626c653a20636f6e747261637420697320616c72656160408201526d191e481a5b9a5d1a585b1a5e995960921b606082015260800190565b6020808252602b908201527f496e697469616c697a61626c653a20636f6e7472616374206973206e6f74206960408201526a6e697469616c697a696e6760a81b606082015260800190565b600061ffff808316818516808303821115613ea257613ea2613f93565b01949350505050565b60008219821115613ebe57613ebe613f93565b500190565b600082613ee057634e487b7160e01b600052601260045260246000fd5b500490565b6000816000190483118215151615613eff57613eff613f93565b500290565b600082821015613f1657613f16613f93565b500390565b60005b83811015613f36578181015183820152602001613f1e565b838111156114245750506000910152565b600081613f5657613f56613f93565b506000190190565b600181811c90821680613f7257607f821691505b60208210811415612a8b57634e487b7160e01b600052602260045260246000fd5b634e487b7160e01b600052601160045260246000fd5b634e487b7160e01b600052602160045260246000fd5b634e487b7160e01b600052603260045260246000fd5b634e487b7160e01b600052604160045260246000fd5b6001600160a01b0381168114610dc957600080fd5b8015158114610dc957600080fd5b6001600160e01b031981168114610dc957600080fdfe416464726573733a206c6f772d6c6576656c2064656c65676174652063616c6c206661696c6564a26469706673582212203ddfed65fe59ec90facc237154fec96933e19406db38317ae458b07d68e2ef0664736f6c63430008050033",
  "devdoc": {
    "kind": "dev",
    "methods": {
      "DOMAIN_SEPARATOR()": {
        "details": "See {IERC20Permit-DOMAIN_SEPARATOR}."
      },
      "allowance(address,address)": {
        "details": "See {IERC20-allowance}."
      },
      "approve(address,uint256)": {
        "details": "See {IERC20-approve}. Requirements: - `spender` cannot be the zero address."
      },
      "approveAndCall(address,uint256)": {
        "details": "Approve spender to transfer tokens and then execute a callback on recipient.",
        "params": {
          "amount": "The amount allowed to be transferred",
          "spender": "The address allowed to transfer to"
        },
        "returns": {
          "_0": "A boolean that indicates if the operation was successful."
        }
      },
      "approveAndCall(address,uint256,bytes)": {
        "details": "Approve spender to transfer tokens and then execute a callback on recipient.",
        "params": {
          "amount": "The amount allowed to be transferred.",
          "data": "Additional data with no specified format.",
          "spender": "The address allowed to transfer to."
        },
        "returns": {
          "_0": "A boolean that indicates if the operation was successful."
        }
      },
      "balanceOf(address)": {
        "details": "See {IERC20-balanceOf}."
      },
      "balanceOfAt(address,uint256)": {
        "details": "Retrieves the balance of `account` at the time `snapshotId` was created."
      },
      "burn(uint256)": {
        "details": "Destroys `amount` tokens from the caller. See {ERC20-_burn}."
      },
      "burnFrom(address,uint256)": {
        "details": "Destroys `amount` tokens from `account`, deducting from the caller's allowance. See {ERC20-_burn} and {ERC20-allowance}. Requirements: - the caller must have allowance for ``accounts``'s tokens of at least `amount`."
      },
      "cap()": {
        "details": "Returns the cap on the token's total supply."
      },
      "decimals()": {
        "details": "Returns the number of decimals used to get its user representation. For example, if `decimals` equals `2`, a balance of `505` tokens should be displayed to a user as `5,05` (`505 / 10 ** 2`). Tokens usually opt for a value of 18, imitating the relationship between Ether and Wei. This is the value {ERC20} uses, unless this function is overridden; NOTE: This information is only used for _display_ purposes: it in no way affects any of the arithmetic of the contract, including {IERC20-balanceOf} and {IERC20-transfer}."
      },
      "decreaseAllowance(address,uint256)": {
        "details": "Atomically decreases the allowance granted to `spender` by the caller. This is an alternative to {approve} that can be used as a mitigation for problems described in {IERC20-approve}. Emits an {Approval} event indicating the updated allowance. Requirements: - `spender` cannot be the zero address. - `spender` must have allowance for the caller of at least `subtractedValue`."
      },
      "getRoleAdmin(bytes32)": {
        "details": "Returns the admin role that controls `role`. See {grantRole} and {revokeRole}. To change a role's admin, use {_setRoleAdmin}."
      },
      "grantRole(bytes32,address)": {
        "details": "Grants `role` to `account`. If `account` had not been already granted `role`, emits a {RoleGranted} event. Requirements: - the caller must have ``role``'s admin role."
      },
      "hasRole(bytes32,address)": {
        "details": "Returns `true` if `account` has been granted `role`."
      },
      "increaseAllowance(address,uint256)": {
        "details": "Atomically increases the allowance granted to `spender` by the caller. This is an alternative to {approve} that can be used as a mitigation for problems described in {IERC20-approve}. Emits an {Approval} event indicating the updated allowance. Requirements: - `spender` cannot be the zero address."
      },
      "name()": {
        "details": "Returns the name of the token."
      },
      "nonces(address)": {
        "details": "See {IERC20Permit-nonces}."
      },
      "paused()": {
        "details": "Returns true if the contract is paused, and false otherwise."
      },
      "permit(address,address,uint256,uint256,uint8,bytes32,bytes32)": {
        "details": "See {IERC20Permit-permit}."
      },
      "recoverERC20(address,uint256)": {
        "params": {
          "tokenAddress": "ERC20 token contract address",
          "tokenAmount": "Amount to recover"
        }
      },
      "renounceRole(bytes32,address)": {
        "details": "Revokes `role` from the calling account. Roles are often managed via {grantRole} and {revokeRole}: this function's purpose is to provide a mechanism for accounts to lose their privileges if they are compromised (such as when a trusted device is misplaced). If the calling account had been revoked `role`, emits a {RoleRevoked} event. Requirements: - the caller must be `account`."
      },
      "rescueERC20(address,address,uint256)": {
        "params": {
          "amount": "Amount to rescue",
          "to": "Recipient address",
          "tokenContract": "ERC20 token contract address"
        }
      },
      "revokeRole(bytes32,address)": {
        "details": "Revokes `role` from `account`. If `account` had been granted `role`, emits a {RoleRevoked} event. Requirements: - the caller must have ``role``'s admin role."
      },
      "supportsInterface(bytes4)": {
        "details": "See {IERC165-supportsInterface}."
      },
      "symbol()": {
        "details": "Returns the symbol of the token, usually a shorter version of the name."
      },
      "totalSupply()": {
        "details": "See {IERC20-totalSupply}."
      },
      "totalSupplyAt(uint256)": {
        "details": "Retrieves the total supply at the time `snapshotId` was created."
      },
      "transfer(address,uint256)": {
        "details": "Override transfer function to apply tax deduction"
      },
      "transferAndCall(address,uint256)": {
        "details": "Transfer tokens to a specified address and then execute a callback on recipient.",
        "params": {
          "amount": "The amount to be transferred.",
          "recipient": "The address to transfer to."
        },
        "returns": {
          "_0": "A boolean that indicates if the operation was successful."
        }
      },
      "transferAndCall(address,uint256,bytes)": {
        "details": "Transfer tokens to a specified address and then execute a callback on recipient.",
        "params": {
          "amount": "The amount to be transferred",
          "data": "Additional data with no specified format",
          "recipient": "The address to transfer to"
        },
        "returns": {
          "_0": "A boolean that indicates if the operation was successful."
        }
      },
      "transferFrom(address,address,uint256)": {
        "details": "Override transferFrom function to apply tax deduction"
      },
      "transferFromAndCall(address,address,uint256)": {
        "details": "Transfer tokens from one address to another and then execute a callback on recipient.",
        "params": {
          "amount": "The amount of tokens to be transferred",
          "recipient": "The address which you want to transfer to",
          "sender": "The address which you want to send tokens from"
        },
        "returns": {
          "_0": "A boolean that indicates if the operation was successful."
        }
      },
      "transferFromAndCall(address,address,uint256,bytes)": {
        "details": "Transfer tokens from one address to another and then execute a callback on recipient.",
        "params": {
          "amount": "The amount of tokens to be transferred",
          "data": "Additional data with no specified format",
          "recipient": "The address which you want to transfer to",
          "sender": "The address which you want to send tokens from"
        },
        "returns": {
          "_0": "A boolean that indicates if the operation was successful."
        }
      },
      "upgradeTo(address)": {
        "details": "Upgrade the implementation of the proxy to `newImplementation`. Calls {_authorizeUpgrade}. Emits an {Upgraded} event."
      },
      "upgradeToAndCall(address,bytes)": {
        "details": "Upgrade the implementation of the proxy to `newImplementation`, and subsequently execute the function call encoded in `data`. Calls {_authorizeUpgrade}. Emits an {Upgraded} event."
      }
    },
    "version": 1
  },
  "userdoc": {
    "kind": "user",
    "methods": {
      "recoverERC20(address,uint256)": {
        "notice": "Recover ERC20 tokens locked up in this contract."
      },
      "rescueERC20(address,address,uint256)": {
        "notice": "Rescue ERC20 tokens locked up in this contract."
      }
    },
    "version": 1
  },
  "storageLayout": {
    "storage": [
      {
        "astId": 824,
        "contract": "contracts/Token/FrockTokenV1.sol:FrockTokenV1",
        "label": "_initialized",
        "offset": 0,
        "slot": "0",
        "type": "t_bool"
      },
      {
        "astId": 827,
        "contract": "contracts/Token/FrockTokenV1.sol:FrockTokenV1",
        "label": "_initializing",
        "offset": 1,
        "slot": "0",
        "type": "t_bool"
      },
      {
        "astId": 806,
        "contract": "contracts/Token/FrockTokenV1.sol:FrockTokenV1",
        "label": "__gap",
        "offset": 0,
        "slot": "1",
        "type": "t_array(t_uint256)50_storage"
      },
      {
        "astId": 1001,
        "contract": "contracts/Token/FrockTokenV1.sol:FrockTokenV1",
        "label": "__gap",
        "offset": 0,
        "slot": "51",
        "type": "t_array(t_uint256)50_storage"
      },
      {
        "astId": 3150,
        "contract": "contracts/Token/FrockTokenV1.sol:FrockTokenV1",
        "label": "__gap",
        "offset": 0,
        "slot": "101",
        "type": "t_array(t_uint256)50_storage"
      },
      {
        "astId": 1134,
        "contract": "contracts/Token/FrockTokenV1.sol:FrockTokenV1",
        "label": "_balances",
        "offset": 0,
        "slot": "151",
        "type": "t_mapping(t_address,t_uint256)"
      },
      {
        "astId": 1140,
        "contract": "contracts/Token/FrockTokenV1.sol:FrockTokenV1",
        "label": "_allowances",
        "offset": 0,
        "slot": "152",
        "type": "t_mapping(t_address,t_mapping(t_address,t_uint256))"
      },
      {
        "astId": 1142,
        "contract": "contracts/Token/FrockTokenV1.sol:FrockTokenV1",
        "label": "_totalSupply",
        "offset": 0,
        "slot": "153",
        "type": "t_uint256"
      },
      {
        "astId": 1144,
        "contract": "contracts/Token/FrockTokenV1.sol:FrockTokenV1",
        "label": "_name",
        "offset": 0,
        "slot": "154",
        "type": "t_string_storage"
      },
      {
        "astId": 1146,
        "contract": "contracts/Token/FrockTokenV1.sol:FrockTokenV1",
        "label": "_symbol",
        "offset": 0,
        "slot": "155",
        "type": "t_string_storage"
      },
      {
        "astId": 1687,
        "contract": "contracts/Token/FrockTokenV1.sol:FrockTokenV1",
        "label": "__gap",
        "offset": 0,
        "slot": "156",
        "type": "t_array(t_uint256)45_storage"
      },
      {
        "astId": 1864,
        "contract": "contracts/Token/FrockTokenV1.sol:FrockTokenV1",
        "label": "_cap",
        "offset": 0,
        "slot": "201",
        "type": "t_uint256"
      },
      {
        "astId": 1941,
        "contract": "contracts/Token/FrockTokenV1.sol:FrockTokenV1",
        "label": "__gap",
        "offset": 0,
        "slot": "202",
        "type": "t_array(t_uint256)50_storage"
      },
      {
        "astId": 1852,
        "contract": "contracts/Token/FrockTokenV1.sol:FrockTokenV1",
        "label": "__gap",
        "offset": 0,
        "slot": "252",
        "type": "t_array(t_uint256)50_storage"
      },
      {
        "astId": 3887,
        "contract": "contracts/Token/FrockTokenV1.sol:FrockTokenV1",
        "label": "_HASHED_NAME",
        "offset": 0,
        "slot": "302",
        "type": "t_bytes32"
      },
      {
        "astId": 3889,
        "contract": "contracts/Token/FrockTokenV1.sol:FrockTokenV1",
        "label": "_HASHED_VERSION",
        "offset": 0,
        "slot": "303",
        "type": "t_bytes32"
      },
      {
        "astId": 4026,
        "contract": "contracts/Token/FrockTokenV1.sol:FrockTokenV1",
        "label": "__gap",
        "offset": 0,
        "slot": "304",
        "type": "t_array(t_uint256)50_storage"
      },
      {
        "astId": 2346,
        "contract": "contracts/Token/FrockTokenV1.sol:FrockTokenV1",
        "label": "_nonces",
        "offset": 0,
        "slot": "354",
        "type": "t_mapping(t_address,t_struct(Counter)3157_storage)"
      },
      {
        "astId": 2348,
        "contract": "contracts/Token/FrockTokenV1.sol:FrockTokenV1",
        "label": "_PERMIT_TYPEHASH",
        "offset": 0,
        "slot": "355",
        "type": "t_bytes32"
      },
      {
        "astId": 2516,
        "contract": "contracts/Token/FrockTokenV1.sol:FrockTokenV1",
        "label": "__gap",
        "offset": 0,
        "slot": "356",
        "type": "t_array(t_uint256)49_storage"
      },
      {
        "astId": 4072,
        "contract": "contracts/Token/FrockTokenV1.sol:FrockTokenV1",
        "label": "__gap",
        "offset": 0,
        "slot": "405",
        "type": "t_array(t_uint256)50_storage"
      },
      {
        "astId": 4587,
        "contract": "contracts/Token/FrockTokenV1.sol:FrockTokenV1",
        "label": "__gap",
        "offset": 0,
        "slot": "455",
        "type": "t_array(t_uint256)50_storage"
      },
      {
        "astId": 48,
        "contract": "contracts/Token/FrockTokenV1.sol:FrockTokenV1",
        "label": "_roles",
        "offset": 0,
        "slot": "505",
        "type": "t_mapping(t_bytes32,t_struct(RoleData)43_storage)"
      },
      {
        "astId": 335,
        "contract": "contracts/Token/FrockTokenV1.sol:FrockTokenV1",
        "label": "__gap",
        "offset": 0,
        "slot": "506",
        "type": "t_array(t_uint256)49_storage"
      },
      {
        "astId": 4270,
        "contract": "contracts/Token/FrockTokenV1.sol:FrockTokenV1",
        "label": "__gap",
        "offset": 0,
        "slot": "555",
        "type": "t_array(t_uint256)50_storage"
      },
      {
        "astId": 1023,
        "contract": "contracts/Token/FrockTokenV1.sol:FrockTokenV1",
        "label": "_paused",
        "offset": 0,
        "slot": "605",
        "type": "t_bool"
      },
      {
        "astId": 1114,
        "contract": "contracts/Token/FrockTokenV1.sol:FrockTokenV1",
        "label": "__gap",
        "offset": 0,
        "slot": "606",
        "type": "t_array(t_uint256)49_storage"
      },
      {
        "astId": 1991,
        "contract": "contracts/Token/FrockTokenV1.sol:FrockTokenV1",
        "label": "_accountBalanceSnapshots",
        "offset": 0,
        "slot": "655",
        "type": "t_mapping(t_address,t_struct(Snapshots)1986_storage)"
      },
      {
        "astId": 1994,
        "contract": "contracts/Token/FrockTokenV1.sol:FrockTokenV1",
        "label": "_totalSupplySnapshots",
        "offset": 0,
        "slot": "656",
        "type": "t_struct(Snapshots)1986_storage"
      },
      {
        "astId": 1997,
        "contract": "contracts/Token/FrockTokenV1.sol:FrockTokenV1",
        "label": "_currentSnapshotId",
        "offset": 0,
        "slot": "658",
        "type": "t_struct(Counter)3157_storage"
      },
      {
        "astId": 2294,
        "contract": "contracts/Token/FrockTokenV1.sol:FrockTokenV1",
        "label": "__gap",
        "offset": 0,
        "slot": "659",
        "type": "t_array(t_uint256)46_storage"
      },
      {
        "astId": 4999,
        "contract": "contracts/Token/FrockTokenV1.sol:FrockTokenV1",
        "label": "_isExcludedFromFees",
        "offset": 0,
        "slot": "705",
        "type": "t_mapping(t_address,t_bool)"
      },
      {
        "astId": 5003,
        "contract": "contracts/Token/FrockTokenV1.sol:FrockTokenV1",
        "label": "automatedMarketMakerPairs",
        "offset": 0,
        "slot": "706",
        "type": "t_mapping(t_address,t_bool)"
      },
      {
        "astId": 4596,
        "contract": "contracts/Token/FrockTokenV1.sol:FrockTokenV1",
        "label": "reflection",
        "offset": 0,
        "slot": "707",
        "type": "t_address"
      },
      {
        "astId": 4598,
        "contract": "contracts/Token/FrockTokenV1.sol:FrockTokenV1",
        "label": "treasury",
        "offset": 0,
        "slot": "708",
        "type": "t_address"
      },
      {
        "astId": 4600,
        "contract": "contracts/Token/FrockTokenV1.sol:FrockTokenV1",
        "label": "marketing",
        "offset": 0,
        "slot": "709",
        "type": "t_address"
      },
      {
        "astId": 4602,
        "contract": "contracts/Token/FrockTokenV1.sol:FrockTokenV1",
        "label": "reflectionPercentage",
        "offset": 20,
        "slot": "709",
        "type": "t_uint16"
      },
      {
        "astId": 4604,
        "contract": "contracts/Token/FrockTokenV1.sol:FrockTokenV1",
        "label": "treasuryPercentage",
        "offset": 22,
        "slot": "709",
        "type": "t_uint16"
      },
      {
        "astId": 4606,
        "contract": "contracts/Token/FrockTokenV1.sol:FrockTokenV1",
        "label": "marketingPercentage",
        "offset": 24,
        "slot": "709",
        "type": "t_uint16"
      },
      {
        "astId": 4608,
        "contract": "contracts/Token/FrockTokenV1.sol:FrockTokenV1",
        "label": "burnPercentage",
        "offset": 26,
        "slot": "709",
        "type": "t_uint16"
      }
    ],
    "types": {
      "t_address": {
        "encoding": "inplace",
        "label": "address",
        "numberOfBytes": "20"
      },
      "t_array(t_uint256)45_storage": {
        "base": "t_uint256",
        "encoding": "inplace",
        "label": "uint256[45]",
        "numberOfBytes": "1440"
      },
      "t_array(t_uint256)46_storage": {
        "base": "t_uint256",
        "encoding": "inplace",
        "label": "uint256[46]",
        "numberOfBytes": "1472"
      },
      "t_array(t_uint256)49_storage": {
        "base": "t_uint256",
        "encoding": "inplace",
        "label": "uint256[49]",
        "numberOfBytes": "1568"
      },
      "t_array(t_uint256)50_storage": {
        "base": "t_uint256",
        "encoding": "inplace",
        "label": "uint256[50]",
        "numberOfBytes": "1600"
      },
      "t_array(t_uint256)dyn_storage": {
        "base": "t_uint256",
        "encoding": "dynamic_array",
        "label": "uint256[]",
        "numberOfBytes": "32"
      },
      "t_bool": {
        "encoding": "inplace",
        "label": "bool",
        "numberOfBytes": "1"
      },
      "t_bytes32": {
        "encoding": "inplace",
        "label": "bytes32",
        "numberOfBytes": "32"
      },
      "t_mapping(t_address,t_bool)": {
        "encoding": "mapping",
        "key": "t_address",
        "label": "mapping(address => bool)",
        "numberOfBytes": "32",
        "value": "t_bool"
      },
      "t_mapping(t_address,t_mapping(t_address,t_uint256))": {
        "encoding": "mapping",
        "key": "t_address",
        "label": "mapping(address => mapping(address => uint256))",
        "numberOfBytes": "32",
        "value": "t_mapping(t_address,t_uint256)"
      },
      "t_mapping(t_address,t_struct(Counter)3157_storage)": {
        "encoding": "mapping",
        "key": "t_address",
        "label": "mapping(address => struct CountersUpgradeable.Counter)",
        "numberOfBytes": "32",
        "value": "t_struct(Counter)3157_storage"
      },
      "t_mapping(t_address,t_struct(Snapshots)1986_storage)": {
        "encoding": "mapping",
        "key": "t_address",
        "label": "mapping(address => struct ERC20SnapshotUpgradeable.Snapshots)",
        "numberOfBytes": "32",
        "value": "t_struct(Snapshots)1986_storage"
      },
      "t_mapping(t_address,t_uint256)": {
        "encoding": "mapping",
        "key": "t_address",
        "label": "mapping(address => uint256)",
        "numberOfBytes": "32",
        "value": "t_uint256"
      },
      "t_mapping(t_bytes32,t_struct(RoleData)43_storage)": {
        "encoding": "mapping",
        "key": "t_bytes32",
        "label": "mapping(bytes32 => struct AccessControlUpgradeable.RoleData)",
        "numberOfBytes": "32",
        "value": "t_struct(RoleData)43_storage"
      },
      "t_string_storage": {
        "encoding": "bytes",
        "label": "string",
        "numberOfBytes": "32"
      },
      "t_struct(Counter)3157_storage": {
        "encoding": "inplace",
        "label": "struct CountersUpgradeable.Counter",
        "members": [
          {
            "astId": 3156,
            "contract": "contracts/Token/FrockTokenV1.sol:FrockTokenV1",
            "label": "_value",
            "offset": 0,
            "slot": "0",
            "type": "t_uint256"
          }
        ],
        "numberOfBytes": "32"
      },
      "t_struct(RoleData)43_storage": {
        "encoding": "inplace",
        "label": "struct AccessControlUpgradeable.RoleData",
        "members": [
          {
            "astId": 40,
            "contract": "contracts/Token/FrockTokenV1.sol:FrockTokenV1",
            "label": "members",
            "offset": 0,
            "slot": "0",
            "type": "t_mapping(t_address,t_bool)"
          },
          {
            "astId": 42,
            "contract": "contracts/Token/FrockTokenV1.sol:FrockTokenV1",
            "label": "adminRole",
            "offset": 0,
            "slot": "1",
            "type": "t_bytes32"
          }
        ],
        "numberOfBytes": "64"
      },
      "t_struct(Snapshots)1986_storage": {
        "encoding": "inplace",
        "label": "struct ERC20SnapshotUpgradeable.Snapshots",
        "members": [
          {
            "astId": 1982,
            "contract": "contracts/Token/FrockTokenV1.sol:FrockTokenV1",
            "label": "ids",
            "offset": 0,
            "slot": "0",
            "type": "t_array(t_uint256)dyn_storage"
          },
          {
            "astId": 1985,
            "contract": "contracts/Token/FrockTokenV1.sol:FrockTokenV1",
            "label": "values",
            "offset": 0,
            "slot": "1",
            "type": "t_array(t_uint256)dyn_storage"
          }
        ],
        "numberOfBytes": "64"
      },
      "t_uint16": {
        "encoding": "inplace",
        "label": "uint16",
        "numberOfBytes": "2"
      },
      "t_uint256": {
        "encoding": "inplace",
        "label": "uint256",
        "numberOfBytes": "32"
      }
    }
  }
}