{
  "address": "0xf4B146FbA71F41E0592668ffbF264F1D186b2Ca8",
  "abi": [
    {
      "inputs": [
        {
          "internalType": "address",
          "name": "operator",
          "type": "address"
        },
        {
          "internalType": "address",
          "name": "from",
          "type": "address"
        },
        {
          "internalType": "uint256",
          "name": "value",
          "type": "uint256"
        },
        {
          "internalType": "bytes",
          "name": "data",
          "type": "bytes"
        }
      ],
      "name": "onTransferReceived",
      "outputs": [
        {
          "internalType": "bytes4",
          "name": "",
          "type": "bytes4"
        }
      ],
      "stateMutability": "nonpayable",
      "type": "function"
    }
  ],
  "transactionHash": "0x7253bb283fb48250974d707eb3fe35f9ad139db38a32b303218d72923167bda5",
  "args": [],
  "solcInputHash": "99e36749ca5b723b24b9f486e79cf3b5",
  "bytecode": "0x608060405234801561001057600080fd5b506101af806100206000396000f3fe608060405234801561001057600080fd5b506004361061002b5760003560e01c806388a7ca5c14610030575b600080fd5b61004e61003e366004610087565b632229f29760e21b949350505050565b6040516001600160e01b0319909116815260200160405180910390f35b80356001600160a01b038116811461008257600080fd5b919050565b6000806000806080858703121561009d57600080fd5b6100a68561006b565b93506100b46020860161006b565b925060408501359150606085013567ffffffffffffffff808211156100d857600080fd5b818701915087601f8301126100ec57600080fd5b8135818111156100fe576100fe610163565b604051601f8201601f19908116603f0116810190838211818310171561012657610126610163565b816040528281528a602084870101111561013f57600080fd5b82602086016020830137600060208483010152809550505050505092959194509250565b634e487b7160e01b600052604160045260246000fdfea26469706673582212208f18997bbfc09c8cb70b7bccf29962c4959379ec0e7435a8aa2403b37988ac4964736f6c63430008050033",
  "devdoc": {
    "kind": "dev",
    "methods": {},
    "version": 1
  },
  "userdoc": {
    "kind": "user",
    "methods": {},
    "version": 1
  },
  "storageLayout": {
    "storage": [],
    "types": null
  }
}