{
  "address": "0x672B45E3b7ADD9421b49FCDfB7143cDf03C75417",
  "abi": [
    {
      "anonymous": false,
      "inputs": [
        {
          "indexed": false,
          "internalType": "address",
          "name": "previousAdmin",
          "type": "address"
        },
        {
          "indexed": false,
          "internalType": "address",
          "name": "newAdmin",
          "type": "address"
        }
      ],
      "name": "AdminChanged",
      "type": "event"
    },
    {
      "anonymous": false,
      "inputs": [
        {
          "indexed": true,
          "internalType": "address",
          "name": "beacon",
          "type": "address"
        }
      ],
      "name": "BeaconUpgraded",
      "type": "event"
    },
    {
      "anonymous": false,
      "inputs": [
        {
          "indexed": true,
          "internalType": "uint256",
          "name": "rewardId",
          "type": "uint256"
        },
        {
          "indexed": false,
          "internalType": "uint256",
          "name": "rewardAmount",
          "type": "uint256"
        },
        {
          "indexed": true,
          "internalType": "address",
          "name": "holder",
          "type": "address"
        }
      ],
      "name": "ClaimReward",
      "type": "event"
    },
    {
      "anonymous": false,
      "inputs": [
        {
          "indexed": true,
          "internalType": "address",
          "name": "holder",
          "type": "address"
        },
        {
          "indexed": false,
          "internalType": "bool",
          "name": "state",
          "type": "bool"
        }
      ],
      "name": "ExcludedFromReward",
      "type": "event"
    },
    {
      "anonymous": false,
      "inputs": [
        {
          "indexed": false,
          "internalType": "uint256",
          "name": "newMinimumFrockToSwap",
          "type": "uint256"
        }
      ],
      "name": "NewMinimumFrockToSwap",
      "type": "event"
    },
    {
      "anonymous": false,
      "inputs": [
        {
          "indexed": false,
          "internalType": "uint256",
          "name": "rewardId",
          "type": "uint256"
        },
        {
          "indexed": false,
          "internalType": "uint256",
          "name": "rewardAmount",
          "type": "uint256"
        },
        {
          "indexed": false,
          "internalType": "uint256",
          "name": "snapshotId",
          "type": "uint256"
        },
        {
          "indexed": false,
          "internalType": "uint8",
          "name": "rewardSource",
          "type": "uint8"
        }
      ],
      "name": "NewReward",
      "type": "event"
    },
    {
      "anonymous": false,
      "inputs": [
        {
          "indexed": false,
          "internalType": "address",
          "name": "account",
          "type": "address"
        }
      ],
      "name": "Paused",
      "type": "event"
    },
    {
      "anonymous": false,
      "inputs": [
        {
          "indexed": true,
          "internalType": "bytes32",
          "name": "role",
          "type": "bytes32"
        },
        {
          "indexed": true,
          "internalType": "bytes32",
          "name": "previousAdminRole",
          "type": "bytes32"
        },
        {
          "indexed": true,
          "internalType": "bytes32",
          "name": "newAdminRole",
          "type": "bytes32"
        }
      ],
      "name": "RoleAdminChanged",
      "type": "event"
    },
    {
      "anonymous": false,
      "inputs": [
        {
          "indexed": true,
          "internalType": "bytes32",
          "name": "role",
          "type": "bytes32"
        },
        {
          "indexed": true,
          "internalType": "address",
          "name": "account",
          "type": "address"
        },
        {
          "indexed": true,
          "internalType": "address",
          "name": "sender",
          "type": "address"
        }
      ],
      "name": "RoleGranted",
      "type": "event"
    },
    {
      "anonymous": false,
      "inputs": [
        {
          "indexed": true,
          "internalType": "bytes32",
          "name": "role",
          "type": "bytes32"
        },
        {
          "indexed": true,
          "internalType": "address",
          "name": "account",
          "type": "address"
        },
        {
          "indexed": true,
          "internalType": "address",
          "name": "sender",
          "type": "address"
        }
      ],
      "name": "RoleRevoked",
      "type": "event"
    },
    {
      "anonymous": false,
      "inputs": [
        {
          "indexed": false,
          "internalType": "address",
          "name": "account",
          "type": "address"
        }
      ],
      "name": "Unpaused",
      "type": "event"
    },
    {
      "anonymous": false,
      "inputs": [
        {
          "indexed": false,
          "internalType": "address",
          "name": "newMainToken",
          "type": "address"
        }
      ],
      "name": "UpdateMainToken",
      "type": "event"
    },
    {
      "anonymous": false,
      "inputs": [
        {
          "indexed": true,
          "internalType": "address",
          "name": "implementation",
          "type": "address"
        }
      ],
      "name": "Upgraded",
      "type": "event"
    },
    {
      "stateMutability": "payable",
      "type": "fallback"
    },
    {
      "inputs": [],
      "name": "DEFAULT_ADMIN_ROLE",
      "outputs": [
        {
          "internalType": "bytes32",
          "name": "",
          "type": "bytes32"
        }
      ],
      "stateMutability": "view",
      "type": "function"
    },
    {
      "inputs": [],
      "name": "RESCUER_ROLE",
      "outputs": [
        {
          "internalType": "bytes32",
          "name": "",
          "type": "bytes32"
        }
      ],
      "stateMutability": "view",
      "type": "function"
    },
    {
      "inputs": [],
      "name": "REWARDER_ROLE",
      "outputs": [
        {
          "internalType": "bytes32",
          "name": "",
          "type": "bytes32"
        }
      ],
      "stateMutability": "view",
      "type": "function"
    },
    {
      "inputs": [
        {
          "internalType": "uint256[]",
          "name": "rewardIds",
          "type": "uint256[]"
        }
      ],
      "name": "batchClaimReward",
      "outputs": [],
      "stateMutability": "nonpayable",
      "type": "function"
    },
    {
      "inputs": [
        {
          "internalType": "address",
          "name": "holder",
          "type": "address"
        }
      ],
      "name": "buildingTradeDividendOfHolder",
      "outputs": [
        {
          "internalType": "uint256",
          "name": "",
          "type": "uint256"
        }
      ],
      "stateMutability": "view",
      "type": "function"
    },
    {
      "inputs": [
        {
          "internalType": "uint256",
          "name": "rewardId",
          "type": "uint256"
        }
      ],
      "name": "claimReward",
      "outputs": [],
      "stateMutability": "nonpayable",
      "type": "function"
    },
    {
      "inputs": [
        {
          "internalType": "address",
          "name": "holder",
          "type": "address"
        },
        {
          "internalType": "bool",
          "name": "state",
          "type": "bool"
        }
      ],
      "name": "excludedFromReward",
      "outputs": [],
      "stateMutability": "nonpayable",
      "type": "function"
    },
    {
      "inputs": [],
      "name": "getBalance",
      "outputs": [
        {
          "internalType": "uint256",
          "name": "balance",
          "type": "uint256"
        }
      ],
      "stateMutability": "view",
      "type": "function"
    },
    {
      "inputs": [
        {
          "internalType": "address",
          "name": "holder",
          "type": "address"
        },
        {
          "internalType": "uint8",
          "name": "rewardSource",
          "type": "uint8"
        }
      ],
      "name": "getRewardIdsUnclaimed",
      "outputs": [
        {
          "internalType": "uint256[]",
          "name": "",
          "type": "uint256[]"
        }
      ],
      "stateMutability": "view",
      "type": "function"
    },
    {
      "inputs": [
        {
          "internalType": "bytes32",
          "name": "role",
          "type": "bytes32"
        }
      ],
      "name": "getRoleAdmin",
      "outputs": [
        {
          "internalType": "bytes32",
          "name": "",
          "type": "bytes32"
        }
      ],
      "stateMutability": "view",
      "type": "function"
    },
    {
      "inputs": [],
      "name": "getTokenBalance",
      "outputs": [
        {
          "internalType": "uint256",
          "name": "tokenAmount",
          "type": "uint256"
        }
      ],
      "stateMutability": "view",
      "type": "function"
    },
    {
      "inputs": [
        {
          "internalType": "address",
          "name": "holder",
          "type": "address"
        },
        {
          "internalType": "uint8",
          "name": "rewardSource",
          "type": "uint8"
        }
      ],
      "name": "getTotalUnclaimedReward",
      "outputs": [
        {
          "internalType": "uint256",
          "name": "totalUnclaimedReward",
          "type": "uint256"
        }
      ],
      "stateMutability": "view",
      "type": "function"
    },
    {
      "inputs": [
        {
          "internalType": "bytes32",
          "name": "role",
          "type": "bytes32"
        },
        {
          "internalType": "address",
          "name": "account",
          "type": "address"
        }
      ],
      "name": "grantRole",
      "outputs": [],
      "stateMutability": "nonpayable",
      "type": "function"
    },
    {
      "inputs": [
        {
          "internalType": "bytes32",
          "name": "role",
          "type": "bytes32"
        },
        {
          "internalType": "address",
          "name": "account",
          "type": "address"
        }
      ],
      "name": "hasRole",
      "outputs": [
        {
          "internalType": "bool",
          "name": "",
          "type": "bool"
        }
      ],
      "stateMutability": "view",
      "type": "function"
    },
    {
      "inputs": [
        {
          "internalType": "address",
          "name": "",
          "type": "address"
        },
        {
          "internalType": "uint8",
          "name": "",
          "type": "uint8"
        }
      ],
      "name": "holderToTotalClaimed",
      "outputs": [
        {
          "internalType": "uint256",
          "name": "",
          "type": "uint256"
        }
      ],
      "stateMutability": "view",
      "type": "function"
    },
    {
      "inputs": [],
      "name": "initialize",
      "outputs": [],
      "stateMutability": "nonpayable",
      "type": "function"
    },
    {
      "inputs": [
        {
          "internalType": "address",
          "name": "",
          "type": "address"
        }
      ],
      "name": "isExcludedFromReward",
      "outputs": [
        {
          "internalType": "bool",
          "name": "",
          "type": "bool"
        }
      ],
      "stateMutability": "view",
      "type": "function"
    },
    {
      "inputs": [],
      "name": "lastRewardShare",
      "outputs": [
        {
          "internalType": "uint256",
          "name": "",
          "type": "uint256"
        }
      ],
      "stateMutability": "view",
      "type": "function"
    },
    {
      "inputs": [
        {
          "internalType": "uint256",
          "name": "",
          "type": "uint256"
        }
      ],
      "name": "listExcludedFromReward",
      "outputs": [
        {
          "internalType": "address",
          "name": "",
          "type": "address"
        }
      ],
      "stateMutability": "view",
      "type": "function"
    },
    {
      "inputs": [],
      "name": "mainToken",
      "outputs": [
        {
          "internalType": "address",
          "name": "",
          "type": "address"
        }
      ],
      "stateMutability": "view",
      "type": "function"
    },
    {
      "inputs": [],
      "name": "minimumFrockToSwap",
      "outputs": [
        {
          "internalType": "uint256",
          "name": "",
          "type": "uint256"
        }
      ],
      "stateMutability": "view",
      "type": "function"
    },
    {
      "inputs": [],
      "name": "paused",
      "outputs": [
        {
          "internalType": "bool",
          "name": "",
          "type": "bool"
        }
      ],
      "stateMutability": "view",
      "type": "function"
    },
    {
      "inputs": [
        {
          "internalType": "address",
          "name": "tokenAddress",
          "type": "address"
        },
        {
          "internalType": "uint256",
          "name": "tokenAmount",
          "type": "uint256"
        }
      ],
      "name": "recoverERC20",
      "outputs": [],
      "stateMutability": "nonpayable",
      "type": "function"
    },
    {
      "inputs": [
        {
          "internalType": "bytes32",
          "name": "role",
          "type": "bytes32"
        },
        {
          "internalType": "address",
          "name": "account",
          "type": "address"
        }
      ],
      "name": "renounceRole",
      "outputs": [],
      "stateMutability": "nonpayable",
      "type": "function"
    },
    {
      "inputs": [
        {
          "internalType": "contract IERC20Upgradeable",
          "name": "tokenContract",
          "type": "address"
        },
        {
          "internalType": "address",
          "name": "to",
          "type": "address"
        },
        {
          "internalType": "uint256",
          "name": "amount",
          "type": "uint256"
        }
      ],
      "name": "rescueERC20",
      "outputs": [],
      "stateMutability": "nonpayable",
      "type": "function"
    },
    {
      "inputs": [
        {
          "internalType": "bytes32",
          "name": "role",
          "type": "bytes32"
        },
        {
          "internalType": "address",
          "name": "account",
          "type": "address"
        }
      ],
      "name": "revokeRole",
      "outputs": [],
      "stateMutability": "nonpayable",
      "type": "function"
    },
    {
      "inputs": [],
      "name": "rewardLength",
      "outputs": [
        {
          "internalType": "uint256",
          "name": "",
          "type": "uint256"
        }
      ],
      "stateMutability": "view",
      "type": "function"
    },
    {
      "inputs": [
        {
          "internalType": "uint256",
          "name": "",
          "type": "uint256"
        }
      ],
      "name": "rewards",
      "outputs": [
        {
          "internalType": "uint256",
          "name": "rewardAmount",
          "type": "uint256"
        },
        {
          "internalType": "uint256",
          "name": "totalClaimed",
          "type": "uint256"
        },
        {
          "internalType": "uint256",
          "name": "issuedAt",
          "type": "uint256"
        },
        {
          "internalType": "uint256",
          "name": "snapshotId",
          "type": "uint256"
        },
        {
          "internalType": "uint256",
          "name": "totalExcludedFromSupply",
          "type": "uint256"
        },
        {
          "internalType": "uint8",
          "name": "rewardSource",
          "type": "uint8"
        }
      ],
      "stateMutability": "view",
      "type": "function"
    },
    {
      "inputs": [
        {
          "internalType": "address",
          "name": "tokenAddress",
          "type": "address"
        }
      ],
      "name": "setMainToken",
      "outputs": [],
      "stateMutability": "nonpayable",
      "type": "function"
    },
    {
      "inputs": [
        {
          "internalType": "uint256",
          "name": "newMinimumFrockToSwap",
          "type": "uint256"
        }
      ],
      "name": "setMinimumFrockToSwap",
      "outputs": [],
      "stateMutability": "nonpayable",
      "type": "function"
    },
    {
      "inputs": [],
      "name": "shareReward",
      "outputs": [],
      "stateMutability": "payable",
      "type": "function"
    },
    {
      "inputs": [
        {
          "internalType": "bytes4",
          "name": "interfaceId",
          "type": "bytes4"
        }
      ],
      "name": "supportsInterface",
      "outputs": [
        {
          "internalType": "bool",
          "name": "",
          "type": "bool"
        }
      ],
      "stateMutability": "view",
      "type": "function"
    },
    {
      "inputs": [],
      "name": "swapAndShareReward",
      "outputs": [],
      "stateMutability": "nonpayable",
      "type": "function"
    },
    {
      "inputs": [],
      "name": "uniswapV2Router",
      "outputs": [
        {
          "internalType": "contract IUniswapV2Router02",
          "name": "",
          "type": "address"
        }
      ],
      "stateMutability": "view",
      "type": "function"
    },
    {
      "inputs": [
        {
          "internalType": "address",
          "name": "newImplementation",
          "type": "address"
        }
      ],
      "name": "upgradeTo",
      "outputs": [],
      "stateMutability": "nonpayable",
      "type": "function"
    },
    {
      "inputs": [
        {
          "internalType": "address",
          "name": "newImplementation",
          "type": "address"
        },
        {
          "internalType": "bytes",
          "name": "data",
          "type": "bytes"
        }
      ],
      "name": "upgradeToAndCall",
      "outputs": [],
      "stateMutability": "payable",
      "type": "function"
    },
    {
      "stateMutability": "payable",
      "type": "receive"
    }
  ],
  "transactionHash": "0x1f9f2a2bcead19fd376e2f37009c5a8af902028e2fae7f0e5d54b6da403dc7cd",
  "args": [],
  "solcInputHash": "c869ab13a682359a8a5563ac712a08d0",
  "bytecode": "0x60a06040523060601b60805234801561001757600080fd5b5060805160601c6131e661004b60003960008181610ce501528181610d2501528181610dae0152610dee01526131e66000f3fe6080604052600436106101fb5760003560e01c806380313d311161010c578063b2118a8d1161009a578063cb0968fa1161006c578063cb0968fa14610609578063d547741f14610629578063f301af4214610649578063f78bddf3146106cd578063fd21c125146106ed57005b8063b2118a8d14610592578063b854aca0146105b2578063b95c5746146105d2578063c760da04146105e957005b806388f82020116100de57806388f82020146104ec5780638980f11f1461051d57806391d148541461053d578063a217fddf1461055d578063ae169a501461057257005b806380313d31146104865780638129fc1c1461048e57806382b2e257146104a35780638580cf76146104b857005b806336568abe116101895780634f1ef2861161015b5780634f1ef286146103df5780635069b864146103f25780635c975abb1461042b5780635e732dd814610444578063713725441461046457005b806336568abe146103675780633659cfe6146103875780633fc15f15146103a75780634c95bc93146103c857005b80631694505e116101cd5780631694505e1461029e5780631a19aa40146102d7578063248a9ca3146102f757806327ce464e146103275780632f2ff15d1461034757005b806301ffc9a71461020457806308bf9922146102395780630958dbbc1461025e57806312065fe01461028b57005b3661020257005b005b34801561021057600080fd5b5061022461021f366004612cd2565b610702565b60405190151581526020015b60405180910390f35b34801561024557600080fd5b506102506101645481565b604051908152602001610230565b34801561026a57600080fd5b5061027e610279366004612bce565b610748565b6040516102309190612de7565b34801561029757600080fd5b5047610250565b3480156102aa57600080fd5b50610161546102bf906001600160a01b031681565b6040516001600160a01b039091168152602001610230565b3480156102e357600080fd5b506102506102f2366004612a6b565b6108f9565b34801561030357600080fd5b50610250610312366004612c94565b600090815260c9602052604090206001015490565b34801561033357600080fd5b50610202610342366004612a6b565b610bc9565b34801561035357600080fd5b50610202610362366004612cad565b610c2c565b34801561037357600080fd5b50610202610382366004612cad565b610c57565b34801561039357600080fd5b506102026103a2366004612a6b565b610cda565b3480156103b357600080fd5b50610165546102bf906001600160a01b031681565b3480156103d457600080fd5b506102506101625481565b6102026103ed366004612ade565b610da3565b3480156103fe57600080fd5b5061025061040d366004612bce565b61016760209081526000928352604080842090915290825290205481565b34801561043757600080fd5b5061012d5460ff16610224565b34801561045057600080fd5b5061020261045f366004612c94565b610e59565b34801561047057600080fd5b5061025060008051602061316a83398151915281565b610202610e9b565b34801561049a57600080fd5b50610202610f13565b3480156104af57600080fd5b50610250611006565b3480156104c457600080fd5b506102507f5a8bfb9223d93ad39e310233fff7bc65227887789e6e83c62b12f0dfdd782ec381565b3480156104f857600080fd5b50610224610507366004612a6b565b6101666020526000908152604090205460ff1681565b34801561052957600080fd5b50610202610538366004612ba2565b611088565b34801561054957600080fd5b50610224610558366004612cad565b6110b5565b34801561056957600080fd5b50610250600081565b34801561057e57600080fd5b5061020261058d366004612c94565b6110e0565b34801561059e57600080fd5b506102026105ad366004612cfc565b611260565b3480156105be57600080fd5b506102026105cd366004612aa5565b611293565b3480156105de57600080fd5b506102506101635481565b3480156105f557600080fd5b50610202610604366004612c02565b611319565b34801561061557600080fd5b506102bf610624366004612c94565b61143a565b34801561063557600080fd5b50610202610644366004612cad565b611465565b34801561065557600080fd5b5061069d610664366004612c94565b61015f60205260009081526040902080546001820154600283015460038401546004850154600590950154939492939192909160ff1686565b604080519687526020870195909552938501929092526060840152608083015260ff1660a082015260c001610230565b3480156106d957600080fd5b506102506106e8366004612bce565b61148b565b3480156106f957600080fd5b50610202611520565b60006001600160e01b03198216637965db0b60e01b148061073357506001600160e01b03198216630ae169a560e41b145b80610742575061074282611627565b92915050565b606060006101635467ffffffffffffffff81111561076857610768613130565b604051908082528060200260200182016040528015610791578160200160208202803683370190505b5090506000805b6101635481101561085357600081815261015f602052604090206005015460ff90811690861681141561084057600082815261015f602090815260408083206001600160a01b038b1684526007810183528184205460069091019092529091205460ff91821691168115801561080c575080155b1561083d57838686815181106108245761082461311a565b602090810291909101015284610839816130b3565b9550505b50505b508061084b816130b3565b915050610798565b5060008167ffffffffffffffff81111561086f5761086f613130565b604051908082528060200260200182016040528015610898578160200160208202803683370190505b50905060005b828110156108ef578381815181106108b8576108b861311a565b60200260200101518282815181106108d2576108d261311a565b6020908102919091010152806108e7816130b3565b91505061089e565b5095945050505050565b6001600160a01b0381166000908152610166602052604081205460ff16610bc157610165546040805163020debef60e61b815290516000926001600160a01b03169163837afbc0916004808301926020929190829003018186803b15801561096057600080fd5b505afa158015610974573d6000803e3d6000fd5b505050506040513d601f19601f820116820180604052508101906109989190612d3d565b6101655460405163277166bf60e11b81526001600160a01b0386811660048301526024820184905292935060009290911690634ee2cd7e9060440160206040518083038186803b1580156109eb57600080fd5b505afa1580156109ff573d6000803e3d6000fd5b505050506040513d601f19601f82011682018060405250810190610a239190612d3d565b61016554604051630981b24d60e41b8152600481018590529192506000916001600160a01b039091169063981b24d09060240160206040518083038186803b158015610a6e57600080fd5b505afa158015610a82573d6000803e3d6000fd5b505050506040513d601f19601f82011682018060405250810190610aa69190612d3d565b90506000610ab2611006565b90506000805b61016054811015610b97576101655461016080546001600160a01b0390921691634ee2cd7e919084908110610aef57610aef61311a565b60009182526020909120015460405160e083901b6001600160e01b03191681526001600160a01b0390911660048201526024810189905260440160206040518083038186803b158015610b4157600080fd5b505afa158015610b55573d6000803e3d6000fd5b505050506040513d601f19601f82011682018060405250810190610b799190612d3d565b610b839083613000565b915080610b8f816130b3565b915050610ab8565b50610ba28184613059565b610bac858461303a565b610bb69190613018565b979650505050505050565b506000919050565b6000610bd5813361165c565b61016580546001600160a01b0319166001600160a01b0384169081179091556040519081527fd68271512da4c3278e5f7e25443d78b7221df5389d259a6fbdc569f5b020e54d906020015b60405180910390a15050565b600082815260c96020526040902060010154610c48813361165c565b610c5283836116c0565b505050565b6001600160a01b0381163314610ccc5760405162461bcd60e51b815260206004820152602f60248201527f416363657373436f6e74726f6c3a2063616e206f6e6c792072656e6f756e636560448201526e103937b632b9903337b91039b2b63360891b60648201526084015b60405180910390fd5b610cd68282611746565b5050565b306001600160a01b037f0000000000000000000000000000000000000000000000000000000000000000161415610d235760405162461bcd60e51b8152600401610cc390612e5e565b7f00000000000000000000000000000000000000000000000000000000000000006001600160a01b0316610d556117ad565b6001600160a01b031614610d7b5760405162461bcd60e51b8152600401610cc390612eaa565b610d84816117e0565b60408051600080825260208201909252610da0918391906118a9565b50565b306001600160a01b037f0000000000000000000000000000000000000000000000000000000000000000161415610dec5760405162461bcd60e51b8152600401610cc390612e5e565b7f00000000000000000000000000000000000000000000000000000000000000006001600160a01b0316610e1e6117ad565b6001600160a01b031614610e445760405162461bcd60e51b8152600401610cc390612eaa565b610e4d826117e0565b610cd6828260016118a9565b6000610e65813361165c565b6101648290556040518281527fee2f6e6e29939099157785f376fdb1a1a49dff6b9ac02f7e6ee4797ecfd49f7190602001610c20565b7f5a8bfb9223d93ad39e310233fff7bc65227887789e6e83c62b12f0dfdd782ec3610ec6813361165c565b60003411610f085760405162461bcd60e51b815260206004820152600f60248201526e11110e881393d7d1551217d4d15395608a1b6044820152606401610cc3565b610da03460016119f4565b600054610100900460ff16610f2e5760005460ff1615610f32565b303b155b610f4e5760405162461bcd60e51b8152600401610cc390612ef6565b600054610100900460ff16158015610f70576000805461ffff19166101011790555b610f78611c5c565b610f80611c5c565b610f88611c85565b610f90611d01565b610f9b600033611d35565b610fb360008051602061316a83398151915233611d35565b64e8d4a510006101645561016180546001600160a01b03191673f491e7b69e4244ad4002bc14e878a34207e38c29179055610165805460ff60a01b191690558015610da0576000805461ff001916905550565b610165546040516370a0823160e01b81523060048201526000916001600160a01b0316906370a082319060240160206040518083038186803b15801561104b57600080fd5b505afa15801561105f573d6000803e3d6000fd5b505050506040513d601f19601f820116820180604052508101906110839190612d3d565b905090565b60008051602061316a8339815191526110a1813361165c565b610c526001600160a01b0384163384611d3f565b600091825260c9602090815260408084206001600160a01b0393909316845291905290205460ff1690565b600081815261015f60205260409020600201546111375760405162461bcd60e51b815260206004820152601560248201527444443a205245574152445f4e4f545f45584953545360581b6044820152606401610cc3565b600081815261015f6020908152604080832033845260060190915290205460ff16156111a55760405162461bcd60e51b815260206004820152601860248201527f44443a204e4f545f414c4c4f5745445f544f5f434c41494d00000000000000006044820152606401610cc3565b600081815261015f6020908152604080832033845260070190915290205460ff161561120c5760405162461bcd60e51b815260206004820152601660248201527511110e88149155d0549117d21054d7d0d3105253515160521b6044820152606401610cc3565b60006112188233611d91565b9050611225335b82611e8b565b604051818152339083907f3c9b0efd2967a5b39ada6ae8672433baffccdaa48a527ea0c7659336bed9ff0e9060200160405180910390a35050565b60008051602061316a833981519152611279813361165c565b61128d6001600160a01b0385168484611d3f565b50505050565b600061129f813361165c565b6001600160a01b0383166000908152610166602052604090205460ff161515821515141561130f5760405162461bcd60e51b815260206004820152601860248201527f43616e6e6f742073657420746f2073616d6520737461746500000000000000006044820152606401610cc3565b610c528383611f48565b6000805b8281101561142a5760008484838181106113395761133961311a565b90506020020135905061135e81600090815261015f6020526040902060020154151590565b80156113885750600081815261015f6020908152604080832033845260060190915290205460ff16155b80156113b25750600081815261015f6020908152604080832033845260070190915290205460ff16155b156114175760006113c38233611d91565b90506113cf8185613000565b9350336001600160a01b0316827f3c9b0efd2967a5b39ada6ae8672433baffccdaa48a527ea0c7659336bed9ff0e8360405161140d91815260200190565b60405180910390a3505b5080611422816130b3565b91505061131d565b508015610c5257610c523361121f565b610160818154811061144b57600080fd5b6000918252602090912001546001600160a01b0316905081565b600082815260c96020526040902060010154611481813361165c565b610c528383611746565b6000806114988484610748565b905060005b81518110156115185760008282815181106114ba576114ba61311a565b602090810291909101810151600081815261015f909252604082206003810154600482015491549294506114f1929091908a612149565b9250505080856115019190613000565b945050508080611510906130b3565b91505061149d565b505092915050565b7f5a8bfb9223d93ad39e310233fff7bc65227887789e6e83c62b12f0dfdd782ec361154b813361165c565b610165546001600160a01b03166115a45760405162461bcd60e51b815260206004820152601a60248201527f4444203a204d41494e5f544f4b454e5f4e4f545f5345545445440000000000006044820152606401610cc3565b60006115ae611006565b9050610164548110156116035760405162461bcd60e51b815260206004820152601a60248201527f44443a20524551554952454d454e545f4e4f545f5041535345440000000000006044820152606401610cc3565b42610162554761161282612284565b4761128d6116208383613059565b60006119f4565b60006001600160e01b03198216637965db0b60e01b148061074257506301ffc9a760e01b6001600160e01b0319831614610742565b61166682826110b5565b610cd65761167e816001600160a01b03166014612491565b611689836020612491565b60405160200161169a929190612d72565b60408051601f198184030181529082905262461bcd60e51b8252610cc391600401612e2b565b6116ca82826110b5565b610cd657600082815260c9602090815260408083206001600160a01b03851684529091529020805460ff191660011790556117023390565b6001600160a01b0316816001600160a01b0316837f2f8788117e7eff1d82e926ec794901d17c78024a50270940304540a733656f0d60405160405180910390a45050565b61175082826110b5565b15610cd657600082815260c9602090815260408083206001600160a01b0385168085529252808320805460ff1916905551339285917ff6391f5c32d9c69d2a47ea670b442974b53935d1edc7fd64eb21e047a839171b9190a45050565b60007f360894a13ba1a3210667c828492db98dca3e2076cc3735a920a3ca505d382bbc5b546001600160a01b0316919050565b6001600160a01b0381166118365760405162461bcd60e51b815260206004820152601c60248201527f5374616b696e673a2043616e6e6f74207a65726f2061646472657373000000006044820152606401610cc3565b61183e612634565b6001600160a01b0316336001600160a01b031614610da05760405162461bcd60e51b815260206004820152602260248201527f5374616b696e673a204e6f7420746865204f776e6572206f6620436f6e74726160448201526118dd60f21b6064820152608401610cc3565b60006118b36117ad565b90506118be8461265c565b6000835111806118cb5750815b156118dc576118da8484612701565b505b7f4910fdfa16fed3260ed0e7147f7cc6da11a60208b5b9406d12a635614ffd9143805460ff166119ed57805460ff191660011781556040516001600160a01b038316602482015261195b90869060440160408051601f198184030181529190526020810180516001600160e01b0316631b2ce7f360e11b179052612701565b50805460ff1916815561196c6117ad565b6001600160a01b0316826001600160a01b0316146119e45760405162461bcd60e51b815260206004820152602f60248201527f45524331393637557067726164653a207570677261646520627265616b73206660448201526e75727468657220757067726164657360881b6064820152608401610cc3565b6119ed856127ec565b5050505050565b6101655460408051634b88b8ad60e11b815290516000926001600160a01b031691639711715a91600480830192602092919082900301818787803b158015611a3b57600080fd5b505af1158015611a4f573d6000803e3d6000fd5b505050506040513d601f19601f82011682018060405250810190611a739190612d3d565b61016354600081815261015f60205260408120868155600181018290554260028201556003810184905560058101805460ff191660ff8816179055929350909190805b6101605460ff82161015611bec5760018360060160006101608460ff1681548110611ae357611ae361311a565b6000918252602080832091909101546001600160a01b0390811684529083019390935260409091019020805460ff1916921515929092179091556101655461016080549190921691634ee2cd7e9160ff8516908110611b4457611b4461311a565b60009182526020909120015460405160e083901b6001600160e01b03191681526001600160a01b0390911660048201526024810188905260440160206040518083038186803b158015611b9657600080fd5b505afa158015611baa573d6000803e3d6000fd5b505050506040513d601f19601f82011682018060405250810190611bce9190612d3d565b611bd89083613000565b915080611be4816130ce565b915050611ab6565b50600482018190556101638054906000611c05836130b3565b9091555050604080518481526020810188905290810185905260ff861660608201527f780c4077e0f47c1bd199622faa6862dfe04eb5f7ba9a003763251c9f411e64bc9060800160405180910390a1505050505050565b600054610100900460ff16611c835760405162461bcd60e51b8152600401610cc390612f44565b565b600054610100900460ff16611ca05760005460ff1615611ca4565b303b155b611cc05760405162461bcd60e51b8152600401610cc390612ef6565b600054610100900460ff16158015611ce2576000805461ffff19166101011790555b611ced600033611d35565b8015610da0576000805461ff001916905550565b600054610100900460ff16611d285760405162461bcd60e51b8152600401610cc390612f44565b61012d805460ff19169055565b610cd682826116c0565b604080516001600160a01b038416602482015260448082018490528251808303909101815260649091019091526020810180516001600160e01b031663a9059cbb60e01b179052610c5290849061282c565b600082815261015f6020526040812060038101546004820154825484928392611dba9288612149565b925050915060008211611e025760405162461bcd60e51b815260206004820152601060248201526f22221d102727aa2fa0afa427a62222a960811b6044820152606401610cc3565b6001600160a01b03851660009081526007840160205260408120805460ff1916600190811790915584018054839290611e3c908490613000565b90915550506001600160a01b038516600090815261016760209081526040808320600587015460ff16845290915281208054839290611e7c908490613000565b90915550909695505050505050565b604080516000808252602082019092526001600160a01b038416908390604051611eb59190612d56565b60006040518083038185875af1925050503d8060008114611ef2576040519150601f19603f3d011682016040523d82523d6000602084013e611ef7565b606091505b5050905080610c525760405162461bcd60e51b815260206004820152601760248201527f44443a204554485f5452414e534645525f4641494c45440000000000000000006044820152606401610cc3565b6001600160a01b038216600090815261016660205260409020805460ff19168215801591909117909155611fc75761016080546001810182556000919091527fec7e130cdeeae65215fabbcddb1de429e603c4887cc659532eda903e493396630180546001600160a01b0319166001600160a01b038416179055612100565b60005b610160548110156120fe57826001600160a01b03166101608281548110611ff357611ff361311a565b6000918252602090912001546001600160a01b031614156120ec576101605461201e90600190613059565b81141561205e5761016080548061203757612037613104565b600082815260209020810160001990810180546001600160a01b03191690550190556120fe565b610160805461206f90600190613059565b8154811061207f5761207f61311a565b60009182526020909120015461016080546001600160a01b0390921691839081106120ac576120ac61311a565b9060005260206000200160006101000a8154816001600160a01b0302191690836001600160a01b0316021790555061016080548061203757612037613104565b806120f6816130b3565b915050611fca565b505b816001600160a01b03167f1a2b936d526a67236c009e4ae88154b6373714f26c627ecef5afcd5d62c0536b8260405161213d911515815260200190565b60405180910390a25050565b6101655460405163277166bf60e11b81526001600160a01b038381166004830152602482018790526000928392839290911690634ee2cd7e9060440160206040518083038186803b15801561219d57600080fd5b505afa1580156121b1573d6000803e3d6000fd5b505050506040513d601f19601f820116820180604052508101906121d59190612d3d565b61016554604051630981b24d60e41b8152600481018a905291945087916001600160a01b039091169063981b24d09060240160206040518083038186803b15801561221f57600080fd5b505afa158015612233573d6000803e3d6000fd5b505050506040513d601f19601f820116820180604052508101906122579190612d3d565b6122619190613059565b91508161226e848761303a565b6122789190613018565b90509450945094915050565b610165805460ff60a01b1916600160a01b17905560408051600280825260608201835260009260208301908036833750506101655482519293506001600160a01b0316918391506000906122da576122da61311a565b6001600160a01b0392831660209182029290920181019190915261016154604080516315ab88c960e31b81529051919093169263ad5c4648926004808301939192829003018186803b15801561232f57600080fd5b505afa158015612343573d6000803e3d6000fd5b505050506040513d601f19601f820116820180604052508101906123679190612a88565b8160018151811061237a5761237a61311a565b6001600160a01b039283166020918202929092010152610165546101615460405163095ea7b360e01b815290831660048201526024810185905291169063095ea7b390604401602060405180830381600087803b1580156123da57600080fd5b505af11580156123ee573d6000803e3d6000fd5b505050506040513d601f19601f820116820180604052508101906124129190612c77565b506101615460405163791ac94760e01b81526001600160a01b039091169063791ac9479061244d908590600090869030904290600401612f8f565b600060405180830381600087803b15801561246757600080fd5b505af115801561247b573d6000803e3d6000fd5b5050610165805460ff60a01b1916905550505050565b606060006124a083600261303a565b6124ab906002613000565b67ffffffffffffffff8111156124c3576124c3613130565b6040519080825280601f01601f1916602001820160405280156124ed576020820181803683370190505b509050600360fc1b816000815181106125085761250861311a565b60200101906001600160f81b031916908160001a905350600f60fb1b816001815181106125375761253761311a565b60200101906001600160f81b031916908160001a905350600061255b84600261303a565b612566906001613000565b90505b60018111156125de576f181899199a1a9b1b9c1cb0b131b232b360811b85600f166010811061259a5761259a61311a565b1a60f81b8282815181106125b0576125b061311a565b60200101906001600160f81b031916908160001a90535060049490941c936125d78161309c565b9050612569565b50831561262d5760405162461bcd60e51b815260206004820181905260248201527f537472696e67733a20686578206c656e67746820696e73756666696369656e746044820152606401610cc3565b9392505050565b60007fb53127684a568b3173ae13b9f8a6016e243e63b6e8ee1178d6a717850b5d61036117d1565b803b6126c05760405162461bcd60e51b815260206004820152602d60248201527f455243313936373a206e657720696d706c656d656e746174696f6e206973206e60448201526c1bdd08184818dbdb9d1c9858dd609a1b6064820152608401610cc3565b7f360894a13ba1a3210667c828492db98dca3e2076cc3735a920a3ca505d382bbc80546001600160a01b0319166001600160a01b0392909216919091179055565b6060823b6127605760405162461bcd60e51b815260206004820152602660248201527f416464726573733a2064656c65676174652063616c6c20746f206e6f6e2d636f6044820152651b9d1c9858dd60d21b6064820152608401610cc3565b600080846001600160a01b03168460405161277b9190612d56565b600060405180830381855af49150503d80600081146127b6576040519150601f19603f3d011682016040523d82523d6000602084013e6127bb565b606091505b50915091506127e3828260405180606001604052806027815260200161318a602791396128fe565b95945050505050565b6127f58161265c565b6040516001600160a01b038216907fbc7cd75a20ee27fd9adebab32041f755214dbc6bffa90cc0225b39da2e5c2d3b90600090a250565b6000612881826040518060400160405280602081526020017f5361666545524332303a206c6f772d6c6576656c2063616c6c206661696c6564815250856001600160a01b03166129379092919063ffffffff16565b805190915015610c52578080602001905181019061289f9190612c77565b610c525760405162461bcd60e51b815260206004820152602a60248201527f5361666545524332303a204552433230206f7065726174696f6e20646964206e6044820152691bdd081cdd58d8d9595960b21b6064820152608401610cc3565b6060831561290d57508161262d565b82511561291d5782518084602001fd5b8160405162461bcd60e51b8152600401610cc39190612e2b565b6060612946848460008561294e565b949350505050565b6060824710156129af5760405162461bcd60e51b815260206004820152602660248201527f416464726573733a20696e73756666696369656e742062616c616e636520666f6044820152651c8818d85b1b60d21b6064820152608401610cc3565b843b6129fd5760405162461bcd60e51b815260206004820152601d60248201527f416464726573733a2063616c6c20746f206e6f6e2d636f6e74726163740000006044820152606401610cc3565b600080866001600160a01b03168587604051612a199190612d56565b60006040518083038185875af1925050503d8060008114612a56576040519150601f19603f3d011682016040523d82523d6000602084013e612a5b565b606091505b5091509150610bb68282866128fe565b600060208284031215612a7d57600080fd5b813561262d81613146565b600060208284031215612a9a57600080fd5b815161262d81613146565b60008060408385031215612ab857600080fd5b8235612ac381613146565b91506020830135612ad38161315b565b809150509250929050565b60008060408385031215612af157600080fd5b8235612afc81613146565b9150602083013567ffffffffffffffff80821115612b1957600080fd5b818501915085601f830112612b2d57600080fd5b813581811115612b3f57612b3f613130565b604051601f8201601f19908116603f01168101908382118183101715612b6757612b67613130565b81604052828152886020848701011115612b8057600080fd5b8260208601602083013760006020848301015280955050505050509250929050565b60008060408385031215612bb557600080fd5b8235612bc081613146565b946020939093013593505050565b60008060408385031215612be157600080fd5b8235612bec81613146565b9150602083013560ff81168114612ad357600080fd5b60008060208385031215612c1557600080fd5b823567ffffffffffffffff80821115612c2d57600080fd5b818501915085601f830112612c4157600080fd5b813581811115612c5057600080fd5b8660208260051b8501011115612c6557600080fd5b60209290920196919550909350505050565b600060208284031215612c8957600080fd5b815161262d8161315b565b600060208284031215612ca657600080fd5b5035919050565b60008060408385031215612cc057600080fd5b823591506020830135612ad381613146565b600060208284031215612ce457600080fd5b81356001600160e01b03198116811461262d57600080fd5b600080600060608486031215612d1157600080fd5b8335612d1c81613146565b92506020840135612d2c81613146565b929592945050506040919091013590565b600060208284031215612d4f57600080fd5b5051919050565b60008251612d68818460208701613070565b9190910192915050565b7f416363657373436f6e74726f6c3a206163636f756e7420000000000000000000815260008351612daa816017850160208801613070565b7001034b99036b4b9b9b4b733903937b6329607d1b6017918401918201528351612ddb816028840160208801613070565b01602801949350505050565b6020808252825182820181905260009190848201906040850190845b81811015612e1f57835183529284019291840191600101612e03565b50909695505050505050565b6020815260008251806020840152612e4a816040850160208701613070565b601f01601f19169190910160400192915050565b6020808252602c908201527f46756e6374696f6e206d7573742062652063616c6c6564207468726f7567682060408201526b19195b1959d85d1958d85b1b60a21b606082015260800190565b6020808252602c908201527f46756e6374696f6e206d7573742062652063616c6c6564207468726f7567682060408201526b6163746976652070726f787960a01b606082015260800190565b6020808252602e908201527f496e697469616c697a61626c653a20636f6e747261637420697320616c72656160408201526d191e481a5b9a5d1a585b1a5e995960921b606082015260800190565b6020808252602b908201527f496e697469616c697a61626c653a20636f6e7472616374206973206e6f74206960408201526a6e697469616c697a696e6760a81b606082015260800190565b600060a082018783526020878185015260a0604085015281875180845260c086019150828901935060005b81811015612fdf5784516001600160a01b031683529383019391830191600101612fba565b50506001600160a01b03969096166060850152505050608001529392505050565b60008219821115613013576130136130ee565b500190565b60008261303557634e487b7160e01b600052601260045260246000fd5b500490565b6000816000190483118215151615613054576130546130ee565b500290565b60008282101561306b5761306b6130ee565b500390565b60005b8381101561308b578181015183820152602001613073565b8381111561128d5750506000910152565b6000816130ab576130ab6130ee565b506000190190565b60006000198214156130c7576130c76130ee565b5060010190565b600060ff821660ff8114156130e5576130e56130ee565b60010192915050565b634e487b7160e01b600052601160045260246000fd5b634e487b7160e01b600052603160045260246000fd5b634e487b7160e01b600052603260045260246000fd5b634e487b7160e01b600052604160045260246000fd5b6001600160a01b0381168114610da057600080fd5b8015158114610da057600080fdfecf6f9f892731e14b8859835f2ff35575f447fb501f46243c4eb8bac19e31a050416464726573733a206c6f772d6c6576656c2064656c65676174652063616c6c206661696c6564a2646970667358221220c6642fd073d95d5e0287fc904218a5aafcc15e0de7f6fbbbedcf5892f3e2101d64736f6c63430008050033",
  "devdoc": {
    "kind": "dev",
    "methods": {
      "batchClaimReward(uint256[])": {
        "details": "to claim multiple reward at once"
      },
      "buildingTradeDividendOfHolder(address)": {
        "details": "get total amount of building trade dividenonly calculate for reward that coming from swapAndShareReward function"
      },
      "excludedFromReward(address,bool)": {
        "details": "to Exclude address from reward distribution"
      },
      "getBalance()": {
        "details": "get total amount of FTM that owned by this contract"
      },
      "getRewardIdsUnclaimed(address,uint8)": {
        "details": "Get list if reward id that not yet claimed by holder",
        "params": {
          "holder": "is holder's address ",
          "rewardSource": "0 => Reward that coming from swapAndShareReward, 1 => Reward that coming from  shareReward"
        }
      },
      "getRoleAdmin(bytes32)": {
        "details": "Returns the admin role that controls `role`. See {grantRole} and {revokeRole}. To change a role's admin, use {_setRoleAdmin}."
      },
      "getTokenBalance()": {
        "details": "get total amount of frock that owned by this contract"
      },
      "getTotalUnclaimedReward(address,uint8)": {
        "details": "Get total amount of reward that not yet claimed by holder",
        "params": {
          "holder": "is holder's address ",
          "rewardSource": "0 => Reward that coming from swapAndShareReward, 1 => Reward that coming from  shareReward"
        }
      },
      "grantRole(bytes32,address)": {
        "details": "Grants `role` to `account`. If `account` had not been already granted `role`, emits a {RoleGranted} event. Requirements: - the caller must have ``role``'s admin role."
      },
      "hasRole(bytes32,address)": {
        "details": "Returns `true` if `account` has been granted `role`."
      },
      "paused()": {
        "details": "Returns true if the contract is paused, and false otherwise."
      },
      "recoverERC20(address,uint256)": {
        "params": {
          "tokenAddress": "ERC20 token contract address",
          "tokenAmount": "Amount to recover"
        }
      },
      "renounceRole(bytes32,address)": {
        "details": "Revokes `role` from the calling account. Roles are often managed via {grantRole} and {revokeRole}: this function's purpose is to provide a mechanism for accounts to lose their privileges if they are compromised (such as when a trusted device is misplaced). If the calling account had been revoked `role`, emits a {RoleRevoked} event. Requirements: - the caller must be `account`."
      },
      "rescueERC20(address,address,uint256)": {
        "params": {
          "amount": "Amount to rescue",
          "to": "Recipient address",
          "tokenContract": "ERC20 token contract address"
        }
      },
      "revokeRole(bytes32,address)": {
        "details": "Revokes `role` from `account`. If `account` had been granted `role`, emits a {RoleRevoked} event. Requirements: - the caller must have ``role``'s admin role."
      },
      "setMainToken(address)": {
        "details": "set main token (frock token) address"
      },
      "supportsInterface(bytes4)": {
        "details": "See {IERC165-supportsInterface}."
      },
      "upgradeTo(address)": {
        "details": "Upgrade the implementation of the proxy to `newImplementation`. Calls {_authorizeUpgrade}. Emits an {Upgraded} event."
      },
      "upgradeToAndCall(address,bytes)": {
        "details": "Upgrade the implementation of the proxy to `newImplementation`, and subsequently execute the function call encoded in `data`. Calls {_authorizeUpgrade}. Emits an {Upgraded} event."
      }
    },
    "version": 1
  },
  "userdoc": {
    "kind": "user",
    "methods": {
      "recoverERC20(address,uint256)": {
        "notice": "Recover ERC20 tokens locked up in this contract."
      },
      "rescueERC20(address,address,uint256)": {
        "notice": "Rescue ERC20 tokens locked up in this contract."
      }
    },
    "version": 1
  },
  "storageLayout": {
    "storage": [
      {
        "astId": 824,
        "contract": "contracts/DividenDistributor/DividenDistributorV1.sol:DividenDistributorV1",
        "label": "_initialized",
        "offset": 0,
        "slot": "0",
        "type": "t_bool"
      },
      {
        "astId": 827,
        "contract": "contracts/DividenDistributor/DividenDistributorV1.sol:DividenDistributorV1",
        "label": "_initializing",
        "offset": 1,
        "slot": "0",
        "type": "t_bool"
      },
      {
        "astId": 806,
        "contract": "contracts/DividenDistributor/DividenDistributorV1.sol:DividenDistributorV1",
        "label": "__gap",
        "offset": 0,
        "slot": "1",
        "type": "t_array(t_uint256)50_storage"
      },
      {
        "astId": 1001,
        "contract": "contracts/DividenDistributor/DividenDistributorV1.sol:DividenDistributorV1",
        "label": "__gap",
        "offset": 0,
        "slot": "51",
        "type": "t_array(t_uint256)50_storage"
      },
      {
        "astId": 3150,
        "contract": "contracts/DividenDistributor/DividenDistributorV1.sol:DividenDistributorV1",
        "label": "__gap",
        "offset": 0,
        "slot": "101",
        "type": "t_array(t_uint256)50_storage"
      },
      {
        "astId": 4072,
        "contract": "contracts/DividenDistributor/DividenDistributorV1.sol:DividenDistributorV1",
        "label": "__gap",
        "offset": 0,
        "slot": "151",
        "type": "t_array(t_uint256)50_storage"
      },
      {
        "astId": 48,
        "contract": "contracts/DividenDistributor/DividenDistributorV1.sol:DividenDistributorV1",
        "label": "_roles",
        "offset": 0,
        "slot": "201",
        "type": "t_mapping(t_bytes32,t_struct(RoleData)43_storage)"
      },
      {
        "astId": 335,
        "contract": "contracts/DividenDistributor/DividenDistributorV1.sol:DividenDistributorV1",
        "label": "__gap",
        "offset": 0,
        "slot": "202",
        "type": "t_array(t_uint256)49_storage"
      },
      {
        "astId": 6900,
        "contract": "contracts/DividenDistributor/DividenDistributorV1.sol:DividenDistributorV1",
        "label": "__gap",
        "offset": 0,
        "slot": "251",
        "type": "t_array(t_uint256)50_storage"
      },
      {
        "astId": 1023,
        "contract": "contracts/DividenDistributor/DividenDistributorV1.sol:DividenDistributorV1",
        "label": "_paused",
        "offset": 0,
        "slot": "301",
        "type": "t_bool"
      },
      {
        "astId": 1114,
        "contract": "contracts/DividenDistributor/DividenDistributorV1.sol:DividenDistributorV1",
        "label": "__gap",
        "offset": 0,
        "slot": "302",
        "type": "t_array(t_uint256)49_storage"
      },
      {
        "astId": 5576,
        "contract": "contracts/DividenDistributor/DividenDistributorV1.sol:DividenDistributorV1",
        "label": "rewards",
        "offset": 0,
        "slot": "351",
        "type": "t_mapping(t_uint256,t_struct(Reward)5571_storage)"
      },
      {
        "astId": 5579,
        "contract": "contracts/DividenDistributor/DividenDistributorV1.sol:DividenDistributorV1",
        "label": "listExcludedFromReward",
        "offset": 0,
        "slot": "352",
        "type": "t_array(t_address)dyn_storage"
      },
      {
        "astId": 5582,
        "contract": "contracts/DividenDistributor/DividenDistributorV1.sol:DividenDistributorV1",
        "label": "uniswapV2Router",
        "offset": 0,
        "slot": "353",
        "type": "t_contract(IUniswapV2Router02)6803"
      },
      {
        "astId": 5584,
        "contract": "contracts/DividenDistributor/DividenDistributorV1.sol:DividenDistributorV1",
        "label": "lastRewardShare",
        "offset": 0,
        "slot": "354",
        "type": "t_uint256"
      },
      {
        "astId": 5586,
        "contract": "contracts/DividenDistributor/DividenDistributorV1.sol:DividenDistributorV1",
        "label": "rewardLength",
        "offset": 0,
        "slot": "355",
        "type": "t_uint256"
      },
      {
        "astId": 5588,
        "contract": "contracts/DividenDistributor/DividenDistributorV1.sol:DividenDistributorV1",
        "label": "minimumFrockToSwap",
        "offset": 0,
        "slot": "356",
        "type": "t_uint256"
      },
      {
        "astId": 5590,
        "contract": "contracts/DividenDistributor/DividenDistributorV1.sol:DividenDistributorV1",
        "label": "mainToken",
        "offset": 0,
        "slot": "357",
        "type": "t_address"
      },
      {
        "astId": 5592,
        "contract": "contracts/DividenDistributor/DividenDistributorV1.sol:DividenDistributorV1",
        "label": "inSwap",
        "offset": 20,
        "slot": "357",
        "type": "t_bool"
      },
      {
        "astId": 5601,
        "contract": "contracts/DividenDistributor/DividenDistributorV1.sol:DividenDistributorV1",
        "label": "isExcludedFromReward",
        "offset": 0,
        "slot": "358",
        "type": "t_mapping(t_address,t_bool)"
      },
      {
        "astId": 5607,
        "contract": "contracts/DividenDistributor/DividenDistributorV1.sol:DividenDistributorV1",
        "label": "holderToTotalClaimed",
        "offset": 0,
        "slot": "359",
        "type": "t_mapping(t_address,t_mapping(t_uint8,t_uint256))"
      }
    ],
    "types": {
      "t_address": {
        "encoding": "inplace",
        "label": "address",
        "numberOfBytes": "20"
      },
      "t_array(t_address)dyn_storage": {
        "base": "t_address",
        "encoding": "dynamic_array",
        "label": "address[]",
        "numberOfBytes": "32"
      },
      "t_array(t_uint256)49_storage": {
        "base": "t_uint256",
        "encoding": "inplace",
        "label": "uint256[49]",
        "numberOfBytes": "1568"
      },
      "t_array(t_uint256)50_storage": {
        "base": "t_uint256",
        "encoding": "inplace",
        "label": "uint256[50]",
        "numberOfBytes": "1600"
      },
      "t_bool": {
        "encoding": "inplace",
        "label": "bool",
        "numberOfBytes": "1"
      },
      "t_bytes32": {
        "encoding": "inplace",
        "label": "bytes32",
        "numberOfBytes": "32"
      },
      "t_contract(IUniswapV2Router02)6803": {
        "encoding": "inplace",
        "label": "contract IUniswapV2Router02",
        "numberOfBytes": "20"
      },
      "t_mapping(t_address,t_bool)": {
        "encoding": "mapping",
        "key": "t_address",
        "label": "mapping(address => bool)",
        "numberOfBytes": "32",
        "value": "t_bool"
      },
      "t_mapping(t_address,t_mapping(t_uint8,t_uint256))": {
        "encoding": "mapping",
        "key": "t_address",
        "label": "mapping(address => mapping(uint8 => uint256))",
        "numberOfBytes": "32",
        "value": "t_mapping(t_uint8,t_uint256)"
      },
      "t_mapping(t_bytes32,t_struct(RoleData)43_storage)": {
        "encoding": "mapping",
        "key": "t_bytes32",
        "label": "mapping(bytes32 => struct AccessControlUpgradeable.RoleData)",
        "numberOfBytes": "32",
        "value": "t_struct(RoleData)43_storage"
      },
      "t_mapping(t_uint256,t_struct(Reward)5571_storage)": {
        "encoding": "mapping",
        "key": "t_uint256",
        "label": "mapping(uint256 => struct DividenDistributorV1.Reward)",
        "numberOfBytes": "32",
        "value": "t_struct(Reward)5571_storage"
      },
      "t_mapping(t_uint8,t_uint256)": {
        "encoding": "mapping",
        "key": "t_uint8",
        "label": "mapping(uint8 => uint256)",
        "numberOfBytes": "32",
        "value": "t_uint256"
      },
      "t_struct(Reward)5571_storage": {
        "encoding": "inplace",
        "label": "struct DividenDistributorV1.Reward",
        "members": [
          {
            "astId": 5552,
            "contract": "contracts/DividenDistributor/DividenDistributorV1.sol:DividenDistributorV1",
            "label": "rewardAmount",
            "offset": 0,
            "slot": "0",
            "type": "t_uint256"
          },
          {
            "astId": 5554,
            "contract": "contracts/DividenDistributor/DividenDistributorV1.sol:DividenDistributorV1",
            "label": "totalClaimed",
            "offset": 0,
            "slot": "1",
            "type": "t_uint256"
          },
          {
            "astId": 5556,
            "contract": "contracts/DividenDistributor/DividenDistributorV1.sol:DividenDistributorV1",
            "label": "issuedAt",
            "offset": 0,
            "slot": "2",
            "type": "t_uint256"
          },
          {
            "astId": 5558,
            "contract": "contracts/DividenDistributor/DividenDistributorV1.sol:DividenDistributorV1",
            "label": "snapshotId",
            "offset": 0,
            "slot": "3",
            "type": "t_uint256"
          },
          {
            "astId": 5560,
            "contract": "contracts/DividenDistributor/DividenDistributorV1.sol:DividenDistributorV1",
            "label": "totalExcludedFromSupply",
            "offset": 0,
            "slot": "4",
            "type": "t_uint256"
          },
          {
            "astId": 5562,
            "contract": "contracts/DividenDistributor/DividenDistributorV1.sol:DividenDistributorV1",
            "label": "rewardSource",
            "offset": 0,
            "slot": "5",
            "type": "t_uint8"
          },
          {
            "astId": 5566,
            "contract": "contracts/DividenDistributor/DividenDistributorV1.sol:DividenDistributorV1",
            "label": "isExcludedFromReward",
            "offset": 0,
            "slot": "6",
            "type": "t_mapping(t_address,t_bool)"
          },
          {
            "astId": 5570,
            "contract": "contracts/DividenDistributor/DividenDistributorV1.sol:DividenDistributorV1",
            "label": "rewardClaimed",
            "offset": 0,
            "slot": "7",
            "type": "t_mapping(t_address,t_bool)"
          }
        ],
        "numberOfBytes": "256"
      },
      "t_struct(RoleData)43_storage": {
        "encoding": "inplace",
        "label": "struct AccessControlUpgradeable.RoleData",
        "members": [
          {
            "astId": 40,
            "contract": "contracts/DividenDistributor/DividenDistributorV1.sol:DividenDistributorV1",
            "label": "members",
            "offset": 0,
            "slot": "0",
            "type": "t_mapping(t_address,t_bool)"
          },
          {
            "astId": 42,
            "contract": "contracts/DividenDistributor/DividenDistributorV1.sol:DividenDistributorV1",
            "label": "adminRole",
            "offset": 0,
            "slot": "1",
            "type": "t_bytes32"
          }
        ],
        "numberOfBytes": "64"
      },
      "t_uint256": {
        "encoding": "inplace",
        "label": "uint256",
        "numberOfBytes": "32"
      },
      "t_uint8": {
        "encoding": "inplace",
        "label": "uint8",
        "numberOfBytes": "1"
      }
    }
  }
}